{
	"demo_erc721.sol": {
		"FancyNFT": {
			"abi": [
				{
					"inputs": [
						{
							"internalType": "address",
							"name": "initialOwner",
							"type": "address"
						}
					],
					"stateMutability": "nonpayable",
					"type": "constructor"
				},
				{
					"inputs": [
						{
							"internalType": "address",
							"name": "sender",
							"type": "address"
						},
						{
							"internalType": "uint256",
							"name": "tokenId",
							"type": "uint256"
						},
						{
							"internalType": "address",
							"name": "owner",
							"type": "address"
						}
					],
					"name": "ERC721IncorrectOwner",
					"type": "error"
				},
				{
					"inputs": [
						{
							"internalType": "address",
							"name": "operator",
							"type": "address"
						},
						{
							"internalType": "uint256",
							"name": "tokenId",
							"type": "uint256"
						}
					],
					"name": "ERC721InsufficientApproval",
					"type": "error"
				},
				{
					"inputs": [
						{
							"internalType": "address",
							"name": "approver",
							"type": "address"
						}
					],
					"name": "ERC721InvalidApprover",
					"type": "error"
				},
				{
					"inputs": [
						{
							"internalType": "address",
							"name": "operator",
							"type": "address"
						}
					],
					"name": "ERC721InvalidOperator",
					"type": "error"
				},
				{
					"inputs": [
						{
							"internalType": "address",
							"name": "owner",
							"type": "address"
						}
					],
					"name": "ERC721InvalidOwner",
					"type": "error"
				},
				{
					"inputs": [
						{
							"internalType": "address",
							"name": "receiver",
							"type": "address"
						}
					],
					"name": "ERC721InvalidReceiver",
					"type": "error"
				},
				{
					"inputs": [
						{
							"internalType": "address",
							"name": "sender",
							"type": "address"
						}
					],
					"name": "ERC721InvalidSender",
					"type": "error"
				},
				{
					"inputs": [
						{
							"internalType": "uint256",
							"name": "tokenId",
							"type": "uint256"
						}
					],
					"name": "ERC721NonexistentToken",
					"type": "error"
				},
				{
					"inputs": [
						{
							"internalType": "address",
							"name": "owner",
							"type": "address"
						}
					],
					"name": "OwnableInvalidOwner",
					"type": "error"
				},
				{
					"inputs": [
						{
							"internalType": "address",
							"name": "account",
							"type": "address"
						}
					],
					"name": "OwnableUnauthorizedAccount",
					"type": "error"
				},
				{
					"anonymous": false,
					"inputs": [
						{
							"indexed": true,
							"internalType": "address",
							"name": "owner",
							"type": "address"
						},
						{
							"indexed": true,
							"internalType": "address",
							"name": "approved",
							"type": "address"
						},
						{
							"indexed": true,
							"internalType": "uint256",
							"name": "tokenId",
							"type": "uint256"
						}
					],
					"name": "Approval",
					"type": "event"
				},
				{
					"anonymous": false,
					"inputs": [
						{
							"indexed": true,
							"internalType": "address",
							"name": "owner",
							"type": "address"
						},
						{
							"indexed": true,
							"internalType": "address",
							"name": "operator",
							"type": "address"
						},
						{
							"indexed": false,
							"internalType": "bool",
							"name": "approved",
							"type": "bool"
						}
					],
					"name": "ApprovalForAll",
					"type": "event"
				},
				{
					"anonymous": false,
					"inputs": [
						{
							"indexed": false,
							"internalType": "uint256",
							"name": "_fromTokenId",
							"type": "uint256"
						},
						{
							"indexed": false,
							"internalType": "uint256",
							"name": "_toTokenId",
							"type": "uint256"
						}
					],
					"name": "BatchMetadataUpdate",
					"type": "event"
				},
				{
					"anonymous": false,
					"inputs": [
						{
							"indexed": false,
							"internalType": "uint256",
							"name": "_tokenId",
							"type": "uint256"
						}
					],
					"name": "MetadataUpdate",
					"type": "event"
				},
				{
					"anonymous": false,
					"inputs": [
						{
							"indexed": true,
							"internalType": "address",
							"name": "previousOwner",
							"type": "address"
						},
						{
							"indexed": true,
							"internalType": "address",
							"name": "newOwner",
							"type": "address"
						}
					],
					"name": "OwnershipTransferred",
					"type": "event"
				},
				{
					"anonymous": false,
					"inputs": [
						{
							"indexed": true,
							"internalType": "address",
							"name": "from",
							"type": "address"
						},
						{
							"indexed": true,
							"internalType": "address",
							"name": "to",
							"type": "address"
						},
						{
							"indexed": true,
							"internalType": "uint256",
							"name": "tokenId",
							"type": "uint256"
						}
					],
					"name": "Transfer",
					"type": "event"
				},
				{
					"inputs": [
						{
							"internalType": "uint256",
							"name": "tokenId",
							"type": "uint256"
						},
						{
							"internalType": "uint256",
							"name": "xp",
							"type": "uint256"
						}
					],
					"name": "addXP",
					"outputs": [],
					"stateMutability": "nonpayable",
					"type": "function"
				},
				{
					"inputs": [
						{
							"internalType": "address",
							"name": "to",
							"type": "address"
						},
						{
							"internalType": "uint256",
							"name": "tokenId",
							"type": "uint256"
						}
					],
					"name": "approve",
					"outputs": [],
					"stateMutability": "nonpayable",
					"type": "function"
				},
				{
					"inputs": [
						{
							"internalType": "address",
							"name": "owner",
							"type": "address"
						}
					],
					"name": "balanceOf",
					"outputs": [
						{
							"internalType": "uint256",
							"name": "",
							"type": "uint256"
						}
					],
					"stateMutability": "view",
					"type": "function"
				},
				{
					"inputs": [
						{
							"internalType": "address",
							"name": "to",
							"type": "address"
						},
						{
							"internalType": "uint256[]",
							"name": "tokenIds",
							"type": "uint256[]"
						},
						{
							"internalType": "string[]",
							"name": "uris",
							"type": "string[]"
						}
					],
					"name": "batchMint",
					"outputs": [],
					"stateMutability": "nonpayable",
					"type": "function"
				},
				{
					"inputs": [
						{
							"internalType": "uint256",
							"name": "tokenId",
							"type": "uint256"
						}
					],
					"name": "burn",
					"outputs": [],
					"stateMutability": "nonpayable",
					"type": "function"
				},
				{
					"inputs": [
						{
							"internalType": "uint256",
							"name": "tokenId",
							"type": "uint256"
						}
					],
					"name": "getApproved",
					"outputs": [
						{
							"internalType": "address",
							"name": "",
							"type": "address"
						}
					],
					"stateMutability": "view",
					"type": "function"
				},
				{
					"inputs": [
						{
							"internalType": "address",
							"name": "owner",
							"type": "address"
						},
						{
							"internalType": "address",
							"name": "operator",
							"type": "address"
						}
					],
					"name": "isApprovedForAll",
					"outputs": [
						{
							"internalType": "bool",
							"name": "",
							"type": "bool"
						}
					],
					"stateMutability": "view",
					"type": "function"
				},
				{
					"inputs": [],
					"name": "name",
					"outputs": [
						{
							"internalType": "string",
							"name": "",
							"type": "string"
						}
					],
					"stateMutability": "view",
					"type": "function"
				},
				{
					"inputs": [],
					"name": "owner",
					"outputs": [
						{
							"internalType": "address",
							"name": "",
							"type": "address"
						}
					],
					"stateMutability": "view",
					"type": "function"
				},
				{
					"inputs": [
						{
							"internalType": "uint256",
							"name": "tokenId",
							"type": "uint256"
						}
					],
					"name": "ownerOf",
					"outputs": [
						{
							"internalType": "address",
							"name": "",
							"type": "address"
						}
					],
					"stateMutability": "view",
					"type": "function"
				},
				{
					"inputs": [],
					"name": "renounceOwnership",
					"outputs": [],
					"stateMutability": "nonpayable",
					"type": "function"
				},
				{
					"inputs": [
						{
							"internalType": "uint256",
							"name": "salePrice",
							"type": "uint256"
						}
					],
					"name": "royaltyInfo",
					"outputs": [
						{
							"internalType": "address",
							"name": "receiver",
							"type": "address"
						},
						{
							"internalType": "uint256",
							"name": "royaltyAmount",
							"type": "uint256"
						}
					],
					"stateMutability": "view",
					"type": "function"
				},
				{
					"inputs": [],
					"name": "royaltyPercentage",
					"outputs": [
						{
							"internalType": "uint256",
							"name": "",
							"type": "uint256"
						}
					],
					"stateMutability": "view",
					"type": "function"
				},
				{
					"inputs": [
						{
							"internalType": "address",
							"name": "to",
							"type": "address"
						},
						{
							"internalType": "string",
							"name": "uri",
							"type": "string"
						},
						{
							"internalType": "uint256",
							"name": "categoryId",
							"type": "uint256"
						},
						{
							"internalType": "uint256",
							"name": "rarityLevel",
							"type": "uint256"
						}
					],
					"name": "safeMint",
					"outputs": [],
					"stateMutability": "nonpayable",
					"type": "function"
				},
				{
					"inputs": [
						{
							"internalType": "address",
							"name": "from",
							"type": "address"
						},
						{
							"internalType": "address",
							"name": "to",
							"type": "address"
						},
						{
							"internalType": "uint256",
							"name": "tokenId",
							"type": "uint256"
						}
					],
					"name": "safeTransferFrom",
					"outputs": [],
					"stateMutability": "nonpayable",
					"type": "function"
				},
				{
					"inputs": [
						{
							"internalType": "address",
							"name": "from",
							"type": "address"
						},
						{
							"internalType": "address",
							"name": "to",
							"type": "address"
						},
						{
							"internalType": "uint256",
							"name": "tokenId",
							"type": "uint256"
						},
						{
							"internalType": "bytes",
							"name": "data",
							"type": "bytes"
						}
					],
					"name": "safeTransferFrom",
					"outputs": [],
					"stateMutability": "nonpayable",
					"type": "function"
				},
				{
					"inputs": [
						{
							"internalType": "address",
							"name": "operator",
							"type": "address"
						},
						{
							"internalType": "bool",
							"name": "approved",
							"type": "bool"
						}
					],
					"name": "setApprovalForAll",
					"outputs": [],
					"stateMutability": "nonpayable",
					"type": "function"
				},
				{
					"inputs": [
						{
							"internalType": "bytes4",
							"name": "interfaceId",
							"type": "bytes4"
						}
					],
					"name": "supportsInterface",
					"outputs": [
						{
							"internalType": "bool",
							"name": "",
							"type": "bool"
						}
					],
					"stateMutability": "view",
					"type": "function"
				},
				{
					"inputs": [],
					"name": "symbol",
					"outputs": [
						{
							"internalType": "string",
							"name": "",
							"type": "string"
						}
					],
					"stateMutability": "view",
					"type": "function"
				},
				{
					"inputs": [
						{
							"internalType": "uint256",
							"name": "tokenId",
							"type": "uint256"
						}
					],
					"name": "tokenURI",
					"outputs": [
						{
							"internalType": "string",
							"name": "",
							"type": "string"
						}
					],
					"stateMutability": "view",
					"type": "function"
				},
				{
					"inputs": [
						{
							"internalType": "uint256",
							"name": "",
							"type": "uint256"
						}
					],
					"name": "tokenXP",
					"outputs": [
						{
							"internalType": "uint256",
							"name": "",
							"type": "uint256"
						}
					],
					"stateMutability": "view",
					"type": "function"
				},
				{
					"inputs": [
						{
							"internalType": "address",
							"name": "from",
							"type": "address"
						},
						{
							"internalType": "address",
							"name": "to",
							"type": "address"
						},
						{
							"internalType": "uint256",
							"name": "tokenId",
							"type": "uint256"
						}
					],
					"name": "transferFrom",
					"outputs": [],
					"stateMutability": "nonpayable",
					"type": "function"
				},
				{
					"inputs": [
						{
							"internalType": "address",
							"name": "newOwner",
							"type": "address"
						}
					],
					"name": "transferOwnership",
					"outputs": [],
					"stateMutability": "nonpayable",
					"type": "function"
				}
			],
			"devdoc": {
				"errors": {
					"ERC721IncorrectOwner(address,uint256,address)": [
						{
							"details": "Indicates an error related to the ownership over a particular token. Used in transfers.",
							"params": {
								"owner": "Address of the current owner of a token.",
								"sender": "Address whose tokens are being transferred.",
								"tokenId": "Identifier number of a token."
							}
						}
					],
					"ERC721InsufficientApproval(address,uint256)": [
						{
							"details": "Indicates a failure with the `operator`’s approval. Used in transfers.",
							"params": {
								"operator": "Address that may be allowed to operate on tokens without being their owner.",
								"tokenId": "Identifier number of a token."
							}
						}
					],
					"ERC721InvalidApprover(address)": [
						{
							"details": "Indicates a failure with the `approver` of a token to be approved. Used in approvals.",
							"params": {
								"approver": "Address initiating an approval operation."
							}
						}
					],
					"ERC721InvalidOperator(address)": [
						{
							"details": "Indicates a failure with the `operator` to be approved. Used in approvals.",
							"params": {
								"operator": "Address that may be allowed to operate on tokens without being their owner."
							}
						}
					],
					"ERC721InvalidOwner(address)": [
						{
							"details": "Indicates that an address can't be an owner. For example, `address(0)` is a forbidden owner in EIP-20. Used in balance queries.",
							"params": {
								"owner": "Address of the current owner of a token."
							}
						}
					],
					"ERC721InvalidReceiver(address)": [
						{
							"details": "Indicates a failure with the token `receiver`. Used in transfers.",
							"params": {
								"receiver": "Address to which tokens are being transferred."
							}
						}
					],
					"ERC721InvalidSender(address)": [
						{
							"details": "Indicates a failure with the token `sender`. Used in transfers.",
							"params": {
								"sender": "Address whose tokens are being transferred."
							}
						}
					],
					"ERC721NonexistentToken(uint256)": [
						{
							"details": "Indicates a `tokenId` whose `owner` is the zero address.",
							"params": {
								"tokenId": "Identifier number of a token."
							}
						}
					],
					"OwnableInvalidOwner(address)": [
						{
							"details": "The owner is not a valid owner account. (eg. `address(0)`)"
						}
					],
					"OwnableUnauthorizedAccount(address)": [
						{
							"details": "The caller account is not authorized to perform an operation."
						}
					]
				},
				"events": {
					"Approval(address,address,uint256)": {
						"details": "Emitted when `owner` enables `approved` to manage the `tokenId` token."
					},
					"ApprovalForAll(address,address,bool)": {
						"details": "Emitted when `owner` enables or disables (`approved`) `operator` to manage all of its assets."
					},
					"BatchMetadataUpdate(uint256,uint256)": {
						"details": "This event emits when the metadata of a range of tokens is changed. So that the third-party platforms such as NFT market could timely update the images and related attributes of the NFTs."
					},
					"MetadataUpdate(uint256)": {
						"details": "This event emits when the metadata of a token is changed. So that the third-party platforms such as NFT market could timely update the images and related attributes of the NFT."
					},
					"Transfer(address,address,uint256)": {
						"details": "Emitted when `tokenId` token is transferred from `from` to `to`."
					}
				},
				"kind": "dev",
				"methods": {
					"approve(address,uint256)": {
						"details": "See {IERC721-approve}."
					},
					"balanceOf(address)": {
						"details": "See {IERC721-balanceOf}."
					},
					"burn(uint256)": {
						"details": "Burns `tokenId`. See {ERC721-_burn}. Requirements: - The caller must own `tokenId` or be an approved operator."
					},
					"getApproved(uint256)": {
						"details": "See {IERC721-getApproved}."
					},
					"isApprovedForAll(address,address)": {
						"details": "See {IERC721-isApprovedForAll}."
					},
					"name()": {
						"details": "See {IERC721Metadata-name}."
					},
					"owner()": {
						"details": "Returns the address of the current owner."
					},
					"ownerOf(uint256)": {
						"details": "See {IERC721-ownerOf}."
					},
					"renounceOwnership()": {
						"details": "Leaves the contract without owner. It will not be possible to call `onlyOwner` functions. Can only be called by the current owner. NOTE: Renouncing ownership will leave the contract without an owner, thereby disabling any functionality that is only available to the owner."
					},
					"safeTransferFrom(address,address,uint256)": {
						"details": "See {IERC721-safeTransferFrom}."
					},
					"safeTransferFrom(address,address,uint256,bytes)": {
						"details": "See {IERC721-safeTransferFrom}."
					},
					"setApprovalForAll(address,bool)": {
						"details": "See {IERC721-setApprovalForAll}."
					},
					"symbol()": {
						"details": "See {IERC721Metadata-symbol}."
					},
					"transferFrom(address,address,uint256)": {
						"details": "See {IERC721-transferFrom}."
					},
					"transferOwnership(address)": {
						"details": "Transfers ownership of the contract to a new account (`newOwner`). Can only be called by the current owner."
					}
				},
				"version": 1
			},
			"evm": {
				"assembly": "    /* \"demo_erc721.sol\":414:2599  contract FancyNFT is ERC721, ERC721URIStorage, ERC721Burnable, Ownable {... */\n  mstore(0x40, 0x80)\n    /* \"demo_erc721.sol\":526:529  500 */\n  0x01f4\n    /* \"demo_erc721.sol\":491:529  uint256 public royaltyPercentage = 500 */\n  0x08\n  sstore\n    /* \"demo_erc721.sol\":601:685  constructor(address initialOwner) ERC721(\"FancyNFT\", \"FNT\") Ownable(initialOwner) {} */\n  callvalue\n  dup1\n  iszero\n  tag_1\n  jumpi\n  0x00\n  dup1\n  revert\ntag_1:\n  pop\n  mload(0x40)\n  sub(codesize, bytecodeSize)\n  dup1\n  bytecodeSize\n  dup4\n  codecopy\n  dup2\n  dup2\n  add\n  0x40\n  mstore\n  dup2\n  add\n  swap1\n  tag_2\n  swap2\n  swap1\n  tag_3\n  jump\t// in\ntag_2:\n    /* \"demo_erc721.sol\":669:681  initialOwner */\n  dup1\n    /* \"@openzeppelin/contracts@5.0.0/token/ERC721/ERC721.sol\":1381:1494  constructor(string memory name_, string memory symbol_) {... */\n  mload(0x40)\n  dup1\n  0x40\n  add\n  0x40\n  mstore\n  dup1\n  0x08\n  dup2\n  mstore\n  0x20\n  add\n  0x46616e63794e4654000000000000000000000000000000000000000000000000\n  dup2\n  mstore\n  pop\n  mload(0x40)\n  dup1\n  0x40\n  add\n  0x40\n  mstore\n  dup1\n  0x03\n  dup2\n  mstore\n  0x20\n  add\n  0x464e540000000000000000000000000000000000000000000000000000000000\n  dup2\n  mstore\n  pop\n    /* \"@openzeppelin/contracts@5.0.0/token/ERC721/ERC721.sol\":1455:1460  name_ */\n  dup2\n    /* \"@openzeppelin/contracts@5.0.0/token/ERC721/ERC721.sol\":1447:1452  _name */\n  0x00\n    /* \"@openzeppelin/contracts@5.0.0/token/ERC721/ERC721.sol\":1447:1460  _name = name_ */\n  swap1\n  dup2\n  tag_8\n  swap2\n  swap1\n  tag_9\n  jump\t// in\ntag_8:\n  pop\n    /* \"@openzeppelin/contracts@5.0.0/token/ERC721/ERC721.sol\":1480:1487  symbol_ */\n  dup1\n    /* \"@openzeppelin/contracts@5.0.0/token/ERC721/ERC721.sol\":1470:1477  _symbol */\n  0x01\n    /* \"@openzeppelin/contracts@5.0.0/token/ERC721/ERC721.sol\":1470:1487  _symbol = symbol_ */\n  swap1\n  dup2\n  tag_10\n  swap2\n  swap1\n  tag_9\n  jump\t// in\ntag_10:\n  pop\n    /* \"@openzeppelin/contracts@5.0.0/token/ERC721/ERC721.sol\":1381:1494  constructor(string memory name_, string memory symbol_) {... */\n  pop\n  pop\n    /* \"@openzeppelin/contracts@5.0.0/access/Ownable.sol\":1297:1298  0 */\n  0x00\n    /* \"@openzeppelin/contracts@5.0.0/access/Ownable.sol\":1273:1299  initialOwner == address(0) */\n  0xffffffffffffffffffffffffffffffffffffffff\n  and\n    /* \"@openzeppelin/contracts@5.0.0/access/Ownable.sol\":1273:1285  initialOwner */\n  dup2\n    /* \"@openzeppelin/contracts@5.0.0/access/Ownable.sol\":1273:1299  initialOwner == address(0) */\n  0xffffffffffffffffffffffffffffffffffffffff\n  and\n  sub\n    /* \"@openzeppelin/contracts@5.0.0/access/Ownable.sol\":1269:1364  if (initialOwner == address(0)) {... */\n  tag_12\n  jumpi\n    /* \"@openzeppelin/contracts@5.0.0/access/Ownable.sol\":1350:1351  0 */\n  0x00\n    /* \"@openzeppelin/contracts@5.0.0/access/Ownable.sol\":1322:1353  OwnableInvalidOwner(address(0)) */\n  mload(0x40)\n  0x1e4fbdf700000000000000000000000000000000000000000000000000000000\n  dup2\n  mstore\n  0x04\n  add\n  tag_13\n  swap2\n  swap1\n  tag_14\n  jump\t// in\ntag_13:\n  mload(0x40)\n  dup1\n  swap2\n  sub\n  swap1\n  revert\n    /* \"@openzeppelin/contracts@5.0.0/access/Ownable.sol\":1269:1364  if (initialOwner == address(0)) {... */\ntag_12:\n    /* \"@openzeppelin/contracts@5.0.0/access/Ownable.sol\":1373:1405  _transferOwnership(initialOwner) */\n  tag_15\n    /* \"@openzeppelin/contracts@5.0.0/access/Ownable.sol\":1392:1404  initialOwner */\n  dup2\n    /* \"@openzeppelin/contracts@5.0.0/access/Ownable.sol\":1373:1391  _transferOwnership */\n  shl(0x20, tag_16)\n    /* \"@openzeppelin/contracts@5.0.0/access/Ownable.sol\":1373:1405  _transferOwnership(initialOwner) */\n  0x20\n  shr\n  jump\t// in\ntag_15:\n    /* \"@openzeppelin/contracts@5.0.0/access/Ownable.sol\":1225:1412  constructor(address initialOwner) {... */\n  pop\n    /* \"demo_erc721.sol\":601:685  constructor(address initialOwner) ERC721(\"FancyNFT\", \"FNT\") Ownable(initialOwner) {} */\n  pop\n    /* \"demo_erc721.sol\":414:2599  contract FancyNFT is ERC721, ERC721URIStorage, ERC721Burnable, Ownable {... */\n  jump(tag_18)\n    /* \"@openzeppelin/contracts@5.0.0/access/Ownable.sol\":2912:3099  function _transferOwnership(address newOwner) internal virtual {... */\ntag_16:\n    /* \"@openzeppelin/contracts@5.0.0/access/Ownable.sol\":2985:3001  address oldOwner */\n  0x00\n    /* \"@openzeppelin/contracts@5.0.0/access/Ownable.sol\":3004:3010  _owner */\n  0x07\n  0x00\n  swap1\n  sload\n  swap1\n  0x0100\n  exp\n  swap1\n  div\n  0xffffffffffffffffffffffffffffffffffffffff\n  and\n    /* \"@openzeppelin/contracts@5.0.0/access/Ownable.sol\":2985:3010  address oldOwner = _owner */\n  swap1\n  pop\n    /* \"@openzeppelin/contracts@5.0.0/access/Ownable.sol\":3029:3037  newOwner */\n  dup2\n    /* \"@openzeppelin/contracts@5.0.0/access/Ownable.sol\":3020:3026  _owner */\n  0x07\n  0x00\n    /* \"@openzeppelin/contracts@5.0.0/access/Ownable.sol\":3020:3037  _owner = newOwner */\n  0x0100\n  exp\n  dup2\n  sload\n  dup2\n  0xffffffffffffffffffffffffffffffffffffffff\n  mul\n  not\n  and\n  swap1\n  dup4\n  0xffffffffffffffffffffffffffffffffffffffff\n  and\n  mul\n  or\n  swap1\n  sstore\n  pop\n    /* \"@openzeppelin/contracts@5.0.0/access/Ownable.sol\":3083:3091  newOwner */\n  dup2\n    /* \"@openzeppelin/contracts@5.0.0/access/Ownable.sol\":3052:3092  OwnershipTransferred(oldOwner, newOwner) */\n  0xffffffffffffffffffffffffffffffffffffffff\n  and\n    /* \"@openzeppelin/contracts@5.0.0/access/Ownable.sol\":3073:3081  oldOwner */\n  dup2\n    /* \"@openzeppelin/contracts@5.0.0/access/Ownable.sol\":3052:3092  OwnershipTransferred(oldOwner, newOwner) */\n  0xffffffffffffffffffffffffffffffffffffffff\n  and\n  0x8be0079c531659141344cd1fd0a4f28419497f9722a3daafe3b4186f6b6457e0\n  mload(0x40)\n  mload(0x40)\n  dup1\n  swap2\n  sub\n  swap1\n  log3\n    /* \"@openzeppelin/contracts@5.0.0/access/Ownable.sol\":2975:3099  {... */\n  pop\n    /* \"@openzeppelin/contracts@5.0.0/access/Ownable.sol\":2912:3099  function _transferOwnership(address newOwner) internal virtual {... */\n  pop\n  jump\t// out\n    /* \"#utility.yul\":88:205   */\ntag_21:\n    /* \"#utility.yul\":197:198   */\n  0x00\n    /* \"#utility.yul\":194:195   */\n  dup1\n    /* \"#utility.yul\":187:199   */\n  revert\n    /* \"#utility.yul\":334:460   */\ntag_23:\n    /* \"#utility.yul\":371:378   */\n  0x00\n    /* \"#utility.yul\":411:453   */\n  0xffffffffffffffffffffffffffffffffffffffff\n    /* \"#utility.yul\":404:409   */\n  dup3\n    /* \"#utility.yul\":400:454   */\n  and\n    /* \"#utility.yul\":389:454   */\n  swap1\n  pop\n    /* \"#utility.yul\":334:460   */\n  swap2\n  swap1\n  pop\n  jump\t// out\n    /* \"#utility.yul\":466:562   */\ntag_24:\n    /* \"#utility.yul\":503:510   */\n  0x00\n    /* \"#utility.yul\":532:556   */\n  tag_54\n    /* \"#utility.yul\":550:555   */\n  dup3\n    /* \"#utility.yul\":532:556   */\n  tag_23\n  jump\t// in\ntag_54:\n    /* \"#utility.yul\":521:556   */\n  swap1\n  pop\n    /* \"#utility.yul\":466:562   */\n  swap2\n  swap1\n  pop\n  jump\t// out\n    /* \"#utility.yul\":568:690   */\ntag_25:\n    /* \"#utility.yul\":641:665   */\n  tag_56\n    /* \"#utility.yul\":659:664   */\n  dup2\n    /* \"#utility.yul\":641:665   */\n  tag_24\n  jump\t// in\ntag_56:\n    /* \"#utility.yul\":634:639   */\n  dup2\n    /* \"#utility.yul\":631:666   */\n  eq\n    /* \"#utility.yul\":621:684   */\n  tag_57\n  jumpi\n    /* \"#utility.yul\":680:681   */\n  0x00\n    /* \"#utility.yul\":677:678   */\n  dup1\n    /* \"#utility.yul\":670:682   */\n  revert\n    /* \"#utility.yul\":621:684   */\ntag_57:\n    /* \"#utility.yul\":568:690   */\n  pop\n  jump\t// out\n    /* \"#utility.yul\":696:839   */\ntag_26:\n    /* \"#utility.yul\":753:758   */\n  0x00\n    /* \"#utility.yul\":784:790   */\n  dup2\n    /* \"#utility.yul\":778:791   */\n  mload\n    /* \"#utility.yul\":769:791   */\n  swap1\n  pop\n    /* \"#utility.yul\":800:833   */\n  tag_59\n    /* \"#utility.yul\":827:832   */\n  dup2\n    /* \"#utility.yul\":800:833   */\n  tag_25\n  jump\t// in\ntag_59:\n    /* \"#utility.yul\":696:839   */\n  swap3\n  swap2\n  pop\n  pop\n  jump\t// out\n    /* \"#utility.yul\":845:1196   */\ntag_3:\n    /* \"#utility.yul\":915:921   */\n  0x00\n    /* \"#utility.yul\":964:966   */\n  0x20\n    /* \"#utility.yul\":952:961   */\n  dup3\n    /* \"#utility.yul\":943:950   */\n  dup5\n    /* \"#utility.yul\":939:962   */\n  sub\n    /* \"#utility.yul\":935:967   */\n  slt\n    /* \"#utility.yul\":932:1051   */\n  iszero\n  tag_61\n  jumpi\n    /* \"#utility.yul\":970:1049   */\n  tag_62\n  tag_21\n  jump\t// in\ntag_62:\n    /* \"#utility.yul\":932:1051   */\ntag_61:\n    /* \"#utility.yul\":1090:1091   */\n  0x00\n    /* \"#utility.yul\":1115:1179   */\n  tag_63\n    /* \"#utility.yul\":1171:1178   */\n  dup5\n    /* \"#utility.yul\":1162:1168   */\n  dup3\n    /* \"#utility.yul\":1151:1160   */\n  dup6\n    /* \"#utility.yul\":1147:1169   */\n  add\n    /* \"#utility.yul\":1115:1179   */\n  tag_26\n  jump\t// in\ntag_63:\n    /* \"#utility.yul\":1105:1179   */\n  swap2\n  pop\n    /* \"#utility.yul\":1061:1189   */\n  pop\n    /* \"#utility.yul\":845:1196   */\n  swap3\n  swap2\n  pop\n  pop\n  jump\t// out\n    /* \"#utility.yul\":1202:1301   */\ntag_27:\n    /* \"#utility.yul\":1254:1260   */\n  0x00\n    /* \"#utility.yul\":1288:1293   */\n  dup2\n    /* \"#utility.yul\":1282:1294   */\n  mload\n    /* \"#utility.yul\":1272:1294   */\n  swap1\n  pop\n    /* \"#utility.yul\":1202:1301   */\n  swap2\n  swap1\n  pop\n  jump\t// out\n    /* \"#utility.yul\":1307:1487   */\ntag_28:\n    /* \"#utility.yul\":1355:1432   */\n  0x4e487b7100000000000000000000000000000000000000000000000000000000\n    /* \"#utility.yul\":1352:1353   */\n  0x00\n    /* \"#utility.yul\":1345:1433   */\n  mstore\n    /* \"#utility.yul\":1452:1456   */\n  0x41\n    /* \"#utility.yul\":1449:1450   */\n  0x04\n    /* \"#utility.yul\":1442:1457   */\n  mstore\n    /* \"#utility.yul\":1476:1480   */\n  0x24\n    /* \"#utility.yul\":1473:1474   */\n  0x00\n    /* \"#utility.yul\":1466:1481   */\n  revert\n    /* \"#utility.yul\":1493:1673   */\ntag_29:\n    /* \"#utility.yul\":1541:1618   */\n  0x4e487b7100000000000000000000000000000000000000000000000000000000\n    /* \"#utility.yul\":1538:1539   */\n  0x00\n    /* \"#utility.yul\":1531:1619   */\n  mstore\n    /* \"#utility.yul\":1638:1642   */\n  0x22\n    /* \"#utility.yul\":1635:1636   */\n  0x04\n    /* \"#utility.yul\":1628:1643   */\n  mstore\n    /* \"#utility.yul\":1662:1666   */\n  0x24\n    /* \"#utility.yul\":1659:1660   */\n  0x00\n    /* \"#utility.yul\":1652:1667   */\n  revert\n    /* \"#utility.yul\":1679:1999   */\ntag_30:\n    /* \"#utility.yul\":1723:1729   */\n  0x00\n    /* \"#utility.yul\":1760:1761   */\n  0x02\n    /* \"#utility.yul\":1754:1758   */\n  dup3\n    /* \"#utility.yul\":1750:1762   */\n  div\n    /* \"#utility.yul\":1740:1762   */\n  swap1\n  pop\n    /* \"#utility.yul\":1807:1808   */\n  0x01\n    /* \"#utility.yul\":1801:1805   */\n  dup3\n    /* \"#utility.yul\":1797:1809   */\n  and\n    /* \"#utility.yul\":1828:1846   */\n  dup1\n    /* \"#utility.yul\":1818:1899   */\n  tag_68\n  jumpi\n    /* \"#utility.yul\":1884:1888   */\n  0x7f\n    /* \"#utility.yul\":1876:1882   */\n  dup3\n    /* \"#utility.yul\":1872:1889   */\n  and\n    /* \"#utility.yul\":1862:1889   */\n  swap2\n  pop\n    /* \"#utility.yul\":1818:1899   */\ntag_68:\n    /* \"#utility.yul\":1946:1948   */\n  0x20\n    /* \"#utility.yul\":1938:1944   */\n  dup3\n    /* \"#utility.yul\":1935:1949   */\n  lt\n    /* \"#utility.yul\":1915:1933   */\n  dup2\n    /* \"#utility.yul\":1912:1950   */\n  sub\n    /* \"#utility.yul\":1909:1993   */\n  tag_69\n  jumpi\n    /* \"#utility.yul\":1965:1983   */\n  tag_70\n  tag_29\n  jump\t// in\ntag_70:\n    /* \"#utility.yul\":1909:1993   */\ntag_69:\n    /* \"#utility.yul\":1730:1999   */\n  pop\n    /* \"#utility.yul\":1679:1999   */\n  swap2\n  swap1\n  pop\n  jump\t// out\n    /* \"#utility.yul\":2005:2146   */\ntag_31:\n    /* \"#utility.yul\":2054:2058   */\n  0x00\n    /* \"#utility.yul\":2077:2080   */\n  dup2\n    /* \"#utility.yul\":2069:2080   */\n  swap1\n  pop\n    /* \"#utility.yul\":2100:2103   */\n  dup2\n    /* \"#utility.yul\":2097:2098   */\n  0x00\n    /* \"#utility.yul\":2090:2104   */\n  mstore\n    /* \"#utility.yul\":2134:2138   */\n  0x20\n    /* \"#utility.yul\":2131:2132   */\n  0x00\n    /* \"#utility.yul\":2121:2139   */\n  keccak256\n    /* \"#utility.yul\":2113:2139   */\n  swap1\n  pop\n    /* \"#utility.yul\":2005:2146   */\n  swap2\n  swap1\n  pop\n  jump\t// out\n    /* \"#utility.yul\":2152:2245   */\ntag_32:\n    /* \"#utility.yul\":2189:2195   */\n  0x00\n    /* \"#utility.yul\":2236:2238   */\n  0x20\n    /* \"#utility.yul\":2231:2233   */\n  0x1f\n    /* \"#utility.yul\":2224:2229   */\n  dup4\n    /* \"#utility.yul\":2220:2234   */\n  add\n    /* \"#utility.yul\":2216:2239   */\n  div\n    /* \"#utility.yul\":2206:2239   */\n  swap1\n  pop\n    /* \"#utility.yul\":2152:2245   */\n  swap2\n  swap1\n  pop\n  jump\t// out\n    /* \"#utility.yul\":2251:2358   */\ntag_33:\n    /* \"#utility.yul\":2295:2303   */\n  0x00\n    /* \"#utility.yul\":2345:2350   */\n  dup3\n    /* \"#utility.yul\":2339:2343   */\n  dup3\n    /* \"#utility.yul\":2335:2351   */\n  shl\n    /* \"#utility.yul\":2314:2351   */\n  swap1\n  pop\n    /* \"#utility.yul\":2251:2358   */\n  swap3\n  swap2\n  pop\n  pop\n  jump\t// out\n    /* \"#utility.yul\":2364:2757   */\ntag_34:\n    /* \"#utility.yul\":2433:2439   */\n  0x00\n    /* \"#utility.yul\":2483:2484   */\n  0x08\n    /* \"#utility.yul\":2471:2481   */\n  dup4\n    /* \"#utility.yul\":2467:2485   */\n  mul\n    /* \"#utility.yul\":2506:2603   */\n  tag_75\n    /* \"#utility.yul\":2536:2602   */\n  0xffffffffffffffffffffffffffffffffffffffffffffffffffffffffffffffff\n    /* \"#utility.yul\":2525:2534   */\n  dup3\n    /* \"#utility.yul\":2506:2603   */\n  tag_33\n  jump\t// in\ntag_75:\n    /* \"#utility.yul\":2624:2663   */\n  tag_76\n    /* \"#utility.yul\":2654:2662   */\n  dup7\n    /* \"#utility.yul\":2643:2652   */\n  dup4\n    /* \"#utility.yul\":2624:2663   */\n  tag_33\n  jump\t// in\ntag_76:\n    /* \"#utility.yul\":2612:2663   */\n  swap6\n  pop\n    /* \"#utility.yul\":2696:2700   */\n  dup1\n    /* \"#utility.yul\":2692:2701   */\n  not\n    /* \"#utility.yul\":2685:2690   */\n  dup5\n    /* \"#utility.yul\":2681:2702   */\n  and\n    /* \"#utility.yul\":2672:2702   */\n  swap4\n  pop\n    /* \"#utility.yul\":2745:2749   */\n  dup1\n    /* \"#utility.yul\":2735:2743   */\n  dup7\n    /* \"#utility.yul\":2731:2750   */\n  and\n    /* \"#utility.yul\":2724:2729   */\n  dup5\n    /* \"#utility.yul\":2721:2751   */\n  or\n    /* \"#utility.yul\":2711:2751   */\n  swap3\n  pop\n    /* \"#utility.yul\":2440:2757   */\n  pop\n  pop\n    /* \"#utility.yul\":2364:2757   */\n  swap4\n  swap3\n  pop\n  pop\n  pop\n  jump\t// out\n    /* \"#utility.yul\":2763:2840   */\ntag_35:\n    /* \"#utility.yul\":2800:2807   */\n  0x00\n    /* \"#utility.yul\":2829:2834   */\n  dup2\n    /* \"#utility.yul\":2818:2834   */\n  swap1\n  pop\n    /* \"#utility.yul\":2763:2840   */\n  swap2\n  swap1\n  pop\n  jump\t// out\n    /* \"#utility.yul\":2846:2906   */\ntag_36:\n    /* \"#utility.yul\":2874:2877   */\n  0x00\n    /* \"#utility.yul\":2895:2900   */\n  dup2\n    /* \"#utility.yul\":2888:2900   */\n  swap1\n  pop\n    /* \"#utility.yul\":2846:2906   */\n  swap2\n  swap1\n  pop\n  jump\t// out\n    /* \"#utility.yul\":2912:3054   */\ntag_37:\n    /* \"#utility.yul\":2962:2971   */\n  0x00\n    /* \"#utility.yul\":2995:3048   */\n  tag_80\n    /* \"#utility.yul\":3013:3047   */\n  tag_81\n    /* \"#utility.yul\":3022:3046   */\n  tag_82\n    /* \"#utility.yul\":3040:3045   */\n  dup5\n    /* \"#utility.yul\":3022:3046   */\n  tag_35\n  jump\t// in\ntag_82:\n    /* \"#utility.yul\":3013:3047   */\n  tag_36\n  jump\t// in\ntag_81:\n    /* \"#utility.yul\":2995:3048   */\n  tag_35\n  jump\t// in\ntag_80:\n    /* \"#utility.yul\":2982:3048   */\n  swap1\n  pop\n    /* \"#utility.yul\":2912:3054   */\n  swap2\n  swap1\n  pop\n  jump\t// out\n    /* \"#utility.yul\":3060:3135   */\ntag_38:\n    /* \"#utility.yul\":3103:3106   */\n  0x00\n    /* \"#utility.yul\":3124:3129   */\n  dup2\n    /* \"#utility.yul\":3117:3129   */\n  swap1\n  pop\n    /* \"#utility.yul\":3060:3135   */\n  swap2\n  swap1\n  pop\n  jump\t// out\n    /* \"#utility.yul\":3141:3410   */\ntag_39:\n    /* \"#utility.yul\":3251:3290   */\n  tag_85\n    /* \"#utility.yul\":3282:3289   */\n  dup4\n    /* \"#utility.yul\":3251:3290   */\n  tag_37\n  jump\t// in\ntag_85:\n    /* \"#utility.yul\":3312:3403   */\n  tag_86\n    /* \"#utility.yul\":3361:3402   */\n  tag_87\n    /* \"#utility.yul\":3385:3401   */\n  dup3\n    /* \"#utility.yul\":3361:3402   */\n  tag_38\n  jump\t// in\ntag_87:\n    /* \"#utility.yul\":3353:3359   */\n  dup5\n    /* \"#utility.yul\":3346:3350   */\n  dup5\n    /* \"#utility.yul\":3340:3351   */\n  sload\n    /* \"#utility.yul\":3312:3403   */\n  tag_34\n  jump\t// in\ntag_86:\n    /* \"#utility.yul\":3306:3310   */\n  dup3\n    /* \"#utility.yul\":3299:3404   */\n  sstore\n    /* \"#utility.yul\":3217:3410   */\n  pop\n    /* \"#utility.yul\":3141:3410   */\n  pop\n  pop\n  pop\n  jump\t// out\n    /* \"#utility.yul\":3416:3489   */\ntag_40:\n    /* \"#utility.yul\":3461:3464   */\n  0x00\n    /* \"#utility.yul\":3416:3489   */\n  swap1\n  jump\t// out\n    /* \"#utility.yul\":3495:3684   */\ntag_41:\n    /* \"#utility.yul\":3572:3604   */\n  tag_90\n  tag_40\n  jump\t// in\ntag_90:\n    /* \"#utility.yul\":3613:3678   */\n  tag_91\n    /* \"#utility.yul\":3671:3677   */\n  dup2\n    /* \"#utility.yul\":3663:3669   */\n  dup5\n    /* \"#utility.yul\":3657:3661   */\n  dup5\n    /* \"#utility.yul\":3613:3678   */\n  tag_39\n  jump\t// in\ntag_91:\n    /* \"#utility.yul\":3548:3684   */\n  pop\n    /* \"#utility.yul\":3495:3684   */\n  pop\n  pop\n  jump\t// out\n    /* \"#utility.yul\":3690:3876   */\ntag_42:\n    /* \"#utility.yul\":3750:3870   */\ntag_93:\n    /* \"#utility.yul\":3767:3770   */\n  dup2\n    /* \"#utility.yul\":3760:3765   */\n  dup2\n    /* \"#utility.yul\":3757:3771   */\n  lt\n    /* \"#utility.yul\":3750:3870   */\n  iszero\n  tag_95\n  jumpi\n    /* \"#utility.yul\":3821:3860   */\n  tag_96\n    /* \"#utility.yul\":3858:3859   */\n  0x00\n    /* \"#utility.yul\":3851:3856   */\n  dup3\n    /* \"#utility.yul\":3821:3860   */\n  tag_41\n  jump\t// in\ntag_96:\n    /* \"#utility.yul\":3794:3795   */\n  0x01\n    /* \"#utility.yul\":3787:3792   */\n  dup2\n    /* \"#utility.yul\":3783:3796   */\n  add\n    /* \"#utility.yul\":3774:3796   */\n  swap1\n  pop\n    /* \"#utility.yul\":3750:3870   */\n  jump(tag_93)\ntag_95:\n    /* \"#utility.yul\":3690:3876   */\n  pop\n  pop\n  jump\t// out\n    /* \"#utility.yul\":3882:4425   */\ntag_43:\n    /* \"#utility.yul\":3983:3985   */\n  0x1f\n    /* \"#utility.yul\":3978:3981   */\n  dup3\n    /* \"#utility.yul\":3975:3986   */\n  gt\n    /* \"#utility.yul\":3972:4418   */\n  iszero\n  tag_98\n  jumpi\n    /* \"#utility.yul\":4017:4055   */\n  tag_99\n    /* \"#utility.yul\":4049:4054   */\n  dup2\n    /* \"#utility.yul\":4017:4055   */\n  tag_31\n  jump\t// in\ntag_99:\n    /* \"#utility.yul\":4101:4130   */\n  tag_100\n    /* \"#utility.yul\":4119:4129   */\n  dup5\n    /* \"#utility.yul\":4101:4130   */\n  tag_32\n  jump\t// in\ntag_100:\n    /* \"#utility.yul\":4091:4099   */\n  dup2\n    /* \"#utility.yul\":4087:4131   */\n  add\n    /* \"#utility.yul\":4284:4286   */\n  0x20\n    /* \"#utility.yul\":4272:4282   */\n  dup6\n    /* \"#utility.yul\":4269:4287   */\n  lt\n    /* \"#utility.yul\":4266:4315   */\n  iszero\n  tag_101\n  jumpi\n    /* \"#utility.yul\":4305:4313   */\n  dup2\n    /* \"#utility.yul\":4290:4313   */\n  swap1\n  pop\n    /* \"#utility.yul\":4266:4315   */\ntag_101:\n    /* \"#utility.yul\":4328:4408   */\n  tag_102\n    /* \"#utility.yul\":4384:4406   */\n  tag_103\n    /* \"#utility.yul\":4402:4405   */\n  dup6\n    /* \"#utility.yul\":4384:4406   */\n  tag_32\n  jump\t// in\ntag_103:\n    /* \"#utility.yul\":4374:4382   */\n  dup4\n    /* \"#utility.yul\":4370:4407   */\n  add\n    /* \"#utility.yul\":4357:4368   */\n  dup3\n    /* \"#utility.yul\":4328:4408   */\n  tag_42\n  jump\t// in\ntag_102:\n    /* \"#utility.yul\":3987:4418   */\n  pop\n  pop\n    /* \"#utility.yul\":3972:4418   */\ntag_98:\n    /* \"#utility.yul\":3882:4425   */\n  pop\n  pop\n  pop\n  jump\t// out\n    /* \"#utility.yul\":4431:4548   */\ntag_44:\n    /* \"#utility.yul\":4485:4493   */\n  0x00\n    /* \"#utility.yul\":4535:4540   */\n  dup3\n    /* \"#utility.yul\":4529:4533   */\n  dup3\n    /* \"#utility.yul\":4525:4541   */\n  shr\n    /* \"#utility.yul\":4504:4541   */\n  swap1\n  pop\n    /* \"#utility.yul\":4431:4548   */\n  swap3\n  swap2\n  pop\n  pop\n  jump\t// out\n    /* \"#utility.yul\":4554:4723   */\ntag_45:\n    /* \"#utility.yul\":4598:4604   */\n  0x00\n    /* \"#utility.yul\":4631:4682   */\n  tag_106\n    /* \"#utility.yul\":4679:4680   */\n  0x00\n    /* \"#utility.yul\":4675:4681   */\n  not\n    /* \"#utility.yul\":4667:4672   */\n  dup5\n    /* \"#utility.yul\":4664:4665   */\n  0x08\n    /* \"#utility.yul\":4660:4673   */\n  mul\n    /* \"#utility.yul\":4631:4682   */\n  tag_44\n  jump\t// in\ntag_106:\n    /* \"#utility.yul\":4627:4683   */\n  not\n    /* \"#utility.yul\":4712:4716   */\n  dup1\n    /* \"#utility.yul\":4706:4710   */\n  dup4\n    /* \"#utility.yul\":4702:4717   */\n  and\n    /* \"#utility.yul\":4692:4717   */\n  swap2\n  pop\n    /* \"#utility.yul\":4605:4723   */\n  pop\n    /* \"#utility.yul\":4554:4723   */\n  swap3\n  swap2\n  pop\n  pop\n  jump\t// out\n    /* \"#utility.yul\":4728:5023   */\ntag_46:\n    /* \"#utility.yul\":4804:4808   */\n  0x00\n    /* \"#utility.yul\":4950:4979   */\n  tag_108\n    /* \"#utility.yul\":4975:4978   */\n  dup4\n    /* \"#utility.yul\":4969:4973   */\n  dup4\n    /* \"#utility.yul\":4950:4979   */\n  tag_45\n  jump\t// in\ntag_108:\n    /* \"#utility.yul\":4942:4979   */\n  swap2\n  pop\n    /* \"#utility.yul\":5012:5015   */\n  dup3\n    /* \"#utility.yul\":5009:5010   */\n  0x02\n    /* \"#utility.yul\":5005:5016   */\n  mul\n    /* \"#utility.yul\":4999:5003   */\n  dup3\n    /* \"#utility.yul\":4996:5017   */\n  or\n    /* \"#utility.yul\":4988:5017   */\n  swap1\n  pop\n    /* \"#utility.yul\":4728:5023   */\n  swap3\n  swap2\n  pop\n  pop\n  jump\t// out\n    /* \"#utility.yul\":5028:6423   */\ntag_9:\n    /* \"#utility.yul\":5145:5182   */\n  tag_110\n    /* \"#utility.yul\":5178:5181   */\n  dup3\n    /* \"#utility.yul\":5145:5182   */\n  tag_27\n  jump\t// in\ntag_110:\n    /* \"#utility.yul\":5247:5265   */\n  0xffffffffffffffff\n    /* \"#utility.yul\":5239:5245   */\n  dup2\n    /* \"#utility.yul\":5236:5266   */\n  gt\n    /* \"#utility.yul\":5233:5289   */\n  iszero\n  tag_111\n  jumpi\n    /* \"#utility.yul\":5269:5287   */\n  tag_112\n  tag_28\n  jump\t// in\ntag_112:\n    /* \"#utility.yul\":5233:5289   */\ntag_111:\n    /* \"#utility.yul\":5313:5351   */\n  tag_113\n    /* \"#utility.yul\":5345:5349   */\n  dup3\n    /* \"#utility.yul\":5339:5350   */\n  sload\n    /* \"#utility.yul\":5313:5351   */\n  tag_30\n  jump\t// in\ntag_113:\n    /* \"#utility.yul\":5398:5465   */\n  tag_114\n    /* \"#utility.yul\":5458:5464   */\n  dup3\n    /* \"#utility.yul\":5450:5456   */\n  dup3\n    /* \"#utility.yul\":5444:5448   */\n  dup6\n    /* \"#utility.yul\":5398:5465   */\n  tag_43\n  jump\t// in\ntag_114:\n    /* \"#utility.yul\":5492:5493   */\n  0x00\n    /* \"#utility.yul\":5516:5520   */\n  0x20\n    /* \"#utility.yul\":5503:5520   */\n  swap1\n  pop\n    /* \"#utility.yul\":5548:5550   */\n  0x1f\n    /* \"#utility.yul\":5540:5546   */\n  dup4\n    /* \"#utility.yul\":5537:5551   */\n  gt\n    /* \"#utility.yul\":5565:5566   */\n  0x01\n    /* \"#utility.yul\":5560:6178   */\n  dup2\n  eq\n  tag_116\n  jumpi\n    /* \"#utility.yul\":6222:6223   */\n  0x00\n    /* \"#utility.yul\":6239:6245   */\n  dup5\n    /* \"#utility.yul\":6236:6313   */\n  iszero\n  tag_117\n  jumpi\n    /* \"#utility.yul\":6288:6297   */\n  dup3\n    /* \"#utility.yul\":6283:6286   */\n  dup8\n    /* \"#utility.yul\":6279:6298   */\n  add\n    /* \"#utility.yul\":6273:6299   */\n  mload\n    /* \"#utility.yul\":6264:6299   */\n  swap1\n  pop\n    /* \"#utility.yul\":6236:6313   */\ntag_117:\n    /* \"#utility.yul\":6339:6406   */\n  tag_118\n    /* \"#utility.yul\":6399:6405   */\n  dup6\n    /* \"#utility.yul\":6392:6397   */\n  dup3\n    /* \"#utility.yul\":6339:6406   */\n  tag_46\n  jump\t// in\ntag_118:\n    /* \"#utility.yul\":6333:6337   */\n  dup7\n    /* \"#utility.yul\":6326:6407   */\n  sstore\n    /* \"#utility.yul\":6195:6417   */\n  pop\n    /* \"#utility.yul\":5530:6417   */\n  jump(tag_115)\n    /* \"#utility.yul\":5560:6178   */\ntag_116:\n    /* \"#utility.yul\":5612:5616   */\n  0x1f\n    /* \"#utility.yul\":5608:5617   */\n  not\n    /* \"#utility.yul\":5600:5606   */\n  dup5\n    /* \"#utility.yul\":5596:5618   */\n  and\n    /* \"#utility.yul\":5646:5683   */\n  tag_119\n    /* \"#utility.yul\":5678:5682   */\n  dup7\n    /* \"#utility.yul\":5646:5683   */\n  tag_31\n  jump\t// in\ntag_119:\n    /* \"#utility.yul\":5705:5706   */\n  0x00\n    /* \"#utility.yul\":5719:5927   */\ntag_120:\n    /* \"#utility.yul\":5733:5740   */\n  dup3\n    /* \"#utility.yul\":5730:5731   */\n  dup2\n    /* \"#utility.yul\":5727:5741   */\n  lt\n    /* \"#utility.yul\":5719:5927   */\n  iszero\n  tag_122\n  jumpi\n    /* \"#utility.yul\":5812:5821   */\n  dup5\n    /* \"#utility.yul\":5807:5810   */\n  dup10\n    /* \"#utility.yul\":5803:5822   */\n  add\n    /* \"#utility.yul\":5797:5823   */\n  mload\n    /* \"#utility.yul\":5789:5795   */\n  dup3\n    /* \"#utility.yul\":5782:5824   */\n  sstore\n    /* \"#utility.yul\":5863:5864   */\n  0x01\n    /* \"#utility.yul\":5855:5861   */\n  dup3\n    /* \"#utility.yul\":5851:5865   */\n  add\n    /* \"#utility.yul\":5841:5865   */\n  swap2\n  pop\n    /* \"#utility.yul\":5910:5912   */\n  0x20\n    /* \"#utility.yul\":5899:5908   */\n  dup6\n    /* \"#utility.yul\":5895:5913   */\n  add\n    /* \"#utility.yul\":5882:5913   */\n  swap5\n  pop\n    /* \"#utility.yul\":5756:5760   */\n  0x20\n    /* \"#utility.yul\":5753:5754   */\n  dup2\n    /* \"#utility.yul\":5749:5761   */\n  add\n    /* \"#utility.yul\":5744:5761   */\n  swap1\n  pop\n    /* \"#utility.yul\":5719:5927   */\n  jump(tag_120)\ntag_122:\n    /* \"#utility.yul\":5955:5961   */\n  dup7\n    /* \"#utility.yul\":5946:5953   */\n  dup4\n    /* \"#utility.yul\":5943:5962   */\n  lt\n    /* \"#utility.yul\":5940:6119   */\n  iszero\n  tag_123\n  jumpi\n    /* \"#utility.yul\":6013:6022   */\n  dup5\n    /* \"#utility.yul\":6008:6011   */\n  dup10\n    /* \"#utility.yul\":6004:6023   */\n  add\n    /* \"#utility.yul\":5998:6024   */\n  mload\n    /* \"#utility.yul\":6056:6104   */\n  tag_124\n    /* \"#utility.yul\":6098:6102   */\n  0x1f\n    /* \"#utility.yul\":6090:6096   */\n  dup10\n    /* \"#utility.yul\":6086:6103   */\n  and\n    /* \"#utility.yul\":6075:6084   */\n  dup3\n    /* \"#utility.yul\":6056:6104   */\n  tag_45\n  jump\t// in\ntag_124:\n    /* \"#utility.yul\":6048:6054   */\n  dup4\n    /* \"#utility.yul\":6041:6105   */\n  sstore\n    /* \"#utility.yul\":5963:6119   */\n  pop\n    /* \"#utility.yul\":5940:6119   */\ntag_123:\n    /* \"#utility.yul\":6165:6166   */\n  0x01\n    /* \"#utility.yul\":6161:6162   */\n  0x02\n    /* \"#utility.yul\":6153:6159   */\n  dup9\n    /* \"#utility.yul\":6149:6163   */\n  mul\n    /* \"#utility.yul\":6145:6167   */\n  add\n    /* \"#utility.yul\":6139:6143   */\n  dup9\n    /* \"#utility.yul\":6132:6168   */\n  sstore\n    /* \"#utility.yul\":5567:6178   */\n  pop\n  pop\n  pop\n    /* \"#utility.yul\":5530:6417   */\ntag_115:\n  pop\n    /* \"#utility.yul\":5120:6423   */\n  pop\n  pop\n  pop\n    /* \"#utility.yul\":5028:6423   */\n  pop\n  pop\n  jump\t// out\n    /* \"#utility.yul\":6429:6547   */\ntag_47:\n    /* \"#utility.yul\":6516:6540   */\n  tag_126\n    /* \"#utility.yul\":6534:6539   */\n  dup2\n    /* \"#utility.yul\":6516:6540   */\n  tag_24\n  jump\t// in\ntag_126:\n    /* \"#utility.yul\":6511:6514   */\n  dup3\n    /* \"#utility.yul\":6504:6541   */\n  mstore\n    /* \"#utility.yul\":6429:6547   */\n  pop\n  pop\n  jump\t// out\n    /* \"#utility.yul\":6553:6775   */\ntag_14:\n    /* \"#utility.yul\":6646:6650   */\n  0x00\n    /* \"#utility.yul\":6684:6686   */\n  0x20\n    /* \"#utility.yul\":6673:6682   */\n  dup3\n    /* \"#utility.yul\":6669:6687   */\n  add\n    /* \"#utility.yul\":6661:6687   */\n  swap1\n  pop\n    /* \"#utility.yul\":6697:6768   */\n  tag_128\n    /* \"#utility.yul\":6765:6766   */\n  0x00\n    /* \"#utility.yul\":6754:6763   */\n  dup4\n    /* \"#utility.yul\":6750:6767   */\n  add\n    /* \"#utility.yul\":6741:6747   */\n  dup5\n    /* \"#utility.yul\":6697:6768   */\n  tag_47\n  jump\t// in\ntag_128:\n    /* \"#utility.yul\":6553:6775   */\n  swap3\n  swap2\n  pop\n  pop\n  jump\t// out\n    /* \"demo_erc721.sol\":414:2599  contract FancyNFT is ERC721, ERC721URIStorage, ERC721Burnable, Ownable {... */\ntag_18:\n  dataSize(sub_0)\n  dup1\n  dataOffset(sub_0)\n  0x00\n  codecopy\n  0x00\n  return\nstop\n\nsub_0: assembly {\n        /* \"demo_erc721.sol\":414:2599  contract FancyNFT is ERC721, ERC721URIStorage, ERC721Burnable, Ownable {... */\n      mstore(0x40, 0x80)\n      callvalue\n      dup1\n      iszero\n      tag_1\n      jumpi\n      0x00\n      dup1\n      revert\n    tag_1:\n      pop\n      jumpi(tag_2, lt(calldatasize, 0x04))\n      shr(0xe0, calldataload(0x00))\n      dup1\n      0x715018a6\n      gt\n      tag_26\n      jumpi\n      dup1\n      0xa22cb465\n      gt\n      tag_27\n      jumpi\n      dup1\n      0xa22cb465\n      eq\n      tag_20\n      jumpi\n      dup1\n      0xb88d4fde\n      eq\n      tag_21\n      jumpi\n      dup1\n      0xc87b56dd\n      eq\n      tag_22\n      jumpi\n      dup1\n      0xcef6d368\n      eq\n      tag_23\n      jumpi\n      dup1\n      0xe985e9c5\n      eq\n      tag_24\n      jumpi\n      dup1\n      0xf2fde38b\n      eq\n      tag_25\n      jumpi\n      jump(tag_2)\n    tag_27:\n      dup1\n      0x715018a6\n      eq\n      tag_14\n      jumpi\n      dup1\n      0x7aae3ccb\n      eq\n      tag_15\n      jumpi\n      dup1\n      0x8a71bb2d\n      eq\n      tag_16\n      jumpi\n      dup1\n      0x8da5cb5b\n      eq\n      tag_17\n      jumpi\n      dup1\n      0x95d89b41\n      eq\n      tag_18\n      jumpi\n      dup1\n      0x9caea80a\n      eq\n      tag_19\n      jumpi\n      jump(tag_2)\n    tag_26:\n      dup1\n      0x2923ce11\n      gt\n      tag_28\n      jumpi\n      dup1\n      0x2923ce11\n      eq\n      tag_8\n      jumpi\n      dup1\n      0x42842e0e\n      eq\n      tag_9\n      jumpi\n      dup1\n      0x42966c68\n      eq\n      tag_10\n      jumpi\n      dup1\n      0x5146ea0e\n      eq\n      tag_11\n      jumpi\n      dup1\n      0x6352211e\n      eq\n      tag_12\n      jumpi\n      dup1\n      0x70a08231\n      eq\n      tag_13\n      jumpi\n      jump(tag_2)\n    tag_28:\n      dup1\n      0x01ffc9a7\n      eq\n      tag_3\n      jumpi\n      dup1\n      0x06fdde03\n      eq\n      tag_4\n      jumpi\n      dup1\n      0x081812fc\n      eq\n      tag_5\n      jumpi\n      dup1\n      0x095ea7b3\n      eq\n      tag_6\n      jumpi\n      dup1\n      0x23b872dd\n      eq\n      tag_7\n      jumpi\n    tag_2:\n      0x00\n      dup1\n      revert\n        /* \"demo_erc721.sol\":1173:1342  function supportsInterface(bytes4 interfaceId) public view override(ERC721, ERC721URIStorage) returns (bool) {... */\n    tag_3:\n      tag_29\n      0x04\n      dup1\n      calldatasize\n      sub\n      dup2\n      add\n      swap1\n      tag_30\n      swap2\n      swap1\n      tag_31\n      jump\t// in\n    tag_30:\n      tag_32\n      jump\t// in\n    tag_29:\n      mload(0x40)\n      tag_33\n      swap2\n      swap1\n      tag_34\n      jump\t// in\n    tag_33:\n      mload(0x40)\n      dup1\n      swap2\n      sub\n      swap1\n      return\n        /* \"@openzeppelin/contracts@5.0.0/token/ERC721/ERC721.sol\":2365:2454  function name() public view virtual returns (string memory) {... */\n    tag_4:\n      tag_35\n      tag_36\n      jump\t// in\n    tag_35:\n      mload(0x40)\n      tag_37\n      swap2\n      swap1\n      tag_38\n      jump\t// in\n    tag_37:\n      mload(0x40)\n      dup1\n      swap2\n      sub\n      swap1\n      return\n        /* \"@openzeppelin/contracts@5.0.0/token/ERC721/ERC721.sol\":3497:3651  function getApproved(uint256 tokenId) public view virtual returns (address) {... */\n    tag_5:\n      tag_39\n      0x04\n      dup1\n      calldatasize\n      sub\n      dup2\n      add\n      swap1\n      tag_40\n      swap2\n      swap1\n      tag_41\n      jump\t// in\n    tag_40:\n      tag_42\n      jump\t// in\n    tag_39:\n      mload(0x40)\n      tag_43\n      swap2\n      swap1\n      tag_44\n      jump\t// in\n    tag_43:\n      mload(0x40)\n      dup1\n      swap2\n      sub\n      swap1\n      return\n        /* \"@openzeppelin/contracts@5.0.0/token/ERC721/ERC721.sol\":3323:3436  function approve(address to, uint256 tokenId) public virtual {... */\n    tag_6:\n      tag_45\n      0x04\n      dup1\n      calldatasize\n      sub\n      dup2\n      add\n      swap1\n      tag_46\n      swap2\n      swap1\n      tag_47\n      jump\t// in\n    tag_46:\n      tag_48\n      jump\t// in\n    tag_45:\n      stop\n        /* \"@openzeppelin/contracts@5.0.0/token/ERC721/ERC721.sol\":4143:4721  function transferFrom(address from, address to, uint256 tokenId) public virtual {... */\n    tag_7:\n      tag_49\n      0x04\n      dup1\n      calldatasize\n      sub\n      dup2\n      add\n      swap1\n      tag_50\n      swap2\n      swap1\n      tag_51\n      jump\t// in\n    tag_50:\n      tag_52\n      jump\t// in\n    tag_49:\n      stop\n        /* \"demo_erc721.sol\":691:941  function safeMint(address to, string memory uri, uint256 categoryId, uint256 rarityLevel) public onlyOwner {... */\n    tag_8:\n      tag_53\n      0x04\n      dup1\n      calldatasize\n      sub\n      dup2\n      add\n      swap1\n      tag_54\n      swap2\n      swap1\n      tag_55\n      jump\t// in\n    tag_54:\n      tag_56\n      jump\t// in\n    tag_53:\n      stop\n        /* \"@openzeppelin/contracts@5.0.0/token/ERC721/ERC721.sol\":4787:4919  function safeTransferFrom(address from, address to, uint256 tokenId) public {... */\n    tag_9:\n      tag_57\n      0x04\n      dup1\n      calldatasize\n      sub\n      dup2\n      add\n      swap1\n      tag_58\n      swap2\n      swap1\n      tag_51\n      jump\t// in\n    tag_58:\n      tag_59\n      jump\t// in\n    tag_57:\n      stop\n        /* \"@openzeppelin/contracts@5.0.0/token/ERC721/extensions/ERC721Burnable.sol\":561:875  function burn(uint256 tokenId) public virtual {... */\n    tag_10:\n      tag_60\n      0x04\n      dup1\n      calldatasize\n      sub\n      dup2\n      add\n      swap1\n      tag_61\n      swap2\n      swap1\n      tag_41\n      jump\t// in\n    tag_61:\n      tag_62\n      jump\t// in\n    tag_60:\n      stop\n        /* \"demo_erc721.sol\":1626:1726  function addXP(uint256 tokenId, uint256 xp) public onlyOwner {... */\n    tag_11:\n      tag_63\n      0x04\n      dup1\n      calldatasize\n      sub\n      dup2\n      add\n      swap1\n      tag_64\n      swap2\n      swap1\n      tag_65\n      jump\t// in\n    tag_64:\n      tag_66\n      jump\t// in\n    tag_63:\n      stop\n        /* \"@openzeppelin/contracts@5.0.0/token/ERC721/ERC721.sol\":2185:2303  function ownerOf(uint256 tokenId) public view virtual returns (address) {... */\n    tag_12:\n      tag_67\n      0x04\n      dup1\n      calldatasize\n      sub\n      dup2\n      add\n      swap1\n      tag_68\n      swap2\n      swap1\n      tag_41\n      jump\t// in\n    tag_68:\n      tag_69\n      jump\t// in\n    tag_67:\n      mload(0x40)\n      tag_70\n      swap2\n      swap1\n      tag_44\n      jump\t// in\n    tag_70:\n      mload(0x40)\n      dup1\n      swap2\n      sub\n      swap1\n      return\n        /* \"@openzeppelin/contracts@5.0.0/token/ERC721/ERC721.sol\":1920:2128  function balanceOf(address owner) public view virtual returns (uint256) {... */\n    tag_13:\n      tag_71\n      0x04\n      dup1\n      calldatasize\n      sub\n      dup2\n      add\n      swap1\n      tag_72\n      swap2\n      swap1\n      tag_73\n      jump\t// in\n    tag_72:\n      tag_74\n      jump\t// in\n    tag_71:\n      mload(0x40)\n      tag_75\n      swap2\n      swap1\n      tag_76\n      jump\t// in\n    tag_75:\n      mload(0x40)\n      dup1\n      swap2\n      sub\n      swap1\n      return\n        /* \"@openzeppelin/contracts@5.0.0/access/Ownable.sol\":2293:2394  function renounceOwnership() public virtual onlyOwner {... */\n    tag_14:\n      tag_77\n      tag_78\n      jump\t// in\n    tag_77:\n      stop\n        /* \"demo_erc721.sol\":552:594  mapping(uint256 => uint256) public tokenXP */\n    tag_15:\n      tag_79\n      0x04\n      dup1\n      calldatasize\n      sub\n      dup2\n      add\n      swap1\n      tag_80\n      swap2\n      swap1\n      tag_41\n      jump\t// in\n    tag_80:\n      tag_81\n      jump\t// in\n    tag_79:\n      mload(0x40)\n      tag_82\n      swap2\n      swap1\n      tag_76\n      jump\t// in\n    tag_82:\n      mload(0x40)\n      dup1\n      swap2\n      sub\n      swap1\n      return\n        /* \"demo_erc721.sol\":491:529  uint256 public royaltyPercentage = 500 */\n    tag_16:\n      tag_83\n      tag_84\n      jump\t// in\n    tag_83:\n      mload(0x40)\n      tag_85\n      swap2\n      swap1\n      tag_76\n      jump\t// in\n    tag_85:\n      mload(0x40)\n      dup1\n      swap2\n      sub\n      swap1\n      return\n        /* \"@openzeppelin/contracts@5.0.0/access/Ownable.sol\":1638:1723  function owner() public view virtual returns (address) {... */\n    tag_17:\n      tag_86\n      tag_87\n      jump\t// in\n    tag_86:\n      mload(0x40)\n      tag_88\n      swap2\n      swap1\n      tag_44\n      jump\t// in\n    tag_88:\n      mload(0x40)\n      dup1\n      swap2\n      sub\n      swap1\n      return\n        /* \"@openzeppelin/contracts@5.0.0/token/ERC721/ERC721.sol\":2518:2611  function symbol() public view virtual returns (string memory) {... */\n    tag_18:\n      tag_89\n      tag_90\n      jump\t// in\n    tag_89:\n      mload(0x40)\n      tag_91\n      swap2\n      swap1\n      tag_38\n      jump\t// in\n    tag_91:\n      mload(0x40)\n      dup1\n      swap2\n      sub\n      swap1\n      return\n        /* \"demo_erc721.sol\":1901:2233  function batchMint(address to, uint256[] memory tokenIds, string[] memory uris) public onlyOwner {... */\n    tag_19:\n      tag_92\n      0x04\n      dup1\n      calldatasize\n      sub\n      dup2\n      add\n      swap1\n      tag_93\n      swap2\n      swap1\n      tag_94\n      jump\t// in\n    tag_93:\n      tag_95\n      jump\t// in\n    tag_92:\n      stop\n        /* \"@openzeppelin/contracts@5.0.0/token/ERC721/ERC721.sol\":3718:3862  function setApprovalForAll(address operator, bool approved) public virtual {... */\n    tag_20:\n      tag_96\n      0x04\n      dup1\n      calldatasize\n      sub\n      dup2\n      add\n      swap1\n      tag_97\n      swap2\n      swap1\n      tag_98\n      jump\t// in\n    tag_97:\n      tag_99\n      jump\t// in\n    tag_96:\n      stop\n        /* \"@openzeppelin/contracts@5.0.0/token/ERC721/ERC721.sol\":4985:5193  function safeTransferFrom(address from, address to, uint256 tokenId, bytes memory data) public virtual {... */\n    tag_21:\n      tag_100\n      0x04\n      dup1\n      calldatasize\n      sub\n      dup2\n      add\n      swap1\n      tag_101\n      swap2\n      swap1\n      tag_102\n      jump\t// in\n    tag_101:\n      tag_103\n      jump\t// in\n    tag_100:\n      stop\n        /* \"demo_erc721.sol\":1014:1167  function tokenURI(uint256 tokenId) public view override(ERC721, ERC721URIStorage) returns (string memory) {... */\n    tag_22:\n      tag_104\n      0x04\n      dup1\n      calldatasize\n      sub\n      dup2\n      add\n      swap1\n      tag_105\n      swap2\n      swap1\n      tag_41\n      jump\t// in\n    tag_105:\n      tag_106\n      jump\t// in\n    tag_104:\n      mload(0x40)\n      tag_107\n      swap2\n      swap1\n      tag_38\n      jump\t// in\n    tag_107:\n      mload(0x40)\n      dup1\n      swap2\n      sub\n      swap1\n      return\n        /* \"demo_erc721.sol\":1438:1616  function royaltyInfo(uint256 salePrice) external view returns (address receiver, uint256 royaltyAmount) {... */\n    tag_23:\n      tag_108\n      0x04\n      dup1\n      calldatasize\n      sub\n      dup2\n      add\n      swap1\n      tag_109\n      swap2\n      swap1\n      tag_41\n      jump\t// in\n    tag_109:\n      tag_110\n      jump\t// in\n    tag_108:\n      mload(0x40)\n      tag_111\n      swap3\n      swap2\n      swap1\n      tag_112\n      jump\t// in\n    tag_111:\n      mload(0x40)\n      dup1\n      swap2\n      sub\n      swap1\n      return\n        /* \"@openzeppelin/contracts@5.0.0/token/ERC721/ERC721.sol\":3928:4081  function isApprovedForAll(address owner, address operator) public view virtual returns (bool) {... */\n    tag_24:\n      tag_113\n      0x04\n      dup1\n      calldatasize\n      sub\n      dup2\n      add\n      swap1\n      tag_114\n      swap2\n      swap1\n      tag_115\n      jump\t// in\n    tag_114:\n      tag_116\n      jump\t// in\n    tag_113:\n      mload(0x40)\n      tag_117\n      swap2\n      swap1\n      tag_34\n      jump\t// in\n    tag_117:\n      mload(0x40)\n      dup1\n      swap2\n      sub\n      swap1\n      return\n        /* \"@openzeppelin/contracts@5.0.0/access/Ownable.sol\":2543:2758  function transferOwnership(address newOwner) public virtual onlyOwner {... */\n    tag_25:\n      tag_118\n      0x04\n      dup1\n      calldatasize\n      sub\n      dup2\n      add\n      swap1\n      tag_119\n      swap2\n      swap1\n      tag_73\n      jump\t// in\n    tag_119:\n      tag_120\n      jump\t// in\n    tag_118:\n      stop\n        /* \"demo_erc721.sol\":1173:1342  function supportsInterface(bytes4 interfaceId) public view override(ERC721, ERC721URIStorage) returns (bool) {... */\n    tag_32:\n        /* \"demo_erc721.sol\":1276:1280  bool */\n      0x00\n        /* \"demo_erc721.sol\":1299:1335  super.supportsInterface(interfaceId) */\n      tag_122\n        /* \"demo_erc721.sol\":1323:1334  interfaceId */\n      dup3\n        /* \"demo_erc721.sol\":1299:1322  super.supportsInterface */\n      tag_123\n        /* \"demo_erc721.sol\":1299:1335  super.supportsInterface(interfaceId) */\n      jump\t// in\n    tag_122:\n        /* \"demo_erc721.sol\":1292:1335  return super.supportsInterface(interfaceId) */\n      swap1\n      pop\n        /* \"demo_erc721.sol\":1173:1342  function supportsInterface(bytes4 interfaceId) public view override(ERC721, ERC721URIStorage) returns (bool) {... */\n      swap2\n      swap1\n      pop\n      jump\t// out\n        /* \"@openzeppelin/contracts@5.0.0/token/ERC721/ERC721.sol\":2365:2454  function name() public view virtual returns (string memory) {... */\n    tag_36:\n        /* \"@openzeppelin/contracts@5.0.0/token/ERC721/ERC721.sol\":2410:2423  string memory */\n      0x60\n        /* \"@openzeppelin/contracts@5.0.0/token/ERC721/ERC721.sol\":2442:2447  _name */\n      0x00\n        /* \"@openzeppelin/contracts@5.0.0/token/ERC721/ERC721.sol\":2435:2447  return _name */\n      dup1\n      sload\n      tag_125\n      swap1\n      tag_126\n      jump\t// in\n    tag_125:\n      dup1\n      0x1f\n      add\n      0x20\n      dup1\n      swap2\n      div\n      mul\n      0x20\n      add\n      mload(0x40)\n      swap1\n      dup2\n      add\n      0x40\n      mstore\n      dup1\n      swap3\n      swap2\n      swap1\n      dup2\n      dup2\n      mstore\n      0x20\n      add\n      dup3\n      dup1\n      sload\n      tag_127\n      swap1\n      tag_126\n      jump\t// in\n    tag_127:\n      dup1\n      iszero\n      tag_128\n      jumpi\n      dup1\n      0x1f\n      lt\n      tag_129\n      jumpi\n      0x0100\n      dup1\n      dup4\n      sload\n      div\n      mul\n      dup4\n      mstore\n      swap2\n      0x20\n      add\n      swap2\n      jump(tag_128)\n    tag_129:\n      dup3\n      add\n      swap2\n      swap1\n      0x00\n      mstore\n      keccak256(0x00, 0x20)\n      swap1\n    tag_130:\n      dup2\n      sload\n      dup2\n      mstore\n      swap1\n      0x01\n      add\n      swap1\n      0x20\n      add\n      dup1\n      dup4\n      gt\n      tag_130\n      jumpi\n      dup3\n      swap1\n      sub\n      0x1f\n      and\n      dup3\n      add\n      swap2\n    tag_128:\n      pop\n      pop\n      pop\n      pop\n      pop\n      swap1\n      pop\n        /* \"@openzeppelin/contracts@5.0.0/token/ERC721/ERC721.sol\":2365:2454  function name() public view virtual returns (string memory) {... */\n      swap1\n      jump\t// out\n        /* \"@openzeppelin/contracts@5.0.0/token/ERC721/ERC721.sol\":3497:3651  function getApproved(uint256 tokenId) public view virtual returns (address) {... */\n    tag_42:\n        /* \"@openzeppelin/contracts@5.0.0/token/ERC721/ERC721.sol\":3564:3571  address */\n      0x00\n        /* \"@openzeppelin/contracts@5.0.0/token/ERC721/ERC721.sol\":3583:3605  _requireOwned(tokenId) */\n      tag_132\n        /* \"@openzeppelin/contracts@5.0.0/token/ERC721/ERC721.sol\":3597:3604  tokenId */\n      dup3\n        /* \"@openzeppelin/contracts@5.0.0/token/ERC721/ERC721.sol\":3583:3596  _requireOwned */\n      tag_133\n        /* \"@openzeppelin/contracts@5.0.0/token/ERC721/ERC721.sol\":3583:3605  _requireOwned(tokenId) */\n      jump\t// in\n    tag_132:\n      pop\n        /* \"@openzeppelin/contracts@5.0.0/token/ERC721/ERC721.sol\":3623:3644  _getApproved(tokenId) */\n      tag_134\n        /* \"@openzeppelin/contracts@5.0.0/token/ERC721/ERC721.sol\":3636:3643  tokenId */\n      dup3\n        /* \"@openzeppelin/contracts@5.0.0/token/ERC721/ERC721.sol\":3623:3635  _getApproved */\n      tag_135\n        /* \"@openzeppelin/contracts@5.0.0/token/ERC721/ERC721.sol\":3623:3644  _getApproved(tokenId) */\n      jump\t// in\n    tag_134:\n        /* \"@openzeppelin/contracts@5.0.0/token/ERC721/ERC721.sol\":3616:3644  return _getApproved(tokenId) */\n      swap1\n      pop\n        /* \"@openzeppelin/contracts@5.0.0/token/ERC721/ERC721.sol\":3497:3651  function getApproved(uint256 tokenId) public view virtual returns (address) {... */\n      swap2\n      swap1\n      pop\n      jump\t// out\n        /* \"@openzeppelin/contracts@5.0.0/token/ERC721/ERC721.sol\":3323:3436  function approve(address to, uint256 tokenId) public virtual {... */\n    tag_48:\n        /* \"@openzeppelin/contracts@5.0.0/token/ERC721/ERC721.sol\":3394:3429  _approve(to, tokenId, _msgSender()) */\n      tag_137\n        /* \"@openzeppelin/contracts@5.0.0/token/ERC721/ERC721.sol\":3403:3405  to */\n      dup3\n        /* \"@openzeppelin/contracts@5.0.0/token/ERC721/ERC721.sol\":3407:3414  tokenId */\n      dup3\n        /* \"@openzeppelin/contracts@5.0.0/token/ERC721/ERC721.sol\":3416:3428  _msgSender() */\n      tag_138\n        /* \"@openzeppelin/contracts@5.0.0/token/ERC721/ERC721.sol\":3416:3426  _msgSender */\n      tag_139\n        /* \"@openzeppelin/contracts@5.0.0/token/ERC721/ERC721.sol\":3416:3428  _msgSender() */\n      jump\t// in\n    tag_138:\n        /* \"@openzeppelin/contracts@5.0.0/token/ERC721/ERC721.sol\":3394:3402  _approve */\n      tag_140\n        /* \"@openzeppelin/contracts@5.0.0/token/ERC721/ERC721.sol\":3394:3429  _approve(to, tokenId, _msgSender()) */\n      jump\t// in\n    tag_137:\n        /* \"@openzeppelin/contracts@5.0.0/token/ERC721/ERC721.sol\":3323:3436  function approve(address to, uint256 tokenId) public virtual {... */\n      pop\n      pop\n      jump\t// out\n        /* \"@openzeppelin/contracts@5.0.0/token/ERC721/ERC721.sol\":4143:4721  function transferFrom(address from, address to, uint256 tokenId) public virtual {... */\n    tag_52:\n        /* \"@openzeppelin/contracts@5.0.0/token/ERC721/ERC721.sol\":4251:4252  0 */\n      0x00\n        /* \"@openzeppelin/contracts@5.0.0/token/ERC721/ERC721.sol\":4237:4253  to == address(0) */\n      0xffffffffffffffffffffffffffffffffffffffff\n      and\n        /* \"@openzeppelin/contracts@5.0.0/token/ERC721/ERC721.sol\":4237:4239  to */\n      dup3\n        /* \"@openzeppelin/contracts@5.0.0/token/ERC721/ERC721.sol\":4237:4253  to == address(0) */\n      0xffffffffffffffffffffffffffffffffffffffff\n      and\n      sub\n        /* \"@openzeppelin/contracts@5.0.0/token/ERC721/ERC721.sol\":4233:4320  if (to == address(0)) {... */\n      tag_142\n      jumpi\n        /* \"@openzeppelin/contracts@5.0.0/token/ERC721/ERC721.sol\":4306:4307  0 */\n      0x00\n        /* \"@openzeppelin/contracts@5.0.0/token/ERC721/ERC721.sol\":4276:4309  ERC721InvalidReceiver(address(0)) */\n      mload(0x40)\n      0x64a0ae9200000000000000000000000000000000000000000000000000000000\n      dup2\n      mstore\n      0x04\n      add\n      tag_143\n      swap2\n      swap1\n      tag_44\n      jump\t// in\n    tag_143:\n      mload(0x40)\n      dup1\n      swap2\n      sub\n      swap1\n      revert\n        /* \"@openzeppelin/contracts@5.0.0/token/ERC721/ERC721.sol\":4233:4320  if (to == address(0)) {... */\n    tag_142:\n        /* \"@openzeppelin/contracts@5.0.0/token/ERC721/ERC721.sol\":4538:4559  address previousOwner */\n      0x00\n        /* \"@openzeppelin/contracts@5.0.0/token/ERC721/ERC721.sol\":4562:4596  _update(to, tokenId, _msgSender()) */\n      tag_144\n        /* \"@openzeppelin/contracts@5.0.0/token/ERC721/ERC721.sol\":4570:4572  to */\n      dup4\n        /* \"@openzeppelin/contracts@5.0.0/token/ERC721/ERC721.sol\":4574:4581  tokenId */\n      dup4\n        /* \"@openzeppelin/contracts@5.0.0/token/ERC721/ERC721.sol\":4583:4595  _msgSender() */\n      tag_145\n        /* \"@openzeppelin/contracts@5.0.0/token/ERC721/ERC721.sol\":4583:4593  _msgSender */\n      tag_139\n        /* \"@openzeppelin/contracts@5.0.0/token/ERC721/ERC721.sol\":4583:4595  _msgSender() */\n      jump\t// in\n    tag_145:\n        /* \"@openzeppelin/contracts@5.0.0/token/ERC721/ERC721.sol\":4562:4569  _update */\n      tag_146\n        /* \"@openzeppelin/contracts@5.0.0/token/ERC721/ERC721.sol\":4562:4596  _update(to, tokenId, _msgSender()) */\n      jump\t// in\n    tag_144:\n        /* \"@openzeppelin/contracts@5.0.0/token/ERC721/ERC721.sol\":4538:4596  address previousOwner = _update(to, tokenId, _msgSender()) */\n      swap1\n      pop\n        /* \"@openzeppelin/contracts@5.0.0/token/ERC721/ERC721.sol\":4627:4631  from */\n      dup4\n        /* \"@openzeppelin/contracts@5.0.0/token/ERC721/ERC721.sol\":4610:4631  previousOwner != from */\n      0xffffffffffffffffffffffffffffffffffffffff\n      and\n        /* \"@openzeppelin/contracts@5.0.0/token/ERC721/ERC721.sol\":4610:4623  previousOwner */\n      dup2\n        /* \"@openzeppelin/contracts@5.0.0/token/ERC721/ERC721.sol\":4610:4631  previousOwner != from */\n      0xffffffffffffffffffffffffffffffffffffffff\n      and\n      eq\n        /* \"@openzeppelin/contracts@5.0.0/token/ERC721/ERC721.sol\":4606:4715  if (previousOwner != from) {... */\n      tag_147\n      jumpi\n        /* \"@openzeppelin/contracts@5.0.0/token/ERC721/ERC721.sol\":4675:4679  from */\n      dup4\n        /* \"@openzeppelin/contracts@5.0.0/token/ERC721/ERC721.sol\":4681:4688  tokenId */\n      dup3\n        /* \"@openzeppelin/contracts@5.0.0/token/ERC721/ERC721.sol\":4690:4703  previousOwner */\n      dup3\n        /* \"@openzeppelin/contracts@5.0.0/token/ERC721/ERC721.sol\":4654:4704  ERC721IncorrectOwner(from, tokenId, previousOwner) */\n      mload(0x40)\n      0x64283d7b00000000000000000000000000000000000000000000000000000000\n      dup2\n      mstore\n      0x04\n      add\n      tag_148\n      swap4\n      swap3\n      swap2\n      swap1\n      tag_149\n      jump\t// in\n    tag_148:\n      mload(0x40)\n      dup1\n      swap2\n      sub\n      swap1\n      revert\n        /* \"@openzeppelin/contracts@5.0.0/token/ERC721/ERC721.sol\":4606:4715  if (previousOwner != from) {... */\n    tag_147:\n        /* \"@openzeppelin/contracts@5.0.0/token/ERC721/ERC721.sol\":4223:4721  {... */\n      pop\n        /* \"@openzeppelin/contracts@5.0.0/token/ERC721/ERC721.sol\":4143:4721  function transferFrom(address from, address to, uint256 tokenId) public virtual {... */\n      pop\n      pop\n      pop\n      jump\t// out\n        /* \"demo_erc721.sol\":691:941  function safeMint(address to, string memory uri, uint256 categoryId, uint256 rarityLevel) public onlyOwner {... */\n    tag_56:\n        /* \"@openzeppelin/contracts@5.0.0/access/Ownable.sol\":1531:1544  _checkOwner() */\n      tag_151\n        /* \"@openzeppelin/contracts@5.0.0/access/Ownable.sol\":1531:1542  _checkOwner */\n      tag_152\n        /* \"@openzeppelin/contracts@5.0.0/access/Ownable.sol\":1531:1544  _checkOwner() */\n      jump\t// in\n    tag_151:\n        /* \"demo_erc721.sol\":808:823  uint256 tokenId */\n      0x00\n        /* \"demo_erc721.sol\":826:866  generateTokenId(categoryId, rarityLevel) */\n      tag_154\n        /* \"demo_erc721.sol\":842:852  categoryId */\n      dup4\n        /* \"demo_erc721.sol\":854:865  rarityLevel */\n      dup4\n        /* \"demo_erc721.sol\":826:841  generateTokenId */\n      tag_155\n        /* \"demo_erc721.sol\":826:866  generateTokenId(categoryId, rarityLevel) */\n      jump\t// in\n    tag_154:\n        /* \"demo_erc721.sol\":808:866  uint256 tokenId = generateTokenId(categoryId, rarityLevel) */\n      swap1\n      pop\n        /* \"demo_erc721.sol\":876:898  _safeMint(to, tokenId) */\n      tag_156\n        /* \"demo_erc721.sol\":886:888  to */\n      dup6\n        /* \"demo_erc721.sol\":890:897  tokenId */\n      dup3\n        /* \"demo_erc721.sol\":876:885  _safeMint */\n      tag_157\n        /* \"demo_erc721.sol\":876:898  _safeMint(to, tokenId) */\n      jump\t// in\n    tag_156:\n        /* \"demo_erc721.sol\":908:934  _setTokenURI(tokenId, uri) */\n      tag_158\n        /* \"demo_erc721.sol\":921:928  tokenId */\n      dup2\n        /* \"demo_erc721.sol\":930:933  uri */\n      dup6\n        /* \"demo_erc721.sol\":908:920  _setTokenURI */\n      tag_159\n        /* \"demo_erc721.sol\":908:934  _setTokenURI(tokenId, uri) */\n      jump\t// in\n    tag_158:\n        /* \"demo_erc721.sol\":798:941  {... */\n      pop\n        /* \"demo_erc721.sol\":691:941  function safeMint(address to, string memory uri, uint256 categoryId, uint256 rarityLevel) public onlyOwner {... */\n      pop\n      pop\n      pop\n      pop\n      jump\t// out\n        /* \"@openzeppelin/contracts@5.0.0/token/ERC721/ERC721.sol\":4787:4919  function safeTransferFrom(address from, address to, uint256 tokenId) public {... */\n    tag_59:\n        /* \"@openzeppelin/contracts@5.0.0/token/ERC721/ERC721.sol\":4873:4912  safeTransferFrom(from, to, tokenId, \"\") */\n      tag_161\n        /* \"@openzeppelin/contracts@5.0.0/token/ERC721/ERC721.sol\":4890:4894  from */\n      dup4\n        /* \"@openzeppelin/contracts@5.0.0/token/ERC721/ERC721.sol\":4896:4898  to */\n      dup4\n        /* \"@openzeppelin/contracts@5.0.0/token/ERC721/ERC721.sol\":4900:4907  tokenId */\n      dup4\n        /* \"@openzeppelin/contracts@5.0.0/token/ERC721/ERC721.sol\":4873:4912  safeTransferFrom(from, to, tokenId, \"\") */\n      mload(0x40)\n      dup1\n      0x20\n      add\n      0x40\n      mstore\n      dup1\n      0x00\n      dup2\n      mstore\n      pop\n        /* \"@openzeppelin/contracts@5.0.0/token/ERC721/ERC721.sol\":4873:4889  safeTransferFrom */\n      tag_103\n        /* \"@openzeppelin/contracts@5.0.0/token/ERC721/ERC721.sol\":4873:4912  safeTransferFrom(from, to, tokenId, \"\") */\n      jump\t// in\n    tag_161:\n        /* \"@openzeppelin/contracts@5.0.0/token/ERC721/ERC721.sol\":4787:4919  function safeTransferFrom(address from, address to, uint256 tokenId) public {... */\n      pop\n      pop\n      pop\n      jump\t// out\n        /* \"@openzeppelin/contracts@5.0.0/token/ERC721/extensions/ERC721Burnable.sol\":561:875  function burn(uint256 tokenId) public virtual {... */\n    tag_62:\n        /* \"@openzeppelin/contracts@5.0.0/token/ERC721/extensions/ERC721Burnable.sol\":826:868  _update(address(0), tokenId, _msgSender()) */\n      tag_163\n        /* \"@openzeppelin/contracts@5.0.0/token/ERC721/extensions/ERC721Burnable.sol\":842:843  0 */\n      0x00\n        /* \"@openzeppelin/contracts@5.0.0/token/ERC721/extensions/ERC721Burnable.sol\":846:853  tokenId */\n      dup3\n        /* \"@openzeppelin/contracts@5.0.0/token/ERC721/extensions/ERC721Burnable.sol\":855:867  _msgSender() */\n      tag_164\n        /* \"@openzeppelin/contracts@5.0.0/token/ERC721/extensions/ERC721Burnable.sol\":855:865  _msgSender */\n      tag_139\n        /* \"@openzeppelin/contracts@5.0.0/token/ERC721/extensions/ERC721Burnable.sol\":855:867  _msgSender() */\n      jump\t// in\n    tag_164:\n        /* \"@openzeppelin/contracts@5.0.0/token/ERC721/extensions/ERC721Burnable.sol\":826:833  _update */\n      tag_146\n        /* \"@openzeppelin/contracts@5.0.0/token/ERC721/extensions/ERC721Burnable.sol\":826:868  _update(address(0), tokenId, _msgSender()) */\n      jump\t// in\n    tag_163:\n      pop\n        /* \"@openzeppelin/contracts@5.0.0/token/ERC721/extensions/ERC721Burnable.sol\":561:875  function burn(uint256 tokenId) public virtual {... */\n      pop\n      jump\t// out\n        /* \"demo_erc721.sol\":1626:1726  function addXP(uint256 tokenId, uint256 xp) public onlyOwner {... */\n    tag_66:\n        /* \"@openzeppelin/contracts@5.0.0/access/Ownable.sol\":1531:1544  _checkOwner() */\n      tag_166\n        /* \"@openzeppelin/contracts@5.0.0/access/Ownable.sol\":1531:1542  _checkOwner */\n      tag_152\n        /* \"@openzeppelin/contracts@5.0.0/access/Ownable.sol\":1531:1544  _checkOwner() */\n      jump\t// in\n    tag_166:\n        /* \"demo_erc721.sol\":1717:1719  xp */\n      dup1\n        /* \"demo_erc721.sol\":1697:1704  tokenXP */\n      0x09\n        /* \"demo_erc721.sol\":1697:1713  tokenXP[tokenId] */\n      0x00\n        /* \"demo_erc721.sol\":1705:1712  tokenId */\n      dup5\n        /* \"demo_erc721.sol\":1697:1713  tokenXP[tokenId] */\n      dup2\n      mstore\n      0x20\n      add\n      swap1\n      dup2\n      mstore\n      0x20\n      add\n      0x00\n      keccak256\n      0x00\n        /* \"demo_erc721.sol\":1697:1719  tokenXP[tokenId] += xp */\n      dup3\n      dup3\n      sload\n      tag_168\n      swap2\n      swap1\n      tag_169\n      jump\t// in\n    tag_168:\n      swap3\n      pop\n      pop\n      dup2\n      swap1\n      sstore\n      pop\n        /* \"demo_erc721.sol\":1626:1726  function addXP(uint256 tokenId, uint256 xp) public onlyOwner {... */\n      pop\n      pop\n      jump\t// out\n        /* \"@openzeppelin/contracts@5.0.0/token/ERC721/ERC721.sol\":2185:2303  function ownerOf(uint256 tokenId) public view virtual returns (address) {... */\n    tag_69:\n        /* \"@openzeppelin/contracts@5.0.0/token/ERC721/ERC721.sol\":2248:2255  address */\n      0x00\n        /* \"@openzeppelin/contracts@5.0.0/token/ERC721/ERC721.sol\":2274:2296  _requireOwned(tokenId) */\n      tag_171\n        /* \"@openzeppelin/contracts@5.0.0/token/ERC721/ERC721.sol\":2288:2295  tokenId */\n      dup3\n        /* \"@openzeppelin/contracts@5.0.0/token/ERC721/ERC721.sol\":2274:2287  _requireOwned */\n      tag_133\n        /* \"@openzeppelin/contracts@5.0.0/token/ERC721/ERC721.sol\":2274:2296  _requireOwned(tokenId) */\n      jump\t// in\n    tag_171:\n        /* \"@openzeppelin/contracts@5.0.0/token/ERC721/ERC721.sol\":2267:2296  return _requireOwned(tokenId) */\n      swap1\n      pop\n        /* \"@openzeppelin/contracts@5.0.0/token/ERC721/ERC721.sol\":2185:2303  function ownerOf(uint256 tokenId) public view virtual returns (address) {... */\n      swap2\n      swap1\n      pop\n      jump\t// out\n        /* \"@openzeppelin/contracts@5.0.0/token/ERC721/ERC721.sol\":1920:2128  function balanceOf(address owner) public view virtual returns (uint256) {... */\n    tag_74:\n        /* \"@openzeppelin/contracts@5.0.0/token/ERC721/ERC721.sol\":1983:1990  uint256 */\n      0x00\n        /* \"@openzeppelin/contracts@5.0.0/token/ERC721/ERC721.sol\":2023:2024  0 */\n      dup1\n        /* \"@openzeppelin/contracts@5.0.0/token/ERC721/ERC721.sol\":2006:2025  owner == address(0) */\n      0xffffffffffffffffffffffffffffffffffffffff\n      and\n        /* \"@openzeppelin/contracts@5.0.0/token/ERC721/ERC721.sol\":2006:2011  owner */\n      dup3\n        /* \"@openzeppelin/contracts@5.0.0/token/ERC721/ERC721.sol\":2006:2025  owner == address(0) */\n      0xffffffffffffffffffffffffffffffffffffffff\n      and\n      sub\n        /* \"@openzeppelin/contracts@5.0.0/token/ERC721/ERC721.sol\":2002:2089  if (owner == address(0)) {... */\n      tag_173\n      jumpi\n        /* \"@openzeppelin/contracts@5.0.0/token/ERC721/ERC721.sol\":2075:2076  0 */\n      0x00\n        /* \"@openzeppelin/contracts@5.0.0/token/ERC721/ERC721.sol\":2048:2078  ERC721InvalidOwner(address(0)) */\n      mload(0x40)\n      0x89c62b6400000000000000000000000000000000000000000000000000000000\n      dup2\n      mstore\n      0x04\n      add\n      tag_174\n      swap2\n      swap1\n      tag_44\n      jump\t// in\n    tag_174:\n      mload(0x40)\n      dup1\n      swap2\n      sub\n      swap1\n      revert\n        /* \"@openzeppelin/contracts@5.0.0/token/ERC721/ERC721.sol\":2002:2089  if (owner == address(0)) {... */\n    tag_173:\n        /* \"@openzeppelin/contracts@5.0.0/token/ERC721/ERC721.sol\":2105:2114  _balances */\n      0x03\n        /* \"@openzeppelin/contracts@5.0.0/token/ERC721/ERC721.sol\":2105:2121  _balances[owner] */\n      0x00\n        /* \"@openzeppelin/contracts@5.0.0/token/ERC721/ERC721.sol\":2115:2120  owner */\n      dup4\n        /* \"@openzeppelin/contracts@5.0.0/token/ERC721/ERC721.sol\":2105:2121  _balances[owner] */\n      0xffffffffffffffffffffffffffffffffffffffff\n      and\n      0xffffffffffffffffffffffffffffffffffffffff\n      and\n      dup2\n      mstore\n      0x20\n      add\n      swap1\n      dup2\n      mstore\n      0x20\n      add\n      0x00\n      keccak256\n      sload\n        /* \"@openzeppelin/contracts@5.0.0/token/ERC721/ERC721.sol\":2098:2121  return _balances[owner] */\n      swap1\n      pop\n        /* \"@openzeppelin/contracts@5.0.0/token/ERC721/ERC721.sol\":1920:2128  function balanceOf(address owner) public view virtual returns (uint256) {... */\n      swap2\n      swap1\n      pop\n      jump\t// out\n        /* \"@openzeppelin/contracts@5.0.0/access/Ownable.sol\":2293:2394  function renounceOwnership() public virtual onlyOwner {... */\n    tag_78:\n        /* \"@openzeppelin/contracts@5.0.0/access/Ownable.sol\":1531:1544  _checkOwner() */\n      tag_176\n        /* \"@openzeppelin/contracts@5.0.0/access/Ownable.sol\":1531:1542  _checkOwner */\n      tag_152\n        /* \"@openzeppelin/contracts@5.0.0/access/Ownable.sol\":1531:1544  _checkOwner() */\n      jump\t// in\n    tag_176:\n        /* \"@openzeppelin/contracts@5.0.0/access/Ownable.sol\":2357:2387  _transferOwnership(address(0)) */\n      tag_178\n        /* \"@openzeppelin/contracts@5.0.0/access/Ownable.sol\":2384:2385  0 */\n      0x00\n        /* \"@openzeppelin/contracts@5.0.0/access/Ownable.sol\":2357:2375  _transferOwnership */\n      tag_179\n        /* \"@openzeppelin/contracts@5.0.0/access/Ownable.sol\":2357:2387  _transferOwnership(address(0)) */\n      jump\t// in\n    tag_178:\n        /* \"@openzeppelin/contracts@5.0.0/access/Ownable.sol\":2293:2394  function renounceOwnership() public virtual onlyOwner {... */\n      jump\t// out\n        /* \"demo_erc721.sol\":552:594  mapping(uint256 => uint256) public tokenXP */\n    tag_81:\n      mstore(0x20, 0x09)\n      dup1\n      0x00\n      mstore\n      keccak256(0x00, 0x40)\n      0x00\n      swap2\n      pop\n      swap1\n      pop\n      sload\n      dup2\n      jump\t// out\n        /* \"demo_erc721.sol\":491:529  uint256 public royaltyPercentage = 500 */\n    tag_84:\n      sload(0x08)\n      dup2\n      jump\t// out\n        /* \"@openzeppelin/contracts@5.0.0/access/Ownable.sol\":1638:1723  function owner() public view virtual returns (address) {... */\n    tag_87:\n        /* \"@openzeppelin/contracts@5.0.0/access/Ownable.sol\":1684:1691  address */\n      0x00\n        /* \"@openzeppelin/contracts@5.0.0/access/Ownable.sol\":1710:1716  _owner */\n      0x07\n      0x00\n      swap1\n      sload\n      swap1\n      0x0100\n      exp\n      swap1\n      div\n      0xffffffffffffffffffffffffffffffffffffffff\n      and\n        /* \"@openzeppelin/contracts@5.0.0/access/Ownable.sol\":1703:1716  return _owner */\n      swap1\n      pop\n        /* \"@openzeppelin/contracts@5.0.0/access/Ownable.sol\":1638:1723  function owner() public view virtual returns (address) {... */\n      swap1\n      jump\t// out\n        /* \"@openzeppelin/contracts@5.0.0/token/ERC721/ERC721.sol\":2518:2611  function symbol() public view virtual returns (string memory) {... */\n    tag_90:\n        /* \"@openzeppelin/contracts@5.0.0/token/ERC721/ERC721.sol\":2565:2578  string memory */\n      0x60\n        /* \"@openzeppelin/contracts@5.0.0/token/ERC721/ERC721.sol\":2597:2604  _symbol */\n      0x01\n        /* \"@openzeppelin/contracts@5.0.0/token/ERC721/ERC721.sol\":2590:2604  return _symbol */\n      dup1\n      sload\n      tag_182\n      swap1\n      tag_126\n      jump\t// in\n    tag_182:\n      dup1\n      0x1f\n      add\n      0x20\n      dup1\n      swap2\n      div\n      mul\n      0x20\n      add\n      mload(0x40)\n      swap1\n      dup2\n      add\n      0x40\n      mstore\n      dup1\n      swap3\n      swap2\n      swap1\n      dup2\n      dup2\n      mstore\n      0x20\n      add\n      dup3\n      dup1\n      sload\n      tag_183\n      swap1\n      tag_126\n      jump\t// in\n    tag_183:\n      dup1\n      iszero\n      tag_184\n      jumpi\n      dup1\n      0x1f\n      lt\n      tag_185\n      jumpi\n      0x0100\n      dup1\n      dup4\n      sload\n      div\n      mul\n      dup4\n      mstore\n      swap2\n      0x20\n      add\n      swap2\n      jump(tag_184)\n    tag_185:\n      dup3\n      add\n      swap2\n      swap1\n      0x00\n      mstore\n      keccak256(0x00, 0x20)\n      swap1\n    tag_186:\n      dup2\n      sload\n      dup2\n      mstore\n      swap1\n      0x01\n      add\n      swap1\n      0x20\n      add\n      dup1\n      dup4\n      gt\n      tag_186\n      jumpi\n      dup3\n      swap1\n      sub\n      0x1f\n      and\n      dup3\n      add\n      swap2\n    tag_184:\n      pop\n      pop\n      pop\n      pop\n      pop\n      swap1\n      pop\n        /* \"@openzeppelin/contracts@5.0.0/token/ERC721/ERC721.sol\":2518:2611  function symbol() public view virtual returns (string memory) {... */\n      swap1\n      jump\t// out\n        /* \"demo_erc721.sol\":1901:2233  function batchMint(address to, uint256[] memory tokenIds, string[] memory uris) public onlyOwner {... */\n    tag_95:\n        /* \"@openzeppelin/contracts@5.0.0/access/Ownable.sol\":1531:1544  _checkOwner() */\n      tag_188\n        /* \"@openzeppelin/contracts@5.0.0/access/Ownable.sol\":1531:1542  _checkOwner */\n      tag_152\n        /* \"@openzeppelin/contracts@5.0.0/access/Ownable.sol\":1531:1544  _checkOwner() */\n      jump\t// in\n    tag_188:\n        /* \"demo_erc721.sol\":2035:2039  uris */\n      dup1\n        /* \"demo_erc721.sol\":2035:2046  uris.length */\n      mload\n        /* \"demo_erc721.sol\":2016:2024  tokenIds */\n      dup3\n        /* \"demo_erc721.sol\":2016:2031  tokenIds.length */\n      mload\n        /* \"demo_erc721.sol\":2016:2046  tokenIds.length == uris.length */\n      eq\n        /* \"demo_erc721.sol\":2008:2072  require(tokenIds.length == uris.length, \"Array length mismatch\") */\n      tag_190\n      jumpi\n      mload(0x40)\n      0x08c379a000000000000000000000000000000000000000000000000000000000\n      dup2\n      mstore\n      0x04\n      add\n      tag_191\n      swap1\n      tag_192\n      jump\t// in\n    tag_191:\n      mload(0x40)\n      dup1\n      swap2\n      sub\n      swap1\n      revert\n    tag_190:\n        /* \"demo_erc721.sol\":2087:2096  uint256 i */\n      0x00\n        /* \"demo_erc721.sol\":2082:2227  for (uint256 i = 0; i < tokenIds.length; i++) {... */\n    tag_193:\n        /* \"demo_erc721.sol\":2106:2114  tokenIds */\n      dup3\n        /* \"demo_erc721.sol\":2106:2121  tokenIds.length */\n      mload\n        /* \"demo_erc721.sol\":2102:2103  i */\n      dup2\n        /* \"demo_erc721.sol\":2102:2121  i < tokenIds.length */\n      lt\n        /* \"demo_erc721.sol\":2082:2227  for (uint256 i = 0; i < tokenIds.length; i++) {... */\n      iszero\n      tag_194\n      jumpi\n        /* \"demo_erc721.sol\":2142:2168  _safeMint(to, tokenIds[i]) */\n      tag_196\n        /* \"demo_erc721.sol\":2152:2154  to */\n      dup5\n        /* \"demo_erc721.sol\":2156:2164  tokenIds */\n      dup5\n        /* \"demo_erc721.sol\":2165:2166  i */\n      dup4\n        /* \"demo_erc721.sol\":2156:2167  tokenIds[i] */\n      dup2\n      mload\n      dup2\n      lt\n      tag_197\n      jumpi\n      tag_198\n      tag_199\n      jump\t// in\n    tag_198:\n    tag_197:\n      0x20\n      mul\n      0x20\n      add\n      add\n      mload\n        /* \"demo_erc721.sol\":2142:2151  _safeMint */\n      tag_157\n        /* \"demo_erc721.sol\":2142:2168  _safeMint(to, tokenIds[i]) */\n      jump\t// in\n    tag_196:\n        /* \"demo_erc721.sol\":2182:2216  _setTokenURI(tokenIds[i], uris[i]) */\n      tag_200\n        /* \"demo_erc721.sol\":2195:2203  tokenIds */\n      dup4\n        /* \"demo_erc721.sol\":2204:2205  i */\n      dup3\n        /* \"demo_erc721.sol\":2195:2206  tokenIds[i] */\n      dup2\n      mload\n      dup2\n      lt\n      tag_201\n      jumpi\n      tag_202\n      tag_199\n      jump\t// in\n    tag_202:\n    tag_201:\n      0x20\n      mul\n      0x20\n      add\n      add\n      mload\n        /* \"demo_erc721.sol\":2208:2212  uris */\n      dup4\n        /* \"demo_erc721.sol\":2213:2214  i */\n      dup4\n        /* \"demo_erc721.sol\":2208:2215  uris[i] */\n      dup2\n      mload\n      dup2\n      lt\n      tag_203\n      jumpi\n      tag_204\n      tag_199\n      jump\t// in\n    tag_204:\n    tag_203:\n      0x20\n      mul\n      0x20\n      add\n      add\n      mload\n        /* \"demo_erc721.sol\":2182:2194  _setTokenURI */\n      tag_159\n        /* \"demo_erc721.sol\":2182:2216  _setTokenURI(tokenIds[i], uris[i]) */\n      jump\t// in\n    tag_200:\n        /* \"demo_erc721.sol\":2123:2126  i++ */\n      dup1\n      dup1\n      0x01\n      add\n      swap2\n      pop\n      pop\n        /* \"demo_erc721.sol\":2082:2227  for (uint256 i = 0; i < tokenIds.length; i++) {... */\n      jump(tag_193)\n    tag_194:\n      pop\n        /* \"demo_erc721.sol\":1901:2233  function batchMint(address to, uint256[] memory tokenIds, string[] memory uris) public onlyOwner {... */\n      pop\n      pop\n      pop\n      jump\t// out\n        /* \"@openzeppelin/contracts@5.0.0/token/ERC721/ERC721.sol\":3718:3862  function setApprovalForAll(address operator, bool approved) public virtual {... */\n    tag_99:\n        /* \"@openzeppelin/contracts@5.0.0/token/ERC721/ERC721.sol\":3803:3855  _setApprovalForAll(_msgSender(), operator, approved) */\n      tag_206\n        /* \"@openzeppelin/contracts@5.0.0/token/ERC721/ERC721.sol\":3822:3834  _msgSender() */\n      tag_207\n        /* \"@openzeppelin/contracts@5.0.0/token/ERC721/ERC721.sol\":3822:3832  _msgSender */\n      tag_139\n        /* \"@openzeppelin/contracts@5.0.0/token/ERC721/ERC721.sol\":3822:3834  _msgSender() */\n      jump\t// in\n    tag_207:\n        /* \"@openzeppelin/contracts@5.0.0/token/ERC721/ERC721.sol\":3836:3844  operator */\n      dup4\n        /* \"@openzeppelin/contracts@5.0.0/token/ERC721/ERC721.sol\":3846:3854  approved */\n      dup4\n        /* \"@openzeppelin/contracts@5.0.0/token/ERC721/ERC721.sol\":3803:3821  _setApprovalForAll */\n      tag_208\n        /* \"@openzeppelin/contracts@5.0.0/token/ERC721/ERC721.sol\":3803:3855  _setApprovalForAll(_msgSender(), operator, approved) */\n      jump\t// in\n    tag_206:\n        /* \"@openzeppelin/contracts@5.0.0/token/ERC721/ERC721.sol\":3718:3862  function setApprovalForAll(address operator, bool approved) public virtual {... */\n      pop\n      pop\n      jump\t// out\n        /* \"@openzeppelin/contracts@5.0.0/token/ERC721/ERC721.sol\":4985:5193  function safeTransferFrom(address from, address to, uint256 tokenId, bytes memory data) public virtual {... */\n    tag_103:\n        /* \"@openzeppelin/contracts@5.0.0/token/ERC721/ERC721.sol\":5098:5129  transferFrom(from, to, tokenId) */\n      tag_210\n        /* \"@openzeppelin/contracts@5.0.0/token/ERC721/ERC721.sol\":5111:5115  from */\n      dup5\n        /* \"@openzeppelin/contracts@5.0.0/token/ERC721/ERC721.sol\":5117:5119  to */\n      dup5\n        /* \"@openzeppelin/contracts@5.0.0/token/ERC721/ERC721.sol\":5121:5128  tokenId */\n      dup5\n        /* \"@openzeppelin/contracts@5.0.0/token/ERC721/ERC721.sol\":5098:5110  transferFrom */\n      tag_52\n        /* \"@openzeppelin/contracts@5.0.0/token/ERC721/ERC721.sol\":5098:5129  transferFrom(from, to, tokenId) */\n      jump\t// in\n    tag_210:\n        /* \"@openzeppelin/contracts@5.0.0/token/ERC721/ERC721.sol\":5139:5186  _checkOnERC721Received(from, to, tokenId, data) */\n      tag_211\n        /* \"@openzeppelin/contracts@5.0.0/token/ERC721/ERC721.sol\":5162:5166  from */\n      dup5\n        /* \"@openzeppelin/contracts@5.0.0/token/ERC721/ERC721.sol\":5168:5170  to */\n      dup5\n        /* \"@openzeppelin/contracts@5.0.0/token/ERC721/ERC721.sol\":5172:5179  tokenId */\n      dup5\n        /* \"@openzeppelin/contracts@5.0.0/token/ERC721/ERC721.sol\":5181:5185  data */\n      dup5\n        /* \"@openzeppelin/contracts@5.0.0/token/ERC721/ERC721.sol\":5139:5161  _checkOnERC721Received */\n      tag_212\n        /* \"@openzeppelin/contracts@5.0.0/token/ERC721/ERC721.sol\":5139:5186  _checkOnERC721Received(from, to, tokenId, data) */\n      jump\t// in\n    tag_211:\n        /* \"@openzeppelin/contracts@5.0.0/token/ERC721/ERC721.sol\":4985:5193  function safeTransferFrom(address from, address to, uint256 tokenId, bytes memory data) public virtual {... */\n      pop\n      pop\n      pop\n      pop\n      jump\t// out\n        /* \"demo_erc721.sol\":1014:1167  function tokenURI(uint256 tokenId) public view override(ERC721, ERC721URIStorage) returns (string memory) {... */\n    tag_106:\n        /* \"demo_erc721.sol\":1105:1118  string memory */\n      0x60\n        /* \"demo_erc721.sol\":1137:1160  super.tokenURI(tokenId) */\n      tag_214\n        /* \"demo_erc721.sol\":1152:1159  tokenId */\n      dup3\n        /* \"demo_erc721.sol\":1137:1151  super.tokenURI */\n      tag_215\n        /* \"demo_erc721.sol\":1137:1160  super.tokenURI(tokenId) */\n      jump\t// in\n    tag_214:\n        /* \"demo_erc721.sol\":1130:1160  return super.tokenURI(tokenId) */\n      swap1\n      pop\n        /* \"demo_erc721.sol\":1014:1167  function tokenURI(uint256 tokenId) public view override(ERC721, ERC721URIStorage) returns (string memory) {... */\n      swap2\n      swap1\n      pop\n      jump\t// out\n        /* \"demo_erc721.sol\":1438:1616  function royaltyInfo(uint256 salePrice) external view returns (address receiver, uint256 royaltyAmount) {... */\n    tag_110:\n        /* \"demo_erc721.sol\":1501:1517  address receiver */\n      0x00\n        /* \"demo_erc721.sol\":1519:1540  uint256 royaltyAmount */\n      dup1\n        /* \"demo_erc721.sol\":1560:1567  owner() */\n      tag_217\n        /* \"demo_erc721.sol\":1560:1565  owner */\n      tag_87\n        /* \"demo_erc721.sol\":1560:1567  owner() */\n      jump\t// in\n    tag_217:\n        /* \"demo_erc721.sol\":1603:1608  10000 */\n      0x2710\n        /* \"demo_erc721.sol\":1582:1599  royaltyPercentage */\n      sload(0x08)\n        /* \"demo_erc721.sol\":1570:1579  salePrice */\n      dup6\n        /* \"demo_erc721.sol\":1570:1599  salePrice * royaltyPercentage */\n      tag_218\n      swap2\n      swap1\n      tag_219\n      jump\t// in\n    tag_218:\n        /* \"demo_erc721.sol\":1569:1608  (salePrice * royaltyPercentage) / 10000 */\n      tag_220\n      swap2\n      swap1\n      tag_221\n      jump\t// in\n    tag_220:\n        /* \"demo_erc721.sol\":1552:1609  return (owner(), (salePrice * royaltyPercentage) / 10000) */\n      swap2\n      pop\n      swap2\n      pop\n        /* \"demo_erc721.sol\":1438:1616  function royaltyInfo(uint256 salePrice) external view returns (address receiver, uint256 royaltyAmount) {... */\n      swap2\n      pop\n      swap2\n      jump\t// out\n        /* \"@openzeppelin/contracts@5.0.0/token/ERC721/ERC721.sol\":3928:4081  function isApprovedForAll(address owner, address operator) public view virtual returns (bool) {... */\n    tag_116:\n        /* \"@openzeppelin/contracts@5.0.0/token/ERC721/ERC721.sol\":4016:4020  bool */\n      0x00\n        /* \"@openzeppelin/contracts@5.0.0/token/ERC721/ERC721.sol\":4039:4057  _operatorApprovals */\n      0x05\n        /* \"@openzeppelin/contracts@5.0.0/token/ERC721/ERC721.sol\":4039:4064  _operatorApprovals[owner] */\n      0x00\n        /* \"@openzeppelin/contracts@5.0.0/token/ERC721/ERC721.sol\":4058:4063  owner */\n      dup5\n        /* \"@openzeppelin/contracts@5.0.0/token/ERC721/ERC721.sol\":4039:4064  _operatorApprovals[owner] */\n      0xffffffffffffffffffffffffffffffffffffffff\n      and\n      0xffffffffffffffffffffffffffffffffffffffff\n      and\n      dup2\n      mstore\n      0x20\n      add\n      swap1\n      dup2\n      mstore\n      0x20\n      add\n      0x00\n      keccak256\n        /* \"@openzeppelin/contracts@5.0.0/token/ERC721/ERC721.sol\":4039:4074  _operatorApprovals[owner][operator] */\n      0x00\n        /* \"@openzeppelin/contracts@5.0.0/token/ERC721/ERC721.sol\":4065:4073  operator */\n      dup4\n        /* \"@openzeppelin/contracts@5.0.0/token/ERC721/ERC721.sol\":4039:4074  _operatorApprovals[owner][operator] */\n      0xffffffffffffffffffffffffffffffffffffffff\n      and\n      0xffffffffffffffffffffffffffffffffffffffff\n      and\n      dup2\n      mstore\n      0x20\n      add\n      swap1\n      dup2\n      mstore\n      0x20\n      add\n      0x00\n      keccak256\n      0x00\n      swap1\n      sload\n      swap1\n      0x0100\n      exp\n      swap1\n      div\n      0xff\n      and\n        /* \"@openzeppelin/contracts@5.0.0/token/ERC721/ERC721.sol\":4032:4074  return _operatorApprovals[owner][operator] */\n      swap1\n      pop\n        /* \"@openzeppelin/contracts@5.0.0/token/ERC721/ERC721.sol\":3928:4081  function isApprovedForAll(address owner, address operator) public view virtual returns (bool) {... */\n      swap3\n      swap2\n      pop\n      pop\n      jump\t// out\n        /* \"@openzeppelin/contracts@5.0.0/access/Ownable.sol\":2543:2758  function transferOwnership(address newOwner) public virtual onlyOwner {... */\n    tag_120:\n        /* \"@openzeppelin/contracts@5.0.0/access/Ownable.sol\":1531:1544  _checkOwner() */\n      tag_224\n        /* \"@openzeppelin/contracts@5.0.0/access/Ownable.sol\":1531:1542  _checkOwner */\n      tag_152\n        /* \"@openzeppelin/contracts@5.0.0/access/Ownable.sol\":1531:1544  _checkOwner() */\n      jump\t// in\n    tag_224:\n        /* \"@openzeppelin/contracts@5.0.0/access/Ownable.sol\":2647:2648  0 */\n      0x00\n        /* \"@openzeppelin/contracts@5.0.0/access/Ownable.sol\":2627:2649  newOwner == address(0) */\n      0xffffffffffffffffffffffffffffffffffffffff\n      and\n        /* \"@openzeppelin/contracts@5.0.0/access/Ownable.sol\":2627:2635  newOwner */\n      dup2\n        /* \"@openzeppelin/contracts@5.0.0/access/Ownable.sol\":2627:2649  newOwner == address(0) */\n      0xffffffffffffffffffffffffffffffffffffffff\n      and\n      sub\n        /* \"@openzeppelin/contracts@5.0.0/access/Ownable.sol\":2623:2714  if (newOwner == address(0)) {... */\n      tag_226\n      jumpi\n        /* \"@openzeppelin/contracts@5.0.0/access/Ownable.sol\":2700:2701  0 */\n      0x00\n        /* \"@openzeppelin/contracts@5.0.0/access/Ownable.sol\":2672:2703  OwnableInvalidOwner(address(0)) */\n      mload(0x40)\n      0x1e4fbdf700000000000000000000000000000000000000000000000000000000\n      dup2\n      mstore\n      0x04\n      add\n      tag_227\n      swap2\n      swap1\n      tag_44\n      jump\t// in\n    tag_227:\n      mload(0x40)\n      dup1\n      swap2\n      sub\n      swap1\n      revert\n        /* \"@openzeppelin/contracts@5.0.0/access/Ownable.sol\":2623:2714  if (newOwner == address(0)) {... */\n    tag_226:\n        /* \"@openzeppelin/contracts@5.0.0/access/Ownable.sol\":2723:2751  _transferOwnership(newOwner) */\n      tag_228\n        /* \"@openzeppelin/contracts@5.0.0/access/Ownable.sol\":2742:2750  newOwner */\n      dup2\n        /* \"@openzeppelin/contracts@5.0.0/access/Ownable.sol\":2723:2741  _transferOwnership */\n      tag_179\n        /* \"@openzeppelin/contracts@5.0.0/access/Ownable.sol\":2723:2751  _transferOwnership(newOwner) */\n      jump\t// in\n    tag_228:\n        /* \"@openzeppelin/contracts@5.0.0/access/Ownable.sol\":2543:2758  function transferOwnership(address newOwner) public virtual onlyOwner {... */\n      pop\n      jump\t// out\n        /* \"@openzeppelin/contracts@5.0.0/token/ERC721/extensions/ERC721URIStorage.sol\":937:1144  function supportsInterface(bytes4 interfaceId) public view virtual override(ERC721, IERC165) returns (bool) {... */\n    tag_123:\n        /* \"@openzeppelin/contracts@5.0.0/token/ERC721/extensions/ERC721URIStorage.sol\":1039:1043  bool */\n      0x00\n        /* \"@openzeppelin/contracts@5.0.0/token/ERC721/extensions/ERC721URIStorage.sol\":760:770  0x49064906 */\n      0x49064906\n        /* \"@openzeppelin/contracts@5.0.0/token/ERC721/extensions/ERC721URIStorage.sol\":753:771  bytes4(0x49064906) */\n      0xe0\n      shl\n        /* \"@openzeppelin/contracts@5.0.0/token/ERC721/extensions/ERC721URIStorage.sol\":1062:1097  interfaceId == ERC4906_INTERFACE_ID */\n      not(0xffffffffffffffffffffffffffffffffffffffffffffffffffffffff)\n      and\n        /* \"@openzeppelin/contracts@5.0.0/token/ERC721/extensions/ERC721URIStorage.sol\":1062:1073  interfaceId */\n      dup3\n        /* \"@openzeppelin/contracts@5.0.0/token/ERC721/extensions/ERC721URIStorage.sol\":1062:1097  interfaceId == ERC4906_INTERFACE_ID */\n      not(0xffffffffffffffffffffffffffffffffffffffffffffffffffffffff)\n      and\n      eq\n        /* \"@openzeppelin/contracts@5.0.0/token/ERC721/extensions/ERC721URIStorage.sol\":1062:1137  interfaceId == ERC4906_INTERFACE_ID || super.supportsInterface(interfaceId) */\n      dup1\n      tag_230\n      jumpi\n      pop\n        /* \"@openzeppelin/contracts@5.0.0/token/ERC721/extensions/ERC721URIStorage.sol\":1101:1137  super.supportsInterface(interfaceId) */\n      tag_231\n        /* \"@openzeppelin/contracts@5.0.0/token/ERC721/extensions/ERC721URIStorage.sol\":1125:1136  interfaceId */\n      dup3\n        /* \"@openzeppelin/contracts@5.0.0/token/ERC721/extensions/ERC721URIStorage.sol\":1101:1124  super.supportsInterface */\n      tag_232\n        /* \"@openzeppelin/contracts@5.0.0/token/ERC721/extensions/ERC721URIStorage.sol\":1101:1137  super.supportsInterface(interfaceId) */\n      jump\t// in\n    tag_231:\n        /* \"@openzeppelin/contracts@5.0.0/token/ERC721/extensions/ERC721URIStorage.sol\":1062:1137  interfaceId == ERC4906_INTERFACE_ID || super.supportsInterface(interfaceId) */\n    tag_230:\n        /* \"@openzeppelin/contracts@5.0.0/token/ERC721/extensions/ERC721URIStorage.sol\":1055:1137  return interfaceId == ERC4906_INTERFACE_ID || super.supportsInterface(interfaceId) */\n      swap1\n      pop\n        /* \"@openzeppelin/contracts@5.0.0/token/ERC721/extensions/ERC721URIStorage.sol\":937:1144  function supportsInterface(bytes4 interfaceId) public view virtual override(ERC721, IERC165) returns (bool) {... */\n      swap2\n      swap1\n      pop\n      jump\t// out\n        /* \"@openzeppelin/contracts@5.0.0/token/ERC721/ERC721.sol\":16138:16379  function _requireOwned(uint256 tokenId) internal view returns (address) {... */\n    tag_133:\n        /* \"@openzeppelin/contracts@5.0.0/token/ERC721/ERC721.sol\":16201:16208  address */\n      0x00\n        /* \"@openzeppelin/contracts@5.0.0/token/ERC721/ERC721.sol\":16220:16233  address owner */\n      dup1\n        /* \"@openzeppelin/contracts@5.0.0/token/ERC721/ERC721.sol\":16236:16253  _ownerOf(tokenId) */\n      tag_234\n        /* \"@openzeppelin/contracts@5.0.0/token/ERC721/ERC721.sol\":16245:16252  tokenId */\n      dup4\n        /* \"@openzeppelin/contracts@5.0.0/token/ERC721/ERC721.sol\":16236:16244  _ownerOf */\n      tag_235\n        /* \"@openzeppelin/contracts@5.0.0/token/ERC721/ERC721.sol\":16236:16253  _ownerOf(tokenId) */\n      jump\t// in\n    tag_234:\n        /* \"@openzeppelin/contracts@5.0.0/token/ERC721/ERC721.sol\":16220:16253  address owner = _ownerOf(tokenId) */\n      swap1\n      pop\n        /* \"@openzeppelin/contracts@5.0.0/token/ERC721/ERC721.sol\":16284:16285  0 */\n      0x00\n        /* \"@openzeppelin/contracts@5.0.0/token/ERC721/ERC721.sol\":16267:16286  owner == address(0) */\n      0xffffffffffffffffffffffffffffffffffffffff\n      and\n        /* \"@openzeppelin/contracts@5.0.0/token/ERC721/ERC721.sol\":16267:16272  owner */\n      dup2\n        /* \"@openzeppelin/contracts@5.0.0/token/ERC721/ERC721.sol\":16267:16286  owner == address(0) */\n      0xffffffffffffffffffffffffffffffffffffffff\n      and\n      sub\n        /* \"@openzeppelin/contracts@5.0.0/token/ERC721/ERC721.sol\":16263:16351  if (owner == address(0)) {... */\n      tag_236\n      jumpi\n        /* \"@openzeppelin/contracts@5.0.0/token/ERC721/ERC721.sol\":16332:16339  tokenId */\n      dup3\n        /* \"@openzeppelin/contracts@5.0.0/token/ERC721/ERC721.sol\":16309:16340  ERC721NonexistentToken(tokenId) */\n      mload(0x40)\n      0x7e27328900000000000000000000000000000000000000000000000000000000\n      dup2\n      mstore\n      0x04\n      add\n      tag_237\n      swap2\n      swap1\n      tag_76\n      jump\t// in\n    tag_237:\n      mload(0x40)\n      dup1\n      swap2\n      sub\n      swap1\n      revert\n        /* \"@openzeppelin/contracts@5.0.0/token/ERC721/ERC721.sol\":16263:16351  if (owner == address(0)) {... */\n    tag_236:\n        /* \"@openzeppelin/contracts@5.0.0/token/ERC721/ERC721.sol\":16367:16372  owner */\n      dup1\n        /* \"@openzeppelin/contracts@5.0.0/token/ERC721/ERC721.sol\":16360:16372  return owner */\n      swap2\n      pop\n      pop\n        /* \"@openzeppelin/contracts@5.0.0/token/ERC721/ERC721.sol\":16138:16379  function _requireOwned(uint256 tokenId) internal view returns (address) {... */\n      swap2\n      swap1\n      pop\n      jump\t// out\n        /* \"@openzeppelin/contracts@5.0.0/token/ERC721/ERC721.sol\":5938:6065  function _getApproved(uint256 tokenId) internal view virtual returns (address) {... */\n    tag_135:\n        /* \"@openzeppelin/contracts@5.0.0/token/ERC721/ERC721.sol\":6008:6015  address */\n      0x00\n        /* \"@openzeppelin/contracts@5.0.0/token/ERC721/ERC721.sol\":6034:6049  _tokenApprovals */\n      0x04\n        /* \"@openzeppelin/contracts@5.0.0/token/ERC721/ERC721.sol\":6034:6058  _tokenApprovals[tokenId] */\n      0x00\n        /* \"@openzeppelin/contracts@5.0.0/token/ERC721/ERC721.sol\":6050:6057  tokenId */\n      dup4\n        /* \"@openzeppelin/contracts@5.0.0/token/ERC721/ERC721.sol\":6034:6058  _tokenApprovals[tokenId] */\n      dup2\n      mstore\n      0x20\n      add\n      swap1\n      dup2\n      mstore\n      0x20\n      add\n      0x00\n      keccak256\n      0x00\n      swap1\n      sload\n      swap1\n      0x0100\n      exp\n      swap1\n      div\n      0xffffffffffffffffffffffffffffffffffffffff\n      and\n        /* \"@openzeppelin/contracts@5.0.0/token/ERC721/ERC721.sol\":6027:6058  return _tokenApprovals[tokenId] */\n      swap1\n      pop\n        /* \"@openzeppelin/contracts@5.0.0/token/ERC721/ERC721.sol\":5938:6065  function _getApproved(uint256 tokenId) internal view virtual returns (address) {... */\n      swap2\n      swap1\n      pop\n      jump\t// out\n        /* \"@openzeppelin/contracts@5.0.0/utils/Context.sol\":656:752  function _msgSender() internal view virtual returns (address) {... */\n    tag_139:\n        /* \"@openzeppelin/contracts@5.0.0/utils/Context.sol\":709:716  address */\n      0x00\n        /* \"@openzeppelin/contracts@5.0.0/utils/Context.sol\":735:745  msg.sender */\n      caller\n        /* \"@openzeppelin/contracts@5.0.0/utils/Context.sol\":728:745  return msg.sender */\n      swap1\n      pop\n        /* \"@openzeppelin/contracts@5.0.0/utils/Context.sol\":656:752  function _msgSender() internal view virtual returns (address) {... */\n      swap1\n      jump\t// out\n        /* \"@openzeppelin/contracts@5.0.0/token/ERC721/ERC721.sol\":14418:14538  function _approve(address to, uint256 tokenId, address auth) internal {... */\n    tag_140:\n        /* \"@openzeppelin/contracts@5.0.0/token/ERC721/ERC721.sol\":14498:14531  _approve(to, tokenId, auth, true) */\n      tag_241\n        /* \"@openzeppelin/contracts@5.0.0/token/ERC721/ERC721.sol\":14507:14509  to */\n      dup4\n        /* \"@openzeppelin/contracts@5.0.0/token/ERC721/ERC721.sol\":14511:14518  tokenId */\n      dup4\n        /* \"@openzeppelin/contracts@5.0.0/token/ERC721/ERC721.sol\":14520:14524  auth */\n      dup4\n        /* \"@openzeppelin/contracts@5.0.0/token/ERC721/ERC721.sol\":14526:14530  true */\n      0x01\n        /* \"@openzeppelin/contracts@5.0.0/token/ERC721/ERC721.sol\":14498:14506  _approve */\n      tag_242\n        /* \"@openzeppelin/contracts@5.0.0/token/ERC721/ERC721.sol\":14498:14531  _approve(to, tokenId, auth, true) */\n      jump\t// in\n    tag_241:\n        /* \"@openzeppelin/contracts@5.0.0/token/ERC721/ERC721.sol\":14418:14538  function _approve(address to, uint256 tokenId, address auth) internal {... */\n      pop\n      pop\n      pop\n      jump\t// out\n        /* \"@openzeppelin/contracts@5.0.0/token/ERC721/ERC721.sol\":8838:9633  function _update(address to, uint256 tokenId, address auth) internal virtual returns (address) {... */\n    tag_146:\n        /* \"@openzeppelin/contracts@5.0.0/token/ERC721/ERC721.sol\":8924:8931  address */\n      0x00\n        /* \"@openzeppelin/contracts@5.0.0/token/ERC721/ERC721.sol\":8943:8955  address from */\n      dup1\n        /* \"@openzeppelin/contracts@5.0.0/token/ERC721/ERC721.sol\":8958:8975  _ownerOf(tokenId) */\n      tag_244\n        /* \"@openzeppelin/contracts@5.0.0/token/ERC721/ERC721.sol\":8967:8974  tokenId */\n      dup5\n        /* \"@openzeppelin/contracts@5.0.0/token/ERC721/ERC721.sol\":8958:8966  _ownerOf */\n      tag_235\n        /* \"@openzeppelin/contracts@5.0.0/token/ERC721/ERC721.sol\":8958:8975  _ownerOf(tokenId) */\n      jump\t// in\n    tag_244:\n        /* \"@openzeppelin/contracts@5.0.0/token/ERC721/ERC721.sol\":8943:8975  address from = _ownerOf(tokenId) */\n      swap1\n      pop\n        /* \"@openzeppelin/contracts@5.0.0/token/ERC721/ERC721.sol\":9051:9052  0 */\n      0x00\n        /* \"@openzeppelin/contracts@5.0.0/token/ERC721/ERC721.sol\":9035:9053  auth != address(0) */\n      0xffffffffffffffffffffffffffffffffffffffff\n      and\n        /* \"@openzeppelin/contracts@5.0.0/token/ERC721/ERC721.sol\":9035:9039  auth */\n      dup4\n        /* \"@openzeppelin/contracts@5.0.0/token/ERC721/ERC721.sol\":9035:9053  auth != address(0) */\n      0xffffffffffffffffffffffffffffffffffffffff\n      and\n      eq\n        /* \"@openzeppelin/contracts@5.0.0/token/ERC721/ERC721.sol\":9031:9117  if (auth != address(0)) {... */\n      tag_245\n      jumpi\n        /* \"@openzeppelin/contracts@5.0.0/token/ERC721/ERC721.sol\":9069:9106  _checkAuthorized(from, auth, tokenId) */\n      tag_246\n        /* \"@openzeppelin/contracts@5.0.0/token/ERC721/ERC721.sol\":9086:9090  from */\n      dup2\n        /* \"@openzeppelin/contracts@5.0.0/token/ERC721/ERC721.sol\":9092:9096  auth */\n      dup5\n        /* \"@openzeppelin/contracts@5.0.0/token/ERC721/ERC721.sol\":9098:9105  tokenId */\n      dup7\n        /* \"@openzeppelin/contracts@5.0.0/token/ERC721/ERC721.sol\":9069:9085  _checkAuthorized */\n      tag_247\n        /* \"@openzeppelin/contracts@5.0.0/token/ERC721/ERC721.sol\":9069:9106  _checkAuthorized(from, auth, tokenId) */\n      jump\t// in\n    tag_246:\n        /* \"@openzeppelin/contracts@5.0.0/token/ERC721/ERC721.sol\":9031:9117  if (auth != address(0)) {... */\n    tag_245:\n        /* \"@openzeppelin/contracts@5.0.0/token/ERC721/ERC721.sol\":9177:9178  0 */\n      0x00\n        /* \"@openzeppelin/contracts@5.0.0/token/ERC721/ERC721.sol\":9161:9179  from != address(0) */\n      0xffffffffffffffffffffffffffffffffffffffff\n      and\n        /* \"@openzeppelin/contracts@5.0.0/token/ERC721/ERC721.sol\":9161:9165  from */\n      dup2\n        /* \"@openzeppelin/contracts@5.0.0/token/ERC721/ERC721.sol\":9161:9179  from != address(0) */\n      0xffffffffffffffffffffffffffffffffffffffff\n      and\n      eq\n        /* \"@openzeppelin/contracts@5.0.0/token/ERC721/ERC721.sol\":9157:9413  if (from != address(0)) {... */\n      tag_248\n      jumpi\n        /* \"@openzeppelin/contracts@5.0.0/token/ERC721/ERC721.sol\":9277:9325  _approve(address(0), tokenId, address(0), false) */\n      tag_249\n        /* \"@openzeppelin/contracts@5.0.0/token/ERC721/ERC721.sol\":9294:9295  0 */\n      0x00\n        /* \"@openzeppelin/contracts@5.0.0/token/ERC721/ERC721.sol\":9298:9305  tokenId */\n      dup6\n        /* \"@openzeppelin/contracts@5.0.0/token/ERC721/ERC721.sol\":9315:9316  0 */\n      0x00\n        /* \"@openzeppelin/contracts@5.0.0/token/ERC721/ERC721.sol\":9319:9324  false */\n      dup1\n        /* \"@openzeppelin/contracts@5.0.0/token/ERC721/ERC721.sol\":9277:9285  _approve */\n      tag_242\n        /* \"@openzeppelin/contracts@5.0.0/token/ERC721/ERC721.sol\":9277:9325  _approve(address(0), tokenId, address(0), false) */\n      jump\t// in\n    tag_249:\n        /* \"@openzeppelin/contracts@5.0.0/token/ERC721/ERC721.sol\":9387:9388  1 */\n      0x01\n        /* \"@openzeppelin/contracts@5.0.0/token/ERC721/ERC721.sol\":9368:9377  _balances */\n      0x03\n        /* \"@openzeppelin/contracts@5.0.0/token/ERC721/ERC721.sol\":9368:9383  _balances[from] */\n      0x00\n        /* \"@openzeppelin/contracts@5.0.0/token/ERC721/ERC721.sol\":9378:9382  from */\n      dup4\n        /* \"@openzeppelin/contracts@5.0.0/token/ERC721/ERC721.sol\":9368:9383  _balances[from] */\n      0xffffffffffffffffffffffffffffffffffffffff\n      and\n      0xffffffffffffffffffffffffffffffffffffffff\n      and\n      dup2\n      mstore\n      0x20\n      add\n      swap1\n      dup2\n      mstore\n      0x20\n      add\n      0x00\n      keccak256\n      0x00\n        /* \"@openzeppelin/contracts@5.0.0/token/ERC721/ERC721.sol\":9368:9388  _balances[from] -= 1 */\n      dup3\n      dup3\n      sload\n      sub\n      swap3\n      pop\n      pop\n      dup2\n      swap1\n      sstore\n      pop\n        /* \"@openzeppelin/contracts@5.0.0/token/ERC721/ERC721.sol\":9157:9413  if (from != address(0)) {... */\n    tag_248:\n        /* \"@openzeppelin/contracts@5.0.0/token/ERC721/ERC721.sol\":9441:9442  0 */\n      0x00\n        /* \"@openzeppelin/contracts@5.0.0/token/ERC721/ERC721.sol\":9427:9443  to != address(0) */\n      0xffffffffffffffffffffffffffffffffffffffff\n      and\n        /* \"@openzeppelin/contracts@5.0.0/token/ERC721/ERC721.sol\":9427:9429  to */\n      dup6\n        /* \"@openzeppelin/contracts@5.0.0/token/ERC721/ERC721.sol\":9427:9443  to != address(0) */\n      0xffffffffffffffffffffffffffffffffffffffff\n      and\n      eq\n        /* \"@openzeppelin/contracts@5.0.0/token/ERC721/ERC721.sol\":9423:9530  if (to != address(0)) {... */\n      tag_250\n      jumpi\n        /* \"@openzeppelin/contracts@5.0.0/token/ERC721/ERC721.sol\":9504:9505  1 */\n      0x01\n        /* \"@openzeppelin/contracts@5.0.0/token/ERC721/ERC721.sol\":9487:9496  _balances */\n      0x03\n        /* \"@openzeppelin/contracts@5.0.0/token/ERC721/ERC721.sol\":9487:9500  _balances[to] */\n      0x00\n        /* \"@openzeppelin/contracts@5.0.0/token/ERC721/ERC721.sol\":9497:9499  to */\n      dup8\n        /* \"@openzeppelin/contracts@5.0.0/token/ERC721/ERC721.sol\":9487:9500  _balances[to] */\n      0xffffffffffffffffffffffffffffffffffffffff\n      and\n      0xffffffffffffffffffffffffffffffffffffffff\n      and\n      dup2\n      mstore\n      0x20\n      add\n      swap1\n      dup2\n      mstore\n      0x20\n      add\n      0x00\n      keccak256\n      0x00\n        /* \"@openzeppelin/contracts@5.0.0/token/ERC721/ERC721.sol\":9487:9505  _balances[to] += 1 */\n      dup3\n      dup3\n      sload\n      add\n      swap3\n      pop\n      pop\n      dup2\n      swap1\n      sstore\n      pop\n        /* \"@openzeppelin/contracts@5.0.0/token/ERC721/ERC721.sol\":9423:9530  if (to != address(0)) {... */\n    tag_250:\n        /* \"@openzeppelin/contracts@5.0.0/token/ERC721/ERC721.sol\":9559:9561  to */\n      dup5\n        /* \"@openzeppelin/contracts@5.0.0/token/ERC721/ERC721.sol\":9540:9547  _owners */\n      0x02\n        /* \"@openzeppelin/contracts@5.0.0/token/ERC721/ERC721.sol\":9540:9556  _owners[tokenId] */\n      0x00\n        /* \"@openzeppelin/contracts@5.0.0/token/ERC721/ERC721.sol\":9548:9555  tokenId */\n      dup7\n        /* \"@openzeppelin/contracts@5.0.0/token/ERC721/ERC721.sol\":9540:9556  _owners[tokenId] */\n      dup2\n      mstore\n      0x20\n      add\n      swap1\n      dup2\n      mstore\n      0x20\n      add\n      0x00\n      keccak256\n      0x00\n        /* \"@openzeppelin/contracts@5.0.0/token/ERC721/ERC721.sol\":9540:9561  _owners[tokenId] = to */\n      0x0100\n      exp\n      dup2\n      sload\n      dup2\n      0xffffffffffffffffffffffffffffffffffffffff\n      mul\n      not\n      and\n      swap1\n      dup4\n      0xffffffffffffffffffffffffffffffffffffffff\n      and\n      mul\n      or\n      swap1\n      sstore\n      pop\n        /* \"@openzeppelin/contracts@5.0.0/token/ERC721/ERC721.sol\":9596:9603  tokenId */\n      dup4\n        /* \"@openzeppelin/contracts@5.0.0/token/ERC721/ERC721.sol\":9592:9594  to */\n      dup6\n        /* \"@openzeppelin/contracts@5.0.0/token/ERC721/ERC721.sol\":9577:9604  Transfer(from, to, tokenId) */\n      0xffffffffffffffffffffffffffffffffffffffff\n      and\n        /* \"@openzeppelin/contracts@5.0.0/token/ERC721/ERC721.sol\":9586:9590  from */\n      dup3\n        /* \"@openzeppelin/contracts@5.0.0/token/ERC721/ERC721.sol\":9577:9604  Transfer(from, to, tokenId) */\n      0xffffffffffffffffffffffffffffffffffffffff\n      and\n      0xddf252ad1be2c89b69c2b068fc378daa952ba7f163c4a11628f55a4df523b3ef\n      mload(0x40)\n      mload(0x40)\n      dup1\n      swap2\n      sub\n      swap1\n      log4\n        /* \"@openzeppelin/contracts@5.0.0/token/ERC721/ERC721.sol\":9622:9626  from */\n      dup1\n        /* \"@openzeppelin/contracts@5.0.0/token/ERC721/ERC721.sol\":9615:9626  return from */\n      swap2\n      pop\n      pop\n        /* \"@openzeppelin/contracts@5.0.0/token/ERC721/ERC721.sol\":8838:9633  function _update(address to, uint256 tokenId, address auth) internal virtual returns (address) {... */\n      swap4\n      swap3\n      pop\n      pop\n      pop\n      jump\t// out\n        /* \"@openzeppelin/contracts@5.0.0/access/Ownable.sol\":1796:1958  function _checkOwner() internal view virtual {... */\n    tag_152:\n        /* \"@openzeppelin/contracts@5.0.0/access/Ownable.sol\":1866:1878  _msgSender() */\n      tag_252\n        /* \"@openzeppelin/contracts@5.0.0/access/Ownable.sol\":1866:1876  _msgSender */\n      tag_139\n        /* \"@openzeppelin/contracts@5.0.0/access/Ownable.sol\":1866:1878  _msgSender() */\n      jump\t// in\n    tag_252:\n        /* \"@openzeppelin/contracts@5.0.0/access/Ownable.sol\":1855:1878  owner() != _msgSender() */\n      0xffffffffffffffffffffffffffffffffffffffff\n      and\n        /* \"@openzeppelin/contracts@5.0.0/access/Ownable.sol\":1855:1862  owner() */\n      tag_253\n        /* \"@openzeppelin/contracts@5.0.0/access/Ownable.sol\":1855:1860  owner */\n      tag_87\n        /* \"@openzeppelin/contracts@5.0.0/access/Ownable.sol\":1855:1862  owner() */\n      jump\t// in\n    tag_253:\n        /* \"@openzeppelin/contracts@5.0.0/access/Ownable.sol\":1855:1878  owner() != _msgSender() */\n      0xffffffffffffffffffffffffffffffffffffffff\n      and\n      eq\n        /* \"@openzeppelin/contracts@5.0.0/access/Ownable.sol\":1851:1952  if (owner() != _msgSender()) {... */\n      tag_254\n      jumpi\n        /* \"@openzeppelin/contracts@5.0.0/access/Ownable.sol\":1928:1940  _msgSender() */\n      tag_255\n        /* \"@openzeppelin/contracts@5.0.0/access/Ownable.sol\":1928:1938  _msgSender */\n      tag_139\n        /* \"@openzeppelin/contracts@5.0.0/access/Ownable.sol\":1928:1940  _msgSender() */\n      jump\t// in\n    tag_255:\n        /* \"@openzeppelin/contracts@5.0.0/access/Ownable.sol\":1901:1941  OwnableUnauthorizedAccount(_msgSender()) */\n      mload(0x40)\n      0x118cdaa700000000000000000000000000000000000000000000000000000000\n      dup2\n      mstore\n      0x04\n      add\n      tag_256\n      swap2\n      swap1\n      tag_44\n      jump\t// in\n    tag_256:\n      mload(0x40)\n      dup1\n      swap2\n      sub\n      swap1\n      revert\n        /* \"@openzeppelin/contracts@5.0.0/access/Ownable.sol\":1851:1952  if (owner() != _msgSender()) {... */\n    tag_254:\n        /* \"@openzeppelin/contracts@5.0.0/access/Ownable.sol\":1796:1958  function _checkOwner() internal view virtual {... */\n      jump\t// out\n        /* \"demo_erc721.sol\":2405:2597  function generateTokenId(uint256 categoryId, uint256 rarityLevel) internal pure returns (uint256) {... */\n    tag_155:\n        /* \"demo_erc721.sol\":2494:2501  uint256 */\n      0x00\n        /* \"demo_erc721.sol\":2555:2565  categoryId */\n      dup3\n        /* \"demo_erc721.sol\":2567:2578  rarityLevel */\n      dup3\n        /* \"demo_erc721.sol\":2580:2587  msg.sig */\n      and(0xffffffff00000000000000000000000000000000000000000000000000000000, calldataload(0x00))\n        /* \"demo_erc721.sol\":2538:2588  abi.encodePacked(categoryId, rarityLevel, msg.sig) */\n      add(0x20, mload(0x40))\n      tag_258\n      swap4\n      swap3\n      swap2\n      swap1\n      tag_259\n      jump\t// in\n    tag_258:\n      mload(0x40)\n      0x20\n      dup2\n      dup4\n      sub\n      sub\n      dup2\n      mstore\n      swap1\n      0x40\n      mstore\n        /* \"demo_erc721.sol\":2528:2589  keccak256(abi.encodePacked(categoryId, rarityLevel, msg.sig)) */\n      dup1\n      mload\n      swap1\n      0x20\n      add\n      keccak256\n        /* \"demo_erc721.sol\":2520:2590  uint256(keccak256(abi.encodePacked(categoryId, rarityLevel, msg.sig))) */\n      0x00\n      shr\n        /* \"demo_erc721.sol\":2513:2590  return uint256(keccak256(abi.encodePacked(categoryId, rarityLevel, msg.sig))) */\n      swap1\n      pop\n        /* \"demo_erc721.sol\":2405:2597  function generateTokenId(uint256 categoryId, uint256 rarityLevel) internal pure returns (uint256) {... */\n      swap3\n      swap2\n      pop\n      pop\n      jump\t// out\n        /* \"@openzeppelin/contracts@5.0.0/token/ERC721/ERC721.sol\":10633:10733  function _safeMint(address to, uint256 tokenId) internal {... */\n    tag_157:\n        /* \"@openzeppelin/contracts@5.0.0/token/ERC721/ERC721.sol\":10700:10726  _safeMint(to, tokenId, \"\") */\n      tag_261\n        /* \"@openzeppelin/contracts@5.0.0/token/ERC721/ERC721.sol\":10710:10712  to */\n      dup3\n        /* \"@openzeppelin/contracts@5.0.0/token/ERC721/ERC721.sol\":10714:10721  tokenId */\n      dup3\n        /* \"@openzeppelin/contracts@5.0.0/token/ERC721/ERC721.sol\":10700:10726  _safeMint(to, tokenId, \"\") */\n      mload(0x40)\n      dup1\n      0x20\n      add\n      0x40\n      mstore\n      dup1\n      0x00\n      dup2\n      mstore\n      pop\n        /* \"@openzeppelin/contracts@5.0.0/token/ERC721/ERC721.sol\":10700:10709  _safeMint */\n      tag_262\n        /* \"@openzeppelin/contracts@5.0.0/token/ERC721/ERC721.sol\":10700:10726  _safeMint(to, tokenId, \"\") */\n      jump\t// in\n    tag_261:\n        /* \"@openzeppelin/contracts@5.0.0/token/ERC721/ERC721.sol\":10633:10733  function _safeMint(address to, uint256 tokenId) internal {... */\n      pop\n      pop\n      jump\t// out\n        /* \"@openzeppelin/contracts@5.0.0/token/ERC721/extensions/ERC721URIStorage.sol\":1922:2089  function _setTokenURI(uint256 tokenId, string memory _tokenURI) internal virtual {... */\n    tag_159:\n        /* \"@openzeppelin/contracts@5.0.0/token/ERC721/extensions/ERC721URIStorage.sol\":2035:2044  _tokenURI */\n      dup1\n        /* \"@openzeppelin/contracts@5.0.0/token/ERC721/extensions/ERC721URIStorage.sol\":2013:2023  _tokenURIs */\n      0x06\n        /* \"@openzeppelin/contracts@5.0.0/token/ERC721/extensions/ERC721URIStorage.sol\":2013:2032  _tokenURIs[tokenId] */\n      0x00\n        /* \"@openzeppelin/contracts@5.0.0/token/ERC721/extensions/ERC721URIStorage.sol\":2024:2031  tokenId */\n      dup5\n        /* \"@openzeppelin/contracts@5.0.0/token/ERC721/extensions/ERC721URIStorage.sol\":2013:2032  _tokenURIs[tokenId] */\n      dup2\n      mstore\n      0x20\n      add\n      swap1\n      dup2\n      mstore\n      0x20\n      add\n      0x00\n      keccak256\n        /* \"@openzeppelin/contracts@5.0.0/token/ERC721/extensions/ERC721URIStorage.sol\":2013:2044  _tokenURIs[tokenId] = _tokenURI */\n      swap1\n      dup2\n      tag_264\n      swap2\n      swap1\n      tag_265\n      jump\t// in\n    tag_264:\n      pop\n        /* \"@openzeppelin/contracts@5.0.0/token/ERC721/extensions/ERC721URIStorage.sol\":2059:2082  MetadataUpdate(tokenId) */\n      0xf8e1a15aba9398e019f0b49df1a4fde98ee17ae345cb5f6b5e2c27f5033e8ce7\n        /* \"@openzeppelin/contracts@5.0.0/token/ERC721/extensions/ERC721URIStorage.sol\":2074:2081  tokenId */\n      dup3\n        /* \"@openzeppelin/contracts@5.0.0/token/ERC721/extensions/ERC721URIStorage.sol\":2059:2082  MetadataUpdate(tokenId) */\n      mload(0x40)\n      tag_266\n      swap2\n      swap1\n      tag_76\n      jump\t// in\n    tag_266:\n      mload(0x40)\n      dup1\n      swap2\n      sub\n      swap1\n      log1\n        /* \"@openzeppelin/contracts@5.0.0/token/ERC721/extensions/ERC721URIStorage.sol\":1922:2089  function _setTokenURI(uint256 tokenId, string memory _tokenURI) internal virtual {... */\n      pop\n      pop\n      jump\t// out\n        /* \"@openzeppelin/contracts@5.0.0/access/Ownable.sol\":2912:3099  function _transferOwnership(address newOwner) internal virtual {... */\n    tag_179:\n        /* \"@openzeppelin/contracts@5.0.0/access/Ownable.sol\":2985:3001  address oldOwner */\n      0x00\n        /* \"@openzeppelin/contracts@5.0.0/access/Ownable.sol\":3004:3010  _owner */\n      0x07\n      0x00\n      swap1\n      sload\n      swap1\n      0x0100\n      exp\n      swap1\n      div\n      0xffffffffffffffffffffffffffffffffffffffff\n      and\n        /* \"@openzeppelin/contracts@5.0.0/access/Ownable.sol\":2985:3010  address oldOwner = _owner */\n      swap1\n      pop\n        /* \"@openzeppelin/contracts@5.0.0/access/Ownable.sol\":3029:3037  newOwner */\n      dup2\n        /* \"@openzeppelin/contracts@5.0.0/access/Ownable.sol\":3020:3026  _owner */\n      0x07\n      0x00\n        /* \"@openzeppelin/contracts@5.0.0/access/Ownable.sol\":3020:3037  _owner = newOwner */\n      0x0100\n      exp\n      dup2\n      sload\n      dup2\n      0xffffffffffffffffffffffffffffffffffffffff\n      mul\n      not\n      and\n      swap1\n      dup4\n      0xffffffffffffffffffffffffffffffffffffffff\n      and\n      mul\n      or\n      swap1\n      sstore\n      pop\n        /* \"@openzeppelin/contracts@5.0.0/access/Ownable.sol\":3083:3091  newOwner */\n      dup2\n        /* \"@openzeppelin/contracts@5.0.0/access/Ownable.sol\":3052:3092  OwnershipTransferred(oldOwner, newOwner) */\n      0xffffffffffffffffffffffffffffffffffffffff\n      and\n        /* \"@openzeppelin/contracts@5.0.0/access/Ownable.sol\":3073:3081  oldOwner */\n      dup2\n        /* \"@openzeppelin/contracts@5.0.0/access/Ownable.sol\":3052:3092  OwnershipTransferred(oldOwner, newOwner) */\n      0xffffffffffffffffffffffffffffffffffffffff\n      and\n      0x8be0079c531659141344cd1fd0a4f28419497f9722a3daafe3b4186f6b6457e0\n      mload(0x40)\n      mload(0x40)\n      dup1\n      swap2\n      sub\n      swap1\n      log3\n        /* \"@openzeppelin/contracts@5.0.0/access/Ownable.sol\":2975:3099  {... */\n      pop\n        /* \"@openzeppelin/contracts@5.0.0/access/Ownable.sol\":2912:3099  function _transferOwnership(address newOwner) internal virtual {... */\n      pop\n      jump\t// out\n        /* \"@openzeppelin/contracts@5.0.0/token/ERC721/ERC721.sol\":15591:15903  function _setApprovalForAll(address owner, address operator, bool approved) internal virtual {... */\n    tag_208:\n        /* \"@openzeppelin/contracts@5.0.0/token/ERC721/ERC721.sol\":15718:15719  0 */\n      0x00\n        /* \"@openzeppelin/contracts@5.0.0/token/ERC721/ERC721.sol\":15698:15720  operator == address(0) */\n      0xffffffffffffffffffffffffffffffffffffffff\n      and\n        /* \"@openzeppelin/contracts@5.0.0/token/ERC721/ERC721.sol\":15698:15706  operator */\n      dup3\n        /* \"@openzeppelin/contracts@5.0.0/token/ERC721/ERC721.sol\":15698:15720  operator == address(0) */\n      0xffffffffffffffffffffffffffffffffffffffff\n      and\n      sub\n        /* \"@openzeppelin/contracts@5.0.0/token/ERC721/ERC721.sol\":15694:15785  if (operator == address(0)) {... */\n      tag_269\n      jumpi\n        /* \"@openzeppelin/contracts@5.0.0/token/ERC721/ERC721.sol\":15765:15773  operator */\n      dup2\n        /* \"@openzeppelin/contracts@5.0.0/token/ERC721/ERC721.sol\":15743:15774  ERC721InvalidOperator(operator) */\n      mload(0x40)\n      0x5b08ba1800000000000000000000000000000000000000000000000000000000\n      dup2\n      mstore\n      0x04\n      add\n      tag_270\n      swap2\n      swap1\n      tag_44\n      jump\t// in\n    tag_270:\n      mload(0x40)\n      dup1\n      swap2\n      sub\n      swap1\n      revert\n        /* \"@openzeppelin/contracts@5.0.0/token/ERC721/ERC721.sol\":15694:15785  if (operator == address(0)) {... */\n    tag_269:\n        /* \"@openzeppelin/contracts@5.0.0/token/ERC721/ERC721.sol\":15832:15840  approved */\n      dup1\n        /* \"@openzeppelin/contracts@5.0.0/token/ERC721/ERC721.sol\":15794:15812  _operatorApprovals */\n      0x05\n        /* \"@openzeppelin/contracts@5.0.0/token/ERC721/ERC721.sol\":15794:15819  _operatorApprovals[owner] */\n      0x00\n        /* \"@openzeppelin/contracts@5.0.0/token/ERC721/ERC721.sol\":15813:15818  owner */\n      dup6\n        /* \"@openzeppelin/contracts@5.0.0/token/ERC721/ERC721.sol\":15794:15819  _operatorApprovals[owner] */\n      0xffffffffffffffffffffffffffffffffffffffff\n      and\n      0xffffffffffffffffffffffffffffffffffffffff\n      and\n      dup2\n      mstore\n      0x20\n      add\n      swap1\n      dup2\n      mstore\n      0x20\n      add\n      0x00\n      keccak256\n        /* \"@openzeppelin/contracts@5.0.0/token/ERC721/ERC721.sol\":15794:15829  _operatorApprovals[owner][operator] */\n      0x00\n        /* \"@openzeppelin/contracts@5.0.0/token/ERC721/ERC721.sol\":15820:15828  operator */\n      dup5\n        /* \"@openzeppelin/contracts@5.0.0/token/ERC721/ERC721.sol\":15794:15829  _operatorApprovals[owner][operator] */\n      0xffffffffffffffffffffffffffffffffffffffff\n      and\n      0xffffffffffffffffffffffffffffffffffffffff\n      and\n      dup2\n      mstore\n      0x20\n      add\n      swap1\n      dup2\n      mstore\n      0x20\n      add\n      0x00\n      keccak256\n      0x00\n        /* \"@openzeppelin/contracts@5.0.0/token/ERC721/ERC721.sol\":15794:15840  _operatorApprovals[owner][operator] = approved */\n      0x0100\n      exp\n      dup2\n      sload\n      dup2\n      0xff\n      mul\n      not\n      and\n      swap1\n      dup4\n      iszero\n      iszero\n      mul\n      or\n      swap1\n      sstore\n      pop\n        /* \"@openzeppelin/contracts@5.0.0/token/ERC721/ERC721.sol\":15877:15885  operator */\n      dup2\n        /* \"@openzeppelin/contracts@5.0.0/token/ERC721/ERC721.sol\":15855:15896  ApprovalForAll(owner, operator, approved) */\n      0xffffffffffffffffffffffffffffffffffffffff\n      and\n        /* \"@openzeppelin/contracts@5.0.0/token/ERC721/ERC721.sol\":15870:15875  owner */\n      dup4\n        /* \"@openzeppelin/contracts@5.0.0/token/ERC721/ERC721.sol\":15855:15896  ApprovalForAll(owner, operator, approved) */\n      0xffffffffffffffffffffffffffffffffffffffff\n      and\n      0x17307eab39ab6107e8899845ad3d59bd9653f200f220920489ca2b5937696c31\n        /* \"@openzeppelin/contracts@5.0.0/token/ERC721/ERC721.sol\":15887:15895  approved */\n      dup4\n        /* \"@openzeppelin/contracts@5.0.0/token/ERC721/ERC721.sol\":15855:15896  ApprovalForAll(owner, operator, approved) */\n      mload(0x40)\n      tag_271\n      swap2\n      swap1\n      tag_34\n      jump\t// in\n    tag_271:\n      mload(0x40)\n      dup1\n      swap2\n      sub\n      swap1\n      log3\n        /* \"@openzeppelin/contracts@5.0.0/token/ERC721/ERC721.sol\":15591:15903  function _setApprovalForAll(address owner, address operator, bool approved) internal virtual {... */\n      pop\n      pop\n      pop\n      jump\t// out\n        /* \"@openzeppelin/contracts@5.0.0/token/ERC721/ERC721.sol\":16918:17700  function _checkOnERC721Received(address from, address to, uint256 tokenId, bytes memory data) private {... */\n    tag_212:\n        /* \"@openzeppelin/contracts@5.0.0/token/ERC721/ERC721.sol\":17051:17052  0 */\n      0x00\n        /* \"@openzeppelin/contracts@5.0.0/token/ERC721/ERC721.sol\":17034:17036  to */\n      dup4\n        /* \"@openzeppelin/contracts@5.0.0/token/ERC721/ERC721.sol\":17034:17048  to.code.length */\n      0xffffffffffffffffffffffffffffffffffffffff\n      and\n      extcodesize\n        /* \"@openzeppelin/contracts@5.0.0/token/ERC721/ERC721.sol\":17034:17052  to.code.length > 0 */\n      gt\n        /* \"@openzeppelin/contracts@5.0.0/token/ERC721/ERC721.sol\":17030:17694  if (to.code.length > 0) {... */\n      iszero\n      tag_273\n      jumpi\n        /* \"@openzeppelin/contracts@5.0.0/token/ERC721/ERC721.sol\":17088:17090  to */\n      dup3\n        /* \"@openzeppelin/contracts@5.0.0/token/ERC721/ERC721.sol\":17072:17108  IERC721Receiver(to).onERC721Received */\n      0xffffffffffffffffffffffffffffffffffffffff\n      and\n      0x150b7a02\n        /* \"@openzeppelin/contracts@5.0.0/token/ERC721/ERC721.sol\":17109:17121  _msgSender() */\n      tag_274\n        /* \"@openzeppelin/contracts@5.0.0/token/ERC721/ERC721.sol\":17109:17119  _msgSender */\n      tag_139\n        /* \"@openzeppelin/contracts@5.0.0/token/ERC721/ERC721.sol\":17109:17121  _msgSender() */\n      jump\t// in\n    tag_274:\n        /* \"@openzeppelin/contracts@5.0.0/token/ERC721/ERC721.sol\":17123:17127  from */\n      dup7\n        /* \"@openzeppelin/contracts@5.0.0/token/ERC721/ERC721.sol\":17129:17136  tokenId */\n      dup6\n        /* \"@openzeppelin/contracts@5.0.0/token/ERC721/ERC721.sol\":17138:17142  data */\n      dup6\n        /* \"@openzeppelin/contracts@5.0.0/token/ERC721/ERC721.sol\":17072:17143  IERC721Receiver(to).onERC721Received(_msgSender(), from, tokenId, data) */\n      mload(0x40)\n      dup6\n      0xffffffff\n      and\n      0xe0\n      shl\n      dup2\n      mstore\n      0x04\n      add\n      tag_275\n      swap5\n      swap4\n      swap3\n      swap2\n      swap1\n      tag_276\n      jump\t// in\n    tag_275:\n      0x20\n      mload(0x40)\n      dup1\n      dup4\n      sub\n      dup2\n      0x00\n      dup8\n      gas\n      call\n      swap3\n      pop\n      pop\n      pop\n      dup1\n      iszero\n      tag_277\n      jumpi\n      pop\n      mload(0x40)\n      returndatasize\n      not(0x1f)\n      0x1f\n      dup3\n      add\n      and\n      dup3\n      add\n      dup1\n      0x40\n      mstore\n      pop\n      dup2\n      add\n      swap1\n      tag_278\n      swap2\n      swap1\n      tag_279\n      jump\t// in\n    tag_278:\n      0x01\n    tag_277:\n        /* \"@openzeppelin/contracts@5.0.0/token/ERC721/ERC721.sol\":17068:17684  try IERC721Receiver(to).onERC721Received(_msgSender(), from, tokenId, data) returns (bytes4 retval) {... */\n      tag_280\n      jumpi\n      returndatasize\n      dup1\n      0x00\n      dup2\n      eq\n      tag_285\n      jumpi\n      mload(0x40)\n      swap2\n      pop\n      and(add(returndatasize, 0x3f), not(0x1f))\n      dup3\n      add\n      0x40\n      mstore\n      returndatasize\n      dup3\n      mstore\n      returndatasize\n      0x00\n      0x20\n      dup5\n      add\n      returndatacopy\n      jump(tag_284)\n    tag_285:\n      0x60\n      swap2\n      pop\n    tag_284:\n      pop\n        /* \"@openzeppelin/contracts@5.0.0/token/ERC721/ERC721.sol\":17398:17399  0 */\n      0x00\n        /* \"@openzeppelin/contracts@5.0.0/token/ERC721/ERC721.sol\":17381:17387  reason */\n      dup2\n        /* \"@openzeppelin/contracts@5.0.0/token/ERC721/ERC721.sol\":17381:17394  reason.length */\n      mload\n        /* \"@openzeppelin/contracts@5.0.0/token/ERC721/ERC721.sol\":17381:17399  reason.length == 0 */\n      sub\n        /* \"@openzeppelin/contracts@5.0.0/token/ERC721/ERC721.sol\":17377:17670  if (reason.length == 0) {... */\n      tag_286\n      jumpi\n        /* \"@openzeppelin/contracts@5.0.0/token/ERC721/ERC721.sol\":17452:17454  to */\n      dup4\n        /* \"@openzeppelin/contracts@5.0.0/token/ERC721/ERC721.sol\":17430:17455  ERC721InvalidReceiver(to) */\n      mload(0x40)\n      0x64a0ae9200000000000000000000000000000000000000000000000000000000\n      dup2\n      mstore\n      0x04\n      add\n      tag_287\n      swap2\n      swap1\n      tag_44\n      jump\t// in\n    tag_287:\n      mload(0x40)\n      dup1\n      swap2\n      sub\n      swap1\n      revert\n        /* \"@openzeppelin/contracts@5.0.0/token/ERC721/ERC721.sol\":17377:17670  if (reason.length == 0) {... */\n    tag_286:\n        /* \"@openzeppelin/contracts@5.0.0/token/ERC721/ERC721.sol\":17622:17628  reason */\n      dup1\n        /* \"@openzeppelin/contracts@5.0.0/token/ERC721/ERC721.sol\":17616:17629  mload(reason) */\n      mload\n        /* \"@openzeppelin/contracts@5.0.0/token/ERC721/ERC721.sol\":17607:17613  reason */\n      dup2\n        /* \"@openzeppelin/contracts@5.0.0/token/ERC721/ERC721.sol\":17603:17605  32 */\n      0x20\n        /* \"@openzeppelin/contracts@5.0.0/token/ERC721/ERC721.sol\":17599:17614  add(32, reason) */\n      add\n        /* \"@openzeppelin/contracts@5.0.0/token/ERC721/ERC721.sol\":17592:17630  revert(add(32, reason), mload(reason)) */\n      revert\n        /* \"@openzeppelin/contracts@5.0.0/token/ERC721/ERC721.sol\":17068:17684  try IERC721Receiver(to).onERC721Received(_msgSender(), from, tokenId, data) returns (bytes4 retval) {... */\n    tag_280:\n        /* \"@openzeppelin/contracts@5.0.0/token/ERC721/ERC721.sol\":17200:17241  IERC721Receiver.onERC721Received.selector */\n      shl(0xe0, 0x150b7a02)\n        /* \"@openzeppelin/contracts@5.0.0/token/ERC721/ERC721.sol\":17190:17241  retval != IERC721Receiver.onERC721Received.selector */\n      not(0xffffffffffffffffffffffffffffffffffffffffffffffffffffffff)\n      and\n        /* \"@openzeppelin/contracts@5.0.0/token/ERC721/ERC721.sol\":17190:17196  retval */\n      dup2\n        /* \"@openzeppelin/contracts@5.0.0/token/ERC721/ERC721.sol\":17190:17241  retval != IERC721Receiver.onERC721Received.selector */\n      not(0xffffffffffffffffffffffffffffffffffffffffffffffffffffffff)\n      and\n      eq\n        /* \"@openzeppelin/contracts@5.0.0/token/ERC721/ERC721.sol\":17186:17316  if (retval != IERC721Receiver.onERC721Received.selector) {... */\n      tag_290\n      jumpi\n        /* \"@openzeppelin/contracts@5.0.0/token/ERC721/ERC721.sol\":17294:17296  to */\n      dup4\n        /* \"@openzeppelin/contracts@5.0.0/token/ERC721/ERC721.sol\":17272:17297  ERC721InvalidReceiver(to) */\n      mload(0x40)\n      0x64a0ae9200000000000000000000000000000000000000000000000000000000\n      dup2\n      mstore\n      0x04\n      add\n      tag_291\n      swap2\n      swap1\n      tag_44\n      jump\t// in\n    tag_291:\n      mload(0x40)\n      dup1\n      swap2\n      sub\n      swap1\n      revert\n        /* \"@openzeppelin/contracts@5.0.0/token/ERC721/ERC721.sol\":17186:17316  if (retval != IERC721Receiver.onERC721Received.selector) {... */\n    tag_290:\n        /* \"@openzeppelin/contracts@5.0.0/token/ERC721/ERC721.sol\":17144:17330  returns (bytes4 retval) {... */\n      pop\n        /* \"@openzeppelin/contracts@5.0.0/token/ERC721/ERC721.sol\":17030:17694  if (to.code.length > 0) {... */\n    tag_273:\n        /* \"@openzeppelin/contracts@5.0.0/token/ERC721/ERC721.sol\":16918:17700  function _checkOnERC721Received(address from, address to, uint256 tokenId, bytes memory data) private {... */\n      pop\n      pop\n      pop\n      pop\n      jump\t// out\n        /* \"@openzeppelin/contracts@5.0.0/token/ERC721/extensions/ERC721URIStorage.sol\":1210:1803  function tokenURI(uint256 tokenId) public view virtual override returns (string memory) {... */\n    tag_215:\n        /* \"@openzeppelin/contracts@5.0.0/token/ERC721/extensions/ERC721URIStorage.sol\":1283:1296  string memory */\n      0x60\n        /* \"@openzeppelin/contracts@5.0.0/token/ERC721/extensions/ERC721URIStorage.sol\":1308:1330  _requireOwned(tokenId) */\n      tag_293\n        /* \"@openzeppelin/contracts@5.0.0/token/ERC721/extensions/ERC721URIStorage.sol\":1322:1329  tokenId */\n      dup3\n        /* \"@openzeppelin/contracts@5.0.0/token/ERC721/extensions/ERC721URIStorage.sol\":1308:1321  _requireOwned */\n      tag_133\n        /* \"@openzeppelin/contracts@5.0.0/token/ERC721/extensions/ERC721URIStorage.sol\":1308:1330  _requireOwned(tokenId) */\n      jump\t// in\n    tag_293:\n      pop\n        /* \"@openzeppelin/contracts@5.0.0/token/ERC721/extensions/ERC721URIStorage.sol\":1341:1364  string memory _tokenURI */\n      0x00\n        /* \"@openzeppelin/contracts@5.0.0/token/ERC721/extensions/ERC721URIStorage.sol\":1367:1377  _tokenURIs */\n      0x06\n        /* \"@openzeppelin/contracts@5.0.0/token/ERC721/extensions/ERC721URIStorage.sol\":1367:1386  _tokenURIs[tokenId] */\n      0x00\n        /* \"@openzeppelin/contracts@5.0.0/token/ERC721/extensions/ERC721URIStorage.sol\":1378:1385  tokenId */\n      dup5\n        /* \"@openzeppelin/contracts@5.0.0/token/ERC721/extensions/ERC721URIStorage.sol\":1367:1386  _tokenURIs[tokenId] */\n      dup2\n      mstore\n      0x20\n      add\n      swap1\n      dup2\n      mstore\n      0x20\n      add\n      0x00\n      keccak256\n        /* \"@openzeppelin/contracts@5.0.0/token/ERC721/extensions/ERC721URIStorage.sol\":1341:1386  string memory _tokenURI = _tokenURIs[tokenId] */\n      dup1\n      sload\n      tag_294\n      swap1\n      tag_126\n      jump\t// in\n    tag_294:\n      dup1\n      0x1f\n      add\n      0x20\n      dup1\n      swap2\n      div\n      mul\n      0x20\n      add\n      mload(0x40)\n      swap1\n      dup2\n      add\n      0x40\n      mstore\n      dup1\n      swap3\n      swap2\n      swap1\n      dup2\n      dup2\n      mstore\n      0x20\n      add\n      dup3\n      dup1\n      sload\n      tag_295\n      swap1\n      tag_126\n      jump\t// in\n    tag_295:\n      dup1\n      iszero\n      tag_296\n      jumpi\n      dup1\n      0x1f\n      lt\n      tag_297\n      jumpi\n      0x0100\n      dup1\n      dup4\n      sload\n      div\n      mul\n      dup4\n      mstore\n      swap2\n      0x20\n      add\n      swap2\n      jump(tag_296)\n    tag_297:\n      dup3\n      add\n      swap2\n      swap1\n      0x00\n      mstore\n      keccak256(0x00, 0x20)\n      swap1\n    tag_298:\n      dup2\n      sload\n      dup2\n      mstore\n      swap1\n      0x01\n      add\n      swap1\n      0x20\n      add\n      dup1\n      dup4\n      gt\n      tag_298\n      jumpi\n      dup3\n      swap1\n      sub\n      0x1f\n      and\n      dup3\n      add\n      swap2\n    tag_296:\n      pop\n      pop\n      pop\n      pop\n      pop\n      swap1\n      pop\n        /* \"@openzeppelin/contracts@5.0.0/token/ERC721/extensions/ERC721URIStorage.sol\":1396:1414  string memory base */\n      0x00\n        /* \"@openzeppelin/contracts@5.0.0/token/ERC721/extensions/ERC721URIStorage.sol\":1417:1427  _baseURI() */\n      tag_299\n        /* \"@openzeppelin/contracts@5.0.0/token/ERC721/extensions/ERC721URIStorage.sol\":1417:1425  _baseURI */\n      tag_300\n        /* \"@openzeppelin/contracts@5.0.0/token/ERC721/extensions/ERC721URIStorage.sol\":1417:1427  _baseURI() */\n      jump\t// in\n    tag_299:\n        /* \"@openzeppelin/contracts@5.0.0/token/ERC721/extensions/ERC721URIStorage.sol\":1396:1427  string memory base = _baseURI() */\n      swap1\n      pop\n        /* \"@openzeppelin/contracts@5.0.0/token/ERC721/extensions/ERC721URIStorage.sol\":1522:1523  0 */\n      0x00\n        /* \"@openzeppelin/contracts@5.0.0/token/ERC721/extensions/ERC721URIStorage.sol\":1506:1510  base */\n      dup2\n        /* \"@openzeppelin/contracts@5.0.0/token/ERC721/extensions/ERC721URIStorage.sol\":1500:1518  bytes(base).length */\n      mload\n        /* \"@openzeppelin/contracts@5.0.0/token/ERC721/extensions/ERC721URIStorage.sol\":1500:1523  bytes(base).length == 0 */\n      sub\n        /* \"@openzeppelin/contracts@5.0.0/token/ERC721/extensions/ERC721URIStorage.sol\":1496:1566  if (bytes(base).length == 0) {... */\n      tag_301\n      jumpi\n        /* \"@openzeppelin/contracts@5.0.0/token/ERC721/extensions/ERC721URIStorage.sol\":1546:1555  _tokenURI */\n      dup2\n        /* \"@openzeppelin/contracts@5.0.0/token/ERC721/extensions/ERC721URIStorage.sol\":1539:1555  return _tokenURI */\n      swap3\n      pop\n      pop\n      pop\n      jump(tag_292)\n        /* \"@openzeppelin/contracts@5.0.0/token/ERC721/extensions/ERC721URIStorage.sol\":1496:1566  if (bytes(base).length == 0) {... */\n    tag_301:\n        /* \"@openzeppelin/contracts@5.0.0/token/ERC721/extensions/ERC721URIStorage.sol\":1691:1692  0 */\n      0x00\n        /* \"@openzeppelin/contracts@5.0.0/token/ERC721/extensions/ERC721URIStorage.sol\":1671:1680  _tokenURI */\n      dup3\n        /* \"@openzeppelin/contracts@5.0.0/token/ERC721/extensions/ERC721URIStorage.sol\":1665:1688  bytes(_tokenURI).length */\n      mload\n        /* \"@openzeppelin/contracts@5.0.0/token/ERC721/extensions/ERC721URIStorage.sol\":1665:1692  bytes(_tokenURI).length > 0 */\n      gt\n        /* \"@openzeppelin/contracts@5.0.0/token/ERC721/extensions/ERC721URIStorage.sol\":1661:1756  if (bytes(_tokenURI).length > 0) {... */\n      iszero\n      tag_302\n      jumpi\n        /* \"@openzeppelin/contracts@5.0.0/token/ERC721/extensions/ERC721URIStorage.sol\":1729:1733  base */\n      dup1\n        /* \"@openzeppelin/contracts@5.0.0/token/ERC721/extensions/ERC721URIStorage.sol\":1735:1744  _tokenURI */\n      dup3\n        /* \"@openzeppelin/contracts@5.0.0/token/ERC721/extensions/ERC721URIStorage.sol\":1715:1745  string.concat(base, _tokenURI) */\n      add(0x20, mload(0x40))\n      tag_303\n      swap3\n      swap2\n      swap1\n      tag_304\n      jump\t// in\n    tag_303:\n      mload(0x40)\n      0x20\n      dup2\n      dup4\n      sub\n      sub\n      dup2\n      mstore\n      swap1\n      0x40\n      mstore\n        /* \"@openzeppelin/contracts@5.0.0/token/ERC721/extensions/ERC721URIStorage.sol\":1708:1745  return string.concat(base, _tokenURI) */\n      swap3\n      pop\n      pop\n      pop\n      jump(tag_292)\n        /* \"@openzeppelin/contracts@5.0.0/token/ERC721/extensions/ERC721URIStorage.sol\":1661:1756  if (bytes(_tokenURI).length > 0) {... */\n    tag_302:\n        /* \"@openzeppelin/contracts@5.0.0/token/ERC721/extensions/ERC721URIStorage.sol\":1773:1796  super.tokenURI(tokenId) */\n      tag_305\n        /* \"@openzeppelin/contracts@5.0.0/token/ERC721/extensions/ERC721URIStorage.sol\":1788:1795  tokenId */\n      dup5\n        /* \"@openzeppelin/contracts@5.0.0/token/ERC721/extensions/ERC721URIStorage.sol\":1773:1787  super.tokenURI */\n      tag_306\n        /* \"@openzeppelin/contracts@5.0.0/token/ERC721/extensions/ERC721URIStorage.sol\":1773:1796  super.tokenURI(tokenId) */\n      jump\t// in\n    tag_305:\n        /* \"@openzeppelin/contracts@5.0.0/token/ERC721/extensions/ERC721URIStorage.sol\":1766:1796  return super.tokenURI(tokenId) */\n      swap3\n      pop\n      pop\n      pop\n        /* \"@openzeppelin/contracts@5.0.0/token/ERC721/extensions/ERC721URIStorage.sol\":1210:1803  function tokenURI(uint256 tokenId) public view virtual override returns (string memory) {... */\n    tag_292:\n      swap2\n      swap1\n      pop\n      jump\t// out\n        /* \"@openzeppelin/contracts@5.0.0/token/ERC721/ERC721.sol\":1561:1861  function supportsInterface(bytes4 interfaceId) public view virtual override(ERC165, IERC165) returns (bool) {... */\n    tag_232:\n        /* \"@openzeppelin/contracts@5.0.0/token/ERC721/ERC721.sol\":1663:1667  bool */\n      0x00\n        /* \"@openzeppelin/contracts@5.0.0/token/ERC721/ERC721.sol\":1713:1738  type(IERC721).interfaceId */\n      0x80ac58cd00000000000000000000000000000000000000000000000000000000\n        /* \"@openzeppelin/contracts@5.0.0/token/ERC721/ERC721.sol\":1698:1738  interfaceId == type(IERC721).interfaceId */\n      not(0xffffffffffffffffffffffffffffffffffffffffffffffffffffffff)\n      and\n        /* \"@openzeppelin/contracts@5.0.0/token/ERC721/ERC721.sol\":1698:1709  interfaceId */\n      dup3\n        /* \"@openzeppelin/contracts@5.0.0/token/ERC721/ERC721.sol\":1698:1738  interfaceId == type(IERC721).interfaceId */\n      not(0xffffffffffffffffffffffffffffffffffffffffffffffffffffffff)\n      and\n      eq\n        /* \"@openzeppelin/contracts@5.0.0/token/ERC721/ERC721.sol\":1698:1802  interfaceId == type(IERC721).interfaceId ||... */\n      dup1\n      tag_308\n      jumpi\n      pop\n        /* \"@openzeppelin/contracts@5.0.0/token/ERC721/ERC721.sol\":1769:1802  type(IERC721Metadata).interfaceId */\n      0x5b5e139f00000000000000000000000000000000000000000000000000000000\n        /* \"@openzeppelin/contracts@5.0.0/token/ERC721/ERC721.sol\":1754:1802  interfaceId == type(IERC721Metadata).interfaceId */\n      not(0xffffffffffffffffffffffffffffffffffffffffffffffffffffffff)\n      and\n        /* \"@openzeppelin/contracts@5.0.0/token/ERC721/ERC721.sol\":1754:1765  interfaceId */\n      dup3\n        /* \"@openzeppelin/contracts@5.0.0/token/ERC721/ERC721.sol\":1754:1802  interfaceId == type(IERC721Metadata).interfaceId */\n      not(0xffffffffffffffffffffffffffffffffffffffffffffffffffffffff)\n      and\n      eq\n        /* \"@openzeppelin/contracts@5.0.0/token/ERC721/ERC721.sol\":1698:1802  interfaceId == type(IERC721).interfaceId ||... */\n    tag_308:\n        /* \"@openzeppelin/contracts@5.0.0/token/ERC721/ERC721.sol\":1698:1854  interfaceId == type(IERC721).interfaceId ||... */\n      dup1\n      tag_309\n      jumpi\n      pop\n        /* \"@openzeppelin/contracts@5.0.0/token/ERC721/ERC721.sol\":1818:1854  super.supportsInterface(interfaceId) */\n      tag_310\n        /* \"@openzeppelin/contracts@5.0.0/token/ERC721/ERC721.sol\":1842:1853  interfaceId */\n      dup3\n        /* \"@openzeppelin/contracts@5.0.0/token/ERC721/ERC721.sol\":1818:1841  super.supportsInterface */\n      tag_311\n        /* \"@openzeppelin/contracts@5.0.0/token/ERC721/ERC721.sol\":1818:1854  super.supportsInterface(interfaceId) */\n      jump\t// in\n    tag_310:\n        /* \"@openzeppelin/contracts@5.0.0/token/ERC721/ERC721.sol\":1698:1854  interfaceId == type(IERC721).interfaceId ||... */\n    tag_309:\n        /* \"@openzeppelin/contracts@5.0.0/token/ERC721/ERC721.sol\":1679:1854  return... */\n      swap1\n      pop\n        /* \"@openzeppelin/contracts@5.0.0/token/ERC721/ERC721.sol\":1561:1861  function supportsInterface(bytes4 interfaceId) public view virtual override(ERC165, IERC165) returns (bool) {... */\n      swap2\n      swap1\n      pop\n      jump\t// out\n        /* \"@openzeppelin/contracts@5.0.0/token/ERC721/ERC721.sol\":5707:5822  function _ownerOf(uint256 tokenId) internal view virtual returns (address) {... */\n    tag_235:\n        /* \"@openzeppelin/contracts@5.0.0/token/ERC721/ERC721.sol\":5773:5780  address */\n      0x00\n        /* \"@openzeppelin/contracts@5.0.0/token/ERC721/ERC721.sol\":5799:5806  _owners */\n      0x02\n        /* \"@openzeppelin/contracts@5.0.0/token/ERC721/ERC721.sol\":5799:5815  _owners[tokenId] */\n      0x00\n        /* \"@openzeppelin/contracts@5.0.0/token/ERC721/ERC721.sol\":5807:5814  tokenId */\n      dup4\n        /* \"@openzeppelin/contracts@5.0.0/token/ERC721/ERC721.sol\":5799:5815  _owners[tokenId] */\n      dup2\n      mstore\n      0x20\n      add\n      swap1\n      dup2\n      mstore\n      0x20\n      add\n      0x00\n      keccak256\n      0x00\n      swap1\n      sload\n      swap1\n      0x0100\n      exp\n      swap1\n      div\n      0xffffffffffffffffffffffffffffffffffffffff\n      and\n        /* \"@openzeppelin/contracts@5.0.0/token/ERC721/ERC721.sol\":5792:5815  return _owners[tokenId] */\n      swap1\n      pop\n        /* \"@openzeppelin/contracts@5.0.0/token/ERC721/ERC721.sol\":5707:5822  function _ownerOf(uint256 tokenId) internal view virtual returns (address) {... */\n      swap2\n      swap1\n      pop\n      jump\t// out\n        /* \"@openzeppelin/contracts@5.0.0/token/ERC721/ERC721.sol\":14720:15382  function _approve(address to, uint256 tokenId, address auth, bool emitEvent) internal virtual {... */\n    tag_242:\n        /* \"@openzeppelin/contracts@5.0.0/token/ERC721/ERC721.sol\":14880:14889  emitEvent */\n      dup1\n        /* \"@openzeppelin/contracts@5.0.0/token/ERC721/ERC721.sol\":14880:14911  emitEvent || auth != address(0) */\n      dup1\n      tag_314\n      jumpi\n      pop\n        /* \"@openzeppelin/contracts@5.0.0/token/ERC721/ERC721.sol\":14909:14910  0 */\n      0x00\n        /* \"@openzeppelin/contracts@5.0.0/token/ERC721/ERC721.sol\":14893:14911  auth != address(0) */\n      0xffffffffffffffffffffffffffffffffffffffff\n      and\n        /* \"@openzeppelin/contracts@5.0.0/token/ERC721/ERC721.sol\":14893:14897  auth */\n      dup3\n        /* \"@openzeppelin/contracts@5.0.0/token/ERC721/ERC721.sol\":14893:14911  auth != address(0) */\n      0xffffffffffffffffffffffffffffffffffffffff\n      and\n      eq\n      iszero\n        /* \"@openzeppelin/contracts@5.0.0/token/ERC721/ERC721.sol\":14880:14911  emitEvent || auth != address(0) */\n    tag_314:\n        /* \"@openzeppelin/contracts@5.0.0/token/ERC721/ERC721.sol\":14876:15336  if (emitEvent || auth != address(0)) {... */\n      iszero\n      tag_315\n      jumpi\n        /* \"@openzeppelin/contracts@5.0.0/token/ERC721/ERC721.sol\":14927:14940  address owner */\n      0x00\n        /* \"@openzeppelin/contracts@5.0.0/token/ERC721/ERC721.sol\":14943:14965  _requireOwned(tokenId) */\n      tag_316\n        /* \"@openzeppelin/contracts@5.0.0/token/ERC721/ERC721.sol\":14957:14964  tokenId */\n      dup5\n        /* \"@openzeppelin/contracts@5.0.0/token/ERC721/ERC721.sol\":14943:14956  _requireOwned */\n      tag_133\n        /* \"@openzeppelin/contracts@5.0.0/token/ERC721/ERC721.sol\":14943:14965  _requireOwned(tokenId) */\n      jump\t// in\n    tag_316:\n        /* \"@openzeppelin/contracts@5.0.0/token/ERC721/ERC721.sol\":14927:14965  address owner = _requireOwned(tokenId) */\n      swap1\n      pop\n        /* \"@openzeppelin/contracts@5.0.0/token/ERC721/ERC721.sol\":15109:15110  0 */\n      0x00\n        /* \"@openzeppelin/contracts@5.0.0/token/ERC721/ERC721.sol\":15093:15111  auth != address(0) */\n      0xffffffffffffffffffffffffffffffffffffffff\n      and\n        /* \"@openzeppelin/contracts@5.0.0/token/ERC721/ERC721.sol\":15093:15097  auth */\n      dup4\n        /* \"@openzeppelin/contracts@5.0.0/token/ERC721/ERC721.sol\":15093:15111  auth != address(0) */\n      0xffffffffffffffffffffffffffffffffffffffff\n      and\n      eq\n      iszero\n        /* \"@openzeppelin/contracts@5.0.0/token/ERC721/ERC721.sol\":15093:15128  auth != address(0) && owner != auth */\n      dup1\n      iszero\n      tag_317\n      jumpi\n      pop\n        /* \"@openzeppelin/contracts@5.0.0/token/ERC721/ERC721.sol\":15124:15128  auth */\n      dup3\n        /* \"@openzeppelin/contracts@5.0.0/token/ERC721/ERC721.sol\":15115:15128  owner != auth */\n      0xffffffffffffffffffffffffffffffffffffffff\n      and\n        /* \"@openzeppelin/contracts@5.0.0/token/ERC721/ERC721.sol\":15115:15120  owner */\n      dup2\n        /* \"@openzeppelin/contracts@5.0.0/token/ERC721/ERC721.sol\":15115:15128  owner != auth */\n      0xffffffffffffffffffffffffffffffffffffffff\n      and\n      eq\n      iszero\n        /* \"@openzeppelin/contracts@5.0.0/token/ERC721/ERC721.sol\":15093:15128  auth != address(0) && owner != auth */\n    tag_317:\n        /* \"@openzeppelin/contracts@5.0.0/token/ERC721/ERC721.sol\":15093:15162  auth != address(0) && owner != auth && !isApprovedForAll(owner, auth) */\n      dup1\n      iszero\n      tag_318\n      jumpi\n      pop\n        /* \"@openzeppelin/contracts@5.0.0/token/ERC721/ERC721.sol\":15133:15162  isApprovedForAll(owner, auth) */\n      tag_319\n        /* \"@openzeppelin/contracts@5.0.0/token/ERC721/ERC721.sol\":15150:15155  owner */\n      dup2\n        /* \"@openzeppelin/contracts@5.0.0/token/ERC721/ERC721.sol\":15157:15161  auth */\n      dup5\n        /* \"@openzeppelin/contracts@5.0.0/token/ERC721/ERC721.sol\":15133:15149  isApprovedForAll */\n      tag_116\n        /* \"@openzeppelin/contracts@5.0.0/token/ERC721/ERC721.sol\":15133:15162  isApprovedForAll(owner, auth) */\n      jump\t// in\n    tag_319:\n        /* \"@openzeppelin/contracts@5.0.0/token/ERC721/ERC721.sol\":15132:15162  !isApprovedForAll(owner, auth) */\n      iszero\n        /* \"@openzeppelin/contracts@5.0.0/token/ERC721/ERC721.sol\":15093:15162  auth != address(0) && owner != auth && !isApprovedForAll(owner, auth) */\n    tag_318:\n        /* \"@openzeppelin/contracts@5.0.0/token/ERC721/ERC721.sol\":15089:15231  if (auth != address(0) && owner != auth && !isApprovedForAll(owner, auth)) {... */\n      iszero\n      tag_320\n      jumpi\n        /* \"@openzeppelin/contracts@5.0.0/token/ERC721/ERC721.sol\":15211:15215  auth */\n      dup3\n        /* \"@openzeppelin/contracts@5.0.0/token/ERC721/ERC721.sol\":15189:15216  ERC721InvalidApprover(auth) */\n      mload(0x40)\n      0xa9fbf51f00000000000000000000000000000000000000000000000000000000\n      dup2\n      mstore\n      0x04\n      add\n      tag_321\n      swap2\n      swap1\n      tag_44\n      jump\t// in\n    tag_321:\n      mload(0x40)\n      dup1\n      swap2\n      sub\n      swap1\n      revert\n        /* \"@openzeppelin/contracts@5.0.0/token/ERC721/ERC721.sol\":15089:15231  if (auth != address(0) && owner != auth && !isApprovedForAll(owner, auth)) {... */\n    tag_320:\n        /* \"@openzeppelin/contracts@5.0.0/token/ERC721/ERC721.sol\":15249:15258  emitEvent */\n      dup2\n        /* \"@openzeppelin/contracts@5.0.0/token/ERC721/ERC721.sol\":15245:15326  if (emitEvent) {... */\n      iszero\n      tag_322\n      jumpi\n        /* \"@openzeppelin/contracts@5.0.0/token/ERC721/ERC721.sol\":15303:15310  tokenId */\n      dup4\n        /* \"@openzeppelin/contracts@5.0.0/token/ERC721/ERC721.sol\":15299:15301  to */\n      dup6\n        /* \"@openzeppelin/contracts@5.0.0/token/ERC721/ERC721.sol\":15283:15311  Approval(owner, to, tokenId) */\n      0xffffffffffffffffffffffffffffffffffffffff\n      and\n        /* \"@openzeppelin/contracts@5.0.0/token/ERC721/ERC721.sol\":15292:15297  owner */\n      dup3\n        /* \"@openzeppelin/contracts@5.0.0/token/ERC721/ERC721.sol\":15283:15311  Approval(owner, to, tokenId) */\n      0xffffffffffffffffffffffffffffffffffffffff\n      and\n      0x8c5be1e5ebec7d5bd14f71427d1e84f3dd0314c0f7b2291e5b200ac8c7c3b925\n      mload(0x40)\n      mload(0x40)\n      dup1\n      swap2\n      sub\n      swap1\n      log4\n        /* \"@openzeppelin/contracts@5.0.0/token/ERC721/ERC721.sol\":15245:15326  if (emitEvent) {... */\n    tag_322:\n        /* \"@openzeppelin/contracts@5.0.0/token/ERC721/ERC721.sol\":14913:15336  {... */\n      pop\n        /* \"@openzeppelin/contracts@5.0.0/token/ERC721/ERC721.sol\":14876:15336  if (emitEvent || auth != address(0)) {... */\n    tag_315:\n        /* \"@openzeppelin/contracts@5.0.0/token/ERC721/ERC721.sol\":15373:15375  to */\n      dup4\n        /* \"@openzeppelin/contracts@5.0.0/token/ERC721/ERC721.sol\":15346:15361  _tokenApprovals */\n      0x04\n        /* \"@openzeppelin/contracts@5.0.0/token/ERC721/ERC721.sol\":15346:15370  _tokenApprovals[tokenId] */\n      0x00\n        /* \"@openzeppelin/contracts@5.0.0/token/ERC721/ERC721.sol\":15362:15369  tokenId */\n      dup6\n        /* \"@openzeppelin/contracts@5.0.0/token/ERC721/ERC721.sol\":15346:15370  _tokenApprovals[tokenId] */\n      dup2\n      mstore\n      0x20\n      add\n      swap1\n      dup2\n      mstore\n      0x20\n      add\n      0x00\n      keccak256\n      0x00\n        /* \"@openzeppelin/contracts@5.0.0/token/ERC721/ERC721.sol\":15346:15375  _tokenApprovals[tokenId] = to */\n      0x0100\n      exp\n      dup2\n      sload\n      dup2\n      0xffffffffffffffffffffffffffffffffffffffff\n      mul\n      not\n      and\n      swap1\n      dup4\n      0xffffffffffffffffffffffffffffffffffffffff\n      and\n      mul\n      or\n      swap1\n      sstore\n      pop\n        /* \"@openzeppelin/contracts@5.0.0/token/ERC721/ERC721.sol\":14720:15382  function _approve(address to, uint256 tokenId, address auth, bool emitEvent) internal virtual {... */\n      pop\n      pop\n      pop\n      pop\n      jump\t// out\n        /* \"@openzeppelin/contracts@5.0.0/token/ERC721/ERC721.sol\":7082:7450  function _checkAuthorized(address owner, address spender, uint256 tokenId) internal view virtual {... */\n    tag_247:\n        /* \"@openzeppelin/contracts@5.0.0/token/ERC721/ERC721.sol\":7194:7232  _isAuthorized(owner, spender, tokenId) */\n      tag_324\n        /* \"@openzeppelin/contracts@5.0.0/token/ERC721/ERC721.sol\":7208:7213  owner */\n      dup4\n        /* \"@openzeppelin/contracts@5.0.0/token/ERC721/ERC721.sol\":7215:7222  spender */\n      dup4\n        /* \"@openzeppelin/contracts@5.0.0/token/ERC721/ERC721.sol\":7224:7231  tokenId */\n      dup4\n        /* \"@openzeppelin/contracts@5.0.0/token/ERC721/ERC721.sol\":7194:7207  _isAuthorized */\n      tag_325\n        /* \"@openzeppelin/contracts@5.0.0/token/ERC721/ERC721.sol\":7194:7232  _isAuthorized(owner, spender, tokenId) */\n      jump\t// in\n    tag_324:\n        /* \"@openzeppelin/contracts@5.0.0/token/ERC721/ERC721.sol\":7189:7444  if (!_isAuthorized(owner, spender, tokenId)) {... */\n      tag_326\n      jumpi\n        /* \"@openzeppelin/contracts@5.0.0/token/ERC721/ERC721.sol\":7269:7270  0 */\n      0x00\n        /* \"@openzeppelin/contracts@5.0.0/token/ERC721/ERC721.sol\":7252:7271  owner == address(0) */\n      0xffffffffffffffffffffffffffffffffffffffff\n      and\n        /* \"@openzeppelin/contracts@5.0.0/token/ERC721/ERC721.sol\":7252:7257  owner */\n      dup4\n        /* \"@openzeppelin/contracts@5.0.0/token/ERC721/ERC721.sol\":7252:7271  owner == address(0) */\n      0xffffffffffffffffffffffffffffffffffffffff\n      and\n      sub\n        /* \"@openzeppelin/contracts@5.0.0/token/ERC721/ERC721.sol\":7248:7434  if (owner == address(0)) {... */\n      tag_327\n      jumpi\n        /* \"@openzeppelin/contracts@5.0.0/token/ERC721/ERC721.sol\":7321:7328  tokenId */\n      dup1\n        /* \"@openzeppelin/contracts@5.0.0/token/ERC721/ERC721.sol\":7298:7329  ERC721NonexistentToken(tokenId) */\n      mload(0x40)\n      0x7e27328900000000000000000000000000000000000000000000000000000000\n      dup2\n      mstore\n      0x04\n      add\n      tag_328\n      swap2\n      swap1\n      tag_76\n      jump\t// in\n    tag_328:\n      mload(0x40)\n      dup1\n      swap2\n      sub\n      swap1\n      revert\n        /* \"@openzeppelin/contracts@5.0.0/token/ERC721/ERC721.sol\":7248:7434  if (owner == address(0)) {... */\n    tag_327:\n        /* \"@openzeppelin/contracts@5.0.0/token/ERC721/ERC721.sol\":7402:7409  spender */\n      dup2\n        /* \"@openzeppelin/contracts@5.0.0/token/ERC721/ERC721.sol\":7411:7418  tokenId */\n      dup2\n        /* \"@openzeppelin/contracts@5.0.0/token/ERC721/ERC721.sol\":7375:7419  ERC721InsufficientApproval(spender, tokenId) */\n      mload(0x40)\n      0x177e802f00000000000000000000000000000000000000000000000000000000\n      dup2\n      mstore\n      0x04\n      add\n      tag_330\n      swap3\n      swap2\n      swap1\n      tag_112\n      jump\t// in\n    tag_330:\n      mload(0x40)\n      dup1\n      swap2\n      sub\n      swap1\n      revert\n        /* \"@openzeppelin/contracts@5.0.0/token/ERC721/ERC721.sol\":7189:7444  if (!_isAuthorized(owner, spender, tokenId)) {... */\n    tag_326:\n        /* \"@openzeppelin/contracts@5.0.0/token/ERC721/ERC721.sol\":7082:7450  function _checkAuthorized(address owner, address spender, uint256 tokenId) internal view virtual {... */\n      pop\n      pop\n      pop\n      jump\t// out\n        /* \"@openzeppelin/contracts@5.0.0/token/ERC721/ERC721.sol\":10954:11136  function _safeMint(address to, uint256 tokenId, bytes memory data) internal virtual {... */\n    tag_262:\n        /* \"@openzeppelin/contracts@5.0.0/token/ERC721/ERC721.sol\":11048:11066  _mint(to, tokenId) */\n      tag_332\n        /* \"@openzeppelin/contracts@5.0.0/token/ERC721/ERC721.sol\":11054:11056  to */\n      dup4\n        /* \"@openzeppelin/contracts@5.0.0/token/ERC721/ERC721.sol\":11058:11065  tokenId */\n      dup4\n        /* \"@openzeppelin/contracts@5.0.0/token/ERC721/ERC721.sol\":11048:11053  _mint */\n      tag_333\n        /* \"@openzeppelin/contracts@5.0.0/token/ERC721/ERC721.sol\":11048:11066  _mint(to, tokenId) */\n      jump\t// in\n    tag_332:\n        /* \"@openzeppelin/contracts@5.0.0/token/ERC721/ERC721.sol\":11076:11129  _checkOnERC721Received(address(0), to, tokenId, data) */\n      tag_334\n        /* \"@openzeppelin/contracts@5.0.0/token/ERC721/ERC721.sol\":11107:11108  0 */\n      0x00\n        /* \"@openzeppelin/contracts@5.0.0/token/ERC721/ERC721.sol\":11111:11113  to */\n      dup5\n        /* \"@openzeppelin/contracts@5.0.0/token/ERC721/ERC721.sol\":11115:11122  tokenId */\n      dup5\n        /* \"@openzeppelin/contracts@5.0.0/token/ERC721/ERC721.sol\":11124:11128  data */\n      dup5\n        /* \"@openzeppelin/contracts@5.0.0/token/ERC721/ERC721.sol\":11076:11098  _checkOnERC721Received */\n      tag_212\n        /* \"@openzeppelin/contracts@5.0.0/token/ERC721/ERC721.sol\":11076:11129  _checkOnERC721Received(address(0), to, tokenId, data) */\n      jump\t// in\n    tag_334:\n        /* \"@openzeppelin/contracts@5.0.0/token/ERC721/ERC721.sol\":10954:11136  function _safeMint(address to, uint256 tokenId, bytes memory data) internal virtual {... */\n      pop\n      pop\n      pop\n      jump\t// out\n        /* \"@openzeppelin/contracts@5.0.0/token/ERC721/ERC721.sol\":3174:3266  function _baseURI() internal view virtual returns (string memory) {... */\n    tag_300:\n        /* \"@openzeppelin/contracts@5.0.0/token/ERC721/ERC721.sol\":3225:3238  string memory */\n      0x60\n        /* \"@openzeppelin/contracts@5.0.0/token/ERC721/ERC721.sol\":3250:3259  return \"\" */\n      mload(0x40)\n      dup1\n      0x20\n      add\n      0x40\n      mstore\n      dup1\n      0x00\n      dup2\n      mstore\n      pop\n      swap1\n      pop\n        /* \"@openzeppelin/contracts@5.0.0/token/ERC721/ERC721.sol\":3174:3266  function _baseURI() internal view virtual returns (string memory) {... */\n      swap1\n      jump\t// out\n        /* \"@openzeppelin/contracts@5.0.0/token/ERC721/ERC721.sol\":2677:2932  function tokenURI(uint256 tokenId) public view virtual returns (string memory) {... */\n    tag_306:\n        /* \"@openzeppelin/contracts@5.0.0/token/ERC721/ERC721.sol\":2741:2754  string memory */\n      0x60\n        /* \"@openzeppelin/contracts@5.0.0/token/ERC721/ERC721.sol\":2766:2788  _requireOwned(tokenId) */\n      tag_337\n        /* \"@openzeppelin/contracts@5.0.0/token/ERC721/ERC721.sol\":2780:2787  tokenId */\n      dup3\n        /* \"@openzeppelin/contracts@5.0.0/token/ERC721/ERC721.sol\":2766:2779  _requireOwned */\n      tag_133\n        /* \"@openzeppelin/contracts@5.0.0/token/ERC721/ERC721.sol\":2766:2788  _requireOwned(tokenId) */\n      jump\t// in\n    tag_337:\n      pop\n        /* \"@openzeppelin/contracts@5.0.0/token/ERC721/ERC721.sol\":2799:2820  string memory baseURI */\n      0x00\n        /* \"@openzeppelin/contracts@5.0.0/token/ERC721/ERC721.sol\":2823:2833  _baseURI() */\n      tag_338\n        /* \"@openzeppelin/contracts@5.0.0/token/ERC721/ERC721.sol\":2823:2831  _baseURI */\n      tag_300\n        /* \"@openzeppelin/contracts@5.0.0/token/ERC721/ERC721.sol\":2823:2833  _baseURI() */\n      jump\t// in\n    tag_338:\n        /* \"@openzeppelin/contracts@5.0.0/token/ERC721/ERC721.sol\":2799:2833  string memory baseURI = _baseURI() */\n      swap1\n      pop\n        /* \"@openzeppelin/contracts@5.0.0/token/ERC721/ERC721.sol\":2874:2875  0 */\n      0x00\n        /* \"@openzeppelin/contracts@5.0.0/token/ERC721/ERC721.sol\":2856:2863  baseURI */\n      dup2\n        /* \"@openzeppelin/contracts@5.0.0/token/ERC721/ERC721.sol\":2850:2871  bytes(baseURI).length */\n      mload\n        /* \"@openzeppelin/contracts@5.0.0/token/ERC721/ERC721.sol\":2850:2875  bytes(baseURI).length > 0 */\n      gt\n        /* \"@openzeppelin/contracts@5.0.0/token/ERC721/ERC721.sol\":2850:2925  bytes(baseURI).length > 0 ? string.concat(baseURI, tokenId.toString()) : \"\" */\n      tag_339\n      jumpi\n      mload(0x40)\n      dup1\n      0x20\n      add\n      0x40\n      mstore\n      dup1\n      0x00\n      dup2\n      mstore\n      pop\n      jump(tag_340)\n    tag_339:\n        /* \"@openzeppelin/contracts@5.0.0/token/ERC721/ERC721.sol\":2892:2899  baseURI */\n      dup1\n        /* \"@openzeppelin/contracts@5.0.0/token/ERC721/ERC721.sol\":2901:2919  tokenId.toString() */\n      tag_341\n        /* \"@openzeppelin/contracts@5.0.0/token/ERC721/ERC721.sol\":2901:2908  tokenId */\n      dup5\n        /* \"@openzeppelin/contracts@5.0.0/token/ERC721/ERC721.sol\":2901:2917  tokenId.toString */\n      tag_342\n        /* \"@openzeppelin/contracts@5.0.0/token/ERC721/ERC721.sol\":2901:2919  tokenId.toString() */\n      jump\t// in\n    tag_341:\n        /* \"@openzeppelin/contracts@5.0.0/token/ERC721/ERC721.sol\":2878:2920  string.concat(baseURI, tokenId.toString()) */\n      add(0x20, mload(0x40))\n      tag_343\n      swap3\n      swap2\n      swap1\n      tag_304\n      jump\t// in\n    tag_343:\n      mload(0x40)\n      0x20\n      dup2\n      dup4\n      sub\n      sub\n      dup2\n      mstore\n      swap1\n      0x40\n      mstore\n        /* \"@openzeppelin/contracts@5.0.0/token/ERC721/ERC721.sol\":2850:2925  bytes(baseURI).length > 0 ? string.concat(baseURI, tokenId.toString()) : \"\" */\n    tag_340:\n        /* \"@openzeppelin/contracts@5.0.0/token/ERC721/ERC721.sol\":2843:2925  return bytes(baseURI).length > 0 ? string.concat(baseURI, tokenId.toString()) : \"\" */\n      swap2\n      pop\n      pop\n        /* \"@openzeppelin/contracts@5.0.0/token/ERC721/ERC721.sol\":2677:2932  function tokenURI(uint256 tokenId) public view virtual returns (string memory) {... */\n      swap2\n      swap1\n      pop\n      jump\t// out\n        /* \"@openzeppelin/contracts@5.0.0/utils/introspection/ERC165.sol\":762:908  function supportsInterface(bytes4 interfaceId) public view virtual returns (bool) {... */\n    tag_311:\n        /* \"@openzeppelin/contracts@5.0.0/utils/introspection/ERC165.sol\":838:842  bool */\n      0x00\n        /* \"@openzeppelin/contracts@5.0.0/utils/introspection/ERC165.sol\":876:901  type(IERC165).interfaceId */\n      0x01ffc9a700000000000000000000000000000000000000000000000000000000\n        /* \"@openzeppelin/contracts@5.0.0/utils/introspection/ERC165.sol\":861:901  interfaceId == type(IERC165).interfaceId */\n      not(0xffffffffffffffffffffffffffffffffffffffffffffffffffffffff)\n      and\n        /* \"@openzeppelin/contracts@5.0.0/utils/introspection/ERC165.sol\":861:872  interfaceId */\n      dup3\n        /* \"@openzeppelin/contracts@5.0.0/utils/introspection/ERC165.sol\":861:901  interfaceId == type(IERC165).interfaceId */\n      not(0xffffffffffffffffffffffffffffffffffffffffffffffffffffffff)\n      and\n      eq\n        /* \"@openzeppelin/contracts@5.0.0/utils/introspection/ERC165.sol\":854:901  return interfaceId == type(IERC165).interfaceId */\n      swap1\n      pop\n        /* \"@openzeppelin/contracts@5.0.0/utils/introspection/ERC165.sol\":762:908  function supportsInterface(bytes4 interfaceId) public view virtual returns (bool) {... */\n      swap2\n      swap1\n      pop\n      jump\t// out\n        /* \"@openzeppelin/contracts@5.0.0/token/ERC721/ERC721.sol\":6376:6648  function _isAuthorized(address owner, address spender, uint256 tokenId) internal view virtual returns (bool) {... */\n    tag_325:\n        /* \"@openzeppelin/contracts@5.0.0/token/ERC721/ERC721.sol\":6479:6483  bool */\n      0x00\n        /* \"@openzeppelin/contracts@5.0.0/token/ERC721/ERC721.sol\":6533:6534  0 */\n      dup1\n        /* \"@openzeppelin/contracts@5.0.0/token/ERC721/ERC721.sol\":6514:6535  spender != address(0) */\n      0xffffffffffffffffffffffffffffffffffffffff\n      and\n        /* \"@openzeppelin/contracts@5.0.0/token/ERC721/ERC721.sol\":6514:6521  spender */\n      dup4\n        /* \"@openzeppelin/contracts@5.0.0/token/ERC721/ERC721.sol\":6514:6535  spender != address(0) */\n      0xffffffffffffffffffffffffffffffffffffffff\n      and\n      eq\n      iszero\n        /* \"@openzeppelin/contracts@5.0.0/token/ERC721/ERC721.sol\":6514:6641  spender != address(0) &&... */\n      dup1\n      iszero\n      tag_346\n      jumpi\n      pop\n        /* \"@openzeppelin/contracts@5.0.0/token/ERC721/ERC721.sol\":6561:6568  spender */\n      dup3\n        /* \"@openzeppelin/contracts@5.0.0/token/ERC721/ERC721.sol\":6552:6568  owner == spender */\n      0xffffffffffffffffffffffffffffffffffffffff\n      and\n        /* \"@openzeppelin/contracts@5.0.0/token/ERC721/ERC721.sol\":6552:6557  owner */\n      dup5\n        /* \"@openzeppelin/contracts@5.0.0/token/ERC721/ERC721.sol\":6552:6568  owner == spender */\n      0xffffffffffffffffffffffffffffffffffffffff\n      and\n      eq\n        /* \"@openzeppelin/contracts@5.0.0/token/ERC721/ERC721.sol\":6552:6604  owner == spender || isApprovedForAll(owner, spender) */\n      dup1\n      tag_347\n      jumpi\n      pop\n        /* \"@openzeppelin/contracts@5.0.0/token/ERC721/ERC721.sol\":6572:6604  isApprovedForAll(owner, spender) */\n      tag_348\n        /* \"@openzeppelin/contracts@5.0.0/token/ERC721/ERC721.sol\":6589:6594  owner */\n      dup5\n        /* \"@openzeppelin/contracts@5.0.0/token/ERC721/ERC721.sol\":6596:6603  spender */\n      dup5\n        /* \"@openzeppelin/contracts@5.0.0/token/ERC721/ERC721.sol\":6572:6588  isApprovedForAll */\n      tag_116\n        /* \"@openzeppelin/contracts@5.0.0/token/ERC721/ERC721.sol\":6572:6604  isApprovedForAll(owner, spender) */\n      jump\t// in\n    tag_348:\n        /* \"@openzeppelin/contracts@5.0.0/token/ERC721/ERC721.sol\":6552:6604  owner == spender || isApprovedForAll(owner, spender) */\n    tag_347:\n        /* \"@openzeppelin/contracts@5.0.0/token/ERC721/ERC721.sol\":6552:6640  owner == spender || isApprovedForAll(owner, spender) || _getApproved(tokenId) == spender */\n      dup1\n      tag_349\n      jumpi\n      pop\n        /* \"@openzeppelin/contracts@5.0.0/token/ERC721/ERC721.sol\":6633:6640  spender */\n      dup3\n        /* \"@openzeppelin/contracts@5.0.0/token/ERC721/ERC721.sol\":6608:6640  _getApproved(tokenId) == spender */\n      0xffffffffffffffffffffffffffffffffffffffff\n      and\n        /* \"@openzeppelin/contracts@5.0.0/token/ERC721/ERC721.sol\":6608:6629  _getApproved(tokenId) */\n      tag_350\n        /* \"@openzeppelin/contracts@5.0.0/token/ERC721/ERC721.sol\":6621:6628  tokenId */\n      dup4\n        /* \"@openzeppelin/contracts@5.0.0/token/ERC721/ERC721.sol\":6608:6620  _getApproved */\n      tag_135\n        /* \"@openzeppelin/contracts@5.0.0/token/ERC721/ERC721.sol\":6608:6629  _getApproved(tokenId) */\n      jump\t// in\n    tag_350:\n        /* \"@openzeppelin/contracts@5.0.0/token/ERC721/ERC721.sol\":6608:6640  _getApproved(tokenId) == spender */\n      0xffffffffffffffffffffffffffffffffffffffff\n      and\n      eq\n        /* \"@openzeppelin/contracts@5.0.0/token/ERC721/ERC721.sol\":6552:6640  owner == spender || isApprovedForAll(owner, spender) || _getApproved(tokenId) == spender */\n    tag_349:\n        /* \"@openzeppelin/contracts@5.0.0/token/ERC721/ERC721.sol\":6514:6641  spender != address(0) &&... */\n    tag_346:\n        /* \"@openzeppelin/contracts@5.0.0/token/ERC721/ERC721.sol\":6495:6641  return... */\n      swap1\n      pop\n        /* \"@openzeppelin/contracts@5.0.0/token/ERC721/ERC721.sol\":6376:6648  function _isAuthorized(address owner, address spender, uint256 tokenId) internal view virtual returns (bool) {... */\n      swap4\n      swap3\n      pop\n      pop\n      pop\n      jump\t// out\n        /* \"@openzeppelin/contracts@5.0.0/token/ERC721/ERC721.sol\":9955:10282  function _mint(address to, uint256 tokenId) internal {... */\n    tag_333:\n        /* \"@openzeppelin/contracts@5.0.0/token/ERC721/ERC721.sol\":10036:10037  0 */\n      0x00\n        /* \"@openzeppelin/contracts@5.0.0/token/ERC721/ERC721.sol\":10022:10038  to == address(0) */\n      0xffffffffffffffffffffffffffffffffffffffff\n      and\n        /* \"@openzeppelin/contracts@5.0.0/token/ERC721/ERC721.sol\":10022:10024  to */\n      dup3\n        /* \"@openzeppelin/contracts@5.0.0/token/ERC721/ERC721.sol\":10022:10038  to == address(0) */\n      0xffffffffffffffffffffffffffffffffffffffff\n      and\n      sub\n        /* \"@openzeppelin/contracts@5.0.0/token/ERC721/ERC721.sol\":10018:10105  if (to == address(0)) {... */\n      tag_352\n      jumpi\n        /* \"@openzeppelin/contracts@5.0.0/token/ERC721/ERC721.sol\":10091:10092  0 */\n      0x00\n        /* \"@openzeppelin/contracts@5.0.0/token/ERC721/ERC721.sol\":10061:10094  ERC721InvalidReceiver(address(0)) */\n      mload(0x40)\n      0x64a0ae9200000000000000000000000000000000000000000000000000000000\n      dup2\n      mstore\n      0x04\n      add\n      tag_353\n      swap2\n      swap1\n      tag_44\n      jump\t// in\n    tag_353:\n      mload(0x40)\n      dup1\n      swap2\n      sub\n      swap1\n      revert\n        /* \"@openzeppelin/contracts@5.0.0/token/ERC721/ERC721.sol\":10018:10105  if (to == address(0)) {... */\n    tag_352:\n        /* \"@openzeppelin/contracts@5.0.0/token/ERC721/ERC721.sol\":10114:10135  address previousOwner */\n      0x00\n        /* \"@openzeppelin/contracts@5.0.0/token/ERC721/ERC721.sol\":10138:10170  _update(to, tokenId, address(0)) */\n      tag_354\n        /* \"@openzeppelin/contracts@5.0.0/token/ERC721/ERC721.sol\":10146:10148  to */\n      dup4\n        /* \"@openzeppelin/contracts@5.0.0/token/ERC721/ERC721.sol\":10150:10157  tokenId */\n      dup4\n        /* \"@openzeppelin/contracts@5.0.0/token/ERC721/ERC721.sol\":10167:10168  0 */\n      0x00\n        /* \"@openzeppelin/contracts@5.0.0/token/ERC721/ERC721.sol\":10138:10145  _update */\n      tag_146\n        /* \"@openzeppelin/contracts@5.0.0/token/ERC721/ERC721.sol\":10138:10170  _update(to, tokenId, address(0)) */\n      jump\t// in\n    tag_354:\n        /* \"@openzeppelin/contracts@5.0.0/token/ERC721/ERC721.sol\":10114:10170  address previousOwner = _update(to, tokenId, address(0)) */\n      swap1\n      pop\n        /* \"@openzeppelin/contracts@5.0.0/token/ERC721/ERC721.sol\":10209:10210  0 */\n      0x00\n        /* \"@openzeppelin/contracts@5.0.0/token/ERC721/ERC721.sol\":10184:10211  previousOwner != address(0) */\n      0xffffffffffffffffffffffffffffffffffffffff\n      and\n        /* \"@openzeppelin/contracts@5.0.0/token/ERC721/ERC721.sol\":10184:10197  previousOwner */\n      dup2\n        /* \"@openzeppelin/contracts@5.0.0/token/ERC721/ERC721.sol\":10184:10211  previousOwner != address(0) */\n      0xffffffffffffffffffffffffffffffffffffffff\n      and\n      eq\n        /* \"@openzeppelin/contracts@5.0.0/token/ERC721/ERC721.sol\":10180:10276  if (previousOwner != address(0)) {... */\n      tag_355\n      jumpi\n        /* \"@openzeppelin/contracts@5.0.0/token/ERC721/ERC721.sol\":10262:10263  0 */\n      0x00\n        /* \"@openzeppelin/contracts@5.0.0/token/ERC721/ERC721.sol\":10234:10265  ERC721InvalidSender(address(0)) */\n      mload(0x40)\n      0x73c6ac6e00000000000000000000000000000000000000000000000000000000\n      dup2\n      mstore\n      0x04\n      add\n      tag_356\n      swap2\n      swap1\n      tag_44\n      jump\t// in\n    tag_356:\n      mload(0x40)\n      dup1\n      swap2\n      sub\n      swap1\n      revert\n        /* \"@openzeppelin/contracts@5.0.0/token/ERC721/ERC721.sol\":10180:10276  if (previousOwner != address(0)) {... */\n    tag_355:\n        /* \"@openzeppelin/contracts@5.0.0/token/ERC721/ERC721.sol\":10008:10282  {... */\n      pop\n        /* \"@openzeppelin/contracts@5.0.0/token/ERC721/ERC721.sol\":9955:10282  function _mint(address to, uint256 tokenId) internal {... */\n      pop\n      pop\n      jump\t// out\n        /* \"@openzeppelin/contracts@5.0.0/utils/Strings.sol\":637:1335  function toString(uint256 value) internal pure returns (string memory) {... */\n    tag_342:\n        /* \"@openzeppelin/contracts@5.0.0/utils/Strings.sol\":693:706  string memory */\n      0x60\n        /* \"@openzeppelin/contracts@5.0.0/utils/Strings.sol\":742:756  uint256 length */\n      0x00\n        /* \"@openzeppelin/contracts@5.0.0/utils/Strings.sol\":779:780  1 */\n      0x01\n        /* \"@openzeppelin/contracts@5.0.0/utils/Strings.sol\":759:776  Math.log10(value) */\n      tag_358\n        /* \"@openzeppelin/contracts@5.0.0/utils/Strings.sol\":770:775  value */\n      dup5\n        /* \"@openzeppelin/contracts@5.0.0/utils/Strings.sol\":759:769  Math.log10 */\n      tag_359\n        /* \"@openzeppelin/contracts@5.0.0/utils/Strings.sol\":759:776  Math.log10(value) */\n      jump\t// in\n    tag_358:\n        /* \"@openzeppelin/contracts@5.0.0/utils/Strings.sol\":759:780  Math.log10(value) + 1 */\n      add\n        /* \"@openzeppelin/contracts@5.0.0/utils/Strings.sol\":742:780  uint256 length = Math.log10(value) + 1 */\n      swap1\n      pop\n        /* \"@openzeppelin/contracts@5.0.0/utils/Strings.sol\":794:814  string memory buffer */\n      0x00\n        /* \"@openzeppelin/contracts@5.0.0/utils/Strings.sol\":828:834  length */\n      dup2\n        /* \"@openzeppelin/contracts@5.0.0/utils/Strings.sol\":817:835  new string(length) */\n      0xffffffffffffffff\n      dup2\n      gt\n      iszero\n      tag_360\n      jumpi\n      tag_361\n      tag_362\n      jump\t// in\n    tag_361:\n    tag_360:\n      mload(0x40)\n      swap1\n      dup1\n      dup3\n      mstore\n      dup1\n      0x1f\n      add\n      not(0x1f)\n      and\n      0x20\n      add\n      dup3\n      add\n      0x40\n      mstore\n      dup1\n      iszero\n      tag_363\n      jumpi\n      dup2\n      0x20\n      add\n      0x01\n      dup3\n      mul\n      dup1\n      calldatasize\n      dup4\n      calldatacopy\n      dup1\n      dup3\n      add\n      swap2\n      pop\n      pop\n      swap1\n      pop\n    tag_363:\n      pop\n        /* \"@openzeppelin/contracts@5.0.0/utils/Strings.sol\":794:835  string memory buffer = new string(length) */\n      swap1\n      pop\n        /* \"@openzeppelin/contracts@5.0.0/utils/Strings.sol\":849:860  uint256 ptr */\n      0x00\n        /* \"@openzeppelin/contracts@5.0.0/utils/Strings.sol\":975:981  length */\n      dup3\n        /* \"@openzeppelin/contracts@5.0.0/utils/Strings.sol\":971:973  32 */\n      0x20\n        /* \"@openzeppelin/contracts@5.0.0/utils/Strings.sol\":967:982  add(32, length) */\n      add\n        /* \"@openzeppelin/contracts@5.0.0/utils/Strings.sol\":959:965  buffer */\n      dup3\n        /* \"@openzeppelin/contracts@5.0.0/utils/Strings.sol\":955:983  add(buffer, add(32, length)) */\n      add\n        /* \"@openzeppelin/contracts@5.0.0/utils/Strings.sol\":948:983  ptr := add(buffer, add(32, length)) */\n      swap1\n      pop\n        /* \"@openzeppelin/contracts@5.0.0/utils/Strings.sol\":1010:1292  while (true) {... */\n    tag_364:\n        /* \"@openzeppelin/contracts@5.0.0/utils/Strings.sol\":1017:1021  true */\n      0x01\n        /* \"@openzeppelin/contracts@5.0.0/utils/Strings.sol\":1010:1292  while (true) {... */\n      iszero\n      tag_365\n      jumpi\n        /* \"@openzeppelin/contracts@5.0.0/utils/Strings.sol\":1041:1046  ptr-- */\n      dup1\n      dup1\n      0x01\n      swap1\n      sub\n      swap2\n      pop\n      pop\n        /* \"@openzeppelin/contracts@5.0.0/utils/Strings.sol\":1180:1190  HEX_DIGITS */\n      0x3031323334353637383961626364656600000000000000000000000000000000\n        /* \"@openzeppelin/contracts@5.0.0/utils/Strings.sol\":1175:1177  10 */\n      0x0a\n        /* \"@openzeppelin/contracts@5.0.0/utils/Strings.sol\":1168:1173  value */\n      dup7\n        /* \"@openzeppelin/contracts@5.0.0/utils/Strings.sol\":1164:1178  mod(value, 10) */\n      mod\n        /* \"@openzeppelin/contracts@5.0.0/utils/Strings.sol\":1159:1191  byte(mod(value, 10), HEX_DIGITS) */\n      byte\n        /* \"@openzeppelin/contracts@5.0.0/utils/Strings.sol\":1154:1157  ptr */\n      dup2\n        /* \"@openzeppelin/contracts@5.0.0/utils/Strings.sol\":1146:1192  mstore8(ptr, byte(mod(value, 10), HEX_DIGITS)) */\n      mstore8\n        /* \"@openzeppelin/contracts@5.0.0/utils/Strings.sol\":1236:1238  10 */\n      0x0a\n        /* \"@openzeppelin/contracts@5.0.0/utils/Strings.sol\":1227:1238  value /= 10 */\n      dup6\n      dup2\n      tag_366\n      jumpi\n      tag_367\n      tag_368\n      jump\t// in\n    tag_367:\n    tag_366:\n      div\n      swap5\n      pop\n        /* \"@openzeppelin/contracts@5.0.0/utils/Strings.sol\":1269:1270  0 */\n      0x00\n        /* \"@openzeppelin/contracts@5.0.0/utils/Strings.sol\":1260:1265  value */\n      dup6\n        /* \"@openzeppelin/contracts@5.0.0/utils/Strings.sol\":1260:1270  value == 0 */\n      sub\n        /* \"@openzeppelin/contracts@5.0.0/utils/Strings.sol\":1010:1292  while (true) {... */\n      tag_364\n        /* \"@openzeppelin/contracts@5.0.0/utils/Strings.sol\":1256:1277  if (value == 0) break */\n      jumpi\n        /* \"@openzeppelin/contracts@5.0.0/utils/Strings.sol\":1010:1292  while (true) {... */\n    tag_365:\n        /* \"@openzeppelin/contracts@5.0.0/utils/Strings.sol\":1312:1318  buffer */\n      dup2\n        /* \"@openzeppelin/contracts@5.0.0/utils/Strings.sol\":1305:1318  return buffer */\n      swap4\n      pop\n      pop\n      pop\n      pop\n        /* \"@openzeppelin/contracts@5.0.0/utils/Strings.sol\":637:1335  function toString(uint256 value) internal pure returns (string memory) {... */\n      swap2\n      swap1\n      pop\n      jump\t// out\n        /* \"@openzeppelin/contracts@5.0.0/utils/math/Math.sol\":12214:13130  function log10(uint256 value) internal pure returns (uint256) {... */\n    tag_359:\n        /* \"@openzeppelin/contracts@5.0.0/utils/math/Math.sol\":12267:12274  uint256 */\n      0x00\n        /* \"@openzeppelin/contracts@5.0.0/utils/math/Math.sol\":12286:12300  uint256 result */\n      dup1\n        /* \"@openzeppelin/contracts@5.0.0/utils/math/Math.sol\":12303:12304  0 */\n      0x00\n        /* \"@openzeppelin/contracts@5.0.0/utils/math/Math.sol\":12286:12304  uint256 result = 0 */\n      swap1\n      pop\n        /* \"@openzeppelin/contracts@5.0.0/utils/math/Math.sol\":12351:12359  10 ** 64 */\n      0x184f03e93ff9f4daa797ed6e38ed64bf6a1f010000000000000000\n        /* \"@openzeppelin/contracts@5.0.0/utils/math/Math.sol\":12342:12347  value */\n      dup4\n        /* \"@openzeppelin/contracts@5.0.0/utils/math/Math.sol\":12342:12359  value >= 10 ** 64 */\n      lt\n        /* \"@openzeppelin/contracts@5.0.0/utils/math/Math.sol\":12338:12441  if (value >= 10 ** 64) {... */\n      tag_371\n      jumpi\n        /* \"@openzeppelin/contracts@5.0.0/utils/math/Math.sol\":12388:12396  10 ** 64 */\n      0x184f03e93ff9f4daa797ed6e38ed64bf6a1f010000000000000000\n        /* \"@openzeppelin/contracts@5.0.0/utils/math/Math.sol\":12379:12396  value /= 10 ** 64 */\n      dup4\n      dup2\n      tag_372\n      jumpi\n      tag_373\n      tag_368\n      jump\t// in\n    tag_373:\n    tag_372:\n      div\n      swap3\n      pop\n        /* \"@openzeppelin/contracts@5.0.0/utils/math/Math.sol\":12424:12426  64 */\n      0x40\n        /* \"@openzeppelin/contracts@5.0.0/utils/math/Math.sol\":12414:12426  result += 64 */\n      dup2\n      add\n      swap1\n      pop\n        /* \"@openzeppelin/contracts@5.0.0/utils/math/Math.sol\":12338:12441  if (value >= 10 ** 64) {... */\n    tag_371:\n        /* \"@openzeppelin/contracts@5.0.0/utils/math/Math.sol\":12467:12475  10 ** 32 */\n      0x04ee2d6d415b85acef8100000000\n        /* \"@openzeppelin/contracts@5.0.0/utils/math/Math.sol\":12458:12463  value */\n      dup4\n        /* \"@openzeppelin/contracts@5.0.0/utils/math/Math.sol\":12458:12475  value >= 10 ** 32 */\n      lt\n        /* \"@openzeppelin/contracts@5.0.0/utils/math/Math.sol\":12454:12557  if (value >= 10 ** 32) {... */\n      tag_374\n      jumpi\n        /* \"@openzeppelin/contracts@5.0.0/utils/math/Math.sol\":12504:12512  10 ** 32 */\n      0x04ee2d6d415b85acef8100000000\n        /* \"@openzeppelin/contracts@5.0.0/utils/math/Math.sol\":12495:12512  value /= 10 ** 32 */\n      dup4\n      dup2\n      tag_375\n      jumpi\n      tag_376\n      tag_368\n      jump\t// in\n    tag_376:\n    tag_375:\n      div\n      swap3\n      pop\n        /* \"@openzeppelin/contracts@5.0.0/utils/math/Math.sol\":12540:12542  32 */\n      0x20\n        /* \"@openzeppelin/contracts@5.0.0/utils/math/Math.sol\":12530:12542  result += 32 */\n      dup2\n      add\n      swap1\n      pop\n        /* \"@openzeppelin/contracts@5.0.0/utils/math/Math.sol\":12454:12557  if (value >= 10 ** 32) {... */\n    tag_374:\n        /* \"@openzeppelin/contracts@5.0.0/utils/math/Math.sol\":12583:12591  10 ** 16 */\n      0x2386f26fc10000\n        /* \"@openzeppelin/contracts@5.0.0/utils/math/Math.sol\":12574:12579  value */\n      dup4\n        /* \"@openzeppelin/contracts@5.0.0/utils/math/Math.sol\":12574:12591  value >= 10 ** 16 */\n      lt\n        /* \"@openzeppelin/contracts@5.0.0/utils/math/Math.sol\":12570:12673  if (value >= 10 ** 16) {... */\n      tag_377\n      jumpi\n        /* \"@openzeppelin/contracts@5.0.0/utils/math/Math.sol\":12620:12628  10 ** 16 */\n      0x2386f26fc10000\n        /* \"@openzeppelin/contracts@5.0.0/utils/math/Math.sol\":12611:12628  value /= 10 ** 16 */\n      dup4\n      dup2\n      tag_378\n      jumpi\n      tag_379\n      tag_368\n      jump\t// in\n    tag_379:\n    tag_378:\n      div\n      swap3\n      pop\n        /* \"@openzeppelin/contracts@5.0.0/utils/math/Math.sol\":12656:12658  16 */\n      0x10\n        /* \"@openzeppelin/contracts@5.0.0/utils/math/Math.sol\":12646:12658  result += 16 */\n      dup2\n      add\n      swap1\n      pop\n        /* \"@openzeppelin/contracts@5.0.0/utils/math/Math.sol\":12570:12673  if (value >= 10 ** 16) {... */\n    tag_377:\n        /* \"@openzeppelin/contracts@5.0.0/utils/math/Math.sol\":12699:12706  10 ** 8 */\n      0x05f5e100\n        /* \"@openzeppelin/contracts@5.0.0/utils/math/Math.sol\":12690:12695  value */\n      dup4\n        /* \"@openzeppelin/contracts@5.0.0/utils/math/Math.sol\":12690:12706  value >= 10 ** 8 */\n      lt\n        /* \"@openzeppelin/contracts@5.0.0/utils/math/Math.sol\":12686:12786  if (value >= 10 ** 8) {... */\n      tag_380\n      jumpi\n        /* \"@openzeppelin/contracts@5.0.0/utils/math/Math.sol\":12735:12742  10 ** 8 */\n      0x05f5e100\n        /* \"@openzeppelin/contracts@5.0.0/utils/math/Math.sol\":12726:12742  value /= 10 ** 8 */\n      dup4\n      dup2\n      tag_381\n      jumpi\n      tag_382\n      tag_368\n      jump\t// in\n    tag_382:\n    tag_381:\n      div\n      swap3\n      pop\n        /* \"@openzeppelin/contracts@5.0.0/utils/math/Math.sol\":12770:12771  8 */\n      0x08\n        /* \"@openzeppelin/contracts@5.0.0/utils/math/Math.sol\":12760:12771  result += 8 */\n      dup2\n      add\n      swap1\n      pop\n        /* \"@openzeppelin/contracts@5.0.0/utils/math/Math.sol\":12686:12786  if (value >= 10 ** 8) {... */\n    tag_380:\n        /* \"@openzeppelin/contracts@5.0.0/utils/math/Math.sol\":12812:12819  10 ** 4 */\n      0x2710\n        /* \"@openzeppelin/contracts@5.0.0/utils/math/Math.sol\":12803:12808  value */\n      dup4\n        /* \"@openzeppelin/contracts@5.0.0/utils/math/Math.sol\":12803:12819  value >= 10 ** 4 */\n      lt\n        /* \"@openzeppelin/contracts@5.0.0/utils/math/Math.sol\":12799:12899  if (value >= 10 ** 4) {... */\n      tag_383\n      jumpi\n        /* \"@openzeppelin/contracts@5.0.0/utils/math/Math.sol\":12848:12855  10 ** 4 */\n      0x2710\n        /* \"@openzeppelin/contracts@5.0.0/utils/math/Math.sol\":12839:12855  value /= 10 ** 4 */\n      dup4\n      dup2\n      tag_384\n      jumpi\n      tag_385\n      tag_368\n      jump\t// in\n    tag_385:\n    tag_384:\n      div\n      swap3\n      pop\n        /* \"@openzeppelin/contracts@5.0.0/utils/math/Math.sol\":12883:12884  4 */\n      0x04\n        /* \"@openzeppelin/contracts@5.0.0/utils/math/Math.sol\":12873:12884  result += 4 */\n      dup2\n      add\n      swap1\n      pop\n        /* \"@openzeppelin/contracts@5.0.0/utils/math/Math.sol\":12799:12899  if (value >= 10 ** 4) {... */\n    tag_383:\n        /* \"@openzeppelin/contracts@5.0.0/utils/math/Math.sol\":12925:12932  10 ** 2 */\n      0x64\n        /* \"@openzeppelin/contracts@5.0.0/utils/math/Math.sol\":12916:12921  value */\n      dup4\n        /* \"@openzeppelin/contracts@5.0.0/utils/math/Math.sol\":12916:12932  value >= 10 ** 2 */\n      lt\n        /* \"@openzeppelin/contracts@5.0.0/utils/math/Math.sol\":12912:13012  if (value >= 10 ** 2) {... */\n      tag_386\n      jumpi\n        /* \"@openzeppelin/contracts@5.0.0/utils/math/Math.sol\":12961:12968  10 ** 2 */\n      0x64\n        /* \"@openzeppelin/contracts@5.0.0/utils/math/Math.sol\":12952:12968  value /= 10 ** 2 */\n      dup4\n      dup2\n      tag_387\n      jumpi\n      tag_388\n      tag_368\n      jump\t// in\n    tag_388:\n    tag_387:\n      div\n      swap3\n      pop\n        /* \"@openzeppelin/contracts@5.0.0/utils/math/Math.sol\":12996:12997  2 */\n      0x02\n        /* \"@openzeppelin/contracts@5.0.0/utils/math/Math.sol\":12986:12997  result += 2 */\n      dup2\n      add\n      swap1\n      pop\n        /* \"@openzeppelin/contracts@5.0.0/utils/math/Math.sol\":12912:13012  if (value >= 10 ** 2) {... */\n    tag_386:\n        /* \"@openzeppelin/contracts@5.0.0/utils/math/Math.sol\":13038:13045  10 ** 1 */\n      0x0a\n        /* \"@openzeppelin/contracts@5.0.0/utils/math/Math.sol\":13029:13034  value */\n      dup4\n        /* \"@openzeppelin/contracts@5.0.0/utils/math/Math.sol\":13029:13045  value >= 10 ** 1 */\n      lt\n        /* \"@openzeppelin/contracts@5.0.0/utils/math/Math.sol\":13025:13091  if (value >= 10 ** 1) {... */\n      tag_389\n      jumpi\n        /* \"@openzeppelin/contracts@5.0.0/utils/math/Math.sol\":13075:13076  1 */\n      0x01\n        /* \"@openzeppelin/contracts@5.0.0/utils/math/Math.sol\":13065:13076  result += 1 */\n      dup2\n      add\n      swap1\n      pop\n        /* \"@openzeppelin/contracts@5.0.0/utils/math/Math.sol\":13025:13091  if (value >= 10 ** 1) {... */\n    tag_389:\n        /* \"@openzeppelin/contracts@5.0.0/utils/math/Math.sol\":13117:13123  result */\n      dup1\n        /* \"@openzeppelin/contracts@5.0.0/utils/math/Math.sol\":13110:13123  return result */\n      swap2\n      pop\n      pop\n        /* \"@openzeppelin/contracts@5.0.0/utils/math/Math.sol\":12214:13130  function log10(uint256 value) internal pure returns (uint256) {... */\n      swap2\n      swap1\n      pop\n      jump\t// out\n        /* \"#utility.yul\":7:82   */\n    tag_390:\n        /* \"#utility.yul\":40:46   */\n      0x00\n        /* \"#utility.yul\":73:75   */\n      0x40\n        /* \"#utility.yul\":67:76   */\n      mload\n        /* \"#utility.yul\":57:76   */\n      swap1\n      pop\n        /* \"#utility.yul\":7:82   */\n      swap1\n      jump\t// out\n        /* \"#utility.yul\":88:205   */\n    tag_391:\n        /* \"#utility.yul\":197:198   */\n      0x00\n        /* \"#utility.yul\":194:195   */\n      dup1\n        /* \"#utility.yul\":187:199   */\n      revert\n        /* \"#utility.yul\":211:328   */\n    tag_392:\n        /* \"#utility.yul\":320:321   */\n      0x00\n        /* \"#utility.yul\":317:318   */\n      dup1\n        /* \"#utility.yul\":310:322   */\n      revert\n        /* \"#utility.yul\":334:483   */\n    tag_393:\n        /* \"#utility.yul\":370:377   */\n      0x00\n        /* \"#utility.yul\":410:476   */\n      0xffffffff00000000000000000000000000000000000000000000000000000000\n        /* \"#utility.yul\":403:408   */\n      dup3\n        /* \"#utility.yul\":399:477   */\n      and\n        /* \"#utility.yul\":388:477   */\n      swap1\n      pop\n        /* \"#utility.yul\":334:483   */\n      swap2\n      swap1\n      pop\n      jump\t// out\n        /* \"#utility.yul\":489:609   */\n    tag_394:\n        /* \"#utility.yul\":561:584   */\n      tag_467\n        /* \"#utility.yul\":578:583   */\n      dup2\n        /* \"#utility.yul\":561:584   */\n      tag_393\n      jump\t// in\n    tag_467:\n        /* \"#utility.yul\":554:559   */\n      dup2\n        /* \"#utility.yul\":551:585   */\n      eq\n        /* \"#utility.yul\":541:603   */\n      tag_468\n      jumpi\n        /* \"#utility.yul\":599:600   */\n      0x00\n        /* \"#utility.yul\":596:597   */\n      dup1\n        /* \"#utility.yul\":589:601   */\n      revert\n        /* \"#utility.yul\":541:603   */\n    tag_468:\n        /* \"#utility.yul\":489:609   */\n      pop\n      jump\t// out\n        /* \"#utility.yul\":615:752   */\n    tag_395:\n        /* \"#utility.yul\":660:665   */\n      0x00\n        /* \"#utility.yul\":698:704   */\n      dup2\n        /* \"#utility.yul\":685:705   */\n      calldataload\n        /* \"#utility.yul\":676:705   */\n      swap1\n      pop\n        /* \"#utility.yul\":714:746   */\n      tag_470\n        /* \"#utility.yul\":740:745   */\n      dup2\n        /* \"#utility.yul\":714:746   */\n      tag_394\n      jump\t// in\n    tag_470:\n        /* \"#utility.yul\":615:752   */\n      swap3\n      swap2\n      pop\n      pop\n      jump\t// out\n        /* \"#utility.yul\":758:1085   */\n    tag_31:\n        /* \"#utility.yul\":816:822   */\n      0x00\n        /* \"#utility.yul\":865:867   */\n      0x20\n        /* \"#utility.yul\":853:862   */\n      dup3\n        /* \"#utility.yul\":844:851   */\n      dup5\n        /* \"#utility.yul\":840:863   */\n      sub\n        /* \"#utility.yul\":836:868   */\n      slt\n        /* \"#utility.yul\":833:952   */\n      iszero\n      tag_472\n      jumpi\n        /* \"#utility.yul\":871:950   */\n      tag_473\n      tag_391\n      jump\t// in\n    tag_473:\n        /* \"#utility.yul\":833:952   */\n    tag_472:\n        /* \"#utility.yul\":991:992   */\n      0x00\n        /* \"#utility.yul\":1016:1068   */\n      tag_474\n        /* \"#utility.yul\":1060:1067   */\n      dup5\n        /* \"#utility.yul\":1051:1057   */\n      dup3\n        /* \"#utility.yul\":1040:1049   */\n      dup6\n        /* \"#utility.yul\":1036:1058   */\n      add\n        /* \"#utility.yul\":1016:1068   */\n      tag_395\n      jump\t// in\n    tag_474:\n        /* \"#utility.yul\":1006:1068   */\n      swap2\n      pop\n        /* \"#utility.yul\":962:1078   */\n      pop\n        /* \"#utility.yul\":758:1085   */\n      swap3\n      swap2\n      pop\n      pop\n      jump\t// out\n        /* \"#utility.yul\":1091:1181   */\n    tag_396:\n        /* \"#utility.yul\":1125:1132   */\n      0x00\n        /* \"#utility.yul\":1168:1173   */\n      dup2\n        /* \"#utility.yul\":1161:1174   */\n      iszero\n        /* \"#utility.yul\":1154:1175   */\n      iszero\n        /* \"#utility.yul\":1143:1175   */\n      swap1\n      pop\n        /* \"#utility.yul\":1091:1181   */\n      swap2\n      swap1\n      pop\n      jump\t// out\n        /* \"#utility.yul\":1187:1296   */\n    tag_397:\n        /* \"#utility.yul\":1268:1289   */\n      tag_477\n        /* \"#utility.yul\":1283:1288   */\n      dup2\n        /* \"#utility.yul\":1268:1289   */\n      tag_396\n      jump\t// in\n    tag_477:\n        /* \"#utility.yul\":1263:1266   */\n      dup3\n        /* \"#utility.yul\":1256:1290   */\n      mstore\n        /* \"#utility.yul\":1187:1296   */\n      pop\n      pop\n      jump\t// out\n        /* \"#utility.yul\":1302:1512   */\n    tag_34:\n        /* \"#utility.yul\":1389:1393   */\n      0x00\n        /* \"#utility.yul\":1427:1429   */\n      0x20\n        /* \"#utility.yul\":1416:1425   */\n      dup3\n        /* \"#utility.yul\":1412:1430   */\n      add\n        /* \"#utility.yul\":1404:1430   */\n      swap1\n      pop\n        /* \"#utility.yul\":1440:1505   */\n      tag_479\n        /* \"#utility.yul\":1502:1503   */\n      0x00\n        /* \"#utility.yul\":1491:1500   */\n      dup4\n        /* \"#utility.yul\":1487:1504   */\n      add\n        /* \"#utility.yul\":1478:1484   */\n      dup5\n        /* \"#utility.yul\":1440:1505   */\n      tag_397\n      jump\t// in\n    tag_479:\n        /* \"#utility.yul\":1302:1512   */\n      swap3\n      swap2\n      pop\n      pop\n      jump\t// out\n        /* \"#utility.yul\":1518:1617   */\n    tag_398:\n        /* \"#utility.yul\":1570:1576   */\n      0x00\n        /* \"#utility.yul\":1604:1609   */\n      dup2\n        /* \"#utility.yul\":1598:1610   */\n      mload\n        /* \"#utility.yul\":1588:1610   */\n      swap1\n      pop\n        /* \"#utility.yul\":1518:1617   */\n      swap2\n      swap1\n      pop\n      jump\t// out\n        /* \"#utility.yul\":1623:1792   */\n    tag_399:\n        /* \"#utility.yul\":1707:1718   */\n      0x00\n        /* \"#utility.yul\":1741:1747   */\n      dup3\n        /* \"#utility.yul\":1736:1739   */\n      dup3\n        /* \"#utility.yul\":1729:1748   */\n      mstore\n        /* \"#utility.yul\":1781:1785   */\n      0x20\n        /* \"#utility.yul\":1776:1779   */\n      dup3\n        /* \"#utility.yul\":1772:1786   */\n      add\n        /* \"#utility.yul\":1757:1786   */\n      swap1\n      pop\n        /* \"#utility.yul\":1623:1792   */\n      swap3\n      swap2\n      pop\n      pop\n      jump\t// out\n        /* \"#utility.yul\":1798:1937   */\n    tag_400:\n        /* \"#utility.yul\":1887:1893   */\n      dup3\n        /* \"#utility.yul\":1882:1885   */\n      dup2\n        /* \"#utility.yul\":1877:1880   */\n      dup4\n        /* \"#utility.yul\":1871:1894   */\n      mcopy\n        /* \"#utility.yul\":1928:1929   */\n      0x00\n        /* \"#utility.yul\":1919:1925   */\n      dup4\n        /* \"#utility.yul\":1914:1917   */\n      dup4\n        /* \"#utility.yul\":1910:1926   */\n      add\n        /* \"#utility.yul\":1903:1930   */\n      mstore\n        /* \"#utility.yul\":1798:1937   */\n      pop\n      pop\n      pop\n      jump\t// out\n        /* \"#utility.yul\":1943:2045   */\n    tag_401:\n        /* \"#utility.yul\":1984:1990   */\n      0x00\n        /* \"#utility.yul\":2035:2037   */\n      0x1f\n        /* \"#utility.yul\":2031:2038   */\n      not\n        /* \"#utility.yul\":2026:2028   */\n      0x1f\n        /* \"#utility.yul\":2019:2024   */\n      dup4\n        /* \"#utility.yul\":2015:2029   */\n      add\n        /* \"#utility.yul\":2011:2039   */\n      and\n        /* \"#utility.yul\":2001:2039   */\n      swap1\n      pop\n        /* \"#utility.yul\":1943:2045   */\n      swap2\n      swap1\n      pop\n      jump\t// out\n        /* \"#utility.yul\":2051:2428   */\n    tag_402:\n        /* \"#utility.yul\":2139:2142   */\n      0x00\n        /* \"#utility.yul\":2167:2206   */\n      tag_485\n        /* \"#utility.yul\":2200:2205   */\n      dup3\n        /* \"#utility.yul\":2167:2206   */\n      tag_398\n      jump\t// in\n    tag_485:\n        /* \"#utility.yul\":2222:2293   */\n      tag_486\n        /* \"#utility.yul\":2286:2292   */\n      dup2\n        /* \"#utility.yul\":2281:2284   */\n      dup6\n        /* \"#utility.yul\":2222:2293   */\n      tag_399\n      jump\t// in\n    tag_486:\n        /* \"#utility.yul\":2215:2293   */\n      swap4\n      pop\n        /* \"#utility.yul\":2302:2367   */\n      tag_487\n        /* \"#utility.yul\":2360:2366   */\n      dup2\n        /* \"#utility.yul\":2355:2358   */\n      dup6\n        /* \"#utility.yul\":2348:2352   */\n      0x20\n        /* \"#utility.yul\":2341:2346   */\n      dup7\n        /* \"#utility.yul\":2337:2353   */\n      add\n        /* \"#utility.yul\":2302:2367   */\n      tag_400\n      jump\t// in\n    tag_487:\n        /* \"#utility.yul\":2392:2421   */\n      tag_488\n        /* \"#utility.yul\":2414:2420   */\n      dup2\n        /* \"#utility.yul\":2392:2421   */\n      tag_401\n      jump\t// in\n    tag_488:\n        /* \"#utility.yul\":2387:2390   */\n      dup5\n        /* \"#utility.yul\":2383:2422   */\n      add\n        /* \"#utility.yul\":2376:2422   */\n      swap2\n      pop\n        /* \"#utility.yul\":2143:2428   */\n      pop\n        /* \"#utility.yul\":2051:2428   */\n      swap3\n      swap2\n      pop\n      pop\n      jump\t// out\n        /* \"#utility.yul\":2434:2747   */\n    tag_38:\n        /* \"#utility.yul\":2547:2551   */\n      0x00\n        /* \"#utility.yul\":2585:2587   */\n      0x20\n        /* \"#utility.yul\":2574:2583   */\n      dup3\n        /* \"#utility.yul\":2570:2588   */\n      add\n        /* \"#utility.yul\":2562:2588   */\n      swap1\n      pop\n        /* \"#utility.yul\":2634:2643   */\n      dup2\n        /* \"#utility.yul\":2628:2632   */\n      dup2\n        /* \"#utility.yul\":2624:2644   */\n      sub\n        /* \"#utility.yul\":2620:2621   */\n      0x00\n        /* \"#utility.yul\":2609:2618   */\n      dup4\n        /* \"#utility.yul\":2605:2622   */\n      add\n        /* \"#utility.yul\":2598:2645   */\n      mstore\n        /* \"#utility.yul\":2662:2740   */\n      tag_490\n        /* \"#utility.yul\":2735:2739   */\n      dup2\n        /* \"#utility.yul\":2726:2732   */\n      dup5\n        /* \"#utility.yul\":2662:2740   */\n      tag_402\n      jump\t// in\n    tag_490:\n        /* \"#utility.yul\":2654:2740   */\n      swap1\n      pop\n        /* \"#utility.yul\":2434:2747   */\n      swap3\n      swap2\n      pop\n      pop\n      jump\t// out\n        /* \"#utility.yul\":2753:2830   */\n    tag_403:\n        /* \"#utility.yul\":2790:2797   */\n      0x00\n        /* \"#utility.yul\":2819:2824   */\n      dup2\n        /* \"#utility.yul\":2808:2824   */\n      swap1\n      pop\n        /* \"#utility.yul\":2753:2830   */\n      swap2\n      swap1\n      pop\n      jump\t// out\n        /* \"#utility.yul\":2836:2958   */\n    tag_404:\n        /* \"#utility.yul\":2909:2933   */\n      tag_493\n        /* \"#utility.yul\":2927:2932   */\n      dup2\n        /* \"#utility.yul\":2909:2933   */\n      tag_403\n      jump\t// in\n    tag_493:\n        /* \"#utility.yul\":2902:2907   */\n      dup2\n        /* \"#utility.yul\":2899:2934   */\n      eq\n        /* \"#utility.yul\":2889:2952   */\n      tag_494\n      jumpi\n        /* \"#utility.yul\":2948:2949   */\n      0x00\n        /* \"#utility.yul\":2945:2946   */\n      dup1\n        /* \"#utility.yul\":2938:2950   */\n      revert\n        /* \"#utility.yul\":2889:2952   */\n    tag_494:\n        /* \"#utility.yul\":2836:2958   */\n      pop\n      jump\t// out\n        /* \"#utility.yul\":2964:3103   */\n    tag_405:\n        /* \"#utility.yul\":3010:3015   */\n      0x00\n        /* \"#utility.yul\":3048:3054   */\n      dup2\n        /* \"#utility.yul\":3035:3055   */\n      calldataload\n        /* \"#utility.yul\":3026:3055   */\n      swap1\n      pop\n        /* \"#utility.yul\":3064:3097   */\n      tag_496\n        /* \"#utility.yul\":3091:3096   */\n      dup2\n        /* \"#utility.yul\":3064:3097   */\n      tag_404\n      jump\t// in\n    tag_496:\n        /* \"#utility.yul\":2964:3103   */\n      swap3\n      swap2\n      pop\n      pop\n      jump\t// out\n        /* \"#utility.yul\":3109:3438   */\n    tag_41:\n        /* \"#utility.yul\":3168:3174   */\n      0x00\n        /* \"#utility.yul\":3217:3219   */\n      0x20\n        /* \"#utility.yul\":3205:3214   */\n      dup3\n        /* \"#utility.yul\":3196:3203   */\n      dup5\n        /* \"#utility.yul\":3192:3215   */\n      sub\n        /* \"#utility.yul\":3188:3220   */\n      slt\n        /* \"#utility.yul\":3185:3304   */\n      iszero\n      tag_498\n      jumpi\n        /* \"#utility.yul\":3223:3302   */\n      tag_499\n      tag_391\n      jump\t// in\n    tag_499:\n        /* \"#utility.yul\":3185:3304   */\n    tag_498:\n        /* \"#utility.yul\":3343:3344   */\n      0x00\n        /* \"#utility.yul\":3368:3421   */\n      tag_500\n        /* \"#utility.yul\":3413:3420   */\n      dup5\n        /* \"#utility.yul\":3404:3410   */\n      dup3\n        /* \"#utility.yul\":3393:3402   */\n      dup6\n        /* \"#utility.yul\":3389:3411   */\n      add\n        /* \"#utility.yul\":3368:3421   */\n      tag_405\n      jump\t// in\n    tag_500:\n        /* \"#utility.yul\":3358:3421   */\n      swap2\n      pop\n        /* \"#utility.yul\":3314:3431   */\n      pop\n        /* \"#utility.yul\":3109:3438   */\n      swap3\n      swap2\n      pop\n      pop\n      jump\t// out\n        /* \"#utility.yul\":3444:3570   */\n    tag_406:\n        /* \"#utility.yul\":3481:3488   */\n      0x00\n        /* \"#utility.yul\":3521:3563   */\n      0xffffffffffffffffffffffffffffffffffffffff\n        /* \"#utility.yul\":3514:3519   */\n      dup3\n        /* \"#utility.yul\":3510:3564   */\n      and\n        /* \"#utility.yul\":3499:3564   */\n      swap1\n      pop\n        /* \"#utility.yul\":3444:3570   */\n      swap2\n      swap1\n      pop\n      jump\t// out\n        /* \"#utility.yul\":3576:3672   */\n    tag_407:\n        /* \"#utility.yul\":3613:3620   */\n      0x00\n        /* \"#utility.yul\":3642:3666   */\n      tag_503\n        /* \"#utility.yul\":3660:3665   */\n      dup3\n        /* \"#utility.yul\":3642:3666   */\n      tag_406\n      jump\t// in\n    tag_503:\n        /* \"#utility.yul\":3631:3666   */\n      swap1\n      pop\n        /* \"#utility.yul\":3576:3672   */\n      swap2\n      swap1\n      pop\n      jump\t// out\n        /* \"#utility.yul\":3678:3796   */\n    tag_408:\n        /* \"#utility.yul\":3765:3789   */\n      tag_505\n        /* \"#utility.yul\":3783:3788   */\n      dup2\n        /* \"#utility.yul\":3765:3789   */\n      tag_407\n      jump\t// in\n    tag_505:\n        /* \"#utility.yul\":3760:3763   */\n      dup3\n        /* \"#utility.yul\":3753:3790   */\n      mstore\n        /* \"#utility.yul\":3678:3796   */\n      pop\n      pop\n      jump\t// out\n        /* \"#utility.yul\":3802:4024   */\n    tag_44:\n        /* \"#utility.yul\":3895:3899   */\n      0x00\n        /* \"#utility.yul\":3933:3935   */\n      0x20\n        /* \"#utility.yul\":3922:3931   */\n      dup3\n        /* \"#utility.yul\":3918:3936   */\n      add\n        /* \"#utility.yul\":3910:3936   */\n      swap1\n      pop\n        /* \"#utility.yul\":3946:4017   */\n      tag_507\n        /* \"#utility.yul\":4014:4015   */\n      0x00\n        /* \"#utility.yul\":4003:4012   */\n      dup4\n        /* \"#utility.yul\":3999:4016   */\n      add\n        /* \"#utility.yul\":3990:3996   */\n      dup5\n        /* \"#utility.yul\":3946:4017   */\n      tag_408\n      jump\t// in\n    tag_507:\n        /* \"#utility.yul\":3802:4024   */\n      swap3\n      swap2\n      pop\n      pop\n      jump\t// out\n        /* \"#utility.yul\":4030:4152   */\n    tag_409:\n        /* \"#utility.yul\":4103:4127   */\n      tag_509\n        /* \"#utility.yul\":4121:4126   */\n      dup2\n        /* \"#utility.yul\":4103:4127   */\n      tag_407\n      jump\t// in\n    tag_509:\n        /* \"#utility.yul\":4096:4101   */\n      dup2\n        /* \"#utility.yul\":4093:4128   */\n      eq\n        /* \"#utility.yul\":4083:4146   */\n      tag_510\n      jumpi\n        /* \"#utility.yul\":4142:4143   */\n      0x00\n        /* \"#utility.yul\":4139:4140   */\n      dup1\n        /* \"#utility.yul\":4132:4144   */\n      revert\n        /* \"#utility.yul\":4083:4146   */\n    tag_510:\n        /* \"#utility.yul\":4030:4152   */\n      pop\n      jump\t// out\n        /* \"#utility.yul\":4158:4297   */\n    tag_410:\n        /* \"#utility.yul\":4204:4209   */\n      0x00\n        /* \"#utility.yul\":4242:4248   */\n      dup2\n        /* \"#utility.yul\":4229:4249   */\n      calldataload\n        /* \"#utility.yul\":4220:4249   */\n      swap1\n      pop\n        /* \"#utility.yul\":4258:4291   */\n      tag_512\n        /* \"#utility.yul\":4285:4290   */\n      dup2\n        /* \"#utility.yul\":4258:4291   */\n      tag_409\n      jump\t// in\n    tag_512:\n        /* \"#utility.yul\":4158:4297   */\n      swap3\n      swap2\n      pop\n      pop\n      jump\t// out\n        /* \"#utility.yul\":4303:4777   */\n    tag_47:\n        /* \"#utility.yul\":4371:4377   */\n      0x00\n        /* \"#utility.yul\":4379:4385   */\n      dup1\n        /* \"#utility.yul\":4428:4430   */\n      0x40\n        /* \"#utility.yul\":4416:4425   */\n      dup4\n        /* \"#utility.yul\":4407:4414   */\n      dup6\n        /* \"#utility.yul\":4403:4426   */\n      sub\n        /* \"#utility.yul\":4399:4431   */\n      slt\n        /* \"#utility.yul\":4396:4515   */\n      iszero\n      tag_514\n      jumpi\n        /* \"#utility.yul\":4434:4513   */\n      tag_515\n      tag_391\n      jump\t// in\n    tag_515:\n        /* \"#utility.yul\":4396:4515   */\n    tag_514:\n        /* \"#utility.yul\":4554:4555   */\n      0x00\n        /* \"#utility.yul\":4579:4632   */\n      tag_516\n        /* \"#utility.yul\":4624:4631   */\n      dup6\n        /* \"#utility.yul\":4615:4621   */\n      dup3\n        /* \"#utility.yul\":4604:4613   */\n      dup7\n        /* \"#utility.yul\":4600:4622   */\n      add\n        /* \"#utility.yul\":4579:4632   */\n      tag_410\n      jump\t// in\n    tag_516:\n        /* \"#utility.yul\":4569:4632   */\n      swap3\n      pop\n        /* \"#utility.yul\":4525:4642   */\n      pop\n        /* \"#utility.yul\":4681:4683   */\n      0x20\n        /* \"#utility.yul\":4707:4760   */\n      tag_517\n        /* \"#utility.yul\":4752:4759   */\n      dup6\n        /* \"#utility.yul\":4743:4749   */\n      dup3\n        /* \"#utility.yul\":4732:4741   */\n      dup7\n        /* \"#utility.yul\":4728:4750   */\n      add\n        /* \"#utility.yul\":4707:4760   */\n      tag_405\n      jump\t// in\n    tag_517:\n        /* \"#utility.yul\":4697:4760   */\n      swap2\n      pop\n        /* \"#utility.yul\":4652:4770   */\n      pop\n        /* \"#utility.yul\":4303:4777   */\n      swap3\n      pop\n      swap3\n      swap1\n      pop\n      jump\t// out\n        /* \"#utility.yul\":4783:5402   */\n    tag_51:\n        /* \"#utility.yul\":4860:4866   */\n      0x00\n        /* \"#utility.yul\":4868:4874   */\n      dup1\n        /* \"#utility.yul\":4876:4882   */\n      0x00\n        /* \"#utility.yul\":4925:4927   */\n      0x60\n        /* \"#utility.yul\":4913:4922   */\n      dup5\n        /* \"#utility.yul\":4904:4911   */\n      dup7\n        /* \"#utility.yul\":4900:4923   */\n      sub\n        /* \"#utility.yul\":4896:4928   */\n      slt\n        /* \"#utility.yul\":4893:5012   */\n      iszero\n      tag_519\n      jumpi\n        /* \"#utility.yul\":4931:5010   */\n      tag_520\n      tag_391\n      jump\t// in\n    tag_520:\n        /* \"#utility.yul\":4893:5012   */\n    tag_519:\n        /* \"#utility.yul\":5051:5052   */\n      0x00\n        /* \"#utility.yul\":5076:5129   */\n      tag_521\n        /* \"#utility.yul\":5121:5128   */\n      dup7\n        /* \"#utility.yul\":5112:5118   */\n      dup3\n        /* \"#utility.yul\":5101:5110   */\n      dup8\n        /* \"#utility.yul\":5097:5119   */\n      add\n        /* \"#utility.yul\":5076:5129   */\n      tag_410\n      jump\t// in\n    tag_521:\n        /* \"#utility.yul\":5066:5129   */\n      swap4\n      pop\n        /* \"#utility.yul\":5022:5139   */\n      pop\n        /* \"#utility.yul\":5178:5180   */\n      0x20\n        /* \"#utility.yul\":5204:5257   */\n      tag_522\n        /* \"#utility.yul\":5249:5256   */\n      dup7\n        /* \"#utility.yul\":5240:5246   */\n      dup3\n        /* \"#utility.yul\":5229:5238   */\n      dup8\n        /* \"#utility.yul\":5225:5247   */\n      add\n        /* \"#utility.yul\":5204:5257   */\n      tag_410\n      jump\t// in\n    tag_522:\n        /* \"#utility.yul\":5194:5257   */\n      swap3\n      pop\n        /* \"#utility.yul\":5149:5267   */\n      pop\n        /* \"#utility.yul\":5306:5308   */\n      0x40\n        /* \"#utility.yul\":5332:5385   */\n      tag_523\n        /* \"#utility.yul\":5377:5384   */\n      dup7\n        /* \"#utility.yul\":5368:5374   */\n      dup3\n        /* \"#utility.yul\":5357:5366   */\n      dup8\n        /* \"#utility.yul\":5353:5375   */\n      add\n        /* \"#utility.yul\":5332:5385   */\n      tag_405\n      jump\t// in\n    tag_523:\n        /* \"#utility.yul\":5322:5385   */\n      swap2\n      pop\n        /* \"#utility.yul\":5277:5395   */\n      pop\n        /* \"#utility.yul\":4783:5402   */\n      swap3\n      pop\n      swap3\n      pop\n      swap3\n      jump\t// out\n        /* \"#utility.yul\":5408:5525   */\n    tag_411:\n        /* \"#utility.yul\":5517:5518   */\n      0x00\n        /* \"#utility.yul\":5514:5515   */\n      dup1\n        /* \"#utility.yul\":5507:5519   */\n      revert\n        /* \"#utility.yul\":5531:5648   */\n    tag_412:\n        /* \"#utility.yul\":5640:5641   */\n      0x00\n        /* \"#utility.yul\":5637:5638   */\n      dup1\n        /* \"#utility.yul\":5630:5642   */\n      revert\n        /* \"#utility.yul\":5654:5834   */\n    tag_362:\n        /* \"#utility.yul\":5702:5779   */\n      0x4e487b7100000000000000000000000000000000000000000000000000000000\n        /* \"#utility.yul\":5699:5700   */\n      0x00\n        /* \"#utility.yul\":5692:5780   */\n      mstore\n        /* \"#utility.yul\":5799:5803   */\n      0x41\n        /* \"#utility.yul\":5796:5797   */\n      0x04\n        /* \"#utility.yul\":5789:5804   */\n      mstore\n        /* \"#utility.yul\":5823:5827   */\n      0x24\n        /* \"#utility.yul\":5820:5821   */\n      0x00\n        /* \"#utility.yul\":5813:5828   */\n      revert\n        /* \"#utility.yul\":5840:6121   */\n    tag_413:\n        /* \"#utility.yul\":5923:5950   */\n      tag_528\n        /* \"#utility.yul\":5945:5949   */\n      dup3\n        /* \"#utility.yul\":5923:5950   */\n      tag_401\n      jump\t// in\n    tag_528:\n        /* \"#utility.yul\":5915:5921   */\n      dup2\n        /* \"#utility.yul\":5911:5951   */\n      add\n        /* \"#utility.yul\":6053:6059   */\n      dup2\n        /* \"#utility.yul\":6041:6051   */\n      dup2\n        /* \"#utility.yul\":6038:6060   */\n      lt\n        /* \"#utility.yul\":6017:6035   */\n      0xffffffffffffffff\n        /* \"#utility.yul\":6005:6015   */\n      dup3\n        /* \"#utility.yul\":6002:6036   */\n      gt\n        /* \"#utility.yul\":5999:6061   */\n      or\n        /* \"#utility.yul\":5996:6084   */\n      iszero\n      tag_529\n      jumpi\n        /* \"#utility.yul\":6064:6082   */\n      tag_530\n      tag_362\n      jump\t// in\n    tag_530:\n        /* \"#utility.yul\":5996:6084   */\n    tag_529:\n        /* \"#utility.yul\":6104:6114   */\n      dup1\n        /* \"#utility.yul\":6100:6102   */\n      0x40\n        /* \"#utility.yul\":6093:6115   */\n      mstore\n        /* \"#utility.yul\":5883:6121   */\n      pop\n        /* \"#utility.yul\":5840:6121   */\n      pop\n      pop\n      jump\t// out\n        /* \"#utility.yul\":6127:6256   */\n    tag_414:\n        /* \"#utility.yul\":6161:6167   */\n      0x00\n        /* \"#utility.yul\":6188:6208   */\n      tag_532\n      tag_390\n      jump\t// in\n    tag_532:\n        /* \"#utility.yul\":6178:6208   */\n      swap1\n      pop\n        /* \"#utility.yul\":6217:6250   */\n      tag_533\n        /* \"#utility.yul\":6245:6249   */\n      dup3\n        /* \"#utility.yul\":6237:6243   */\n      dup3\n        /* \"#utility.yul\":6217:6250   */\n      tag_413\n      jump\t// in\n    tag_533:\n        /* \"#utility.yul\":6127:6256   */\n      swap2\n      swap1\n      pop\n      jump\t// out\n        /* \"#utility.yul\":6262:6570   */\n    tag_415:\n        /* \"#utility.yul\":6324:6328   */\n      0x00\n        /* \"#utility.yul\":6414:6432   */\n      0xffffffffffffffff\n        /* \"#utility.yul\":6406:6412   */\n      dup3\n        /* \"#utility.yul\":6403:6433   */\n      gt\n        /* \"#utility.yul\":6400:6456   */\n      iszero\n      tag_535\n      jumpi\n        /* \"#utility.yul\":6436:6454   */\n      tag_536\n      tag_362\n      jump\t// in\n    tag_536:\n        /* \"#utility.yul\":6400:6456   */\n    tag_535:\n        /* \"#utility.yul\":6474:6503   */\n      tag_537\n        /* \"#utility.yul\":6496:6502   */\n      dup3\n        /* \"#utility.yul\":6474:6503   */\n      tag_401\n      jump\t// in\n    tag_537:\n        /* \"#utility.yul\":6466:6503   */\n      swap1\n      pop\n        /* \"#utility.yul\":6558:6562   */\n      0x20\n        /* \"#utility.yul\":6552:6556   */\n      dup2\n        /* \"#utility.yul\":6548:6563   */\n      add\n        /* \"#utility.yul\":6540:6563   */\n      swap1\n      pop\n        /* \"#utility.yul\":6262:6570   */\n      swap2\n      swap1\n      pop\n      jump\t// out\n        /* \"#utility.yul\":6576:6724   */\n    tag_416:\n        /* \"#utility.yul\":6674:6680   */\n      dup3\n        /* \"#utility.yul\":6669:6672   */\n      dup2\n        /* \"#utility.yul\":6664:6667   */\n      dup4\n        /* \"#utility.yul\":6651:6681   */\n      calldatacopy\n        /* \"#utility.yul\":6715:6716   */\n      0x00\n        /* \"#utility.yul\":6706:6712   */\n      dup4\n        /* \"#utility.yul\":6701:6704   */\n      dup4\n        /* \"#utility.yul\":6697:6713   */\n      add\n        /* \"#utility.yul\":6690:6717   */\n      mstore\n        /* \"#utility.yul\":6576:6724   */\n      pop\n      pop\n      pop\n      jump\t// out\n        /* \"#utility.yul\":6730:7155   */\n    tag_417:\n        /* \"#utility.yul\":6808:6813   */\n      0x00\n        /* \"#utility.yul\":6833:6899   */\n      tag_540\n        /* \"#utility.yul\":6849:6898   */\n      tag_541\n        /* \"#utility.yul\":6891:6897   */\n      dup5\n        /* \"#utility.yul\":6849:6898   */\n      tag_415\n      jump\t// in\n    tag_541:\n        /* \"#utility.yul\":6833:6899   */\n      tag_414\n      jump\t// in\n    tag_540:\n        /* \"#utility.yul\":6824:6899   */\n      swap1\n      pop\n        /* \"#utility.yul\":6922:6928   */\n      dup3\n        /* \"#utility.yul\":6915:6920   */\n      dup2\n        /* \"#utility.yul\":6908:6929   */\n      mstore\n        /* \"#utility.yul\":6960:6964   */\n      0x20\n        /* \"#utility.yul\":6953:6958   */\n      dup2\n        /* \"#utility.yul\":6949:6965   */\n      add\n        /* \"#utility.yul\":6998:7001   */\n      dup5\n        /* \"#utility.yul\":6989:6995   */\n      dup5\n        /* \"#utility.yul\":6984:6987   */\n      dup5\n        /* \"#utility.yul\":6980:6996   */\n      add\n        /* \"#utility.yul\":6977:7002   */\n      gt\n        /* \"#utility.yul\":6974:7086   */\n      iszero\n      tag_542\n      jumpi\n        /* \"#utility.yul\":7005:7084   */\n      tag_543\n      tag_412\n      jump\t// in\n    tag_543:\n        /* \"#utility.yul\":6974:7086   */\n    tag_542:\n        /* \"#utility.yul\":7095:7149   */\n      tag_544\n        /* \"#utility.yul\":7142:7148   */\n      dup5\n        /* \"#utility.yul\":7137:7140   */\n      dup3\n        /* \"#utility.yul\":7132:7135   */\n      dup6\n        /* \"#utility.yul\":7095:7149   */\n      tag_416\n      jump\t// in\n    tag_544:\n        /* \"#utility.yul\":6814:7155   */\n      pop\n        /* \"#utility.yul\":6730:7155   */\n      swap4\n      swap3\n      pop\n      pop\n      pop\n      jump\t// out\n        /* \"#utility.yul\":7175:7515   */\n    tag_418:\n        /* \"#utility.yul\":7231:7236   */\n      0x00\n        /* \"#utility.yul\":7280:7283   */\n      dup3\n        /* \"#utility.yul\":7273:7277   */\n      0x1f\n        /* \"#utility.yul\":7265:7271   */\n      dup4\n        /* \"#utility.yul\":7261:7278   */\n      add\n        /* \"#utility.yul\":7257:7284   */\n      slt\n        /* \"#utility.yul\":7247:7369   */\n      tag_546\n      jumpi\n        /* \"#utility.yul\":7288:7367   */\n      tag_547\n      tag_411\n      jump\t// in\n    tag_547:\n        /* \"#utility.yul\":7247:7369   */\n    tag_546:\n        /* \"#utility.yul\":7405:7411   */\n      dup2\n        /* \"#utility.yul\":7392:7412   */\n      calldataload\n        /* \"#utility.yul\":7430:7509   */\n      tag_548\n        /* \"#utility.yul\":7505:7508   */\n      dup5\n        /* \"#utility.yul\":7497:7503   */\n      dup3\n        /* \"#utility.yul\":7490:7494   */\n      0x20\n        /* \"#utility.yul\":7482:7488   */\n      dup7\n        /* \"#utility.yul\":7478:7495   */\n      add\n        /* \"#utility.yul\":7430:7509   */\n      tag_417\n      jump\t// in\n    tag_548:\n        /* \"#utility.yul\":7421:7509   */\n      swap2\n      pop\n        /* \"#utility.yul\":7237:7515   */\n      pop\n        /* \"#utility.yul\":7175:7515   */\n      swap3\n      swap2\n      pop\n      pop\n      jump\t// out\n        /* \"#utility.yul\":7521:8466   */\n    tag_55:\n        /* \"#utility.yul\":7617:7623   */\n      0x00\n        /* \"#utility.yul\":7625:7631   */\n      dup1\n        /* \"#utility.yul\":7633:7639   */\n      0x00\n        /* \"#utility.yul\":7641:7647   */\n      dup1\n        /* \"#utility.yul\":7690:7693   */\n      0x80\n        /* \"#utility.yul\":7678:7687   */\n      dup6\n        /* \"#utility.yul\":7669:7676   */\n      dup8\n        /* \"#utility.yul\":7665:7688   */\n      sub\n        /* \"#utility.yul\":7661:7694   */\n      slt\n        /* \"#utility.yul\":7658:7778   */\n      iszero\n      tag_550\n      jumpi\n        /* \"#utility.yul\":7697:7776   */\n      tag_551\n      tag_391\n      jump\t// in\n    tag_551:\n        /* \"#utility.yul\":7658:7778   */\n    tag_550:\n        /* \"#utility.yul\":7817:7818   */\n      0x00\n        /* \"#utility.yul\":7842:7895   */\n      tag_552\n        /* \"#utility.yul\":7887:7894   */\n      dup8\n        /* \"#utility.yul\":7878:7884   */\n      dup3\n        /* \"#utility.yul\":7867:7876   */\n      dup9\n        /* \"#utility.yul\":7863:7885   */\n      add\n        /* \"#utility.yul\":7842:7895   */\n      tag_410\n      jump\t// in\n    tag_552:\n        /* \"#utility.yul\":7832:7895   */\n      swap5\n      pop\n        /* \"#utility.yul\":7788:7905   */\n      pop\n        /* \"#utility.yul\":7972:7974   */\n      0x20\n        /* \"#utility.yul\":7961:7970   */\n      dup6\n        /* \"#utility.yul\":7957:7975   */\n      add\n        /* \"#utility.yul\":7944:7976   */\n      calldataload\n        /* \"#utility.yul\":8003:8021   */\n      0xffffffffffffffff\n        /* \"#utility.yul\":7995:8001   */\n      dup2\n        /* \"#utility.yul\":7992:8022   */\n      gt\n        /* \"#utility.yul\":7989:8106   */\n      iszero\n      tag_553\n      jumpi\n        /* \"#utility.yul\":8025:8104   */\n      tag_554\n      tag_392\n      jump\t// in\n    tag_554:\n        /* \"#utility.yul\":7989:8106   */\n    tag_553:\n        /* \"#utility.yul\":8130:8193   */\n      tag_555\n        /* \"#utility.yul\":8185:8192   */\n      dup8\n        /* \"#utility.yul\":8176:8182   */\n      dup3\n        /* \"#utility.yul\":8165:8174   */\n      dup9\n        /* \"#utility.yul\":8161:8183   */\n      add\n        /* \"#utility.yul\":8130:8193   */\n      tag_418\n      jump\t// in\n    tag_555:\n        /* \"#utility.yul\":8120:8193   */\n      swap4\n      pop\n        /* \"#utility.yul\":7915:8203   */\n      pop\n        /* \"#utility.yul\":8242:8244   */\n      0x40\n        /* \"#utility.yul\":8268:8321   */\n      tag_556\n        /* \"#utility.yul\":8313:8320   */\n      dup8\n        /* \"#utility.yul\":8304:8310   */\n      dup3\n        /* \"#utility.yul\":8293:8302   */\n      dup9\n        /* \"#utility.yul\":8289:8311   */\n      add\n        /* \"#utility.yul\":8268:8321   */\n      tag_405\n      jump\t// in\n    tag_556:\n        /* \"#utility.yul\":8258:8321   */\n      swap3\n      pop\n        /* \"#utility.yul\":8213:8331   */\n      pop\n        /* \"#utility.yul\":8370:8372   */\n      0x60\n        /* \"#utility.yul\":8396:8449   */\n      tag_557\n        /* \"#utility.yul\":8441:8448   */\n      dup8\n        /* \"#utility.yul\":8432:8438   */\n      dup3\n        /* \"#utility.yul\":8421:8430   */\n      dup9\n        /* \"#utility.yul\":8417:8439   */\n      add\n        /* \"#utility.yul\":8396:8449   */\n      tag_405\n      jump\t// in\n    tag_557:\n        /* \"#utility.yul\":8386:8449   */\n      swap2\n      pop\n        /* \"#utility.yul\":8341:8459   */\n      pop\n        /* \"#utility.yul\":7521:8466   */\n      swap3\n      swap6\n      swap2\n      swap5\n      pop\n      swap3\n      pop\n      jump\t// out\n        /* \"#utility.yul\":8472:8946   */\n    tag_65:\n        /* \"#utility.yul\":8540:8546   */\n      0x00\n        /* \"#utility.yul\":8548:8554   */\n      dup1\n        /* \"#utility.yul\":8597:8599   */\n      0x40\n        /* \"#utility.yul\":8585:8594   */\n      dup4\n        /* \"#utility.yul\":8576:8583   */\n      dup6\n        /* \"#utility.yul\":8572:8595   */\n      sub\n        /* \"#utility.yul\":8568:8600   */\n      slt\n        /* \"#utility.yul\":8565:8684   */\n      iszero\n      tag_559\n      jumpi\n        /* \"#utility.yul\":8603:8682   */\n      tag_560\n      tag_391\n      jump\t// in\n    tag_560:\n        /* \"#utility.yul\":8565:8684   */\n    tag_559:\n        /* \"#utility.yul\":8723:8724   */\n      0x00\n        /* \"#utility.yul\":8748:8801   */\n      tag_561\n        /* \"#utility.yul\":8793:8800   */\n      dup6\n        /* \"#utility.yul\":8784:8790   */\n      dup3\n        /* \"#utility.yul\":8773:8782   */\n      dup7\n        /* \"#utility.yul\":8769:8791   */\n      add\n        /* \"#utility.yul\":8748:8801   */\n      tag_405\n      jump\t// in\n    tag_561:\n        /* \"#utility.yul\":8738:8801   */\n      swap3\n      pop\n        /* \"#utility.yul\":8694:8811   */\n      pop\n        /* \"#utility.yul\":8850:8852   */\n      0x20\n        /* \"#utility.yul\":8876:8929   */\n      tag_562\n        /* \"#utility.yul\":8921:8928   */\n      dup6\n        /* \"#utility.yul\":8912:8918   */\n      dup3\n        /* \"#utility.yul\":8901:8910   */\n      dup7\n        /* \"#utility.yul\":8897:8919   */\n      add\n        /* \"#utility.yul\":8876:8929   */\n      tag_405\n      jump\t// in\n    tag_562:\n        /* \"#utility.yul\":8866:8929   */\n      swap2\n      pop\n        /* \"#utility.yul\":8821:8939   */\n      pop\n        /* \"#utility.yul\":8472:8946   */\n      swap3\n      pop\n      swap3\n      swap1\n      pop\n      jump\t// out\n        /* \"#utility.yul\":8952:9281   */\n    tag_73:\n        /* \"#utility.yul\":9011:9017   */\n      0x00\n        /* \"#utility.yul\":9060:9062   */\n      0x20\n        /* \"#utility.yul\":9048:9057   */\n      dup3\n        /* \"#utility.yul\":9039:9046   */\n      dup5\n        /* \"#utility.yul\":9035:9058   */\n      sub\n        /* \"#utility.yul\":9031:9063   */\n      slt\n        /* \"#utility.yul\":9028:9147   */\n      iszero\n      tag_564\n      jumpi\n        /* \"#utility.yul\":9066:9145   */\n      tag_565\n      tag_391\n      jump\t// in\n    tag_565:\n        /* \"#utility.yul\":9028:9147   */\n    tag_564:\n        /* \"#utility.yul\":9186:9187   */\n      0x00\n        /* \"#utility.yul\":9211:9264   */\n      tag_566\n        /* \"#utility.yul\":9256:9263   */\n      dup5\n        /* \"#utility.yul\":9247:9253   */\n      dup3\n        /* \"#utility.yul\":9236:9245   */\n      dup6\n        /* \"#utility.yul\":9232:9254   */\n      add\n        /* \"#utility.yul\":9211:9264   */\n      tag_410\n      jump\t// in\n    tag_566:\n        /* \"#utility.yul\":9201:9264   */\n      swap2\n      pop\n        /* \"#utility.yul\":9157:9274   */\n      pop\n        /* \"#utility.yul\":8952:9281   */\n      swap3\n      swap2\n      pop\n      pop\n      jump\t// out\n        /* \"#utility.yul\":9287:9405   */\n    tag_419:\n        /* \"#utility.yul\":9374:9398   */\n      tag_568\n        /* \"#utility.yul\":9392:9397   */\n      dup2\n        /* \"#utility.yul\":9374:9398   */\n      tag_403\n      jump\t// in\n    tag_568:\n        /* \"#utility.yul\":9369:9372   */\n      dup3\n        /* \"#utility.yul\":9362:9399   */\n      mstore\n        /* \"#utility.yul\":9287:9405   */\n      pop\n      pop\n      jump\t// out\n        /* \"#utility.yul\":9411:9633   */\n    tag_76:\n        /* \"#utility.yul\":9504:9508   */\n      0x00\n        /* \"#utility.yul\":9542:9544   */\n      0x20\n        /* \"#utility.yul\":9531:9540   */\n      dup3\n        /* \"#utility.yul\":9527:9545   */\n      add\n        /* \"#utility.yul\":9519:9545   */\n      swap1\n      pop\n        /* \"#utility.yul\":9555:9626   */\n      tag_570\n        /* \"#utility.yul\":9623:9624   */\n      0x00\n        /* \"#utility.yul\":9612:9621   */\n      dup4\n        /* \"#utility.yul\":9608:9625   */\n      add\n        /* \"#utility.yul\":9599:9605   */\n      dup5\n        /* \"#utility.yul\":9555:9626   */\n      tag_419\n      jump\t// in\n    tag_570:\n        /* \"#utility.yul\":9411:9633   */\n      swap3\n      swap2\n      pop\n      pop\n      jump\t// out\n        /* \"#utility.yul\":9639:9950   */\n    tag_420:\n        /* \"#utility.yul\":9716:9720   */\n      0x00\n        /* \"#utility.yul\":9806:9824   */\n      0xffffffffffffffff\n        /* \"#utility.yul\":9798:9804   */\n      dup3\n        /* \"#utility.yul\":9795:9825   */\n      gt\n        /* \"#utility.yul\":9792:9848   */\n      iszero\n      tag_572\n      jumpi\n        /* \"#utility.yul\":9828:9846   */\n      tag_573\n      tag_362\n      jump\t// in\n    tag_573:\n        /* \"#utility.yul\":9792:9848   */\n    tag_572:\n        /* \"#utility.yul\":9878:9882   */\n      0x20\n        /* \"#utility.yul\":9870:9876   */\n      dup3\n        /* \"#utility.yul\":9866:9883   */\n      mul\n        /* \"#utility.yul\":9858:9883   */\n      swap1\n      pop\n        /* \"#utility.yul\":9938:9942   */\n      0x20\n        /* \"#utility.yul\":9932:9936   */\n      dup2\n        /* \"#utility.yul\":9928:9943   */\n      add\n        /* \"#utility.yul\":9920:9943   */\n      swap1\n      pop\n        /* \"#utility.yul\":9639:9950   */\n      swap2\n      swap1\n      pop\n      jump\t// out\n        /* \"#utility.yul\":9956:10073   */\n    tag_421:\n        /* \"#utility.yul\":10065:10066   */\n      0x00\n        /* \"#utility.yul\":10062:10063   */\n      dup1\n        /* \"#utility.yul\":10055:10067   */\n      revert\n        /* \"#utility.yul\":10096:10806   */\n    tag_422:\n        /* \"#utility.yul\":10192:10197   */\n      0x00\n        /* \"#utility.yul\":10217:10298   */\n      tag_576\n        /* \"#utility.yul\":10233:10297   */\n      tag_577\n        /* \"#utility.yul\":10290:10296   */\n      dup5\n        /* \"#utility.yul\":10233:10297   */\n      tag_420\n      jump\t// in\n    tag_577:\n        /* \"#utility.yul\":10217:10298   */\n      tag_414\n      jump\t// in\n    tag_576:\n        /* \"#utility.yul\":10208:10298   */\n      swap1\n      pop\n        /* \"#utility.yul\":10318:10323   */\n      dup1\n        /* \"#utility.yul\":10347:10353   */\n      dup4\n        /* \"#utility.yul\":10340:10345   */\n      dup3\n        /* \"#utility.yul\":10333:10354   */\n      mstore\n        /* \"#utility.yul\":10381:10385   */\n      0x20\n        /* \"#utility.yul\":10374:10379   */\n      dup3\n        /* \"#utility.yul\":10370:10386   */\n      add\n        /* \"#utility.yul\":10363:10386   */\n      swap1\n      pop\n        /* \"#utility.yul\":10434:10438   */\n      0x20\n        /* \"#utility.yul\":10426:10432   */\n      dup5\n        /* \"#utility.yul\":10422:10439   */\n      mul\n        /* \"#utility.yul\":10414:10420   */\n      dup4\n        /* \"#utility.yul\":10410:10440   */\n      add\n        /* \"#utility.yul\":10463:10466   */\n      dup6\n        /* \"#utility.yul\":10455:10461   */\n      dup2\n        /* \"#utility.yul\":10452:10467   */\n      gt\n        /* \"#utility.yul\":10449:10571   */\n      iszero\n      tag_578\n      jumpi\n        /* \"#utility.yul\":10482:10561   */\n      tag_579\n      tag_421\n      jump\t// in\n    tag_579:\n        /* \"#utility.yul\":10449:10571   */\n    tag_578:\n        /* \"#utility.yul\":10597:10603   */\n      dup4\n        /* \"#utility.yul\":10580:10800   */\n    tag_580:\n        /* \"#utility.yul\":10614:10620   */\n      dup2\n        /* \"#utility.yul\":10609:10612   */\n      dup2\n        /* \"#utility.yul\":10606:10621   */\n      lt\n        /* \"#utility.yul\":10580:10800   */\n      iszero\n      tag_582\n      jumpi\n        /* \"#utility.yul\":10689:10692   */\n      dup1\n        /* \"#utility.yul\":10718:10755   */\n      tag_583\n        /* \"#utility.yul\":10751:10754   */\n      dup9\n        /* \"#utility.yul\":10739:10749   */\n      dup3\n        /* \"#utility.yul\":10718:10755   */\n      tag_405\n      jump\t// in\n    tag_583:\n        /* \"#utility.yul\":10713:10716   */\n      dup5\n        /* \"#utility.yul\":10706:10756   */\n      mstore\n        /* \"#utility.yul\":10785:10789   */\n      0x20\n        /* \"#utility.yul\":10780:10783   */\n      dup5\n        /* \"#utility.yul\":10776:10790   */\n      add\n        /* \"#utility.yul\":10769:10790   */\n      swap4\n      pop\n        /* \"#utility.yul\":10656:10800   */\n      pop\n        /* \"#utility.yul\":10640:10644   */\n      0x20\n        /* \"#utility.yul\":10635:10638   */\n      dup2\n        /* \"#utility.yul\":10631:10645   */\n      add\n        /* \"#utility.yul\":10624:10645   */\n      swap1\n      pop\n        /* \"#utility.yul\":10580:10800   */\n      jump(tag_580)\n    tag_582:\n        /* \"#utility.yul\":10584:10605   */\n      pop\n        /* \"#utility.yul\":10198:10806   */\n      pop\n      pop\n        /* \"#utility.yul\":10096:10806   */\n      swap4\n      swap3\n      pop\n      pop\n      pop\n      jump\t// out\n        /* \"#utility.yul\":10829:11199   */\n    tag_423:\n        /* \"#utility.yul\":10900:10905   */\n      0x00\n        /* \"#utility.yul\":10949:10952   */\n      dup3\n        /* \"#utility.yul\":10942:10946   */\n      0x1f\n        /* \"#utility.yul\":10934:10940   */\n      dup4\n        /* \"#utility.yul\":10930:10947   */\n      add\n        /* \"#utility.yul\":10926:10953   */\n      slt\n        /* \"#utility.yul\":10916:11038   */\n      tag_585\n      jumpi\n        /* \"#utility.yul\":10957:11036   */\n      tag_586\n      tag_411\n      jump\t// in\n    tag_586:\n        /* \"#utility.yul\":10916:11038   */\n    tag_585:\n        /* \"#utility.yul\":11074:11080   */\n      dup2\n        /* \"#utility.yul\":11061:11081   */\n      calldataload\n        /* \"#utility.yul\":11099:11193   */\n      tag_587\n        /* \"#utility.yul\":11189:11192   */\n      dup5\n        /* \"#utility.yul\":11181:11187   */\n      dup3\n        /* \"#utility.yul\":11174:11178   */\n      0x20\n        /* \"#utility.yul\":11166:11172   */\n      dup7\n        /* \"#utility.yul\":11162:11179   */\n      add\n        /* \"#utility.yul\":11099:11193   */\n      tag_422\n      jump\t// in\n    tag_587:\n        /* \"#utility.yul\":11090:11193   */\n      swap2\n      pop\n        /* \"#utility.yul\":10906:11199   */\n      pop\n        /* \"#utility.yul\":10829:11199   */\n      swap3\n      swap2\n      pop\n      pop\n      jump\t// out\n        /* \"#utility.yul\":11205:11526   */\n    tag_424:\n        /* \"#utility.yul\":11292:11296   */\n      0x00\n        /* \"#utility.yul\":11382:11400   */\n      0xffffffffffffffff\n        /* \"#utility.yul\":11374:11380   */\n      dup3\n        /* \"#utility.yul\":11371:11401   */\n      gt\n        /* \"#utility.yul\":11368:11424   */\n      iszero\n      tag_589\n      jumpi\n        /* \"#utility.yul\":11404:11422   */\n      tag_590\n      tag_362\n      jump\t// in\n    tag_590:\n        /* \"#utility.yul\":11368:11424   */\n    tag_589:\n        /* \"#utility.yul\":11454:11458   */\n      0x20\n        /* \"#utility.yul\":11446:11452   */\n      dup3\n        /* \"#utility.yul\":11442:11459   */\n      mul\n        /* \"#utility.yul\":11434:11459   */\n      swap1\n      pop\n        /* \"#utility.yul\":11514:11518   */\n      0x20\n        /* \"#utility.yul\":11508:11512   */\n      dup2\n        /* \"#utility.yul\":11504:11519   */\n      add\n        /* \"#utility.yul\":11496:11519   */\n      swap1\n      pop\n        /* \"#utility.yul\":11205:11526   */\n      swap2\n      swap1\n      pop\n      jump\t// out\n        /* \"#utility.yul\":11548:12493   */\n    tag_425:\n        /* \"#utility.yul\":11654:11659   */\n      0x00\n        /* \"#utility.yul\":11679:11770   */\n      tag_592\n        /* \"#utility.yul\":11695:11769   */\n      tag_593\n        /* \"#utility.yul\":11762:11768   */\n      dup5\n        /* \"#utility.yul\":11695:11769   */\n      tag_424\n      jump\t// in\n    tag_593:\n        /* \"#utility.yul\":11679:11770   */\n      tag_414\n      jump\t// in\n    tag_592:\n        /* \"#utility.yul\":11670:11770   */\n      swap1\n      pop\n        /* \"#utility.yul\":11790:11795   */\n      dup1\n        /* \"#utility.yul\":11819:11825   */\n      dup4\n        /* \"#utility.yul\":11812:11817   */\n      dup3\n        /* \"#utility.yul\":11805:11826   */\n      mstore\n        /* \"#utility.yul\":11853:11857   */\n      0x20\n        /* \"#utility.yul\":11846:11851   */\n      dup3\n        /* \"#utility.yul\":11842:11858   */\n      add\n        /* \"#utility.yul\":11835:11858   */\n      swap1\n      pop\n        /* \"#utility.yul\":11906:11910   */\n      0x20\n        /* \"#utility.yul\":11898:11904   */\n      dup5\n        /* \"#utility.yul\":11894:11911   */\n      mul\n        /* \"#utility.yul\":11886:11892   */\n      dup4\n        /* \"#utility.yul\":11882:11912   */\n      add\n        /* \"#utility.yul\":11935:11938   */\n      dup6\n        /* \"#utility.yul\":11927:11933   */\n      dup2\n        /* \"#utility.yul\":11924:11939   */\n      gt\n        /* \"#utility.yul\":11921:12043   */\n      iszero\n      tag_594\n      jumpi\n        /* \"#utility.yul\":11954:12033   */\n      tag_595\n      tag_421\n      jump\t// in\n    tag_595:\n        /* \"#utility.yul\":11921:12043   */\n    tag_594:\n        /* \"#utility.yul\":12069:12075   */\n      dup4\n        /* \"#utility.yul\":12052:12487   */\n    tag_596:\n        /* \"#utility.yul\":12086:12092   */\n      dup2\n        /* \"#utility.yul\":12081:12084   */\n      dup2\n        /* \"#utility.yul\":12078:12093   */\n      lt\n        /* \"#utility.yul\":12052:12487   */\n      iszero\n      tag_598\n      jumpi\n        /* \"#utility.yul\":12175:12178   */\n      dup1\n        /* \"#utility.yul\":12162:12179   */\n      calldataload\n        /* \"#utility.yul\":12211:12229   */\n      0xffffffffffffffff\n        /* \"#utility.yul\":12198:12209   */\n      dup2\n        /* \"#utility.yul\":12195:12230   */\n      gt\n        /* \"#utility.yul\":12192:12314   */\n      iszero\n      tag_599\n      jumpi\n        /* \"#utility.yul\":12233:12312   */\n      tag_600\n      tag_411\n      jump\t// in\n    tag_600:\n        /* \"#utility.yul\":12192:12314   */\n    tag_599:\n        /* \"#utility.yul\":12357:12368   */\n      dup1\n        /* \"#utility.yul\":12349:12355   */\n      dup7\n        /* \"#utility.yul\":12345:12369   */\n      add\n        /* \"#utility.yul\":12395:12442   */\n      tag_601\n        /* \"#utility.yul\":12438:12441   */\n      dup10\n        /* \"#utility.yul\":12426:12436   */\n      dup3\n        /* \"#utility.yul\":12395:12442   */\n      tag_418\n      jump\t// in\n    tag_601:\n        /* \"#utility.yul\":12390:12393   */\n      dup6\n        /* \"#utility.yul\":12383:12443   */\n      mstore\n        /* \"#utility.yul\":12472:12476   */\n      0x20\n        /* \"#utility.yul\":12467:12470   */\n      dup6\n        /* \"#utility.yul\":12463:12477   */\n      add\n        /* \"#utility.yul\":12456:12477   */\n      swap5\n      pop\n        /* \"#utility.yul\":12128:12487   */\n      pop\n      pop\n        /* \"#utility.yul\":12112:12116   */\n      0x20\n        /* \"#utility.yul\":12107:12110   */\n      dup2\n        /* \"#utility.yul\":12103:12117   */\n      add\n        /* \"#utility.yul\":12096:12117   */\n      swap1\n      pop\n        /* \"#utility.yul\":12052:12487   */\n      jump(tag_596)\n    tag_598:\n        /* \"#utility.yul\":12056:12077   */\n      pop\n        /* \"#utility.yul\":11660:12493   */\n      pop\n      pop\n        /* \"#utility.yul\":11548:12493   */\n      swap4\n      swap3\n      pop\n      pop\n      pop\n      jump\t// out\n        /* \"#utility.yul\":12515:12905   */\n    tag_426:\n        /* \"#utility.yul\":12596:12601   */\n      0x00\n        /* \"#utility.yul\":12645:12648   */\n      dup3\n        /* \"#utility.yul\":12638:12642   */\n      0x1f\n        /* \"#utility.yul\":12630:12636   */\n      dup4\n        /* \"#utility.yul\":12626:12643   */\n      add\n        /* \"#utility.yul\":12622:12649   */\n      slt\n        /* \"#utility.yul\":12612:12734   */\n      tag_603\n      jumpi\n        /* \"#utility.yul\":12653:12732   */\n      tag_604\n      tag_411\n      jump\t// in\n    tag_604:\n        /* \"#utility.yul\":12612:12734   */\n    tag_603:\n        /* \"#utility.yul\":12770:12776   */\n      dup2\n        /* \"#utility.yul\":12757:12777   */\n      calldataload\n        /* \"#utility.yul\":12795:12899   */\n      tag_605\n        /* \"#utility.yul\":12895:12898   */\n      dup5\n        /* \"#utility.yul\":12887:12893   */\n      dup3\n        /* \"#utility.yul\":12880:12884   */\n      0x20\n        /* \"#utility.yul\":12872:12878   */\n      dup7\n        /* \"#utility.yul\":12868:12885   */\n      add\n        /* \"#utility.yul\":12795:12899   */\n      tag_425\n      jump\t// in\n    tag_605:\n        /* \"#utility.yul\":12786:12899   */\n      swap2\n      pop\n        /* \"#utility.yul\":12602:12905   */\n      pop\n        /* \"#utility.yul\":12515:12905   */\n      swap3\n      swap2\n      pop\n      pop\n      jump\t// out\n        /* \"#utility.yul\":12911:13970   */\n    tag_94:\n        /* \"#utility.yul\":13048:13054   */\n      0x00\n        /* \"#utility.yul\":13056:13062   */\n      dup1\n        /* \"#utility.yul\":13064:13070   */\n      0x00\n        /* \"#utility.yul\":13113:13115   */\n      0x60\n        /* \"#utility.yul\":13101:13110   */\n      dup5\n        /* \"#utility.yul\":13092:13099   */\n      dup7\n        /* \"#utility.yul\":13088:13111   */\n      sub\n        /* \"#utility.yul\":13084:13116   */\n      slt\n        /* \"#utility.yul\":13081:13200   */\n      iszero\n      tag_607\n      jumpi\n        /* \"#utility.yul\":13119:13198   */\n      tag_608\n      tag_391\n      jump\t// in\n    tag_608:\n        /* \"#utility.yul\":13081:13200   */\n    tag_607:\n        /* \"#utility.yul\":13239:13240   */\n      0x00\n        /* \"#utility.yul\":13264:13317   */\n      tag_609\n        /* \"#utility.yul\":13309:13316   */\n      dup7\n        /* \"#utility.yul\":13300:13306   */\n      dup3\n        /* \"#utility.yul\":13289:13298   */\n      dup8\n        /* \"#utility.yul\":13285:13307   */\n      add\n        /* \"#utility.yul\":13264:13317   */\n      tag_410\n      jump\t// in\n    tag_609:\n        /* \"#utility.yul\":13254:13317   */\n      swap4\n      pop\n        /* \"#utility.yul\":13210:13327   */\n      pop\n        /* \"#utility.yul\":13394:13396   */\n      0x20\n        /* \"#utility.yul\":13383:13392   */\n      dup5\n        /* \"#utility.yul\":13379:13397   */\n      add\n        /* \"#utility.yul\":13366:13398   */\n      calldataload\n        /* \"#utility.yul\":13425:13443   */\n      0xffffffffffffffff\n        /* \"#utility.yul\":13417:13423   */\n      dup2\n        /* \"#utility.yul\":13414:13444   */\n      gt\n        /* \"#utility.yul\":13411:13528   */\n      iszero\n      tag_610\n      jumpi\n        /* \"#utility.yul\":13447:13526   */\n      tag_611\n      tag_392\n      jump\t// in\n    tag_611:\n        /* \"#utility.yul\":13411:13528   */\n    tag_610:\n        /* \"#utility.yul\":13552:13630   */\n      tag_612\n        /* \"#utility.yul\":13622:13629   */\n      dup7\n        /* \"#utility.yul\":13613:13619   */\n      dup3\n        /* \"#utility.yul\":13602:13611   */\n      dup8\n        /* \"#utility.yul\":13598:13620   */\n      add\n        /* \"#utility.yul\":13552:13630   */\n      tag_423\n      jump\t// in\n    tag_612:\n        /* \"#utility.yul\":13542:13630   */\n      swap3\n      pop\n        /* \"#utility.yul\":13337:13640   */\n      pop\n        /* \"#utility.yul\":13707:13709   */\n      0x40\n        /* \"#utility.yul\":13696:13705   */\n      dup5\n        /* \"#utility.yul\":13692:13710   */\n      add\n        /* \"#utility.yul\":13679:13711   */\n      calldataload\n        /* \"#utility.yul\":13738:13756   */\n      0xffffffffffffffff\n        /* \"#utility.yul\":13730:13736   */\n      dup2\n        /* \"#utility.yul\":13727:13757   */\n      gt\n        /* \"#utility.yul\":13724:13841   */\n      iszero\n      tag_613\n      jumpi\n        /* \"#utility.yul\":13760:13839   */\n      tag_614\n      tag_392\n      jump\t// in\n    tag_614:\n        /* \"#utility.yul\":13724:13841   */\n    tag_613:\n        /* \"#utility.yul\":13865:13953   */\n      tag_615\n        /* \"#utility.yul\":13945:13952   */\n      dup7\n        /* \"#utility.yul\":13936:13942   */\n      dup3\n        /* \"#utility.yul\":13925:13934   */\n      dup8\n        /* \"#utility.yul\":13921:13943   */\n      add\n        /* \"#utility.yul\":13865:13953   */\n      tag_426\n      jump\t// in\n    tag_615:\n        /* \"#utility.yul\":13855:13953   */\n      swap2\n      pop\n        /* \"#utility.yul\":13650:13963   */\n      pop\n        /* \"#utility.yul\":12911:13970   */\n      swap3\n      pop\n      swap3\n      pop\n      swap3\n      jump\t// out\n        /* \"#utility.yul\":13976:14092   */\n    tag_427:\n        /* \"#utility.yul\":14046:14067   */\n      tag_617\n        /* \"#utility.yul\":14061:14066   */\n      dup2\n        /* \"#utility.yul\":14046:14067   */\n      tag_396\n      jump\t// in\n    tag_617:\n        /* \"#utility.yul\":14039:14044   */\n      dup2\n        /* \"#utility.yul\":14036:14068   */\n      eq\n        /* \"#utility.yul\":14026:14086   */\n      tag_618\n      jumpi\n        /* \"#utility.yul\":14082:14083   */\n      0x00\n        /* \"#utility.yul\":14079:14080   */\n      dup1\n        /* \"#utility.yul\":14072:14084   */\n      revert\n        /* \"#utility.yul\":14026:14086   */\n    tag_618:\n        /* \"#utility.yul\":13976:14092   */\n      pop\n      jump\t// out\n        /* \"#utility.yul\":14098:14231   */\n    tag_428:\n        /* \"#utility.yul\":14141:14146   */\n      0x00\n        /* \"#utility.yul\":14179:14185   */\n      dup2\n        /* \"#utility.yul\":14166:14186   */\n      calldataload\n        /* \"#utility.yul\":14157:14186   */\n      swap1\n      pop\n        /* \"#utility.yul\":14195:14225   */\n      tag_620\n        /* \"#utility.yul\":14219:14224   */\n      dup2\n        /* \"#utility.yul\":14195:14225   */\n      tag_427\n      jump\t// in\n    tag_620:\n        /* \"#utility.yul\":14098:14231   */\n      swap3\n      swap2\n      pop\n      pop\n      jump\t// out\n        /* \"#utility.yul\":14237:14705   */\n    tag_98:\n        /* \"#utility.yul\":14302:14308   */\n      0x00\n        /* \"#utility.yul\":14310:14316   */\n      dup1\n        /* \"#utility.yul\":14359:14361   */\n      0x40\n        /* \"#utility.yul\":14347:14356   */\n      dup4\n        /* \"#utility.yul\":14338:14345   */\n      dup6\n        /* \"#utility.yul\":14334:14357   */\n      sub\n        /* \"#utility.yul\":14330:14362   */\n      slt\n        /* \"#utility.yul\":14327:14446   */\n      iszero\n      tag_622\n      jumpi\n        /* \"#utility.yul\":14365:14444   */\n      tag_623\n      tag_391\n      jump\t// in\n    tag_623:\n        /* \"#utility.yul\":14327:14446   */\n    tag_622:\n        /* \"#utility.yul\":14485:14486   */\n      0x00\n        /* \"#utility.yul\":14510:14563   */\n      tag_624\n        /* \"#utility.yul\":14555:14562   */\n      dup6\n        /* \"#utility.yul\":14546:14552   */\n      dup3\n        /* \"#utility.yul\":14535:14544   */\n      dup7\n        /* \"#utility.yul\":14531:14553   */\n      add\n        /* \"#utility.yul\":14510:14563   */\n      tag_410\n      jump\t// in\n    tag_624:\n        /* \"#utility.yul\":14500:14563   */\n      swap3\n      pop\n        /* \"#utility.yul\":14456:14573   */\n      pop\n        /* \"#utility.yul\":14612:14614   */\n      0x20\n        /* \"#utility.yul\":14638:14688   */\n      tag_625\n        /* \"#utility.yul\":14680:14687   */\n      dup6\n        /* \"#utility.yul\":14671:14677   */\n      dup3\n        /* \"#utility.yul\":14660:14669   */\n      dup7\n        /* \"#utility.yul\":14656:14678   */\n      add\n        /* \"#utility.yul\":14638:14688   */\n      tag_428\n      jump\t// in\n    tag_625:\n        /* \"#utility.yul\":14628:14688   */\n      swap2\n      pop\n        /* \"#utility.yul\":14583:14698   */\n      pop\n        /* \"#utility.yul\":14237:14705   */\n      swap3\n      pop\n      swap3\n      swap1\n      pop\n      jump\t// out\n        /* \"#utility.yul\":14711:15018   */\n    tag_429:\n        /* \"#utility.yul\":14772:14776   */\n      0x00\n        /* \"#utility.yul\":14862:14880   */\n      0xffffffffffffffff\n        /* \"#utility.yul\":14854:14860   */\n      dup3\n        /* \"#utility.yul\":14851:14881   */\n      gt\n        /* \"#utility.yul\":14848:14904   */\n      iszero\n      tag_627\n      jumpi\n        /* \"#utility.yul\":14884:14902   */\n      tag_628\n      tag_362\n      jump\t// in\n    tag_628:\n        /* \"#utility.yul\":14848:14904   */\n    tag_627:\n        /* \"#utility.yul\":14922:14951   */\n      tag_629\n        /* \"#utility.yul\":14944:14950   */\n      dup3\n        /* \"#utility.yul\":14922:14951   */\n      tag_401\n      jump\t// in\n    tag_629:\n        /* \"#utility.yul\":14914:14951   */\n      swap1\n      pop\n        /* \"#utility.yul\":15006:15010   */\n      0x20\n        /* \"#utility.yul\":15000:15004   */\n      dup2\n        /* \"#utility.yul\":14996:15011   */\n      add\n        /* \"#utility.yul\":14988:15011   */\n      swap1\n      pop\n        /* \"#utility.yul\":14711:15018   */\n      swap2\n      swap1\n      pop\n      jump\t// out\n        /* \"#utility.yul\":15024:15447   */\n    tag_430:\n        /* \"#utility.yul\":15101:15106   */\n      0x00\n        /* \"#utility.yul\":15126:15191   */\n      tag_631\n        /* \"#utility.yul\":15142:15190   */\n      tag_632\n        /* \"#utility.yul\":15183:15189   */\n      dup5\n        /* \"#utility.yul\":15142:15190   */\n      tag_429\n      jump\t// in\n    tag_632:\n        /* \"#utility.yul\":15126:15191   */\n      tag_414\n      jump\t// in\n    tag_631:\n        /* \"#utility.yul\":15117:15191   */\n      swap1\n      pop\n        /* \"#utility.yul\":15214:15220   */\n      dup3\n        /* \"#utility.yul\":15207:15212   */\n      dup2\n        /* \"#utility.yul\":15200:15221   */\n      mstore\n        /* \"#utility.yul\":15252:15256   */\n      0x20\n        /* \"#utility.yul\":15245:15250   */\n      dup2\n        /* \"#utility.yul\":15241:15257   */\n      add\n        /* \"#utility.yul\":15290:15293   */\n      dup5\n        /* \"#utility.yul\":15281:15287   */\n      dup5\n        /* \"#utility.yul\":15276:15279   */\n      dup5\n        /* \"#utility.yul\":15272:15288   */\n      add\n        /* \"#utility.yul\":15269:15294   */\n      gt\n        /* \"#utility.yul\":15266:15378   */\n      iszero\n      tag_633\n      jumpi\n        /* \"#utility.yul\":15297:15376   */\n      tag_634\n      tag_412\n      jump\t// in\n    tag_634:\n        /* \"#utility.yul\":15266:15378   */\n    tag_633:\n        /* \"#utility.yul\":15387:15441   */\n      tag_635\n        /* \"#utility.yul\":15434:15440   */\n      dup5\n        /* \"#utility.yul\":15429:15432   */\n      dup3\n        /* \"#utility.yul\":15424:15427   */\n      dup6\n        /* \"#utility.yul\":15387:15441   */\n      tag_416\n      jump\t// in\n    tag_635:\n        /* \"#utility.yul\":15107:15447   */\n      pop\n        /* \"#utility.yul\":15024:15447   */\n      swap4\n      swap3\n      pop\n      pop\n      pop\n      jump\t// out\n        /* \"#utility.yul\":15466:15804   */\n    tag_431:\n        /* \"#utility.yul\":15521:15526   */\n      0x00\n        /* \"#utility.yul\":15570:15573   */\n      dup3\n        /* \"#utility.yul\":15563:15567   */\n      0x1f\n        /* \"#utility.yul\":15555:15561   */\n      dup4\n        /* \"#utility.yul\":15551:15568   */\n      add\n        /* \"#utility.yul\":15547:15574   */\n      slt\n        /* \"#utility.yul\":15537:15659   */\n      tag_637\n      jumpi\n        /* \"#utility.yul\":15578:15657   */\n      tag_638\n      tag_411\n      jump\t// in\n    tag_638:\n        /* \"#utility.yul\":15537:15659   */\n    tag_637:\n        /* \"#utility.yul\":15695:15701   */\n      dup2\n        /* \"#utility.yul\":15682:15702   */\n      calldataload\n        /* \"#utility.yul\":15720:15798   */\n      tag_639\n        /* \"#utility.yul\":15794:15797   */\n      dup5\n        /* \"#utility.yul\":15786:15792   */\n      dup3\n        /* \"#utility.yul\":15779:15783   */\n      0x20\n        /* \"#utility.yul\":15771:15777   */\n      dup7\n        /* \"#utility.yul\":15767:15784   */\n      add\n        /* \"#utility.yul\":15720:15798   */\n      tag_430\n      jump\t// in\n    tag_639:\n        /* \"#utility.yul\":15711:15798   */\n      swap2\n      pop\n        /* \"#utility.yul\":15527:15804   */\n      pop\n        /* \"#utility.yul\":15466:15804   */\n      swap3\n      swap2\n      pop\n      pop\n      jump\t// out\n        /* \"#utility.yul\":15810:16753   */\n    tag_102:\n        /* \"#utility.yul\":15905:15911   */\n      0x00\n        /* \"#utility.yul\":15913:15919   */\n      dup1\n        /* \"#utility.yul\":15921:15927   */\n      0x00\n        /* \"#utility.yul\":15929:15935   */\n      dup1\n        /* \"#utility.yul\":15978:15981   */\n      0x80\n        /* \"#utility.yul\":15966:15975   */\n      dup6\n        /* \"#utility.yul\":15957:15964   */\n      dup8\n        /* \"#utility.yul\":15953:15976   */\n      sub\n        /* \"#utility.yul\":15949:15982   */\n      slt\n        /* \"#utility.yul\":15946:16066   */\n      iszero\n      tag_641\n      jumpi\n        /* \"#utility.yul\":15985:16064   */\n      tag_642\n      tag_391\n      jump\t// in\n    tag_642:\n        /* \"#utility.yul\":15946:16066   */\n    tag_641:\n        /* \"#utility.yul\":16105:16106   */\n      0x00\n        /* \"#utility.yul\":16130:16183   */\n      tag_643\n        /* \"#utility.yul\":16175:16182   */\n      dup8\n        /* \"#utility.yul\":16166:16172   */\n      dup3\n        /* \"#utility.yul\":16155:16164   */\n      dup9\n        /* \"#utility.yul\":16151:16173   */\n      add\n        /* \"#utility.yul\":16130:16183   */\n      tag_410\n      jump\t// in\n    tag_643:\n        /* \"#utility.yul\":16120:16183   */\n      swap5\n      pop\n        /* \"#utility.yul\":16076:16193   */\n      pop\n        /* \"#utility.yul\":16232:16234   */\n      0x20\n        /* \"#utility.yul\":16258:16311   */\n      tag_644\n        /* \"#utility.yul\":16303:16310   */\n      dup8\n        /* \"#utility.yul\":16294:16300   */\n      dup3\n        /* \"#utility.yul\":16283:16292   */\n      dup9\n        /* \"#utility.yul\":16279:16301   */\n      add\n        /* \"#utility.yul\":16258:16311   */\n      tag_410\n      jump\t// in\n    tag_644:\n        /* \"#utility.yul\":16248:16311   */\n      swap4\n      pop\n        /* \"#utility.yul\":16203:16321   */\n      pop\n        /* \"#utility.yul\":16360:16362   */\n      0x40\n        /* \"#utility.yul\":16386:16439   */\n      tag_645\n        /* \"#utility.yul\":16431:16438   */\n      dup8\n        /* \"#utility.yul\":16422:16428   */\n      dup3\n        /* \"#utility.yul\":16411:16420   */\n      dup9\n        /* \"#utility.yul\":16407:16429   */\n      add\n        /* \"#utility.yul\":16386:16439   */\n      tag_405\n      jump\t// in\n    tag_645:\n        /* \"#utility.yul\":16376:16439   */\n      swap3\n      pop\n        /* \"#utility.yul\":16331:16449   */\n      pop\n        /* \"#utility.yul\":16516:16518   */\n      0x60\n        /* \"#utility.yul\":16505:16514   */\n      dup6\n        /* \"#utility.yul\":16501:16519   */\n      add\n        /* \"#utility.yul\":16488:16520   */\n      calldataload\n        /* \"#utility.yul\":16547:16565   */\n      0xffffffffffffffff\n        /* \"#utility.yul\":16539:16545   */\n      dup2\n        /* \"#utility.yul\":16536:16566   */\n      gt\n        /* \"#utility.yul\":16533:16650   */\n      iszero\n      tag_646\n      jumpi\n        /* \"#utility.yul\":16569:16648   */\n      tag_647\n      tag_392\n      jump\t// in\n    tag_647:\n        /* \"#utility.yul\":16533:16650   */\n    tag_646:\n        /* \"#utility.yul\":16674:16736   */\n      tag_648\n        /* \"#utility.yul\":16728:16735   */\n      dup8\n        /* \"#utility.yul\":16719:16725   */\n      dup3\n        /* \"#utility.yul\":16708:16717   */\n      dup9\n        /* \"#utility.yul\":16704:16726   */\n      add\n        /* \"#utility.yul\":16674:16736   */\n      tag_431\n      jump\t// in\n    tag_648:\n        /* \"#utility.yul\":16664:16736   */\n      swap2\n      pop\n        /* \"#utility.yul\":16459:16746   */\n      pop\n        /* \"#utility.yul\":15810:16753   */\n      swap3\n      swap6\n      swap2\n      swap5\n      pop\n      swap3\n      pop\n      jump\t// out\n        /* \"#utility.yul\":16759:17091   */\n    tag_112:\n        /* \"#utility.yul\":16880:16884   */\n      0x00\n        /* \"#utility.yul\":16918:16920   */\n      0x40\n        /* \"#utility.yul\":16907:16916   */\n      dup3\n        /* \"#utility.yul\":16903:16921   */\n      add\n        /* \"#utility.yul\":16895:16921   */\n      swap1\n      pop\n        /* \"#utility.yul\":16931:17002   */\n      tag_650\n        /* \"#utility.yul\":16999:17000   */\n      0x00\n        /* \"#utility.yul\":16988:16997   */\n      dup4\n        /* \"#utility.yul\":16984:17001   */\n      add\n        /* \"#utility.yul\":16975:16981   */\n      dup6\n        /* \"#utility.yul\":16931:17002   */\n      tag_408\n      jump\t// in\n    tag_650:\n        /* \"#utility.yul\":17012:17084   */\n      tag_651\n        /* \"#utility.yul\":17080:17082   */\n      0x20\n        /* \"#utility.yul\":17069:17078   */\n      dup4\n        /* \"#utility.yul\":17065:17083   */\n      add\n        /* \"#utility.yul\":17056:17062   */\n      dup5\n        /* \"#utility.yul\":17012:17084   */\n      tag_419\n      jump\t// in\n    tag_651:\n        /* \"#utility.yul\":16759:17091   */\n      swap4\n      swap3\n      pop\n      pop\n      pop\n      jump\t// out\n        /* \"#utility.yul\":17097:17571   */\n    tag_115:\n        /* \"#utility.yul\":17165:17171   */\n      0x00\n        /* \"#utility.yul\":17173:17179   */\n      dup1\n        /* \"#utility.yul\":17222:17224   */\n      0x40\n        /* \"#utility.yul\":17210:17219   */\n      dup4\n        /* \"#utility.yul\":17201:17208   */\n      dup6\n        /* \"#utility.yul\":17197:17220   */\n      sub\n        /* \"#utility.yul\":17193:17225   */\n      slt\n        /* \"#utility.yul\":17190:17309   */\n      iszero\n      tag_653\n      jumpi\n        /* \"#utility.yul\":17228:17307   */\n      tag_654\n      tag_391\n      jump\t// in\n    tag_654:\n        /* \"#utility.yul\":17190:17309   */\n    tag_653:\n        /* \"#utility.yul\":17348:17349   */\n      0x00\n        /* \"#utility.yul\":17373:17426   */\n      tag_655\n        /* \"#utility.yul\":17418:17425   */\n      dup6\n        /* \"#utility.yul\":17409:17415   */\n      dup3\n        /* \"#utility.yul\":17398:17407   */\n      dup7\n        /* \"#utility.yul\":17394:17416   */\n      add\n        /* \"#utility.yul\":17373:17426   */\n      tag_410\n      jump\t// in\n    tag_655:\n        /* \"#utility.yul\":17363:17426   */\n      swap3\n      pop\n        /* \"#utility.yul\":17319:17436   */\n      pop\n        /* \"#utility.yul\":17475:17477   */\n      0x20\n        /* \"#utility.yul\":17501:17554   */\n      tag_656\n        /* \"#utility.yul\":17546:17553   */\n      dup6\n        /* \"#utility.yul\":17537:17543   */\n      dup3\n        /* \"#utility.yul\":17526:17535   */\n      dup7\n        /* \"#utility.yul\":17522:17544   */\n      add\n        /* \"#utility.yul\":17501:17554   */\n      tag_410\n      jump\t// in\n    tag_656:\n        /* \"#utility.yul\":17491:17554   */\n      swap2\n      pop\n        /* \"#utility.yul\":17446:17564   */\n      pop\n        /* \"#utility.yul\":17097:17571   */\n      swap3\n      pop\n      swap3\n      swap1\n      pop\n      jump\t// out\n        /* \"#utility.yul\":17577:17757   */\n    tag_432:\n        /* \"#utility.yul\":17625:17702   */\n      0x4e487b7100000000000000000000000000000000000000000000000000000000\n        /* \"#utility.yul\":17622:17623   */\n      0x00\n        /* \"#utility.yul\":17615:17703   */\n      mstore\n        /* \"#utility.yul\":17722:17726   */\n      0x22\n        /* \"#utility.yul\":17719:17720   */\n      0x04\n        /* \"#utility.yul\":17712:17727   */\n      mstore\n        /* \"#utility.yul\":17746:17750   */\n      0x24\n        /* \"#utility.yul\":17743:17744   */\n      0x00\n        /* \"#utility.yul\":17736:17751   */\n      revert\n        /* \"#utility.yul\":17763:18083   */\n    tag_126:\n        /* \"#utility.yul\":17807:17813   */\n      0x00\n        /* \"#utility.yul\":17844:17845   */\n      0x02\n        /* \"#utility.yul\":17838:17842   */\n      dup3\n        /* \"#utility.yul\":17834:17846   */\n      div\n        /* \"#utility.yul\":17824:17846   */\n      swap1\n      pop\n        /* \"#utility.yul\":17891:17892   */\n      0x01\n        /* \"#utility.yul\":17885:17889   */\n      dup3\n        /* \"#utility.yul\":17881:17893   */\n      and\n        /* \"#utility.yul\":17912:17930   */\n      dup1\n        /* \"#utility.yul\":17902:17983   */\n      tag_659\n      jumpi\n        /* \"#utility.yul\":17968:17972   */\n      0x7f\n        /* \"#utility.yul\":17960:17966   */\n      dup3\n        /* \"#utility.yul\":17956:17973   */\n      and\n        /* \"#utility.yul\":17946:17973   */\n      swap2\n      pop\n        /* \"#utility.yul\":17902:17983   */\n    tag_659:\n        /* \"#utility.yul\":18030:18032   */\n      0x20\n        /* \"#utility.yul\":18022:18028   */\n      dup3\n        /* \"#utility.yul\":18019:18033   */\n      lt\n        /* \"#utility.yul\":17999:18017   */\n      dup2\n        /* \"#utility.yul\":17996:18034   */\n      sub\n        /* \"#utility.yul\":17993:18077   */\n      tag_660\n      jumpi\n        /* \"#utility.yul\":18049:18067   */\n      tag_661\n      tag_432\n      jump\t// in\n    tag_661:\n        /* \"#utility.yul\":17993:18077   */\n    tag_660:\n        /* \"#utility.yul\":17814:18083   */\n      pop\n        /* \"#utility.yul\":17763:18083   */\n      swap2\n      swap1\n      pop\n      jump\t// out\n        /* \"#utility.yul\":18089:18531   */\n    tag_149:\n        /* \"#utility.yul\":18238:18242   */\n      0x00\n        /* \"#utility.yul\":18276:18278   */\n      0x60\n        /* \"#utility.yul\":18265:18274   */\n      dup3\n        /* \"#utility.yul\":18261:18279   */\n      add\n        /* \"#utility.yul\":18253:18279   */\n      swap1\n      pop\n        /* \"#utility.yul\":18289:18360   */\n      tag_663\n        /* \"#utility.yul\":18357:18358   */\n      0x00\n        /* \"#utility.yul\":18346:18355   */\n      dup4\n        /* \"#utility.yul\":18342:18359   */\n      add\n        /* \"#utility.yul\":18333:18339   */\n      dup7\n        /* \"#utility.yul\":18289:18360   */\n      tag_408\n      jump\t// in\n    tag_663:\n        /* \"#utility.yul\":18370:18442   */\n      tag_664\n        /* \"#utility.yul\":18438:18440   */\n      0x20\n        /* \"#utility.yul\":18427:18436   */\n      dup4\n        /* \"#utility.yul\":18423:18441   */\n      add\n        /* \"#utility.yul\":18414:18420   */\n      dup6\n        /* \"#utility.yul\":18370:18442   */\n      tag_419\n      jump\t// in\n    tag_664:\n        /* \"#utility.yul\":18452:18524   */\n      tag_665\n        /* \"#utility.yul\":18520:18522   */\n      0x40\n        /* \"#utility.yul\":18509:18518   */\n      dup4\n        /* \"#utility.yul\":18505:18523   */\n      add\n        /* \"#utility.yul\":18496:18502   */\n      dup5\n        /* \"#utility.yul\":18452:18524   */\n      tag_408\n      jump\t// in\n    tag_665:\n        /* \"#utility.yul\":18089:18531   */\n      swap5\n      swap4\n      pop\n      pop\n      pop\n      pop\n      jump\t// out\n        /* \"#utility.yul\":18537:18717   */\n    tag_433:\n        /* \"#utility.yul\":18585:18662   */\n      0x4e487b7100000000000000000000000000000000000000000000000000000000\n        /* \"#utility.yul\":18582:18583   */\n      0x00\n        /* \"#utility.yul\":18575:18663   */\n      mstore\n        /* \"#utility.yul\":18682:18686   */\n      0x11\n        /* \"#utility.yul\":18679:18680   */\n      0x04\n        /* \"#utility.yul\":18672:18687   */\n      mstore\n        /* \"#utility.yul\":18706:18710   */\n      0x24\n        /* \"#utility.yul\":18703:18704   */\n      0x00\n        /* \"#utility.yul\":18696:18711   */\n      revert\n        /* \"#utility.yul\":18723:18914   */\n    tag_169:\n        /* \"#utility.yul\":18763:18766   */\n      0x00\n        /* \"#utility.yul\":18782:18802   */\n      tag_668\n        /* \"#utility.yul\":18800:18801   */\n      dup3\n        /* \"#utility.yul\":18782:18802   */\n      tag_403\n      jump\t// in\n    tag_668:\n        /* \"#utility.yul\":18777:18802   */\n      swap2\n      pop\n        /* \"#utility.yul\":18816:18836   */\n      tag_669\n        /* \"#utility.yul\":18834:18835   */\n      dup4\n        /* \"#utility.yul\":18816:18836   */\n      tag_403\n      jump\t// in\n    tag_669:\n        /* \"#utility.yul\":18811:18836   */\n      swap3\n      pop\n        /* \"#utility.yul\":18859:18860   */\n      dup3\n        /* \"#utility.yul\":18856:18857   */\n      dup3\n        /* \"#utility.yul\":18852:18861   */\n      add\n        /* \"#utility.yul\":18845:18861   */\n      swap1\n      pop\n        /* \"#utility.yul\":18880:18883   */\n      dup1\n        /* \"#utility.yul\":18877:18878   */\n      dup3\n        /* \"#utility.yul\":18874:18884   */\n      gt\n        /* \"#utility.yul\":18871:18907   */\n      iszero\n      tag_670\n      jumpi\n        /* \"#utility.yul\":18887:18905   */\n      tag_671\n      tag_433\n      jump\t// in\n    tag_671:\n        /* \"#utility.yul\":18871:18907   */\n    tag_670:\n        /* \"#utility.yul\":18723:18914   */\n      swap3\n      swap2\n      pop\n      pop\n      jump\t// out\n        /* \"#utility.yul\":18920:19091   */\n    tag_434:\n        /* \"#utility.yul\":19060:19083   */\n      0x4172726179206c656e677468206d69736d617463680000000000000000000000\n        /* \"#utility.yul\":19056:19057   */\n      0x00\n        /* \"#utility.yul\":19048:19054   */\n      dup3\n        /* \"#utility.yul\":19044:19058   */\n      add\n        /* \"#utility.yul\":19037:19084   */\n      mstore\n        /* \"#utility.yul\":18920:19091   */\n      pop\n      jump\t// out\n        /* \"#utility.yul\":19097:19463   */\n    tag_435:\n        /* \"#utility.yul\":19239:19242   */\n      0x00\n        /* \"#utility.yul\":19260:19327   */\n      tag_674\n        /* \"#utility.yul\":19324:19326   */\n      0x15\n        /* \"#utility.yul\":19319:19322   */\n      dup4\n        /* \"#utility.yul\":19260:19327   */\n      tag_399\n      jump\t// in\n    tag_674:\n        /* \"#utility.yul\":19253:19327   */\n      swap2\n      pop\n        /* \"#utility.yul\":19336:19429   */\n      tag_675\n        /* \"#utility.yul\":19425:19428   */\n      dup3\n        /* \"#utility.yul\":19336:19429   */\n      tag_434\n      jump\t// in\n    tag_675:\n        /* \"#utility.yul\":19454:19456   */\n      0x20\n        /* \"#utility.yul\":19449:19452   */\n      dup3\n        /* \"#utility.yul\":19445:19457   */\n      add\n        /* \"#utility.yul\":19438:19457   */\n      swap1\n      pop\n        /* \"#utility.yul\":19097:19463   */\n      swap2\n      swap1\n      pop\n      jump\t// out\n        /* \"#utility.yul\":19469:19888   */\n    tag_192:\n        /* \"#utility.yul\":19635:19639   */\n      0x00\n        /* \"#utility.yul\":19673:19675   */\n      0x20\n        /* \"#utility.yul\":19662:19671   */\n      dup3\n        /* \"#utility.yul\":19658:19676   */\n      add\n        /* \"#utility.yul\":19650:19676   */\n      swap1\n      pop\n        /* \"#utility.yul\":19722:19731   */\n      dup2\n        /* \"#utility.yul\":19716:19720   */\n      dup2\n        /* \"#utility.yul\":19712:19732   */\n      sub\n        /* \"#utility.yul\":19708:19709   */\n      0x00\n        /* \"#utility.yul\":19697:19706   */\n      dup4\n        /* \"#utility.yul\":19693:19710   */\n      add\n        /* \"#utility.yul\":19686:19733   */\n      mstore\n        /* \"#utility.yul\":19750:19881   */\n      tag_677\n        /* \"#utility.yul\":19876:19880   */\n      dup2\n        /* \"#utility.yul\":19750:19881   */\n      tag_435\n      jump\t// in\n    tag_677:\n        /* \"#utility.yul\":19742:19881   */\n      swap1\n      pop\n        /* \"#utility.yul\":19469:19888   */\n      swap2\n      swap1\n      pop\n      jump\t// out\n        /* \"#utility.yul\":19894:20074   */\n    tag_199:\n        /* \"#utility.yul\":19942:20019   */\n      0x4e487b7100000000000000000000000000000000000000000000000000000000\n        /* \"#utility.yul\":19939:19940   */\n      0x00\n        /* \"#utility.yul\":19932:20020   */\n      mstore\n        /* \"#utility.yul\":20039:20043   */\n      0x32\n        /* \"#utility.yul\":20036:20037   */\n      0x04\n        /* \"#utility.yul\":20029:20044   */\n      mstore\n        /* \"#utility.yul\":20063:20067   */\n      0x24\n        /* \"#utility.yul\":20060:20061   */\n      0x00\n        /* \"#utility.yul\":20053:20068   */\n      revert\n        /* \"#utility.yul\":20080:20490   */\n    tag_219:\n        /* \"#utility.yul\":20120:20127   */\n      0x00\n        /* \"#utility.yul\":20143:20163   */\n      tag_680\n        /* \"#utility.yul\":20161:20162   */\n      dup3\n        /* \"#utility.yul\":20143:20163   */\n      tag_403\n      jump\t// in\n    tag_680:\n        /* \"#utility.yul\":20138:20163   */\n      swap2\n      pop\n        /* \"#utility.yul\":20177:20197   */\n      tag_681\n        /* \"#utility.yul\":20195:20196   */\n      dup4\n        /* \"#utility.yul\":20177:20197   */\n      tag_403\n      jump\t// in\n    tag_681:\n        /* \"#utility.yul\":20172:20197   */\n      swap3\n      pop\n        /* \"#utility.yul\":20232:20233   */\n      dup3\n        /* \"#utility.yul\":20229:20230   */\n      dup3\n        /* \"#utility.yul\":20225:20234   */\n      mul\n        /* \"#utility.yul\":20254:20284   */\n      tag_682\n        /* \"#utility.yul\":20272:20283   */\n      dup2\n        /* \"#utility.yul\":20254:20284   */\n      tag_403\n      jump\t// in\n    tag_682:\n        /* \"#utility.yul\":20243:20284   */\n      swap2\n      pop\n        /* \"#utility.yul\":20433:20434   */\n      dup3\n        /* \"#utility.yul\":20424:20431   */\n      dup3\n        /* \"#utility.yul\":20420:20435   */\n      div\n        /* \"#utility.yul\":20417:20418   */\n      dup5\n        /* \"#utility.yul\":20414:20436   */\n      eq\n        /* \"#utility.yul\":20394:20395   */\n      dup4\n        /* \"#utility.yul\":20387:20396   */\n      iszero\n        /* \"#utility.yul\":20367:20450   */\n      or\n        /* \"#utility.yul\":20344:20483   */\n      tag_683\n      jumpi\n        /* \"#utility.yul\":20463:20481   */\n      tag_684\n      tag_433\n      jump\t// in\n    tag_684:\n        /* \"#utility.yul\":20344:20483   */\n    tag_683:\n        /* \"#utility.yul\":20128:20490   */\n      pop\n        /* \"#utility.yul\":20080:20490   */\n      swap3\n      swap2\n      pop\n      pop\n      jump\t// out\n        /* \"#utility.yul\":20496:20676   */\n    tag_368:\n        /* \"#utility.yul\":20544:20621   */\n      0x4e487b7100000000000000000000000000000000000000000000000000000000\n        /* \"#utility.yul\":20541:20542   */\n      0x00\n        /* \"#utility.yul\":20534:20622   */\n      mstore\n        /* \"#utility.yul\":20641:20645   */\n      0x12\n        /* \"#utility.yul\":20638:20639   */\n      0x04\n        /* \"#utility.yul\":20631:20646   */\n      mstore\n        /* \"#utility.yul\":20665:20669   */\n      0x24\n        /* \"#utility.yul\":20662:20663   */\n      0x00\n        /* \"#utility.yul\":20655:20670   */\n      revert\n        /* \"#utility.yul\":20682:20867   */\n    tag_221:\n        /* \"#utility.yul\":20722:20723   */\n      0x00\n        /* \"#utility.yul\":20739:20759   */\n      tag_687\n        /* \"#utility.yul\":20757:20758   */\n      dup3\n        /* \"#utility.yul\":20739:20759   */\n      tag_403\n      jump\t// in\n    tag_687:\n        /* \"#utility.yul\":20734:20759   */\n      swap2\n      pop\n        /* \"#utility.yul\":20773:20793   */\n      tag_688\n        /* \"#utility.yul\":20791:20792   */\n      dup4\n        /* \"#utility.yul\":20773:20793   */\n      tag_403\n      jump\t// in\n    tag_688:\n        /* \"#utility.yul\":20768:20793   */\n      swap3\n      pop\n        /* \"#utility.yul\":20812:20813   */\n      dup3\n        /* \"#utility.yul\":20802:20837   */\n      tag_689\n      jumpi\n        /* \"#utility.yul\":20817:20835   */\n      tag_690\n      tag_368\n      jump\t// in\n    tag_690:\n        /* \"#utility.yul\":20802:20837   */\n    tag_689:\n        /* \"#utility.yul\":20859:20860   */\n      dup3\n        /* \"#utility.yul\":20856:20857   */\n      dup3\n        /* \"#utility.yul\":20852:20861   */\n      div\n        /* \"#utility.yul\":20847:20861   */\n      swap1\n      pop\n        /* \"#utility.yul\":20682:20867   */\n      swap3\n      swap2\n      pop\n      pop\n      jump\t// out\n        /* \"#utility.yul\":20873:20952   */\n    tag_436:\n        /* \"#utility.yul\":20912:20919   */\n      0x00\n        /* \"#utility.yul\":20941:20946   */\n      dup2\n        /* \"#utility.yul\":20930:20946   */\n      swap1\n      pop\n        /* \"#utility.yul\":20873:20952   */\n      swap2\n      swap1\n      pop\n      jump\t// out\n        /* \"#utility.yul\":20958:21115   */\n    tag_437:\n        /* \"#utility.yul\":21063:21108   */\n      tag_693\n        /* \"#utility.yul\":21083:21107   */\n      tag_694\n        /* \"#utility.yul\":21101:21106   */\n      dup3\n        /* \"#utility.yul\":21083:21107   */\n      tag_403\n      jump\t// in\n    tag_694:\n        /* \"#utility.yul\":21063:21108   */\n      tag_436\n      jump\t// in\n    tag_693:\n        /* \"#utility.yul\":21058:21061   */\n      dup3\n        /* \"#utility.yul\":21051:21109   */\n      mstore\n        /* \"#utility.yul\":20958:21115   */\n      pop\n      pop\n      jump\t// out\n        /* \"#utility.yul\":21121:21199   */\n    tag_438:\n        /* \"#utility.yul\":21159:21166   */\n      0x00\n        /* \"#utility.yul\":21188:21193   */\n      dup2\n        /* \"#utility.yul\":21177:21193   */\n      swap1\n      pop\n        /* \"#utility.yul\":21121:21199   */\n      swap2\n      swap1\n      pop\n      jump\t// out\n        /* \"#utility.yul\":21205:21358   */\n    tag_439:\n        /* \"#utility.yul\":21308:21351   */\n      tag_697\n        /* \"#utility.yul\":21327:21350   */\n      tag_698\n        /* \"#utility.yul\":21344:21349   */\n      dup3\n        /* \"#utility.yul\":21327:21350   */\n      tag_393\n      jump\t// in\n    tag_698:\n        /* \"#utility.yul\":21308:21351   */\n      tag_438\n      jump\t// in\n    tag_697:\n        /* \"#utility.yul\":21303:21306   */\n      dup3\n        /* \"#utility.yul\":21296:21352   */\n      mstore\n        /* \"#utility.yul\":21205:21358   */\n      pop\n      pop\n      jump\t// out\n        /* \"#utility.yul\":21364:21897   */\n    tag_259:\n        /* \"#utility.yul\":21530:21533   */\n      0x00\n        /* \"#utility.yul\":21545:21620   */\n      tag_700\n        /* \"#utility.yul\":21616:21619   */\n      dup3\n        /* \"#utility.yul\":21607:21613   */\n      dup7\n        /* \"#utility.yul\":21545:21620   */\n      tag_437\n      jump\t// in\n    tag_700:\n        /* \"#utility.yul\":21645:21647   */\n      0x20\n        /* \"#utility.yul\":21640:21643   */\n      dup3\n        /* \"#utility.yul\":21636:21648   */\n      add\n        /* \"#utility.yul\":21629:21648   */\n      swap2\n      pop\n        /* \"#utility.yul\":21658:21733   */\n      tag_701\n        /* \"#utility.yul\":21729:21732   */\n      dup3\n        /* \"#utility.yul\":21720:21726   */\n      dup6\n        /* \"#utility.yul\":21658:21733   */\n      tag_437\n      jump\t// in\n    tag_701:\n        /* \"#utility.yul\":21758:21760   */\n      0x20\n        /* \"#utility.yul\":21753:21756   */\n      dup3\n        /* \"#utility.yul\":21749:21761   */\n      add\n        /* \"#utility.yul\":21742:21761   */\n      swap2\n      pop\n        /* \"#utility.yul\":21771:21844   */\n      tag_702\n        /* \"#utility.yul\":21840:21843   */\n      dup3\n        /* \"#utility.yul\":21831:21837   */\n      dup5\n        /* \"#utility.yul\":21771:21844   */\n      tag_439\n      jump\t// in\n    tag_702:\n        /* \"#utility.yul\":21869:21870   */\n      0x04\n        /* \"#utility.yul\":21864:21867   */\n      dup3\n        /* \"#utility.yul\":21860:21871   */\n      add\n        /* \"#utility.yul\":21853:21871   */\n      swap2\n      pop\n        /* \"#utility.yul\":21888:21891   */\n      dup2\n        /* \"#utility.yul\":21881:21891   */\n      swap1\n      pop\n        /* \"#utility.yul\":21364:21897   */\n      swap5\n      swap4\n      pop\n      pop\n      pop\n      pop\n      jump\t// out\n        /* \"#utility.yul\":21903:22044   */\n    tag_440:\n        /* \"#utility.yul\":21952:21956   */\n      0x00\n        /* \"#utility.yul\":21975:21978   */\n      dup2\n        /* \"#utility.yul\":21967:21978   */\n      swap1\n      pop\n        /* \"#utility.yul\":21998:22001   */\n      dup2\n        /* \"#utility.yul\":21995:21996   */\n      0x00\n        /* \"#utility.yul\":21988:22002   */\n      mstore\n        /* \"#utility.yul\":22032:22036   */\n      0x20\n        /* \"#utility.yul\":22029:22030   */\n      0x00\n        /* \"#utility.yul\":22019:22037   */\n      keccak256\n        /* \"#utility.yul\":22011:22037   */\n      swap1\n      pop\n        /* \"#utility.yul\":21903:22044   */\n      swap2\n      swap1\n      pop\n      jump\t// out\n        /* \"#utility.yul\":22050:22143   */\n    tag_441:\n        /* \"#utility.yul\":22087:22093   */\n      0x00\n        /* \"#utility.yul\":22134:22136   */\n      0x20\n        /* \"#utility.yul\":22129:22131   */\n      0x1f\n        /* \"#utility.yul\":22122:22127   */\n      dup4\n        /* \"#utility.yul\":22118:22132   */\n      add\n        /* \"#utility.yul\":22114:22137   */\n      div\n        /* \"#utility.yul\":22104:22137   */\n      swap1\n      pop\n        /* \"#utility.yul\":22050:22143   */\n      swap2\n      swap1\n      pop\n      jump\t// out\n        /* \"#utility.yul\":22149:22256   */\n    tag_442:\n        /* \"#utility.yul\":22193:22201   */\n      0x00\n        /* \"#utility.yul\":22243:22248   */\n      dup3\n        /* \"#utility.yul\":22237:22241   */\n      dup3\n        /* \"#utility.yul\":22233:22249   */\n      shl\n        /* \"#utility.yul\":22212:22249   */\n      swap1\n      pop\n        /* \"#utility.yul\":22149:22256   */\n      swap3\n      swap2\n      pop\n      pop\n      jump\t// out\n        /* \"#utility.yul\":22262:22655   */\n    tag_443:\n        /* \"#utility.yul\":22331:22337   */\n      0x00\n        /* \"#utility.yul\":22381:22382   */\n      0x08\n        /* \"#utility.yul\":22369:22379   */\n      dup4\n        /* \"#utility.yul\":22365:22383   */\n      mul\n        /* \"#utility.yul\":22404:22501   */\n      tag_707\n        /* \"#utility.yul\":22434:22500   */\n      0xffffffffffffffffffffffffffffffffffffffffffffffffffffffffffffffff\n        /* \"#utility.yul\":22423:22432   */\n      dup3\n        /* \"#utility.yul\":22404:22501   */\n      tag_442\n      jump\t// in\n    tag_707:\n        /* \"#utility.yul\":22522:22561   */\n      tag_708\n        /* \"#utility.yul\":22552:22560   */\n      dup7\n        /* \"#utility.yul\":22541:22550   */\n      dup4\n        /* \"#utility.yul\":22522:22561   */\n      tag_442\n      jump\t// in\n    tag_708:\n        /* \"#utility.yul\":22510:22561   */\n      swap6\n      pop\n        /* \"#utility.yul\":22594:22598   */\n      dup1\n        /* \"#utility.yul\":22590:22599   */\n      not\n        /* \"#utility.yul\":22583:22588   */\n      dup5\n        /* \"#utility.yul\":22579:22600   */\n      and\n        /* \"#utility.yul\":22570:22600   */\n      swap4\n      pop\n        /* \"#utility.yul\":22643:22647   */\n      dup1\n        /* \"#utility.yul\":22633:22641   */\n      dup7\n        /* \"#utility.yul\":22629:22648   */\n      and\n        /* \"#utility.yul\":22622:22627   */\n      dup5\n        /* \"#utility.yul\":22619:22649   */\n      or\n        /* \"#utility.yul\":22609:22649   */\n      swap3\n      pop\n        /* \"#utility.yul\":22338:22655   */\n      pop\n      pop\n        /* \"#utility.yul\":22262:22655   */\n      swap4\n      swap3\n      pop\n      pop\n      pop\n      jump\t// out\n        /* \"#utility.yul\":22661:22721   */\n    tag_444:\n        /* \"#utility.yul\":22689:22692   */\n      0x00\n        /* \"#utility.yul\":22710:22715   */\n      dup2\n        /* \"#utility.yul\":22703:22715   */\n      swap1\n      pop\n        /* \"#utility.yul\":22661:22721   */\n      swap2\n      swap1\n      pop\n      jump\t// out\n        /* \"#utility.yul\":22727:22869   */\n    tag_445:\n        /* \"#utility.yul\":22777:22786   */\n      0x00\n        /* \"#utility.yul\":22810:22863   */\n      tag_711\n        /* \"#utility.yul\":22828:22862   */\n      tag_712\n        /* \"#utility.yul\":22837:22861   */\n      tag_713\n        /* \"#utility.yul\":22855:22860   */\n      dup5\n        /* \"#utility.yul\":22837:22861   */\n      tag_403\n      jump\t// in\n    tag_713:\n        /* \"#utility.yul\":22828:22862   */\n      tag_444\n      jump\t// in\n    tag_712:\n        /* \"#utility.yul\":22810:22863   */\n      tag_403\n      jump\t// in\n    tag_711:\n        /* \"#utility.yul\":22797:22863   */\n      swap1\n      pop\n        /* \"#utility.yul\":22727:22869   */\n      swap2\n      swap1\n      pop\n      jump\t// out\n        /* \"#utility.yul\":22875:22950   */\n    tag_446:\n        /* \"#utility.yul\":22918:22921   */\n      0x00\n        /* \"#utility.yul\":22939:22944   */\n      dup2\n        /* \"#utility.yul\":22932:22944   */\n      swap1\n      pop\n        /* \"#utility.yul\":22875:22950   */\n      swap2\n      swap1\n      pop\n      jump\t// out\n        /* \"#utility.yul\":22956:23225   */\n    tag_447:\n        /* \"#utility.yul\":23066:23105   */\n      tag_716\n        /* \"#utility.yul\":23097:23104   */\n      dup4\n        /* \"#utility.yul\":23066:23105   */\n      tag_445\n      jump\t// in\n    tag_716:\n        /* \"#utility.yul\":23127:23218   */\n      tag_717\n        /* \"#utility.yul\":23176:23217   */\n      tag_718\n        /* \"#utility.yul\":23200:23216   */\n      dup3\n        /* \"#utility.yul\":23176:23217   */\n      tag_446\n      jump\t// in\n    tag_718:\n        /* \"#utility.yul\":23168:23174   */\n      dup5\n        /* \"#utility.yul\":23161:23165   */\n      dup5\n        /* \"#utility.yul\":23155:23166   */\n      sload\n        /* \"#utility.yul\":23127:23218   */\n      tag_443\n      jump\t// in\n    tag_717:\n        /* \"#utility.yul\":23121:23125   */\n      dup3\n        /* \"#utility.yul\":23114:23219   */\n      sstore\n        /* \"#utility.yul\":23032:23225   */\n      pop\n        /* \"#utility.yul\":22956:23225   */\n      pop\n      pop\n      pop\n      jump\t// out\n        /* \"#utility.yul\":23231:23304   */\n    tag_448:\n        /* \"#utility.yul\":23276:23279   */\n      0x00\n        /* \"#utility.yul\":23231:23304   */\n      swap1\n      jump\t// out\n        /* \"#utility.yul\":23310:23499   */\n    tag_449:\n        /* \"#utility.yul\":23387:23419   */\n      tag_721\n      tag_448\n      jump\t// in\n    tag_721:\n        /* \"#utility.yul\":23428:23493   */\n      tag_722\n        /* \"#utility.yul\":23486:23492   */\n      dup2\n        /* \"#utility.yul\":23478:23484   */\n      dup5\n        /* \"#utility.yul\":23472:23476   */\n      dup5\n        /* \"#utility.yul\":23428:23493   */\n      tag_447\n      jump\t// in\n    tag_722:\n        /* \"#utility.yul\":23363:23499   */\n      pop\n        /* \"#utility.yul\":23310:23499   */\n      pop\n      pop\n      jump\t// out\n        /* \"#utility.yul\":23505:23691   */\n    tag_450:\n        /* \"#utility.yul\":23565:23685   */\n    tag_724:\n        /* \"#utility.yul\":23582:23585   */\n      dup2\n        /* \"#utility.yul\":23575:23580   */\n      dup2\n        /* \"#utility.yul\":23572:23586   */\n      lt\n        /* \"#utility.yul\":23565:23685   */\n      iszero\n      tag_726\n      jumpi\n        /* \"#utility.yul\":23636:23675   */\n      tag_727\n        /* \"#utility.yul\":23673:23674   */\n      0x00\n        /* \"#utility.yul\":23666:23671   */\n      dup3\n        /* \"#utility.yul\":23636:23675   */\n      tag_449\n      jump\t// in\n    tag_727:\n        /* \"#utility.yul\":23609:23610   */\n      0x01\n        /* \"#utility.yul\":23602:23607   */\n      dup2\n        /* \"#utility.yul\":23598:23611   */\n      add\n        /* \"#utility.yul\":23589:23611   */\n      swap1\n      pop\n        /* \"#utility.yul\":23565:23685   */\n      jump(tag_724)\n    tag_726:\n        /* \"#utility.yul\":23505:23691   */\n      pop\n      pop\n      jump\t// out\n        /* \"#utility.yul\":23697:24240   */\n    tag_451:\n        /* \"#utility.yul\":23798:23800   */\n      0x1f\n        /* \"#utility.yul\":23793:23796   */\n      dup3\n        /* \"#utility.yul\":23790:23801   */\n      gt\n        /* \"#utility.yul\":23787:24233   */\n      iszero\n      tag_729\n      jumpi\n        /* \"#utility.yul\":23832:23870   */\n      tag_730\n        /* \"#utility.yul\":23864:23869   */\n      dup2\n        /* \"#utility.yul\":23832:23870   */\n      tag_440\n      jump\t// in\n    tag_730:\n        /* \"#utility.yul\":23916:23945   */\n      tag_731\n        /* \"#utility.yul\":23934:23944   */\n      dup5\n        /* \"#utility.yul\":23916:23945   */\n      tag_441\n      jump\t// in\n    tag_731:\n        /* \"#utility.yul\":23906:23914   */\n      dup2\n        /* \"#utility.yul\":23902:23946   */\n      add\n        /* \"#utility.yul\":24099:24101   */\n      0x20\n        /* \"#utility.yul\":24087:24097   */\n      dup6\n        /* \"#utility.yul\":24084:24102   */\n      lt\n        /* \"#utility.yul\":24081:24130   */\n      iszero\n      tag_732\n      jumpi\n        /* \"#utility.yul\":24120:24128   */\n      dup2\n        /* \"#utility.yul\":24105:24128   */\n      swap1\n      pop\n        /* \"#utility.yul\":24081:24130   */\n    tag_732:\n        /* \"#utility.yul\":24143:24223   */\n      tag_733\n        /* \"#utility.yul\":24199:24221   */\n      tag_734\n        /* \"#utility.yul\":24217:24220   */\n      dup6\n        /* \"#utility.yul\":24199:24221   */\n      tag_441\n      jump\t// in\n    tag_734:\n        /* \"#utility.yul\":24189:24197   */\n      dup4\n        /* \"#utility.yul\":24185:24222   */\n      add\n        /* \"#utility.yul\":24172:24183   */\n      dup3\n        /* \"#utility.yul\":24143:24223   */\n      tag_450\n      jump\t// in\n    tag_733:\n        /* \"#utility.yul\":23802:24233   */\n      pop\n      pop\n        /* \"#utility.yul\":23787:24233   */\n    tag_729:\n        /* \"#utility.yul\":23697:24240   */\n      pop\n      pop\n      pop\n      jump\t// out\n        /* \"#utility.yul\":24246:24363   */\n    tag_452:\n        /* \"#utility.yul\":24300:24308   */\n      0x00\n        /* \"#utility.yul\":24350:24355   */\n      dup3\n        /* \"#utility.yul\":24344:24348   */\n      dup3\n        /* \"#utility.yul\":24340:24356   */\n      shr\n        /* \"#utility.yul\":24319:24356   */\n      swap1\n      pop\n        /* \"#utility.yul\":24246:24363   */\n      swap3\n      swap2\n      pop\n      pop\n      jump\t// out\n        /* \"#utility.yul\":24369:24538   */\n    tag_453:\n        /* \"#utility.yul\":24413:24419   */\n      0x00\n        /* \"#utility.yul\":24446:24497   */\n      tag_737\n        /* \"#utility.yul\":24494:24495   */\n      0x00\n        /* \"#utility.yul\":24490:24496   */\n      not\n        /* \"#utility.yul\":24482:24487   */\n      dup5\n        /* \"#utility.yul\":24479:24480   */\n      0x08\n        /* \"#utility.yul\":24475:24488   */\n      mul\n        /* \"#utility.yul\":24446:24497   */\n      tag_452\n      jump\t// in\n    tag_737:\n        /* \"#utility.yul\":24442:24498   */\n      not\n        /* \"#utility.yul\":24527:24531   */\n      dup1\n        /* \"#utility.yul\":24521:24525   */\n      dup4\n        /* \"#utility.yul\":24517:24532   */\n      and\n        /* \"#utility.yul\":24507:24532   */\n      swap2\n      pop\n        /* \"#utility.yul\":24420:24538   */\n      pop\n        /* \"#utility.yul\":24369:24538   */\n      swap3\n      swap2\n      pop\n      pop\n      jump\t// out\n        /* \"#utility.yul\":24543:24838   */\n    tag_454:\n        /* \"#utility.yul\":24619:24623   */\n      0x00\n        /* \"#utility.yul\":24765:24794   */\n      tag_739\n        /* \"#utility.yul\":24790:24793   */\n      dup4\n        /* \"#utility.yul\":24784:24788   */\n      dup4\n        /* \"#utility.yul\":24765:24794   */\n      tag_453\n      jump\t// in\n    tag_739:\n        /* \"#utility.yul\":24757:24794   */\n      swap2\n      pop\n        /* \"#utility.yul\":24827:24830   */\n      dup3\n        /* \"#utility.yul\":24824:24825   */\n      0x02\n        /* \"#utility.yul\":24820:24831   */\n      mul\n        /* \"#utility.yul\":24814:24818   */\n      dup3\n        /* \"#utility.yul\":24811:24832   */\n      or\n        /* \"#utility.yul\":24803:24832   */\n      swap1\n      pop\n        /* \"#utility.yul\":24543:24838   */\n      swap3\n      swap2\n      pop\n      pop\n      jump\t// out\n        /* \"#utility.yul\":24843:26238   */\n    tag_265:\n        /* \"#utility.yul\":24960:24997   */\n      tag_741\n        /* \"#utility.yul\":24993:24996   */\n      dup3\n        /* \"#utility.yul\":24960:24997   */\n      tag_398\n      jump\t// in\n    tag_741:\n        /* \"#utility.yul\":25062:25080   */\n      0xffffffffffffffff\n        /* \"#utility.yul\":25054:25060   */\n      dup2\n        /* \"#utility.yul\":25051:25081   */\n      gt\n        /* \"#utility.yul\":25048:25104   */\n      iszero\n      tag_742\n      jumpi\n        /* \"#utility.yul\":25084:25102   */\n      tag_743\n      tag_362\n      jump\t// in\n    tag_743:\n        /* \"#utility.yul\":25048:25104   */\n    tag_742:\n        /* \"#utility.yul\":25128:25166   */\n      tag_744\n        /* \"#utility.yul\":25160:25164   */\n      dup3\n        /* \"#utility.yul\":25154:25165   */\n      sload\n        /* \"#utility.yul\":25128:25166   */\n      tag_126\n      jump\t// in\n    tag_744:\n        /* \"#utility.yul\":25213:25280   */\n      tag_745\n        /* \"#utility.yul\":25273:25279   */\n      dup3\n        /* \"#utility.yul\":25265:25271   */\n      dup3\n        /* \"#utility.yul\":25259:25263   */\n      dup6\n        /* \"#utility.yul\":25213:25280   */\n      tag_451\n      jump\t// in\n    tag_745:\n        /* \"#utility.yul\":25307:25308   */\n      0x00\n        /* \"#utility.yul\":25331:25335   */\n      0x20\n        /* \"#utility.yul\":25318:25335   */\n      swap1\n      pop\n        /* \"#utility.yul\":25363:25365   */\n      0x1f\n        /* \"#utility.yul\":25355:25361   */\n      dup4\n        /* \"#utility.yul\":25352:25366   */\n      gt\n        /* \"#utility.yul\":25380:25381   */\n      0x01\n        /* \"#utility.yul\":25375:25993   */\n      dup2\n      eq\n      tag_747\n      jumpi\n        /* \"#utility.yul\":26037:26038   */\n      0x00\n        /* \"#utility.yul\":26054:26060   */\n      dup5\n        /* \"#utility.yul\":26051:26128   */\n      iszero\n      tag_748\n      jumpi\n        /* \"#utility.yul\":26103:26112   */\n      dup3\n        /* \"#utility.yul\":26098:26101   */\n      dup8\n        /* \"#utility.yul\":26094:26113   */\n      add\n        /* \"#utility.yul\":26088:26114   */\n      mload\n        /* \"#utility.yul\":26079:26114   */\n      swap1\n      pop\n        /* \"#utility.yul\":26051:26128   */\n    tag_748:\n        /* \"#utility.yul\":26154:26221   */\n      tag_749\n        /* \"#utility.yul\":26214:26220   */\n      dup6\n        /* \"#utility.yul\":26207:26212   */\n      dup3\n        /* \"#utility.yul\":26154:26221   */\n      tag_454\n      jump\t// in\n    tag_749:\n        /* \"#utility.yul\":26148:26152   */\n      dup7\n        /* \"#utility.yul\":26141:26222   */\n      sstore\n        /* \"#utility.yul\":26010:26232   */\n      pop\n        /* \"#utility.yul\":25345:26232   */\n      jump(tag_746)\n        /* \"#utility.yul\":25375:25993   */\n    tag_747:\n        /* \"#utility.yul\":25427:25431   */\n      0x1f\n        /* \"#utility.yul\":25423:25432   */\n      not\n        /* \"#utility.yul\":25415:25421   */\n      dup5\n        /* \"#utility.yul\":25411:25433   */\n      and\n        /* \"#utility.yul\":25461:25498   */\n      tag_750\n        /* \"#utility.yul\":25493:25497   */\n      dup7\n        /* \"#utility.yul\":25461:25498   */\n      tag_440\n      jump\t// in\n    tag_750:\n        /* \"#utility.yul\":25520:25521   */\n      0x00\n        /* \"#utility.yul\":25534:25742   */\n    tag_751:\n        /* \"#utility.yul\":25548:25555   */\n      dup3\n        /* \"#utility.yul\":25545:25546   */\n      dup2\n        /* \"#utility.yul\":25542:25556   */\n      lt\n        /* \"#utility.yul\":25534:25742   */\n      iszero\n      tag_753\n      jumpi\n        /* \"#utility.yul\":25627:25636   */\n      dup5\n        /* \"#utility.yul\":25622:25625   */\n      dup10\n        /* \"#utility.yul\":25618:25637   */\n      add\n        /* \"#utility.yul\":25612:25638   */\n      mload\n        /* \"#utility.yul\":25604:25610   */\n      dup3\n        /* \"#utility.yul\":25597:25639   */\n      sstore\n        /* \"#utility.yul\":25678:25679   */\n      0x01\n        /* \"#utility.yul\":25670:25676   */\n      dup3\n        /* \"#utility.yul\":25666:25680   */\n      add\n        /* \"#utility.yul\":25656:25680   */\n      swap2\n      pop\n        /* \"#utility.yul\":25725:25727   */\n      0x20\n        /* \"#utility.yul\":25714:25723   */\n      dup6\n        /* \"#utility.yul\":25710:25728   */\n      add\n        /* \"#utility.yul\":25697:25728   */\n      swap5\n      pop\n        /* \"#utility.yul\":25571:25575   */\n      0x20\n        /* \"#utility.yul\":25568:25569   */\n      dup2\n        /* \"#utility.yul\":25564:25576   */\n      add\n        /* \"#utility.yul\":25559:25576   */\n      swap1\n      pop\n        /* \"#utility.yul\":25534:25742   */\n      jump(tag_751)\n    tag_753:\n        /* \"#utility.yul\":25770:25776   */\n      dup7\n        /* \"#utility.yul\":25761:25768   */\n      dup4\n        /* \"#utility.yul\":25758:25777   */\n      lt\n        /* \"#utility.yul\":25755:25934   */\n      iszero\n      tag_754\n      jumpi\n        /* \"#utility.yul\":25828:25837   */\n      dup5\n        /* \"#utility.yul\":25823:25826   */\n      dup10\n        /* \"#utility.yul\":25819:25838   */\n      add\n        /* \"#utility.yul\":25813:25839   */\n      mload\n        /* \"#utility.yul\":25871:25919   */\n      tag_755\n        /* \"#utility.yul\":25913:25917   */\n      0x1f\n        /* \"#utility.yul\":25905:25911   */\n      dup10\n        /* \"#utility.yul\":25901:25918   */\n      and\n        /* \"#utility.yul\":25890:25899   */\n      dup3\n        /* \"#utility.yul\":25871:25919   */\n      tag_453\n      jump\t// in\n    tag_755:\n        /* \"#utility.yul\":25863:25869   */\n      dup4\n        /* \"#utility.yul\":25856:25920   */\n      sstore\n        /* \"#utility.yul\":25778:25934   */\n      pop\n        /* \"#utility.yul\":25755:25934   */\n    tag_754:\n        /* \"#utility.yul\":25980:25981   */\n      0x01\n        /* \"#utility.yul\":25976:25977   */\n      0x02\n        /* \"#utility.yul\":25968:25974   */\n      dup9\n        /* \"#utility.yul\":25964:25978   */\n      mul\n        /* \"#utility.yul\":25960:25982   */\n      add\n        /* \"#utility.yul\":25954:25958   */\n      dup9\n        /* \"#utility.yul\":25947:25983   */\n      sstore\n        /* \"#utility.yul\":25382:25993   */\n      pop\n      pop\n      pop\n        /* \"#utility.yul\":25345:26232   */\n    tag_746:\n      pop\n        /* \"#utility.yul\":24935:26238   */\n      pop\n      pop\n      pop\n        /* \"#utility.yul\":24843:26238   */\n      pop\n      pop\n      jump\t// out\n        /* \"#utility.yul\":26244:26342   */\n    tag_455:\n        /* \"#utility.yul\":26295:26301   */\n      0x00\n        /* \"#utility.yul\":26329:26334   */\n      dup2\n        /* \"#utility.yul\":26323:26335   */\n      mload\n        /* \"#utility.yul\":26313:26335   */\n      swap1\n      pop\n        /* \"#utility.yul\":26244:26342   */\n      swap2\n      swap1\n      pop\n      jump\t// out\n        /* \"#utility.yul\":26348:26516   */\n    tag_456:\n        /* \"#utility.yul\":26431:26442   */\n      0x00\n        /* \"#utility.yul\":26465:26471   */\n      dup3\n        /* \"#utility.yul\":26460:26463   */\n      dup3\n        /* \"#utility.yul\":26453:26472   */\n      mstore\n        /* \"#utility.yul\":26505:26509   */\n      0x20\n        /* \"#utility.yul\":26500:26503   */\n      dup3\n        /* \"#utility.yul\":26496:26510   */\n      add\n        /* \"#utility.yul\":26481:26510   */\n      swap1\n      pop\n        /* \"#utility.yul\":26348:26516   */\n      swap3\n      swap2\n      pop\n      pop\n      jump\t// out\n        /* \"#utility.yul\":26522:26895   */\n    tag_457:\n        /* \"#utility.yul\":26608:26611   */\n      0x00\n        /* \"#utility.yul\":26636:26674   */\n      tag_759\n        /* \"#utility.yul\":26668:26673   */\n      dup3\n        /* \"#utility.yul\":26636:26674   */\n      tag_455\n      jump\t// in\n    tag_759:\n        /* \"#utility.yul\":26690:26760   */\n      tag_760\n        /* \"#utility.yul\":26753:26759   */\n      dup2\n        /* \"#utility.yul\":26748:26751   */\n      dup6\n        /* \"#utility.yul\":26690:26760   */\n      tag_456\n      jump\t// in\n    tag_760:\n        /* \"#utility.yul\":26683:26760   */\n      swap4\n      pop\n        /* \"#utility.yul\":26769:26834   */\n      tag_761\n        /* \"#utility.yul\":26827:26833   */\n      dup2\n        /* \"#utility.yul\":26822:26825   */\n      dup6\n        /* \"#utility.yul\":26815:26819   */\n      0x20\n        /* \"#utility.yul\":26808:26813   */\n      dup7\n        /* \"#utility.yul\":26804:26820   */\n      add\n        /* \"#utility.yul\":26769:26834   */\n      tag_400\n      jump\t// in\n    tag_761:\n        /* \"#utility.yul\":26859:26888   */\n      tag_762\n        /* \"#utility.yul\":26881:26887   */\n      dup2\n        /* \"#utility.yul\":26859:26888   */\n      tag_401\n      jump\t// in\n    tag_762:\n        /* \"#utility.yul\":26854:26857   */\n      dup5\n        /* \"#utility.yul\":26850:26889   */\n      add\n        /* \"#utility.yul\":26843:26889   */\n      swap2\n      pop\n        /* \"#utility.yul\":26612:26895   */\n      pop\n        /* \"#utility.yul\":26522:26895   */\n      swap3\n      swap2\n      pop\n      pop\n      jump\t// out\n        /* \"#utility.yul\":26901:27541   */\n    tag_276:\n        /* \"#utility.yul\":27096:27100   */\n      0x00\n        /* \"#utility.yul\":27134:27137   */\n      0x80\n        /* \"#utility.yul\":27123:27132   */\n      dup3\n        /* \"#utility.yul\":27119:27138   */\n      add\n        /* \"#utility.yul\":27111:27138   */\n      swap1\n      pop\n        /* \"#utility.yul\":27148:27219   */\n      tag_764\n        /* \"#utility.yul\":27216:27217   */\n      0x00\n        /* \"#utility.yul\":27205:27214   */\n      dup4\n        /* \"#utility.yul\":27201:27218   */\n      add\n        /* \"#utility.yul\":27192:27198   */\n      dup8\n        /* \"#utility.yul\":27148:27219   */\n      tag_408\n      jump\t// in\n    tag_764:\n        /* \"#utility.yul\":27229:27301   */\n      tag_765\n        /* \"#utility.yul\":27297:27299   */\n      0x20\n        /* \"#utility.yul\":27286:27295   */\n      dup4\n        /* \"#utility.yul\":27282:27300   */\n      add\n        /* \"#utility.yul\":27273:27279   */\n      dup7\n        /* \"#utility.yul\":27229:27301   */\n      tag_408\n      jump\t// in\n    tag_765:\n        /* \"#utility.yul\":27311:27383   */\n      tag_766\n        /* \"#utility.yul\":27379:27381   */\n      0x40\n        /* \"#utility.yul\":27368:27377   */\n      dup4\n        /* \"#utility.yul\":27364:27382   */\n      add\n        /* \"#utility.yul\":27355:27361   */\n      dup6\n        /* \"#utility.yul\":27311:27383   */\n      tag_419\n      jump\t// in\n    tag_766:\n        /* \"#utility.yul\":27430:27439   */\n      dup2\n        /* \"#utility.yul\":27424:27428   */\n      dup2\n        /* \"#utility.yul\":27420:27440   */\n      sub\n        /* \"#utility.yul\":27415:27417   */\n      0x60\n        /* \"#utility.yul\":27404:27413   */\n      dup4\n        /* \"#utility.yul\":27400:27418   */\n      add\n        /* \"#utility.yul\":27393:27441   */\n      mstore\n        /* \"#utility.yul\":27458:27534   */\n      tag_767\n        /* \"#utility.yul\":27529:27533   */\n      dup2\n        /* \"#utility.yul\":27520:27526   */\n      dup5\n        /* \"#utility.yul\":27458:27534   */\n      tag_457\n      jump\t// in\n    tag_767:\n        /* \"#utility.yul\":27450:27534   */\n      swap1\n      pop\n        /* \"#utility.yul\":26901:27541   */\n      swap6\n      swap5\n      pop\n      pop\n      pop\n      pop\n      pop\n      jump\t// out\n        /* \"#utility.yul\":27547:27688   */\n    tag_458:\n        /* \"#utility.yul\":27603:27608   */\n      0x00\n        /* \"#utility.yul\":27634:27640   */\n      dup2\n        /* \"#utility.yul\":27628:27641   */\n      mload\n        /* \"#utility.yul\":27619:27641   */\n      swap1\n      pop\n        /* \"#utility.yul\":27650:27682   */\n      tag_769\n        /* \"#utility.yul\":27676:27681   */\n      dup2\n        /* \"#utility.yul\":27650:27682   */\n      tag_394\n      jump\t// in\n    tag_769:\n        /* \"#utility.yul\":27547:27688   */\n      swap3\n      swap2\n      pop\n      pop\n      jump\t// out\n        /* \"#utility.yul\":27694:28043   */\n    tag_279:\n        /* \"#utility.yul\":27763:27769   */\n      0x00\n        /* \"#utility.yul\":27812:27814   */\n      0x20\n        /* \"#utility.yul\":27800:27809   */\n      dup3\n        /* \"#utility.yul\":27791:27798   */\n      dup5\n        /* \"#utility.yul\":27787:27810   */\n      sub\n        /* \"#utility.yul\":27783:27815   */\n      slt\n        /* \"#utility.yul\":27780:27899   */\n      iszero\n      tag_771\n      jumpi\n        /* \"#utility.yul\":27818:27897   */\n      tag_772\n      tag_391\n      jump\t// in\n    tag_772:\n        /* \"#utility.yul\":27780:27899   */\n    tag_771:\n        /* \"#utility.yul\":27938:27939   */\n      0x00\n        /* \"#utility.yul\":27963:28026   */\n      tag_773\n        /* \"#utility.yul\":28018:28025   */\n      dup5\n        /* \"#utility.yul\":28009:28015   */\n      dup3\n        /* \"#utility.yul\":27998:28007   */\n      dup6\n        /* \"#utility.yul\":27994:28016   */\n      add\n        /* \"#utility.yul\":27963:28026   */\n      tag_458\n      jump\t// in\n    tag_773:\n        /* \"#utility.yul\":27953:28026   */\n      swap2\n      pop\n        /* \"#utility.yul\":27909:28036   */\n      pop\n        /* \"#utility.yul\":27694:28043   */\n      swap3\n      swap2\n      pop\n      pop\n      jump\t// out\n        /* \"#utility.yul\":28049:28197   */\n    tag_459:\n        /* \"#utility.yul\":28151:28162   */\n      0x00\n        /* \"#utility.yul\":28188:28191   */\n      dup2\n        /* \"#utility.yul\":28173:28191   */\n      swap1\n      pop\n        /* \"#utility.yul\":28049:28197   */\n      swap3\n      swap2\n      pop\n      pop\n      jump\t// out\n        /* \"#utility.yul\":28203:28593   */\n    tag_460:\n        /* \"#utility.yul\":28309:28312   */\n      0x00\n        /* \"#utility.yul\":28337:28376   */\n      tag_776\n        /* \"#utility.yul\":28370:28375   */\n      dup3\n        /* \"#utility.yul\":28337:28376   */\n      tag_398\n      jump\t// in\n    tag_776:\n        /* \"#utility.yul\":28392:28481   */\n      tag_777\n        /* \"#utility.yul\":28474:28480   */\n      dup2\n        /* \"#utility.yul\":28469:28472   */\n      dup6\n        /* \"#utility.yul\":28392:28481   */\n      tag_459\n      jump\t// in\n    tag_777:\n        /* \"#utility.yul\":28385:28481   */\n      swap4\n      pop\n        /* \"#utility.yul\":28490:28555   */\n      tag_778\n        /* \"#utility.yul\":28548:28554   */\n      dup2\n        /* \"#utility.yul\":28543:28546   */\n      dup6\n        /* \"#utility.yul\":28536:28540   */\n      0x20\n        /* \"#utility.yul\":28529:28534   */\n      dup7\n        /* \"#utility.yul\":28525:28541   */\n      add\n        /* \"#utility.yul\":28490:28555   */\n      tag_400\n      jump\t// in\n    tag_778:\n        /* \"#utility.yul\":28580:28586   */\n      dup1\n        /* \"#utility.yul\":28575:28578   */\n      dup5\n        /* \"#utility.yul\":28571:28587   */\n      add\n        /* \"#utility.yul\":28564:28587   */\n      swap2\n      pop\n        /* \"#utility.yul\":28313:28593   */\n      pop\n        /* \"#utility.yul\":28203:28593   */\n      swap3\n      swap2\n      pop\n      pop\n      jump\t// out\n        /* \"#utility.yul\":28599:29034   */\n    tag_304:\n        /* \"#utility.yul\":28779:28782   */\n      0x00\n        /* \"#utility.yul\":28801:28896   */\n      tag_780\n        /* \"#utility.yul\":28892:28895   */\n      dup3\n        /* \"#utility.yul\":28883:28889   */\n      dup6\n        /* \"#utility.yul\":28801:28896   */\n      tag_460\n      jump\t// in\n    tag_780:\n        /* \"#utility.yul\":28794:28896   */\n      swap2\n      pop\n        /* \"#utility.yul\":28913:29008   */\n      tag_781\n        /* \"#utility.yul\":29004:29007   */\n      dup3\n        /* \"#utility.yul\":28995:29001   */\n      dup5\n        /* \"#utility.yul\":28913:29008   */\n      tag_460\n      jump\t// in\n    tag_781:\n        /* \"#utility.yul\":28906:29008   */\n      swap2\n      pop\n        /* \"#utility.yul\":29025:29028   */\n      dup2\n        /* \"#utility.yul\":29018:29028   */\n      swap1\n      pop\n        /* \"#utility.yul\":28599:29034   */\n      swap4\n      swap3\n      pop\n      pop\n      pop\n      jump\t// out\n\n    auxdata: 0xa2646970667358221220d9c44b52f69ad304f672aa4c55274c8ad2ddd52401c23cab1b65cebfa94efe6564736f6c634300081a0033\n}\n",
				"bytecode": {
					"linkReferences": {},
					"object": "60806040526101f4600855348015610015575f80fd5b506040516132213803806132218339818101604052810190610037919061026c565b806040518060400160405280600881526020017f46616e63794e46540000000000000000000000000000000000000000000000008152506040518060400160405280600381526020017f464e540000000000000000000000000000000000000000000000000000000000815250815f90816100b291906104d1565b5080600190816100c291906104d1565b5050505f73ffffffffffffffffffffffffffffffffffffffff168173ffffffffffffffffffffffffffffffffffffffff1603610135575f6040517f1e4fbdf700000000000000000000000000000000000000000000000000000000815260040161012c91906105af565b60405180910390fd5b6101448161014b60201b60201c565b50506105c8565b5f60075f9054906101000a900473ffffffffffffffffffffffffffffffffffffffff1690508160075f6101000a81548173ffffffffffffffffffffffffffffffffffffffff021916908373ffffffffffffffffffffffffffffffffffffffff1602179055508173ffffffffffffffffffffffffffffffffffffffff168173ffffffffffffffffffffffffffffffffffffffff167f8be0079c531659141344cd1fd0a4f28419497f9722a3daafe3b4186f6b6457e060405160405180910390a35050565b5f80fd5b5f73ffffffffffffffffffffffffffffffffffffffff82169050919050565b5f61023b82610212565b9050919050565b61024b81610231565b8114610255575f80fd5b50565b5f8151905061026681610242565b92915050565b5f602082840312156102815761028061020e565b5b5f61028e84828501610258565b91505092915050565b5f81519050919050565b7f4e487b71000000000000000000000000000000000000000000000000000000005f52604160045260245ffd5b7f4e487b71000000000000000000000000000000000000000000000000000000005f52602260045260245ffd5b5f600282049050600182168061031257607f821691505b602082108103610325576103246102ce565b5b50919050565b5f819050815f5260205f209050919050565b5f6020601f8301049050919050565b5f82821b905092915050565b5f600883026103877fffffffffffffffffffffffffffffffffffffffffffffffffffffffffffffffff8261034c565b610391868361034c565b95508019841693508086168417925050509392505050565b5f819050919050565b5f819050919050565b5f6103d56103d06103cb846103a9565b6103b2565b6103a9565b9050919050565b5f819050919050565b6103ee836103bb565b6104026103fa826103dc565b848454610358565b825550505050565b5f90565b61041661040a565b6104218184846103e5565b505050565b5b81811015610444576104395f8261040e565b600181019050610427565b5050565b601f8211156104895761045a8161032b565b6104638461033d565b81016020851015610472578190505b61048661047e8561033d565b830182610426565b50505b505050565b5f82821c905092915050565b5f6104a95f198460080261048e565b1980831691505092915050565b5f6104c1838361049a565b9150826002028217905092915050565b6104da82610297565b67ffffffffffffffff8111156104f3576104f26102a1565b5b6104fd82546102fb565b610508828285610448565b5f60209050601f831160018114610539575f8415610527578287015190505b61053185826104b6565b865550610598565b601f1984166105478661032b565b5f5b8281101561056e57848901518255600182019150602085019450602081019050610549565b8683101561058b5784890151610587601f89168261049a565b8355505b6001600288020188555050505b505050505050565b6105a981610231565b82525050565b5f6020820190506105c25f8301846105a0565b92915050565b612c4c806105d55f395ff3fe608060405234801561000f575f80fd5b506004361061014b575f3560e01c8063715018a6116100c1578063a22cb4651161007a578063a22cb46514610385578063b88d4fde146103a1578063c87b56dd146103bd578063cef6d368146103ed578063e985e9c51461041e578063f2fde38b1461044e5761014b565b8063715018a6146102d55780637aae3ccb146102df5780638a71bb2d1461030f5780638da5cb5b1461032d57806395d89b411461034b5780639caea80a146103695761014b565b80632923ce11116101135780632923ce111461020557806342842e0e1461022157806342966c681461023d5780635146ea0e146102595780636352211e1461027557806370a08231146102a55761014b565b806301ffc9a71461014f57806306fdde031461017f578063081812fc1461019d578063095ea7b3146101cd57806323b872dd146101e9575b5f80fd5b61016960048036038101906101649190611d23565b61046a565b6040516101769190611d68565b60405180910390f35b61018761047b565b6040516101949190611df1565b60405180910390f35b6101b760048036038101906101b29190611e44565b61050a565b6040516101c49190611eae565b60405180910390f35b6101e760048036038101906101e29190611ef1565b610525565b005b61020360048036038101906101fe9190611f2f565b61053b565b005b61021f600480360381019061021a91906120ab565b61063a565b005b61023b60048036038101906102369190611f2f565b61066a565b005b61025760048036038101906102529190611e44565b610689565b005b610273600480360381019061026e919061212b565b61069f565b005b61028f600480360381019061028a9190611e44565b6106d2565b60405161029c9190611eae565b60405180910390f35b6102bf60048036038101906102ba9190612169565b6106e3565b6040516102cc91906121a3565b60405180910390f35b6102dd610799565b005b6102f960048036038101906102f49190611e44565b6107ac565b60405161030691906121a3565b60405180910390f35b6103176107c1565b60405161032491906121a3565b60405180910390f35b6103356107c7565b6040516103429190611eae565b60405180910390f35b6103536107ef565b6040516103609190611df1565b60405180910390f35b610383600480360381019061037e919061235e565b61087f565b005b61039f600480360381019061039a9190612410565b61094b565b005b6103bb60048036038101906103b691906124ec565b610961565b005b6103d760048036038101906103d29190611e44565b61097e565b6040516103e49190611df1565b60405180910390f35b61040760048036038101906104029190611e44565b610990565b60405161041592919061256c565b60405180910390f35b61043860048036038101906104339190612593565b6109be565b6040516104459190611d68565b60405180910390f35b61046860048036038101906104639190612169565b610a4c565b005b5f61047482610ad0565b9050919050565b60605f8054610489906125fe565b80601f01602080910402602001604051908101604052809291908181526020018280546104b5906125fe565b80156105005780601f106104d757610100808354040283529160200191610500565b820191905f5260205f20905b8154815290600101906020018083116104e357829003601f168201915b5050505050905090565b5f61051482610b30565b5061051e82610bb6565b9050919050565b6105378282610532610bef565b610bf6565b5050565b5f73ffffffffffffffffffffffffffffffffffffffff168273ffffffffffffffffffffffffffffffffffffffff16036105ab575f6040517f64a0ae920000000000000000000000000000000000000000000000000000000081526004016105a29190611eae565b60405180910390fd5b5f6105be83836105b9610bef565b610c08565b90508373ffffffffffffffffffffffffffffffffffffffff168173ffffffffffffffffffffffffffffffffffffffff1614610634578382826040517f64283d7b00000000000000000000000000000000000000000000000000000000815260040161062b9392919061262e565b60405180910390fd5b50505050565b610642610e13565b5f61064d8383610e9a565b90506106598582610ef3565b6106638185610f10565b5050505050565b61068483838360405180602001604052805f815250610961565b505050565b61069b5f82610696610bef565b610c08565b5050565b6106a7610e13565b8060095f8481526020019081526020015f205f8282546106c79190612690565b925050819055505050565b5f6106dc82610b30565b9050919050565b5f8073ffffffffffffffffffffffffffffffffffffffff168273ffffffffffffffffffffffffffffffffffffffff1603610754575f6040517f89c62b6400000000000000000000000000000000000000000000000000000000815260040161074b9190611eae565b60405180910390fd5b60035f8373ffffffffffffffffffffffffffffffffffffffff1673ffffffffffffffffffffffffffffffffffffffff1681526020019081526020015f20549050919050565b6107a1610e13565b6107aa5f610f6a565b565b6009602052805f5260405f205f915090505481565b60085481565b5f60075f9054906101000a900473ffffffffffffffffffffffffffffffffffffffff16905090565b6060600180546107fe906125fe565b80601f016020809104026020016040519081016040528092919081815260200182805461082a906125fe565b80156108755780601f1061084c57610100808354040283529160200191610875565b820191905f5260205f20905b81548152906001019060200180831161085857829003601f168201915b5050505050905090565b610887610e13565b80518251146108cb576040517f08c379a00000000000000000000000000000000000000000000000000000000081526004016108c29061270d565b60405180910390fd5b5f5b8251811015610945576108fa848483815181106108ed576108ec61272b565b5b6020026020010151610ef3565b6109388382815181106109105761090f61272b565b5b602002602001015183838151811061092b5761092a61272b565b5b6020026020010151610f10565b80806001019150506108cd565b50505050565b61095d610956610bef565b838361102d565b5050565b61096c84848461053b565b61097884848484611196565b50505050565b606061098982611348565b9050919050565b5f8061099a6107c7565b612710600854856109ab9190612758565b6109b591906127c6565b91509150915091565b5f60055f8473ffffffffffffffffffffffffffffffffffffffff1673ffffffffffffffffffffffffffffffffffffffff1681526020019081526020015f205f8373ffffffffffffffffffffffffffffffffffffffff1673ffffffffffffffffffffffffffffffffffffffff1681526020019081526020015f205f9054906101000a900460ff16905092915050565b610a54610e13565b5f73ffffffffffffffffffffffffffffffffffffffff168173ffffffffffffffffffffffffffffffffffffffff1603610ac4575f6040517f1e4fbdf7000000000000000000000000000000000000000000000000000000008152600401610abb9190611eae565b60405180910390fd5b610acd81610f6a565b50565b5f634906490660e01b7bffffffffffffffffffffffffffffffffffffffffffffffffffffffff1916827bffffffffffffffffffffffffffffffffffffffffffffffffffffffff19161480610b295750610b2882611453565b5b9050919050565b5f80610b3b83611534565b90505f73ffffffffffffffffffffffffffffffffffffffff168173ffffffffffffffffffffffffffffffffffffffff1603610bad57826040517f7e273289000000000000000000000000000000000000000000000000000000008152600401610ba491906121a3565b60405180910390fd5b80915050919050565b5f60045f8381526020019081526020015f205f9054906101000a900473ffffffffffffffffffffffffffffffffffffffff169050919050565b5f33905090565b610c03838383600161156d565b505050565b5f80610c1384611534565b90505f73ffffffffffffffffffffffffffffffffffffffff168373ffffffffffffffffffffffffffffffffffffffff1614610c5457610c5381848661172c565b5b5f73ffffffffffffffffffffffffffffffffffffffff168173ffffffffffffffffffffffffffffffffffffffff1614610cdf57610c935f855f8061156d565b600160035f8373ffffffffffffffffffffffffffffffffffffffff1673ffffffffffffffffffffffffffffffffffffffff1681526020019081526020015f205f82825403925050819055505b5f73ffffffffffffffffffffffffffffffffffffffff168573ffffffffffffffffffffffffffffffffffffffff1614610d5e57600160035f8773ffffffffffffffffffffffffffffffffffffffff1673ffffffffffffffffffffffffffffffffffffffff1681526020019081526020015f205f82825401925050819055505b8460025f8681526020019081526020015f205f6101000a81548173ffffffffffffffffffffffffffffffffffffffff021916908373ffffffffffffffffffffffffffffffffffffffff160217905550838573ffffffffffffffffffffffffffffffffffffffff168273ffffffffffffffffffffffffffffffffffffffff167fddf252ad1be2c89b69c2b068fc378daa952ba7f163c4a11628f55a4df523b3ef60405160405180910390a4809150509392505050565b610e1b610bef565b73ffffffffffffffffffffffffffffffffffffffff16610e396107c7565b73ffffffffffffffffffffffffffffffffffffffff1614610e9857610e5c610bef565b6040517f118cdaa7000000000000000000000000000000000000000000000000000000008152600401610e8f9190611eae565b60405180910390fd5b565b5f82825f357fffffffff0000000000000000000000000000000000000000000000000000000016604051602001610ed393929190612836565b604051602081830303815290604052805190602001205f1c905092915050565b610f0c828260405180602001604052805f8152506117ef565b5050565b8060065f8481526020019081526020015f209081610f2e9190612a0f565b507ff8e1a15aba9398e019f0b49df1a4fde98ee17ae345cb5f6b5e2c27f5033e8ce782604051610f5e91906121a3565b60405180910390a15050565b5f60075f9054906101000a900473ffffffffffffffffffffffffffffffffffffffff1690508160075f6101000a81548173ffffffffffffffffffffffffffffffffffffffff021916908373ffffffffffffffffffffffffffffffffffffffff1602179055508173ffffffffffffffffffffffffffffffffffffffff168173ffffffffffffffffffffffffffffffffffffffff167f8be0079c531659141344cd1fd0a4f28419497f9722a3daafe3b4186f6b6457e060405160405180910390a35050565b5f73ffffffffffffffffffffffffffffffffffffffff168273ffffffffffffffffffffffffffffffffffffffff160361109d57816040517f5b08ba180000000000000000000000000000000000000000000000000000000081526004016110949190611eae565b60405180910390fd5b8060055f8573ffffffffffffffffffffffffffffffffffffffff1673ffffffffffffffffffffffffffffffffffffffff1681526020019081526020015f205f8473ffffffffffffffffffffffffffffffffffffffff1673ffffffffffffffffffffffffffffffffffffffff1681526020019081526020015f205f6101000a81548160ff0219169083151502179055508173ffffffffffffffffffffffffffffffffffffffff168373ffffffffffffffffffffffffffffffffffffffff167f17307eab39ab6107e8899845ad3d59bd9653f200f220920489ca2b5937696c31836040516111899190611d68565b60405180910390a3505050565b5f8373ffffffffffffffffffffffffffffffffffffffff163b1115611342578273ffffffffffffffffffffffffffffffffffffffff1663150b7a026111d9610bef565b8685856040518563ffffffff1660e01b81526004016111fb9493929190612b30565b6020604051808303815f875af192505050801561123657506040513d601f19601f820116820180604052508101906112339190612b8e565b60015b6112b7573d805f8114611264576040519150601f19603f3d011682016040523d82523d5f602084013e611269565b606091505b505f8151036112af57836040517f64a0ae920000000000000000000000000000000000000000000000000000000081526004016112a69190611eae565b60405180910390fd5b805181602001fd5b63150b7a0260e01b7bffffffffffffffffffffffffffffffffffffffffffffffffffffffff1916817bffffffffffffffffffffffffffffffffffffffffffffffffffffffff19161461134057836040517f64a0ae920000000000000000000000000000000000000000000000000000000081526004016113379190611eae565b60405180910390fd5b505b50505050565b606061135382610b30565b505f60065f8481526020019081526020015f208054611371906125fe565b80601f016020809104026020016040519081016040528092919081815260200182805461139d906125fe565b80156113e85780601f106113bf576101008083540402835291602001916113e8565b820191905f5260205f20905b8154815290600101906020018083116113cb57829003601f168201915b505050505090505f6113f861180a565b90505f81510361140c57819250505061144e565b5f82511115611440578082604051602001611428929190612bf3565b6040516020818303038152906040529250505061144e565b61144984611820565b925050505b919050565b5f7f80ac58cd000000000000000000000000000000000000000000000000000000007bffffffffffffffffffffffffffffffffffffffffffffffffffffffff1916827bffffffffffffffffffffffffffffffffffffffffffffffffffffffff1916148061151d57507f5b5e139f000000000000000000000000000000000000000000000000000000007bffffffffffffffffffffffffffffffffffffffffffffffffffffffff1916827bffffffffffffffffffffffffffffffffffffffffffffffffffffffff1916145b8061152d575061152c82611886565b5b9050919050565b5f60025f8381526020019081526020015f205f9054906101000a900473ffffffffffffffffffffffffffffffffffffffff169050919050565b80806115a557505f73ffffffffffffffffffffffffffffffffffffffff168273ffffffffffffffffffffffffffffffffffffffff1614155b156116d7575f6115b484610b30565b90505f73ffffffffffffffffffffffffffffffffffffffff168373ffffffffffffffffffffffffffffffffffffffff161415801561161e57508273ffffffffffffffffffffffffffffffffffffffff168173ffffffffffffffffffffffffffffffffffffffff1614155b8015611631575061162f81846109be565b155b1561167357826040517fa9fbf51f00000000000000000000000000000000000000000000000000000000815260040161166a9190611eae565b60405180910390fd5b81156116d557838573ffffffffffffffffffffffffffffffffffffffff168273ffffffffffffffffffffffffffffffffffffffff167f8c5be1e5ebec7d5bd14f71427d1e84f3dd0314c0f7b2291e5b200ac8c7c3b92560405160405180910390a45b505b8360045f8581526020019081526020015f205f6101000a81548173ffffffffffffffffffffffffffffffffffffffff021916908373ffffffffffffffffffffffffffffffffffffffff16021790555050505050565b6117378383836118ef565b6117ea575f73ffffffffffffffffffffffffffffffffffffffff168373ffffffffffffffffffffffffffffffffffffffff16036117ab57806040517f7e2732890000000000000000000000000000000000000000000000000000000081526004016117a291906121a3565b60405180910390fd5b81816040517f177e802f0000000000000000000000000000000000000000000000000000000081526004016117e192919061256c565b60405180910390fd5b505050565b6117f983836119af565b6118055f848484611196565b505050565b606060405180602001604052805f815250905090565b606061182b82610b30565b505f61183561180a565b90505f8151116118535760405180602001604052805f81525061187e565b8061185d84611aa2565b60405160200161186e929190612bf3565b6040516020818303038152906040525b915050919050565b5f7f01ffc9a7000000000000000000000000000000000000000000000000000000007bffffffffffffffffffffffffffffffffffffffffffffffffffffffff1916827bffffffffffffffffffffffffffffffffffffffffffffffffffffffff1916149050919050565b5f8073ffffffffffffffffffffffffffffffffffffffff168373ffffffffffffffffffffffffffffffffffffffff16141580156119a657508273ffffffffffffffffffffffffffffffffffffffff168473ffffffffffffffffffffffffffffffffffffffff161480611967575061196684846109be565b5b806119a557508273ffffffffffffffffffffffffffffffffffffffff1661198d83610bb6565b73ffffffffffffffffffffffffffffffffffffffff16145b5b90509392505050565b5f73ffffffffffffffffffffffffffffffffffffffff168273ffffffffffffffffffffffffffffffffffffffff1603611a1f575f6040517f64a0ae92000000000000000000000000000000000000000000000000000000008152600401611a169190611eae565b60405180910390fd5b5f611a2b83835f610c08565b90505f73ffffffffffffffffffffffffffffffffffffffff168173ffffffffffffffffffffffffffffffffffffffff1614611a9d575f6040517f73c6ac6e000000000000000000000000000000000000000000000000000000008152600401611a949190611eae565b60405180910390fd5b505050565b60605f6001611ab084611b6c565b0190505f8167ffffffffffffffff811115611ace57611acd611f87565b5b6040519080825280601f01601f191660200182016040528015611b005781602001600182028036833780820191505090505b5090505f82602001820190505b600115611b61578080600190039150507f3031323334353637383961626364656600000000000000000000000000000000600a86061a8153600a8581611b5657611b55612799565b5b0494505f8503611b0d575b819350505050919050565b5f805f90507a184f03e93ff9f4daa797ed6e38ed64bf6a1f0100000000000000008310611bc8577a184f03e93ff9f4daa797ed6e38ed64bf6a1f0100000000000000008381611bbe57611bbd612799565b5b0492506040810190505b6d04ee2d6d415b85acef81000000008310611c05576d04ee2d6d415b85acef81000000008381611bfb57611bfa612799565b5b0492506020810190505b662386f26fc100008310611c3457662386f26fc100008381611c2a57611c29612799565b5b0492506010810190505b6305f5e1008310611c5d576305f5e1008381611c5357611c52612799565b5b0492506008810190505b6127108310611c82576127108381611c7857611c77612799565b5b0492506004810190505b60648310611ca55760648381611c9b57611c9a612799565b5b0492506002810190505b600a8310611cb4576001810190505b80915050919050565b5f604051905090565b5f80fd5b5f80fd5b5f7fffffffff0000000000000000000000000000000000000000000000000000000082169050919050565b611d0281611cce565b8114611d0c575f80fd5b50565b5f81359050611d1d81611cf9565b92915050565b5f60208284031215611d3857611d37611cc6565b5b5f611d4584828501611d0f565b91505092915050565b5f8115159050919050565b611d6281611d4e565b82525050565b5f602082019050611d7b5f830184611d59565b92915050565b5f81519050919050565b5f82825260208201905092915050565b8281835e5f83830152505050565b5f601f19601f8301169050919050565b5f611dc382611d81565b611dcd8185611d8b565b9350611ddd818560208601611d9b565b611de681611da9565b840191505092915050565b5f6020820190508181035f830152611e098184611db9565b905092915050565b5f819050919050565b611e2381611e11565b8114611e2d575f80fd5b50565b5f81359050611e3e81611e1a565b92915050565b5f60208284031215611e5957611e58611cc6565b5b5f611e6684828501611e30565b91505092915050565b5f73ffffffffffffffffffffffffffffffffffffffff82169050919050565b5f611e9882611e6f565b9050919050565b611ea881611e8e565b82525050565b5f602082019050611ec15f830184611e9f565b92915050565b611ed081611e8e565b8114611eda575f80fd5b50565b5f81359050611eeb81611ec7565b92915050565b5f8060408385031215611f0757611f06611cc6565b5b5f611f1485828601611edd565b9250506020611f2585828601611e30565b9150509250929050565b5f805f60608486031215611f4657611f45611cc6565b5b5f611f5386828701611edd565b9350506020611f6486828701611edd565b9250506040611f7586828701611e30565b9150509250925092565b5f80fd5b5f80fd5b7f4e487b71000000000000000000000000000000000000000000000000000000005f52604160045260245ffd5b611fbd82611da9565b810181811067ffffffffffffffff82111715611fdc57611fdb611f87565b5b80604052505050565b5f611fee611cbd565b9050611ffa8282611fb4565b919050565b5f67ffffffffffffffff82111561201957612018611f87565b5b61202282611da9565b9050602081019050919050565b828183375f83830152505050565b5f61204f61204a84611fff565b611fe5565b90508281526020810184848401111561206b5761206a611f83565b5b61207684828561202f565b509392505050565b5f82601f83011261209257612091611f7f565b5b81356120a284826020860161203d565b91505092915050565b5f805f80608085870312156120c3576120c2611cc6565b5b5f6120d087828801611edd565b945050602085013567ffffffffffffffff8111156120f1576120f0611cca565b5b6120fd8782880161207e565b935050604061210e87828801611e30565b925050606061211f87828801611e30565b91505092959194509250565b5f806040838503121561214157612140611cc6565b5b5f61214e85828601611e30565b925050602061215f85828601611e30565b9150509250929050565b5f6020828403121561217e5761217d611cc6565b5b5f61218b84828501611edd565b91505092915050565b61219d81611e11565b82525050565b5f6020820190506121b65f830184612194565b92915050565b5f67ffffffffffffffff8211156121d6576121d5611f87565b5b602082029050602081019050919050565b5f80fd5b5f6121fd6121f8846121bc565b611fe5565b905080838252602082019050602084028301858111156122205761221f6121e7565b5b835b8181101561224957806122358882611e30565b845260208401935050602081019050612222565b5050509392505050565b5f82601f83011261226757612266611f7f565b5b81356122778482602086016121eb565b91505092915050565b5f67ffffffffffffffff82111561229a57612299611f87565b5b602082029050602081019050919050565b5f6122bd6122b884612280565b611fe5565b905080838252602082019050602084028301858111156122e0576122df6121e7565b5b835b8181101561232757803567ffffffffffffffff81111561230557612304611f7f565b5b808601612312898261207e565b855260208501945050506020810190506122e2565b5050509392505050565b5f82601f83011261234557612344611f7f565b5b81356123558482602086016122ab565b91505092915050565b5f805f6060848603121561237557612374611cc6565b5b5f61238286828701611edd565b935050602084013567ffffffffffffffff8111156123a3576123a2611cca565b5b6123af86828701612253565b925050604084013567ffffffffffffffff8111156123d0576123cf611cca565b5b6123dc86828701612331565b9150509250925092565b6123ef81611d4e565b81146123f9575f80fd5b50565b5f8135905061240a816123e6565b92915050565b5f806040838503121561242657612425611cc6565b5b5f61243385828601611edd565b9250506020612444858286016123fc565b9150509250929050565b5f67ffffffffffffffff82111561246857612467611f87565b5b61247182611da9565b9050602081019050919050565b5f61249061248b8461244e565b611fe5565b9050828152602081018484840111156124ac576124ab611f83565b5b6124b784828561202f565b509392505050565b5f82601f8301126124d3576124d2611f7f565b5b81356124e384826020860161247e565b91505092915050565b5f805f806080858703121561250457612503611cc6565b5b5f61251187828801611edd565b945050602061252287828801611edd565b935050604061253387828801611e30565b925050606085013567ffffffffffffffff81111561255457612553611cca565b5b612560878288016124bf565b91505092959194509250565b5f60408201905061257f5f830185611e9f565b61258c6020830184612194565b9392505050565b5f80604083850312156125a9576125a8611cc6565b5b5f6125b685828601611edd565b92505060206125c785828601611edd565b9150509250929050565b7f4e487b71000000000000000000000000000000000000000000000000000000005f52602260045260245ffd5b5f600282049050600182168061261557607f821691505b602082108103612628576126276125d1565b5b50919050565b5f6060820190506126415f830186611e9f565b61264e6020830185612194565b61265b6040830184611e9f565b949350505050565b7f4e487b71000000000000000000000000000000000000000000000000000000005f52601160045260245ffd5b5f61269a82611e11565b91506126a583611e11565b92508282019050808211156126bd576126bc612663565b5b92915050565b7f4172726179206c656e677468206d69736d6174636800000000000000000000005f82015250565b5f6126f7601583611d8b565b9150612702826126c3565b602082019050919050565b5f6020820190508181035f830152612724816126eb565b9050919050565b7f4e487b71000000000000000000000000000000000000000000000000000000005f52603260045260245ffd5b5f61276282611e11565b915061276d83611e11565b925082820261277b81611e11565b9150828204841483151761279257612791612663565b5b5092915050565b7f4e487b71000000000000000000000000000000000000000000000000000000005f52601260045260245ffd5b5f6127d082611e11565b91506127db83611e11565b9250826127eb576127ea612799565b5b828204905092915050565b5f819050919050565b61281061280b82611e11565b6127f6565b82525050565b5f819050919050565b61283061282b82611cce565b612816565b82525050565b5f61284182866127ff565b60208201915061285182856127ff565b602082019150612861828461281f565b600482019150819050949350505050565b5f819050815f5260205f209050919050565b5f6020601f8301049050919050565b5f82821b905092915050565b5f600883026128ce7fffffffffffffffffffffffffffffffffffffffffffffffffffffffffffffffff82612893565b6128d88683612893565b95508019841693508086168417925050509392505050565b5f819050919050565b5f61291361290e61290984611e11565b6128f0565b611e11565b9050919050565b5f819050919050565b61292c836128f9565b6129406129388261291a565b84845461289f565b825550505050565b5f90565b612954612948565b61295f818484612923565b505050565b5b81811015612982576129775f8261294c565b600181019050612965565b5050565b601f8211156129c75761299881612872565b6129a184612884565b810160208510156129b0578190505b6129c46129bc85612884565b830182612964565b50505b505050565b5f82821c905092915050565b5f6129e75f19846008026129cc565b1980831691505092915050565b5f6129ff83836129d8565b9150826002028217905092915050565b612a1882611d81565b67ffffffffffffffff811115612a3157612a30611f87565b5b612a3b82546125fe565b612a46828285612986565b5f60209050601f831160018114612a77575f8415612a65578287015190505b612a6f85826129f4565b865550612ad6565b601f198416612a8586612872565b5f5b82811015612aac57848901518255600182019150602085019450602081019050612a87565b86831015612ac95784890151612ac5601f8916826129d8565b8355505b6001600288020188555050505b505050505050565b5f81519050919050565b5f82825260208201905092915050565b5f612b0282612ade565b612b0c8185612ae8565b9350612b1c818560208601611d9b565b612b2581611da9565b840191505092915050565b5f608082019050612b435f830187611e9f565b612b506020830186611e9f565b612b5d6040830185612194565b8181036060830152612b6f8184612af8565b905095945050505050565b5f81519050612b8881611cf9565b92915050565b5f60208284031215612ba357612ba2611cc6565b5b5f612bb084828501612b7a565b91505092915050565b5f81905092915050565b5f612bcd82611d81565b612bd78185612bb9565b9350612be7818560208601611d9b565b80840191505092915050565b5f612bfe8285612bc3565b9150612c0a8284612bc3565b9150819050939250505056fea2646970667358221220d9c44b52f69ad304f672aa4c55274c8ad2ddd52401c23cab1b65cebfa94efe6564736f6c634300081a0033",
					"opcodes": "PUSH1 0x80 PUSH1 0x40 MSTORE PUSH2 0x1F4 PUSH1 0x8 SSTORE CALLVALUE DUP1 ISZERO PUSH2 0x15 JUMPI PUSH0 DUP1 REVERT JUMPDEST POP PUSH1 0x40 MLOAD PUSH2 0x3221 CODESIZE SUB DUP1 PUSH2 0x3221 DUP4 CODECOPY DUP2 DUP2 ADD PUSH1 0x40 MSTORE DUP2 ADD SWAP1 PUSH2 0x37 SWAP2 SWAP1 PUSH2 0x26C JUMP JUMPDEST DUP1 PUSH1 0x40 MLOAD DUP1 PUSH1 0x40 ADD PUSH1 0x40 MSTORE DUP1 PUSH1 0x8 DUP2 MSTORE PUSH1 0x20 ADD PUSH32 0x46616E63794E4654000000000000000000000000000000000000000000000000 DUP2 MSTORE POP PUSH1 0x40 MLOAD DUP1 PUSH1 0x40 ADD PUSH1 0x40 MSTORE DUP1 PUSH1 0x3 DUP2 MSTORE PUSH1 0x20 ADD PUSH32 0x464E540000000000000000000000000000000000000000000000000000000000 DUP2 MSTORE POP DUP2 PUSH0 SWAP1 DUP2 PUSH2 0xB2 SWAP2 SWAP1 PUSH2 0x4D1 JUMP JUMPDEST POP DUP1 PUSH1 0x1 SWAP1 DUP2 PUSH2 0xC2 SWAP2 SWAP1 PUSH2 0x4D1 JUMP JUMPDEST POP POP POP PUSH0 PUSH20 0xFFFFFFFFFFFFFFFFFFFFFFFFFFFFFFFFFFFFFFFF AND DUP2 PUSH20 0xFFFFFFFFFFFFFFFFFFFFFFFFFFFFFFFFFFFFFFFF AND SUB PUSH2 0x135 JUMPI PUSH0 PUSH1 0x40 MLOAD PUSH32 0x1E4FBDF700000000000000000000000000000000000000000000000000000000 DUP2 MSTORE PUSH1 0x4 ADD PUSH2 0x12C SWAP2 SWAP1 PUSH2 0x5AF JUMP JUMPDEST PUSH1 0x40 MLOAD DUP1 SWAP2 SUB SWAP1 REVERT JUMPDEST PUSH2 0x144 DUP2 PUSH2 0x14B PUSH1 0x20 SHL PUSH1 0x20 SHR JUMP JUMPDEST POP POP PUSH2 0x5C8 JUMP JUMPDEST PUSH0 PUSH1 0x7 PUSH0 SWAP1 SLOAD SWAP1 PUSH2 0x100 EXP SWAP1 DIV PUSH20 0xFFFFFFFFFFFFFFFFFFFFFFFFFFFFFFFFFFFFFFFF AND SWAP1 POP DUP2 PUSH1 0x7 PUSH0 PUSH2 0x100 EXP DUP2 SLOAD DUP2 PUSH20 0xFFFFFFFFFFFFFFFFFFFFFFFFFFFFFFFFFFFFFFFF MUL NOT AND SWAP1 DUP4 PUSH20 0xFFFFFFFFFFFFFFFFFFFFFFFFFFFFFFFFFFFFFFFF AND MUL OR SWAP1 SSTORE POP DUP2 PUSH20 0xFFFFFFFFFFFFFFFFFFFFFFFFFFFFFFFFFFFFFFFF AND DUP2 PUSH20 0xFFFFFFFFFFFFFFFFFFFFFFFFFFFFFFFFFFFFFFFF AND PUSH32 0x8BE0079C531659141344CD1FD0A4F28419497F9722A3DAAFE3B4186F6B6457E0 PUSH1 0x40 MLOAD PUSH1 0x40 MLOAD DUP1 SWAP2 SUB SWAP1 LOG3 POP POP JUMP JUMPDEST PUSH0 DUP1 REVERT JUMPDEST PUSH0 PUSH20 0xFFFFFFFFFFFFFFFFFFFFFFFFFFFFFFFFFFFFFFFF DUP3 AND SWAP1 POP SWAP2 SWAP1 POP JUMP JUMPDEST PUSH0 PUSH2 0x23B DUP3 PUSH2 0x212 JUMP JUMPDEST SWAP1 POP SWAP2 SWAP1 POP JUMP JUMPDEST PUSH2 0x24B DUP2 PUSH2 0x231 JUMP JUMPDEST DUP2 EQ PUSH2 0x255 JUMPI PUSH0 DUP1 REVERT JUMPDEST POP JUMP JUMPDEST PUSH0 DUP2 MLOAD SWAP1 POP PUSH2 0x266 DUP2 PUSH2 0x242 JUMP JUMPDEST SWAP3 SWAP2 POP POP JUMP JUMPDEST PUSH0 PUSH1 0x20 DUP3 DUP5 SUB SLT ISZERO PUSH2 0x281 JUMPI PUSH2 0x280 PUSH2 0x20E JUMP JUMPDEST JUMPDEST PUSH0 PUSH2 0x28E DUP5 DUP3 DUP6 ADD PUSH2 0x258 JUMP JUMPDEST SWAP2 POP POP SWAP3 SWAP2 POP POP JUMP JUMPDEST PUSH0 DUP2 MLOAD SWAP1 POP SWAP2 SWAP1 POP JUMP JUMPDEST PUSH32 0x4E487B7100000000000000000000000000000000000000000000000000000000 PUSH0 MSTORE PUSH1 0x41 PUSH1 0x4 MSTORE PUSH1 0x24 PUSH0 REVERT JUMPDEST PUSH32 0x4E487B7100000000000000000000000000000000000000000000000000000000 PUSH0 MSTORE PUSH1 0x22 PUSH1 0x4 MSTORE PUSH1 0x24 PUSH0 REVERT JUMPDEST PUSH0 PUSH1 0x2 DUP3 DIV SWAP1 POP PUSH1 0x1 DUP3 AND DUP1 PUSH2 0x312 JUMPI PUSH1 0x7F DUP3 AND SWAP2 POP JUMPDEST PUSH1 0x20 DUP3 LT DUP2 SUB PUSH2 0x325 JUMPI PUSH2 0x324 PUSH2 0x2CE JUMP JUMPDEST JUMPDEST POP SWAP2 SWAP1 POP JUMP JUMPDEST PUSH0 DUP2 SWAP1 POP DUP2 PUSH0 MSTORE PUSH1 0x20 PUSH0 KECCAK256 SWAP1 POP SWAP2 SWAP1 POP JUMP JUMPDEST PUSH0 PUSH1 0x20 PUSH1 0x1F DUP4 ADD DIV SWAP1 POP SWAP2 SWAP1 POP JUMP JUMPDEST PUSH0 DUP3 DUP3 SHL SWAP1 POP SWAP3 SWAP2 POP POP JUMP JUMPDEST PUSH0 PUSH1 0x8 DUP4 MUL PUSH2 0x387 PUSH32 0xFFFFFFFFFFFFFFFFFFFFFFFFFFFFFFFFFFFFFFFFFFFFFFFFFFFFFFFFFFFFFFFF DUP3 PUSH2 0x34C JUMP JUMPDEST PUSH2 0x391 DUP7 DUP4 PUSH2 0x34C JUMP JUMPDEST SWAP6 POP DUP1 NOT DUP5 AND SWAP4 POP DUP1 DUP7 AND DUP5 OR SWAP3 POP POP POP SWAP4 SWAP3 POP POP POP JUMP JUMPDEST PUSH0 DUP2 SWAP1 POP SWAP2 SWAP1 POP JUMP JUMPDEST PUSH0 DUP2 SWAP1 POP SWAP2 SWAP1 POP JUMP JUMPDEST PUSH0 PUSH2 0x3D5 PUSH2 0x3D0 PUSH2 0x3CB DUP5 PUSH2 0x3A9 JUMP JUMPDEST PUSH2 0x3B2 JUMP JUMPDEST PUSH2 0x3A9 JUMP JUMPDEST SWAP1 POP SWAP2 SWAP1 POP JUMP JUMPDEST PUSH0 DUP2 SWAP1 POP SWAP2 SWAP1 POP JUMP JUMPDEST PUSH2 0x3EE DUP4 PUSH2 0x3BB JUMP JUMPDEST PUSH2 0x402 PUSH2 0x3FA DUP3 PUSH2 0x3DC JUMP JUMPDEST DUP5 DUP5 SLOAD PUSH2 0x358 JUMP JUMPDEST DUP3 SSTORE POP POP POP POP JUMP JUMPDEST PUSH0 SWAP1 JUMP JUMPDEST PUSH2 0x416 PUSH2 0x40A JUMP JUMPDEST PUSH2 0x421 DUP2 DUP5 DUP5 PUSH2 0x3E5 JUMP JUMPDEST POP POP POP JUMP JUMPDEST JUMPDEST DUP2 DUP2 LT ISZERO PUSH2 0x444 JUMPI PUSH2 0x439 PUSH0 DUP3 PUSH2 0x40E JUMP JUMPDEST PUSH1 0x1 DUP2 ADD SWAP1 POP PUSH2 0x427 JUMP JUMPDEST POP POP JUMP JUMPDEST PUSH1 0x1F DUP3 GT ISZERO PUSH2 0x489 JUMPI PUSH2 0x45A DUP2 PUSH2 0x32B JUMP JUMPDEST PUSH2 0x463 DUP5 PUSH2 0x33D JUMP JUMPDEST DUP2 ADD PUSH1 0x20 DUP6 LT ISZERO PUSH2 0x472 JUMPI DUP2 SWAP1 POP JUMPDEST PUSH2 0x486 PUSH2 0x47E DUP6 PUSH2 0x33D JUMP JUMPDEST DUP4 ADD DUP3 PUSH2 0x426 JUMP JUMPDEST POP POP JUMPDEST POP POP POP JUMP JUMPDEST PUSH0 DUP3 DUP3 SHR SWAP1 POP SWAP3 SWAP2 POP POP JUMP JUMPDEST PUSH0 PUSH2 0x4A9 PUSH0 NOT DUP5 PUSH1 0x8 MUL PUSH2 0x48E JUMP JUMPDEST NOT DUP1 DUP4 AND SWAP2 POP POP SWAP3 SWAP2 POP POP JUMP JUMPDEST PUSH0 PUSH2 0x4C1 DUP4 DUP4 PUSH2 0x49A JUMP JUMPDEST SWAP2 POP DUP3 PUSH1 0x2 MUL DUP3 OR SWAP1 POP SWAP3 SWAP2 POP POP JUMP JUMPDEST PUSH2 0x4DA DUP3 PUSH2 0x297 JUMP JUMPDEST PUSH8 0xFFFFFFFFFFFFFFFF DUP2 GT ISZERO PUSH2 0x4F3 JUMPI PUSH2 0x4F2 PUSH2 0x2A1 JUMP JUMPDEST JUMPDEST PUSH2 0x4FD DUP3 SLOAD PUSH2 0x2FB JUMP JUMPDEST PUSH2 0x508 DUP3 DUP3 DUP6 PUSH2 0x448 JUMP JUMPDEST PUSH0 PUSH1 0x20 SWAP1 POP PUSH1 0x1F DUP4 GT PUSH1 0x1 DUP2 EQ PUSH2 0x539 JUMPI PUSH0 DUP5 ISZERO PUSH2 0x527 JUMPI DUP3 DUP8 ADD MLOAD SWAP1 POP JUMPDEST PUSH2 0x531 DUP6 DUP3 PUSH2 0x4B6 JUMP JUMPDEST DUP7 SSTORE POP PUSH2 0x598 JUMP JUMPDEST PUSH1 0x1F NOT DUP5 AND PUSH2 0x547 DUP7 PUSH2 0x32B JUMP JUMPDEST PUSH0 JUMPDEST DUP3 DUP2 LT ISZERO PUSH2 0x56E JUMPI DUP5 DUP10 ADD MLOAD DUP3 SSTORE PUSH1 0x1 DUP3 ADD SWAP2 POP PUSH1 0x20 DUP6 ADD SWAP5 POP PUSH1 0x20 DUP2 ADD SWAP1 POP PUSH2 0x549 JUMP JUMPDEST DUP7 DUP4 LT ISZERO PUSH2 0x58B JUMPI DUP5 DUP10 ADD MLOAD PUSH2 0x587 PUSH1 0x1F DUP10 AND DUP3 PUSH2 0x49A JUMP JUMPDEST DUP4 SSTORE POP JUMPDEST PUSH1 0x1 PUSH1 0x2 DUP9 MUL ADD DUP9 SSTORE POP POP POP JUMPDEST POP POP POP POP POP POP JUMP JUMPDEST PUSH2 0x5A9 DUP2 PUSH2 0x231 JUMP JUMPDEST DUP3 MSTORE POP POP JUMP JUMPDEST PUSH0 PUSH1 0x20 DUP3 ADD SWAP1 POP PUSH2 0x5C2 PUSH0 DUP4 ADD DUP5 PUSH2 0x5A0 JUMP JUMPDEST SWAP3 SWAP2 POP POP JUMP JUMPDEST PUSH2 0x2C4C DUP1 PUSH2 0x5D5 PUSH0 CODECOPY PUSH0 RETURN INVALID PUSH1 0x80 PUSH1 0x40 MSTORE CALLVALUE DUP1 ISZERO PUSH2 0xF JUMPI PUSH0 DUP1 REVERT JUMPDEST POP PUSH1 0x4 CALLDATASIZE LT PUSH2 0x14B JUMPI PUSH0 CALLDATALOAD PUSH1 0xE0 SHR DUP1 PUSH4 0x715018A6 GT PUSH2 0xC1 JUMPI DUP1 PUSH4 0xA22CB465 GT PUSH2 0x7A JUMPI DUP1 PUSH4 0xA22CB465 EQ PUSH2 0x385 JUMPI DUP1 PUSH4 0xB88D4FDE EQ PUSH2 0x3A1 JUMPI DUP1 PUSH4 0xC87B56DD EQ PUSH2 0x3BD JUMPI DUP1 PUSH4 0xCEF6D368 EQ PUSH2 0x3ED JUMPI DUP1 PUSH4 0xE985E9C5 EQ PUSH2 0x41E JUMPI DUP1 PUSH4 0xF2FDE38B EQ PUSH2 0x44E JUMPI PUSH2 0x14B JUMP JUMPDEST DUP1 PUSH4 0x715018A6 EQ PUSH2 0x2D5 JUMPI DUP1 PUSH4 0x7AAE3CCB EQ PUSH2 0x2DF JUMPI DUP1 PUSH4 0x8A71BB2D EQ PUSH2 0x30F JUMPI DUP1 PUSH4 0x8DA5CB5B EQ PUSH2 0x32D JUMPI DUP1 PUSH4 0x95D89B41 EQ PUSH2 0x34B JUMPI DUP1 PUSH4 0x9CAEA80A EQ PUSH2 0x369 JUMPI PUSH2 0x14B JUMP JUMPDEST DUP1 PUSH4 0x2923CE11 GT PUSH2 0x113 JUMPI DUP1 PUSH4 0x2923CE11 EQ PUSH2 0x205 JUMPI DUP1 PUSH4 0x42842E0E EQ PUSH2 0x221 JUMPI DUP1 PUSH4 0x42966C68 EQ PUSH2 0x23D JUMPI DUP1 PUSH4 0x5146EA0E EQ PUSH2 0x259 JUMPI DUP1 PUSH4 0x6352211E EQ PUSH2 0x275 JUMPI DUP1 PUSH4 0x70A08231 EQ PUSH2 0x2A5 JUMPI PUSH2 0x14B JUMP JUMPDEST DUP1 PUSH4 0x1FFC9A7 EQ PUSH2 0x14F JUMPI DUP1 PUSH4 0x6FDDE03 EQ PUSH2 0x17F JUMPI DUP1 PUSH4 0x81812FC EQ PUSH2 0x19D JUMPI DUP1 PUSH4 0x95EA7B3 EQ PUSH2 0x1CD JUMPI DUP1 PUSH4 0x23B872DD EQ PUSH2 0x1E9 JUMPI JUMPDEST PUSH0 DUP1 REVERT JUMPDEST PUSH2 0x169 PUSH1 0x4 DUP1 CALLDATASIZE SUB DUP2 ADD SWAP1 PUSH2 0x164 SWAP2 SWAP1 PUSH2 0x1D23 JUMP JUMPDEST PUSH2 0x46A JUMP JUMPDEST PUSH1 0x40 MLOAD PUSH2 0x176 SWAP2 SWAP1 PUSH2 0x1D68 JUMP JUMPDEST PUSH1 0x40 MLOAD DUP1 SWAP2 SUB SWAP1 RETURN JUMPDEST PUSH2 0x187 PUSH2 0x47B JUMP JUMPDEST PUSH1 0x40 MLOAD PUSH2 0x194 SWAP2 SWAP1 PUSH2 0x1DF1 JUMP JUMPDEST PUSH1 0x40 MLOAD DUP1 SWAP2 SUB SWAP1 RETURN JUMPDEST PUSH2 0x1B7 PUSH1 0x4 DUP1 CALLDATASIZE SUB DUP2 ADD SWAP1 PUSH2 0x1B2 SWAP2 SWAP1 PUSH2 0x1E44 JUMP JUMPDEST PUSH2 0x50A JUMP JUMPDEST PUSH1 0x40 MLOAD PUSH2 0x1C4 SWAP2 SWAP1 PUSH2 0x1EAE JUMP JUMPDEST PUSH1 0x40 MLOAD DUP1 SWAP2 SUB SWAP1 RETURN JUMPDEST PUSH2 0x1E7 PUSH1 0x4 DUP1 CALLDATASIZE SUB DUP2 ADD SWAP1 PUSH2 0x1E2 SWAP2 SWAP1 PUSH2 0x1EF1 JUMP JUMPDEST PUSH2 0x525 JUMP JUMPDEST STOP JUMPDEST PUSH2 0x203 PUSH1 0x4 DUP1 CALLDATASIZE SUB DUP2 ADD SWAP1 PUSH2 0x1FE SWAP2 SWAP1 PUSH2 0x1F2F JUMP JUMPDEST PUSH2 0x53B JUMP JUMPDEST STOP JUMPDEST PUSH2 0x21F PUSH1 0x4 DUP1 CALLDATASIZE SUB DUP2 ADD SWAP1 PUSH2 0x21A SWAP2 SWAP1 PUSH2 0x20AB JUMP JUMPDEST PUSH2 0x63A JUMP JUMPDEST STOP JUMPDEST PUSH2 0x23B PUSH1 0x4 DUP1 CALLDATASIZE SUB DUP2 ADD SWAP1 PUSH2 0x236 SWAP2 SWAP1 PUSH2 0x1F2F JUMP JUMPDEST PUSH2 0x66A JUMP JUMPDEST STOP JUMPDEST PUSH2 0x257 PUSH1 0x4 DUP1 CALLDATASIZE SUB DUP2 ADD SWAP1 PUSH2 0x252 SWAP2 SWAP1 PUSH2 0x1E44 JUMP JUMPDEST PUSH2 0x689 JUMP JUMPDEST STOP JUMPDEST PUSH2 0x273 PUSH1 0x4 DUP1 CALLDATASIZE SUB DUP2 ADD SWAP1 PUSH2 0x26E SWAP2 SWAP1 PUSH2 0x212B JUMP JUMPDEST PUSH2 0x69F JUMP JUMPDEST STOP JUMPDEST PUSH2 0x28F PUSH1 0x4 DUP1 CALLDATASIZE SUB DUP2 ADD SWAP1 PUSH2 0x28A SWAP2 SWAP1 PUSH2 0x1E44 JUMP JUMPDEST PUSH2 0x6D2 JUMP JUMPDEST PUSH1 0x40 MLOAD PUSH2 0x29C SWAP2 SWAP1 PUSH2 0x1EAE JUMP JUMPDEST PUSH1 0x40 MLOAD DUP1 SWAP2 SUB SWAP1 RETURN JUMPDEST PUSH2 0x2BF PUSH1 0x4 DUP1 CALLDATASIZE SUB DUP2 ADD SWAP1 PUSH2 0x2BA SWAP2 SWAP1 PUSH2 0x2169 JUMP JUMPDEST PUSH2 0x6E3 JUMP JUMPDEST PUSH1 0x40 MLOAD PUSH2 0x2CC SWAP2 SWAP1 PUSH2 0x21A3 JUMP JUMPDEST PUSH1 0x40 MLOAD DUP1 SWAP2 SUB SWAP1 RETURN JUMPDEST PUSH2 0x2DD PUSH2 0x799 JUMP JUMPDEST STOP JUMPDEST PUSH2 0x2F9 PUSH1 0x4 DUP1 CALLDATASIZE SUB DUP2 ADD SWAP1 PUSH2 0x2F4 SWAP2 SWAP1 PUSH2 0x1E44 JUMP JUMPDEST PUSH2 0x7AC JUMP JUMPDEST PUSH1 0x40 MLOAD PUSH2 0x306 SWAP2 SWAP1 PUSH2 0x21A3 JUMP JUMPDEST PUSH1 0x40 MLOAD DUP1 SWAP2 SUB SWAP1 RETURN JUMPDEST PUSH2 0x317 PUSH2 0x7C1 JUMP JUMPDEST PUSH1 0x40 MLOAD PUSH2 0x324 SWAP2 SWAP1 PUSH2 0x21A3 JUMP JUMPDEST PUSH1 0x40 MLOAD DUP1 SWAP2 SUB SWAP1 RETURN JUMPDEST PUSH2 0x335 PUSH2 0x7C7 JUMP JUMPDEST PUSH1 0x40 MLOAD PUSH2 0x342 SWAP2 SWAP1 PUSH2 0x1EAE JUMP JUMPDEST PUSH1 0x40 MLOAD DUP1 SWAP2 SUB SWAP1 RETURN JUMPDEST PUSH2 0x353 PUSH2 0x7EF JUMP JUMPDEST PUSH1 0x40 MLOAD PUSH2 0x360 SWAP2 SWAP1 PUSH2 0x1DF1 JUMP JUMPDEST PUSH1 0x40 MLOAD DUP1 SWAP2 SUB SWAP1 RETURN JUMPDEST PUSH2 0x383 PUSH1 0x4 DUP1 CALLDATASIZE SUB DUP2 ADD SWAP1 PUSH2 0x37E SWAP2 SWAP1 PUSH2 0x235E JUMP JUMPDEST PUSH2 0x87F JUMP JUMPDEST STOP JUMPDEST PUSH2 0x39F PUSH1 0x4 DUP1 CALLDATASIZE SUB DUP2 ADD SWAP1 PUSH2 0x39A SWAP2 SWAP1 PUSH2 0x2410 JUMP JUMPDEST PUSH2 0x94B JUMP JUMPDEST STOP JUMPDEST PUSH2 0x3BB PUSH1 0x4 DUP1 CALLDATASIZE SUB DUP2 ADD SWAP1 PUSH2 0x3B6 SWAP2 SWAP1 PUSH2 0x24EC JUMP JUMPDEST PUSH2 0x961 JUMP JUMPDEST STOP JUMPDEST PUSH2 0x3D7 PUSH1 0x4 DUP1 CALLDATASIZE SUB DUP2 ADD SWAP1 PUSH2 0x3D2 SWAP2 SWAP1 PUSH2 0x1E44 JUMP JUMPDEST PUSH2 0x97E JUMP JUMPDEST PUSH1 0x40 MLOAD PUSH2 0x3E4 SWAP2 SWAP1 PUSH2 0x1DF1 JUMP JUMPDEST PUSH1 0x40 MLOAD DUP1 SWAP2 SUB SWAP1 RETURN JUMPDEST PUSH2 0x407 PUSH1 0x4 DUP1 CALLDATASIZE SUB DUP2 ADD SWAP1 PUSH2 0x402 SWAP2 SWAP1 PUSH2 0x1E44 JUMP JUMPDEST PUSH2 0x990 JUMP JUMPDEST PUSH1 0x40 MLOAD PUSH2 0x415 SWAP3 SWAP2 SWAP1 PUSH2 0x256C JUMP JUMPDEST PUSH1 0x40 MLOAD DUP1 SWAP2 SUB SWAP1 RETURN JUMPDEST PUSH2 0x438 PUSH1 0x4 DUP1 CALLDATASIZE SUB DUP2 ADD SWAP1 PUSH2 0x433 SWAP2 SWAP1 PUSH2 0x2593 JUMP JUMPDEST PUSH2 0x9BE JUMP JUMPDEST PUSH1 0x40 MLOAD PUSH2 0x445 SWAP2 SWAP1 PUSH2 0x1D68 JUMP JUMPDEST PUSH1 0x40 MLOAD DUP1 SWAP2 SUB SWAP1 RETURN JUMPDEST PUSH2 0x468 PUSH1 0x4 DUP1 CALLDATASIZE SUB DUP2 ADD SWAP1 PUSH2 0x463 SWAP2 SWAP1 PUSH2 0x2169 JUMP JUMPDEST PUSH2 0xA4C JUMP JUMPDEST STOP JUMPDEST PUSH0 PUSH2 0x474 DUP3 PUSH2 0xAD0 JUMP JUMPDEST SWAP1 POP SWAP2 SWAP1 POP JUMP JUMPDEST PUSH1 0x60 PUSH0 DUP1 SLOAD PUSH2 0x489 SWAP1 PUSH2 0x25FE JUMP JUMPDEST DUP1 PUSH1 0x1F ADD PUSH1 0x20 DUP1 SWAP2 DIV MUL PUSH1 0x20 ADD PUSH1 0x40 MLOAD SWAP1 DUP2 ADD PUSH1 0x40 MSTORE DUP1 SWAP3 SWAP2 SWAP1 DUP2 DUP2 MSTORE PUSH1 0x20 ADD DUP3 DUP1 SLOAD PUSH2 0x4B5 SWAP1 PUSH2 0x25FE JUMP JUMPDEST DUP1 ISZERO PUSH2 0x500 JUMPI DUP1 PUSH1 0x1F LT PUSH2 0x4D7 JUMPI PUSH2 0x100 DUP1 DUP4 SLOAD DIV MUL DUP4 MSTORE SWAP2 PUSH1 0x20 ADD SWAP2 PUSH2 0x500 JUMP JUMPDEST DUP3 ADD SWAP2 SWAP1 PUSH0 MSTORE PUSH1 0x20 PUSH0 KECCAK256 SWAP1 JUMPDEST DUP2 SLOAD DUP2 MSTORE SWAP1 PUSH1 0x1 ADD SWAP1 PUSH1 0x20 ADD DUP1 DUP4 GT PUSH2 0x4E3 JUMPI DUP3 SWAP1 SUB PUSH1 0x1F AND DUP3 ADD SWAP2 JUMPDEST POP POP POP POP POP SWAP1 POP SWAP1 JUMP JUMPDEST PUSH0 PUSH2 0x514 DUP3 PUSH2 0xB30 JUMP JUMPDEST POP PUSH2 0x51E DUP3 PUSH2 0xBB6 JUMP JUMPDEST SWAP1 POP SWAP2 SWAP1 POP JUMP JUMPDEST PUSH2 0x537 DUP3 DUP3 PUSH2 0x532 PUSH2 0xBEF JUMP JUMPDEST PUSH2 0xBF6 JUMP JUMPDEST POP POP JUMP JUMPDEST PUSH0 PUSH20 0xFFFFFFFFFFFFFFFFFFFFFFFFFFFFFFFFFFFFFFFF AND DUP3 PUSH20 0xFFFFFFFFFFFFFFFFFFFFFFFFFFFFFFFFFFFFFFFF AND SUB PUSH2 0x5AB JUMPI PUSH0 PUSH1 0x40 MLOAD PUSH32 0x64A0AE9200000000000000000000000000000000000000000000000000000000 DUP2 MSTORE PUSH1 0x4 ADD PUSH2 0x5A2 SWAP2 SWAP1 PUSH2 0x1EAE JUMP JUMPDEST PUSH1 0x40 MLOAD DUP1 SWAP2 SUB SWAP1 REVERT JUMPDEST PUSH0 PUSH2 0x5BE DUP4 DUP4 PUSH2 0x5B9 PUSH2 0xBEF JUMP JUMPDEST PUSH2 0xC08 JUMP JUMPDEST SWAP1 POP DUP4 PUSH20 0xFFFFFFFFFFFFFFFFFFFFFFFFFFFFFFFFFFFFFFFF AND DUP2 PUSH20 0xFFFFFFFFFFFFFFFFFFFFFFFFFFFFFFFFFFFFFFFF AND EQ PUSH2 0x634 JUMPI DUP4 DUP3 DUP3 PUSH1 0x40 MLOAD PUSH32 0x64283D7B00000000000000000000000000000000000000000000000000000000 DUP2 MSTORE PUSH1 0x4 ADD PUSH2 0x62B SWAP4 SWAP3 SWAP2 SWAP1 PUSH2 0x262E JUMP JUMPDEST PUSH1 0x40 MLOAD DUP1 SWAP2 SUB SWAP1 REVERT JUMPDEST POP POP POP POP JUMP JUMPDEST PUSH2 0x642 PUSH2 0xE13 JUMP JUMPDEST PUSH0 PUSH2 0x64D DUP4 DUP4 PUSH2 0xE9A JUMP JUMPDEST SWAP1 POP PUSH2 0x659 DUP6 DUP3 PUSH2 0xEF3 JUMP JUMPDEST PUSH2 0x663 DUP2 DUP6 PUSH2 0xF10 JUMP JUMPDEST POP POP POP POP POP JUMP JUMPDEST PUSH2 0x684 DUP4 DUP4 DUP4 PUSH1 0x40 MLOAD DUP1 PUSH1 0x20 ADD PUSH1 0x40 MSTORE DUP1 PUSH0 DUP2 MSTORE POP PUSH2 0x961 JUMP JUMPDEST POP POP POP JUMP JUMPDEST PUSH2 0x69B PUSH0 DUP3 PUSH2 0x696 PUSH2 0xBEF JUMP JUMPDEST PUSH2 0xC08 JUMP JUMPDEST POP POP JUMP JUMPDEST PUSH2 0x6A7 PUSH2 0xE13 JUMP JUMPDEST DUP1 PUSH1 0x9 PUSH0 DUP5 DUP2 MSTORE PUSH1 0x20 ADD SWAP1 DUP2 MSTORE PUSH1 0x20 ADD PUSH0 KECCAK256 PUSH0 DUP3 DUP3 SLOAD PUSH2 0x6C7 SWAP2 SWAP1 PUSH2 0x2690 JUMP JUMPDEST SWAP3 POP POP DUP2 SWAP1 SSTORE POP POP POP JUMP JUMPDEST PUSH0 PUSH2 0x6DC DUP3 PUSH2 0xB30 JUMP JUMPDEST SWAP1 POP SWAP2 SWAP1 POP JUMP JUMPDEST PUSH0 DUP1 PUSH20 0xFFFFFFFFFFFFFFFFFFFFFFFFFFFFFFFFFFFFFFFF AND DUP3 PUSH20 0xFFFFFFFFFFFFFFFFFFFFFFFFFFFFFFFFFFFFFFFF AND SUB PUSH2 0x754 JUMPI PUSH0 PUSH1 0x40 MLOAD PUSH32 0x89C62B6400000000000000000000000000000000000000000000000000000000 DUP2 MSTORE PUSH1 0x4 ADD PUSH2 0x74B SWAP2 SWAP1 PUSH2 0x1EAE JUMP JUMPDEST PUSH1 0x40 MLOAD DUP1 SWAP2 SUB SWAP1 REVERT JUMPDEST PUSH1 0x3 PUSH0 DUP4 PUSH20 0xFFFFFFFFFFFFFFFFFFFFFFFFFFFFFFFFFFFFFFFF AND PUSH20 0xFFFFFFFFFFFFFFFFFFFFFFFFFFFFFFFFFFFFFFFF AND DUP2 MSTORE PUSH1 0x20 ADD SWAP1 DUP2 MSTORE PUSH1 0x20 ADD PUSH0 KECCAK256 SLOAD SWAP1 POP SWAP2 SWAP1 POP JUMP JUMPDEST PUSH2 0x7A1 PUSH2 0xE13 JUMP JUMPDEST PUSH2 0x7AA PUSH0 PUSH2 0xF6A JUMP JUMPDEST JUMP JUMPDEST PUSH1 0x9 PUSH1 0x20 MSTORE DUP1 PUSH0 MSTORE PUSH1 0x40 PUSH0 KECCAK256 PUSH0 SWAP2 POP SWAP1 POP SLOAD DUP2 JUMP JUMPDEST PUSH1 0x8 SLOAD DUP2 JUMP JUMPDEST PUSH0 PUSH1 0x7 PUSH0 SWAP1 SLOAD SWAP1 PUSH2 0x100 EXP SWAP1 DIV PUSH20 0xFFFFFFFFFFFFFFFFFFFFFFFFFFFFFFFFFFFFFFFF AND SWAP1 POP SWAP1 JUMP JUMPDEST PUSH1 0x60 PUSH1 0x1 DUP1 SLOAD PUSH2 0x7FE SWAP1 PUSH2 0x25FE JUMP JUMPDEST DUP1 PUSH1 0x1F ADD PUSH1 0x20 DUP1 SWAP2 DIV MUL PUSH1 0x20 ADD PUSH1 0x40 MLOAD SWAP1 DUP2 ADD PUSH1 0x40 MSTORE DUP1 SWAP3 SWAP2 SWAP1 DUP2 DUP2 MSTORE PUSH1 0x20 ADD DUP3 DUP1 SLOAD PUSH2 0x82A SWAP1 PUSH2 0x25FE JUMP JUMPDEST DUP1 ISZERO PUSH2 0x875 JUMPI DUP1 PUSH1 0x1F LT PUSH2 0x84C JUMPI PUSH2 0x100 DUP1 DUP4 SLOAD DIV MUL DUP4 MSTORE SWAP2 PUSH1 0x20 ADD SWAP2 PUSH2 0x875 JUMP JUMPDEST DUP3 ADD SWAP2 SWAP1 PUSH0 MSTORE PUSH1 0x20 PUSH0 KECCAK256 SWAP1 JUMPDEST DUP2 SLOAD DUP2 MSTORE SWAP1 PUSH1 0x1 ADD SWAP1 PUSH1 0x20 ADD DUP1 DUP4 GT PUSH2 0x858 JUMPI DUP3 SWAP1 SUB PUSH1 0x1F AND DUP3 ADD SWAP2 JUMPDEST POP POP POP POP POP SWAP1 POP SWAP1 JUMP JUMPDEST PUSH2 0x887 PUSH2 0xE13 JUMP JUMPDEST DUP1 MLOAD DUP3 MLOAD EQ PUSH2 0x8CB JUMPI PUSH1 0x40 MLOAD PUSH32 0x8C379A000000000000000000000000000000000000000000000000000000000 DUP2 MSTORE PUSH1 0x4 ADD PUSH2 0x8C2 SWAP1 PUSH2 0x270D JUMP JUMPDEST PUSH1 0x40 MLOAD DUP1 SWAP2 SUB SWAP1 REVERT JUMPDEST PUSH0 JUMPDEST DUP3 MLOAD DUP2 LT ISZERO PUSH2 0x945 JUMPI PUSH2 0x8FA DUP5 DUP5 DUP4 DUP2 MLOAD DUP2 LT PUSH2 0x8ED JUMPI PUSH2 0x8EC PUSH2 0x272B JUMP JUMPDEST JUMPDEST PUSH1 0x20 MUL PUSH1 0x20 ADD ADD MLOAD PUSH2 0xEF3 JUMP JUMPDEST PUSH2 0x938 DUP4 DUP3 DUP2 MLOAD DUP2 LT PUSH2 0x910 JUMPI PUSH2 0x90F PUSH2 0x272B JUMP JUMPDEST JUMPDEST PUSH1 0x20 MUL PUSH1 0x20 ADD ADD MLOAD DUP4 DUP4 DUP2 MLOAD DUP2 LT PUSH2 0x92B JUMPI PUSH2 0x92A PUSH2 0x272B JUMP JUMPDEST JUMPDEST PUSH1 0x20 MUL PUSH1 0x20 ADD ADD MLOAD PUSH2 0xF10 JUMP JUMPDEST DUP1 DUP1 PUSH1 0x1 ADD SWAP2 POP POP PUSH2 0x8CD JUMP JUMPDEST POP POP POP POP JUMP JUMPDEST PUSH2 0x95D PUSH2 0x956 PUSH2 0xBEF JUMP JUMPDEST DUP4 DUP4 PUSH2 0x102D JUMP JUMPDEST POP POP JUMP JUMPDEST PUSH2 0x96C DUP5 DUP5 DUP5 PUSH2 0x53B JUMP JUMPDEST PUSH2 0x978 DUP5 DUP5 DUP5 DUP5 PUSH2 0x1196 JUMP JUMPDEST POP POP POP POP JUMP JUMPDEST PUSH1 0x60 PUSH2 0x989 DUP3 PUSH2 0x1348 JUMP JUMPDEST SWAP1 POP SWAP2 SWAP1 POP JUMP JUMPDEST PUSH0 DUP1 PUSH2 0x99A PUSH2 0x7C7 JUMP JUMPDEST PUSH2 0x2710 PUSH1 0x8 SLOAD DUP6 PUSH2 0x9AB SWAP2 SWAP1 PUSH2 0x2758 JUMP JUMPDEST PUSH2 0x9B5 SWAP2 SWAP1 PUSH2 0x27C6 JUMP JUMPDEST SWAP2 POP SWAP2 POP SWAP2 POP SWAP2 JUMP JUMPDEST PUSH0 PUSH1 0x5 PUSH0 DUP5 PUSH20 0xFFFFFFFFFFFFFFFFFFFFFFFFFFFFFFFFFFFFFFFF AND PUSH20 0xFFFFFFFFFFFFFFFFFFFFFFFFFFFFFFFFFFFFFFFF AND DUP2 MSTORE PUSH1 0x20 ADD SWAP1 DUP2 MSTORE PUSH1 0x20 ADD PUSH0 KECCAK256 PUSH0 DUP4 PUSH20 0xFFFFFFFFFFFFFFFFFFFFFFFFFFFFFFFFFFFFFFFF AND PUSH20 0xFFFFFFFFFFFFFFFFFFFFFFFFFFFFFFFFFFFFFFFF AND DUP2 MSTORE PUSH1 0x20 ADD SWAP1 DUP2 MSTORE PUSH1 0x20 ADD PUSH0 KECCAK256 PUSH0 SWAP1 SLOAD SWAP1 PUSH2 0x100 EXP SWAP1 DIV PUSH1 0xFF AND SWAP1 POP SWAP3 SWAP2 POP POP JUMP JUMPDEST PUSH2 0xA54 PUSH2 0xE13 JUMP JUMPDEST PUSH0 PUSH20 0xFFFFFFFFFFFFFFFFFFFFFFFFFFFFFFFFFFFFFFFF AND DUP2 PUSH20 0xFFFFFFFFFFFFFFFFFFFFFFFFFFFFFFFFFFFFFFFF AND SUB PUSH2 0xAC4 JUMPI PUSH0 PUSH1 0x40 MLOAD PUSH32 0x1E4FBDF700000000000000000000000000000000000000000000000000000000 DUP2 MSTORE PUSH1 0x4 ADD PUSH2 0xABB SWAP2 SWAP1 PUSH2 0x1EAE JUMP JUMPDEST PUSH1 0x40 MLOAD DUP1 SWAP2 SUB SWAP1 REVERT JUMPDEST PUSH2 0xACD DUP2 PUSH2 0xF6A JUMP JUMPDEST POP JUMP JUMPDEST PUSH0 PUSH4 0x49064906 PUSH1 0xE0 SHL PUSH28 0xFFFFFFFFFFFFFFFFFFFFFFFFFFFFFFFFFFFFFFFFFFFFFFFFFFFFFFFF NOT AND DUP3 PUSH28 0xFFFFFFFFFFFFFFFFFFFFFFFFFFFFFFFFFFFFFFFFFFFFFFFFFFFFFFFF NOT AND EQ DUP1 PUSH2 0xB29 JUMPI POP PUSH2 0xB28 DUP3 PUSH2 0x1453 JUMP JUMPDEST JUMPDEST SWAP1 POP SWAP2 SWAP1 POP JUMP JUMPDEST PUSH0 DUP1 PUSH2 0xB3B DUP4 PUSH2 0x1534 JUMP JUMPDEST SWAP1 POP PUSH0 PUSH20 0xFFFFFFFFFFFFFFFFFFFFFFFFFFFFFFFFFFFFFFFF AND DUP2 PUSH20 0xFFFFFFFFFFFFFFFFFFFFFFFFFFFFFFFFFFFFFFFF AND SUB PUSH2 0xBAD JUMPI DUP3 PUSH1 0x40 MLOAD PUSH32 0x7E27328900000000000000000000000000000000000000000000000000000000 DUP2 MSTORE PUSH1 0x4 ADD PUSH2 0xBA4 SWAP2 SWAP1 PUSH2 0x21A3 JUMP JUMPDEST PUSH1 0x40 MLOAD DUP1 SWAP2 SUB SWAP1 REVERT JUMPDEST DUP1 SWAP2 POP POP SWAP2 SWAP1 POP JUMP JUMPDEST PUSH0 PUSH1 0x4 PUSH0 DUP4 DUP2 MSTORE PUSH1 0x20 ADD SWAP1 DUP2 MSTORE PUSH1 0x20 ADD PUSH0 KECCAK256 PUSH0 SWAP1 SLOAD SWAP1 PUSH2 0x100 EXP SWAP1 DIV PUSH20 0xFFFFFFFFFFFFFFFFFFFFFFFFFFFFFFFFFFFFFFFF AND SWAP1 POP SWAP2 SWAP1 POP JUMP JUMPDEST PUSH0 CALLER SWAP1 POP SWAP1 JUMP JUMPDEST PUSH2 0xC03 DUP4 DUP4 DUP4 PUSH1 0x1 PUSH2 0x156D JUMP JUMPDEST POP POP POP JUMP JUMPDEST PUSH0 DUP1 PUSH2 0xC13 DUP5 PUSH2 0x1534 JUMP JUMPDEST SWAP1 POP PUSH0 PUSH20 0xFFFFFFFFFFFFFFFFFFFFFFFFFFFFFFFFFFFFFFFF AND DUP4 PUSH20 0xFFFFFFFFFFFFFFFFFFFFFFFFFFFFFFFFFFFFFFFF AND EQ PUSH2 0xC54 JUMPI PUSH2 0xC53 DUP2 DUP5 DUP7 PUSH2 0x172C JUMP JUMPDEST JUMPDEST PUSH0 PUSH20 0xFFFFFFFFFFFFFFFFFFFFFFFFFFFFFFFFFFFFFFFF AND DUP2 PUSH20 0xFFFFFFFFFFFFFFFFFFFFFFFFFFFFFFFFFFFFFFFF AND EQ PUSH2 0xCDF JUMPI PUSH2 0xC93 PUSH0 DUP6 PUSH0 DUP1 PUSH2 0x156D JUMP JUMPDEST PUSH1 0x1 PUSH1 0x3 PUSH0 DUP4 PUSH20 0xFFFFFFFFFFFFFFFFFFFFFFFFFFFFFFFFFFFFFFFF AND PUSH20 0xFFFFFFFFFFFFFFFFFFFFFFFFFFFFFFFFFFFFFFFF AND DUP2 MSTORE PUSH1 0x20 ADD SWAP1 DUP2 MSTORE PUSH1 0x20 ADD PUSH0 KECCAK256 PUSH0 DUP3 DUP3 SLOAD SUB SWAP3 POP POP DUP2 SWAP1 SSTORE POP JUMPDEST PUSH0 PUSH20 0xFFFFFFFFFFFFFFFFFFFFFFFFFFFFFFFFFFFFFFFF AND DUP6 PUSH20 0xFFFFFFFFFFFFFFFFFFFFFFFFFFFFFFFFFFFFFFFF AND EQ PUSH2 0xD5E JUMPI PUSH1 0x1 PUSH1 0x3 PUSH0 DUP8 PUSH20 0xFFFFFFFFFFFFFFFFFFFFFFFFFFFFFFFFFFFFFFFF AND PUSH20 0xFFFFFFFFFFFFFFFFFFFFFFFFFFFFFFFFFFFFFFFF AND DUP2 MSTORE PUSH1 0x20 ADD SWAP1 DUP2 MSTORE PUSH1 0x20 ADD PUSH0 KECCAK256 PUSH0 DUP3 DUP3 SLOAD ADD SWAP3 POP POP DUP2 SWAP1 SSTORE POP JUMPDEST DUP5 PUSH1 0x2 PUSH0 DUP7 DUP2 MSTORE PUSH1 0x20 ADD SWAP1 DUP2 MSTORE PUSH1 0x20 ADD PUSH0 KECCAK256 PUSH0 PUSH2 0x100 EXP DUP2 SLOAD DUP2 PUSH20 0xFFFFFFFFFFFFFFFFFFFFFFFFFFFFFFFFFFFFFFFF MUL NOT AND SWAP1 DUP4 PUSH20 0xFFFFFFFFFFFFFFFFFFFFFFFFFFFFFFFFFFFFFFFF AND MUL OR SWAP1 SSTORE POP DUP4 DUP6 PUSH20 0xFFFFFFFFFFFFFFFFFFFFFFFFFFFFFFFFFFFFFFFF AND DUP3 PUSH20 0xFFFFFFFFFFFFFFFFFFFFFFFFFFFFFFFFFFFFFFFF AND PUSH32 0xDDF252AD1BE2C89B69C2B068FC378DAA952BA7F163C4A11628F55A4DF523B3EF PUSH1 0x40 MLOAD PUSH1 0x40 MLOAD DUP1 SWAP2 SUB SWAP1 LOG4 DUP1 SWAP2 POP POP SWAP4 SWAP3 POP POP POP JUMP JUMPDEST PUSH2 0xE1B PUSH2 0xBEF JUMP JUMPDEST PUSH20 0xFFFFFFFFFFFFFFFFFFFFFFFFFFFFFFFFFFFFFFFF AND PUSH2 0xE39 PUSH2 0x7C7 JUMP JUMPDEST PUSH20 0xFFFFFFFFFFFFFFFFFFFFFFFFFFFFFFFFFFFFFFFF AND EQ PUSH2 0xE98 JUMPI PUSH2 0xE5C PUSH2 0xBEF JUMP JUMPDEST PUSH1 0x40 MLOAD PUSH32 0x118CDAA700000000000000000000000000000000000000000000000000000000 DUP2 MSTORE PUSH1 0x4 ADD PUSH2 0xE8F SWAP2 SWAP1 PUSH2 0x1EAE JUMP JUMPDEST PUSH1 0x40 MLOAD DUP1 SWAP2 SUB SWAP1 REVERT JUMPDEST JUMP JUMPDEST PUSH0 DUP3 DUP3 PUSH0 CALLDATALOAD PUSH32 0xFFFFFFFF00000000000000000000000000000000000000000000000000000000 AND PUSH1 0x40 MLOAD PUSH1 0x20 ADD PUSH2 0xED3 SWAP4 SWAP3 SWAP2 SWAP1 PUSH2 0x2836 JUMP JUMPDEST PUSH1 0x40 MLOAD PUSH1 0x20 DUP2 DUP4 SUB SUB DUP2 MSTORE SWAP1 PUSH1 0x40 MSTORE DUP1 MLOAD SWAP1 PUSH1 0x20 ADD KECCAK256 PUSH0 SHR SWAP1 POP SWAP3 SWAP2 POP POP JUMP JUMPDEST PUSH2 0xF0C DUP3 DUP3 PUSH1 0x40 MLOAD DUP1 PUSH1 0x20 ADD PUSH1 0x40 MSTORE DUP1 PUSH0 DUP2 MSTORE POP PUSH2 0x17EF JUMP JUMPDEST POP POP JUMP JUMPDEST DUP1 PUSH1 0x6 PUSH0 DUP5 DUP2 MSTORE PUSH1 0x20 ADD SWAP1 DUP2 MSTORE PUSH1 0x20 ADD PUSH0 KECCAK256 SWAP1 DUP2 PUSH2 0xF2E SWAP2 SWAP1 PUSH2 0x2A0F JUMP JUMPDEST POP PUSH32 0xF8E1A15ABA9398E019F0B49DF1A4FDE98EE17AE345CB5F6B5E2C27F5033E8CE7 DUP3 PUSH1 0x40 MLOAD PUSH2 0xF5E SWAP2 SWAP1 PUSH2 0x21A3 JUMP JUMPDEST PUSH1 0x40 MLOAD DUP1 SWAP2 SUB SWAP1 LOG1 POP POP JUMP JUMPDEST PUSH0 PUSH1 0x7 PUSH0 SWAP1 SLOAD SWAP1 PUSH2 0x100 EXP SWAP1 DIV PUSH20 0xFFFFFFFFFFFFFFFFFFFFFFFFFFFFFFFFFFFFFFFF AND SWAP1 POP DUP2 PUSH1 0x7 PUSH0 PUSH2 0x100 EXP DUP2 SLOAD DUP2 PUSH20 0xFFFFFFFFFFFFFFFFFFFFFFFFFFFFFFFFFFFFFFFF MUL NOT AND SWAP1 DUP4 PUSH20 0xFFFFFFFFFFFFFFFFFFFFFFFFFFFFFFFFFFFFFFFF AND MUL OR SWAP1 SSTORE POP DUP2 PUSH20 0xFFFFFFFFFFFFFFFFFFFFFFFFFFFFFFFFFFFFFFFF AND DUP2 PUSH20 0xFFFFFFFFFFFFFFFFFFFFFFFFFFFFFFFFFFFFFFFF AND PUSH32 0x8BE0079C531659141344CD1FD0A4F28419497F9722A3DAAFE3B4186F6B6457E0 PUSH1 0x40 MLOAD PUSH1 0x40 MLOAD DUP1 SWAP2 SUB SWAP1 LOG3 POP POP JUMP JUMPDEST PUSH0 PUSH20 0xFFFFFFFFFFFFFFFFFFFFFFFFFFFFFFFFFFFFFFFF AND DUP3 PUSH20 0xFFFFFFFFFFFFFFFFFFFFFFFFFFFFFFFFFFFFFFFF AND SUB PUSH2 0x109D JUMPI DUP2 PUSH1 0x40 MLOAD PUSH32 0x5B08BA1800000000000000000000000000000000000000000000000000000000 DUP2 MSTORE PUSH1 0x4 ADD PUSH2 0x1094 SWAP2 SWAP1 PUSH2 0x1EAE JUMP JUMPDEST PUSH1 0x40 MLOAD DUP1 SWAP2 SUB SWAP1 REVERT JUMPDEST DUP1 PUSH1 0x5 PUSH0 DUP6 PUSH20 0xFFFFFFFFFFFFFFFFFFFFFFFFFFFFFFFFFFFFFFFF AND PUSH20 0xFFFFFFFFFFFFFFFFFFFFFFFFFFFFFFFFFFFFFFFF AND DUP2 MSTORE PUSH1 0x20 ADD SWAP1 DUP2 MSTORE PUSH1 0x20 ADD PUSH0 KECCAK256 PUSH0 DUP5 PUSH20 0xFFFFFFFFFFFFFFFFFFFFFFFFFFFFFFFFFFFFFFFF AND PUSH20 0xFFFFFFFFFFFFFFFFFFFFFFFFFFFFFFFFFFFFFFFF AND DUP2 MSTORE PUSH1 0x20 ADD SWAP1 DUP2 MSTORE PUSH1 0x20 ADD PUSH0 KECCAK256 PUSH0 PUSH2 0x100 EXP DUP2 SLOAD DUP2 PUSH1 0xFF MUL NOT AND SWAP1 DUP4 ISZERO ISZERO MUL OR SWAP1 SSTORE POP DUP2 PUSH20 0xFFFFFFFFFFFFFFFFFFFFFFFFFFFFFFFFFFFFFFFF AND DUP4 PUSH20 0xFFFFFFFFFFFFFFFFFFFFFFFFFFFFFFFFFFFFFFFF AND PUSH32 0x17307EAB39AB6107E8899845AD3D59BD9653F200F220920489CA2B5937696C31 DUP4 PUSH1 0x40 MLOAD PUSH2 0x1189 SWAP2 SWAP1 PUSH2 0x1D68 JUMP JUMPDEST PUSH1 0x40 MLOAD DUP1 SWAP2 SUB SWAP1 LOG3 POP POP POP JUMP JUMPDEST PUSH0 DUP4 PUSH20 0xFFFFFFFFFFFFFFFFFFFFFFFFFFFFFFFFFFFFFFFF AND EXTCODESIZE GT ISZERO PUSH2 0x1342 JUMPI DUP3 PUSH20 0xFFFFFFFFFFFFFFFFFFFFFFFFFFFFFFFFFFFFFFFF AND PUSH4 0x150B7A02 PUSH2 0x11D9 PUSH2 0xBEF JUMP JUMPDEST DUP7 DUP6 DUP6 PUSH1 0x40 MLOAD DUP6 PUSH4 0xFFFFFFFF AND PUSH1 0xE0 SHL DUP2 MSTORE PUSH1 0x4 ADD PUSH2 0x11FB SWAP5 SWAP4 SWAP3 SWAP2 SWAP1 PUSH2 0x2B30 JUMP JUMPDEST PUSH1 0x20 PUSH1 0x40 MLOAD DUP1 DUP4 SUB DUP2 PUSH0 DUP8 GAS CALL SWAP3 POP POP POP DUP1 ISZERO PUSH2 0x1236 JUMPI POP PUSH1 0x40 MLOAD RETURNDATASIZE PUSH1 0x1F NOT PUSH1 0x1F DUP3 ADD AND DUP3 ADD DUP1 PUSH1 0x40 MSTORE POP DUP2 ADD SWAP1 PUSH2 0x1233 SWAP2 SWAP1 PUSH2 0x2B8E JUMP JUMPDEST PUSH1 0x1 JUMPDEST PUSH2 0x12B7 JUMPI RETURNDATASIZE DUP1 PUSH0 DUP2 EQ PUSH2 0x1264 JUMPI PUSH1 0x40 MLOAD SWAP2 POP PUSH1 0x1F NOT PUSH1 0x3F RETURNDATASIZE ADD AND DUP3 ADD PUSH1 0x40 MSTORE RETURNDATASIZE DUP3 MSTORE RETURNDATASIZE PUSH0 PUSH1 0x20 DUP5 ADD RETURNDATACOPY PUSH2 0x1269 JUMP JUMPDEST PUSH1 0x60 SWAP2 POP JUMPDEST POP PUSH0 DUP2 MLOAD SUB PUSH2 0x12AF JUMPI DUP4 PUSH1 0x40 MLOAD PUSH32 0x64A0AE9200000000000000000000000000000000000000000000000000000000 DUP2 MSTORE PUSH1 0x4 ADD PUSH2 0x12A6 SWAP2 SWAP1 PUSH2 0x1EAE JUMP JUMPDEST PUSH1 0x40 MLOAD DUP1 SWAP2 SUB SWAP1 REVERT JUMPDEST DUP1 MLOAD DUP2 PUSH1 0x20 ADD REVERT JUMPDEST PUSH4 0x150B7A02 PUSH1 0xE0 SHL PUSH28 0xFFFFFFFFFFFFFFFFFFFFFFFFFFFFFFFFFFFFFFFFFFFFFFFFFFFFFFFF NOT AND DUP2 PUSH28 0xFFFFFFFFFFFFFFFFFFFFFFFFFFFFFFFFFFFFFFFFFFFFFFFFFFFFFFFF NOT AND EQ PUSH2 0x1340 JUMPI DUP4 PUSH1 0x40 MLOAD PUSH32 0x64A0AE9200000000000000000000000000000000000000000000000000000000 DUP2 MSTORE PUSH1 0x4 ADD PUSH2 0x1337 SWAP2 SWAP1 PUSH2 0x1EAE JUMP JUMPDEST PUSH1 0x40 MLOAD DUP1 SWAP2 SUB SWAP1 REVERT JUMPDEST POP JUMPDEST POP POP POP POP JUMP JUMPDEST PUSH1 0x60 PUSH2 0x1353 DUP3 PUSH2 0xB30 JUMP JUMPDEST POP PUSH0 PUSH1 0x6 PUSH0 DUP5 DUP2 MSTORE PUSH1 0x20 ADD SWAP1 DUP2 MSTORE PUSH1 0x20 ADD PUSH0 KECCAK256 DUP1 SLOAD PUSH2 0x1371 SWAP1 PUSH2 0x25FE JUMP JUMPDEST DUP1 PUSH1 0x1F ADD PUSH1 0x20 DUP1 SWAP2 DIV MUL PUSH1 0x20 ADD PUSH1 0x40 MLOAD SWAP1 DUP2 ADD PUSH1 0x40 MSTORE DUP1 SWAP3 SWAP2 SWAP1 DUP2 DUP2 MSTORE PUSH1 0x20 ADD DUP3 DUP1 SLOAD PUSH2 0x139D SWAP1 PUSH2 0x25FE JUMP JUMPDEST DUP1 ISZERO PUSH2 0x13E8 JUMPI DUP1 PUSH1 0x1F LT PUSH2 0x13BF JUMPI PUSH2 0x100 DUP1 DUP4 SLOAD DIV MUL DUP4 MSTORE SWAP2 PUSH1 0x20 ADD SWAP2 PUSH2 0x13E8 JUMP JUMPDEST DUP3 ADD SWAP2 SWAP1 PUSH0 MSTORE PUSH1 0x20 PUSH0 KECCAK256 SWAP1 JUMPDEST DUP2 SLOAD DUP2 MSTORE SWAP1 PUSH1 0x1 ADD SWAP1 PUSH1 0x20 ADD DUP1 DUP4 GT PUSH2 0x13CB JUMPI DUP3 SWAP1 SUB PUSH1 0x1F AND DUP3 ADD SWAP2 JUMPDEST POP POP POP POP POP SWAP1 POP PUSH0 PUSH2 0x13F8 PUSH2 0x180A JUMP JUMPDEST SWAP1 POP PUSH0 DUP2 MLOAD SUB PUSH2 0x140C JUMPI DUP2 SWAP3 POP POP POP PUSH2 0x144E JUMP JUMPDEST PUSH0 DUP3 MLOAD GT ISZERO PUSH2 0x1440 JUMPI DUP1 DUP3 PUSH1 0x40 MLOAD PUSH1 0x20 ADD PUSH2 0x1428 SWAP3 SWAP2 SWAP1 PUSH2 0x2BF3 JUMP JUMPDEST PUSH1 0x40 MLOAD PUSH1 0x20 DUP2 DUP4 SUB SUB DUP2 MSTORE SWAP1 PUSH1 0x40 MSTORE SWAP3 POP POP POP PUSH2 0x144E JUMP JUMPDEST PUSH2 0x1449 DUP5 PUSH2 0x1820 JUMP JUMPDEST SWAP3 POP POP POP JUMPDEST SWAP2 SWAP1 POP JUMP JUMPDEST PUSH0 PUSH32 0x80AC58CD00000000000000000000000000000000000000000000000000000000 PUSH28 0xFFFFFFFFFFFFFFFFFFFFFFFFFFFFFFFFFFFFFFFFFFFFFFFFFFFFFFFF NOT AND DUP3 PUSH28 0xFFFFFFFFFFFFFFFFFFFFFFFFFFFFFFFFFFFFFFFFFFFFFFFFFFFFFFFF NOT AND EQ DUP1 PUSH2 0x151D JUMPI POP PUSH32 0x5B5E139F00000000000000000000000000000000000000000000000000000000 PUSH28 0xFFFFFFFFFFFFFFFFFFFFFFFFFFFFFFFFFFFFFFFFFFFFFFFFFFFFFFFF NOT AND DUP3 PUSH28 0xFFFFFFFFFFFFFFFFFFFFFFFFFFFFFFFFFFFFFFFFFFFFFFFFFFFFFFFF NOT AND EQ JUMPDEST DUP1 PUSH2 0x152D JUMPI POP PUSH2 0x152C DUP3 PUSH2 0x1886 JUMP JUMPDEST JUMPDEST SWAP1 POP SWAP2 SWAP1 POP JUMP JUMPDEST PUSH0 PUSH1 0x2 PUSH0 DUP4 DUP2 MSTORE PUSH1 0x20 ADD SWAP1 DUP2 MSTORE PUSH1 0x20 ADD PUSH0 KECCAK256 PUSH0 SWAP1 SLOAD SWAP1 PUSH2 0x100 EXP SWAP1 DIV PUSH20 0xFFFFFFFFFFFFFFFFFFFFFFFFFFFFFFFFFFFFFFFF AND SWAP1 POP SWAP2 SWAP1 POP JUMP JUMPDEST DUP1 DUP1 PUSH2 0x15A5 JUMPI POP PUSH0 PUSH20 0xFFFFFFFFFFFFFFFFFFFFFFFFFFFFFFFFFFFFFFFF AND DUP3 PUSH20 0xFFFFFFFFFFFFFFFFFFFFFFFFFFFFFFFFFFFFFFFF AND EQ ISZERO JUMPDEST ISZERO PUSH2 0x16D7 JUMPI PUSH0 PUSH2 0x15B4 DUP5 PUSH2 0xB30 JUMP JUMPDEST SWAP1 POP PUSH0 PUSH20 0xFFFFFFFFFFFFFFFFFFFFFFFFFFFFFFFFFFFFFFFF AND DUP4 PUSH20 0xFFFFFFFFFFFFFFFFFFFFFFFFFFFFFFFFFFFFFFFF AND EQ ISZERO DUP1 ISZERO PUSH2 0x161E JUMPI POP DUP3 PUSH20 0xFFFFFFFFFFFFFFFFFFFFFFFFFFFFFFFFFFFFFFFF AND DUP2 PUSH20 0xFFFFFFFFFFFFFFFFFFFFFFFFFFFFFFFFFFFFFFFF AND EQ ISZERO JUMPDEST DUP1 ISZERO PUSH2 0x1631 JUMPI POP PUSH2 0x162F DUP2 DUP5 PUSH2 0x9BE JUMP JUMPDEST ISZERO JUMPDEST ISZERO PUSH2 0x1673 JUMPI DUP3 PUSH1 0x40 MLOAD PUSH32 0xA9FBF51F00000000000000000000000000000000000000000000000000000000 DUP2 MSTORE PUSH1 0x4 ADD PUSH2 0x166A SWAP2 SWAP1 PUSH2 0x1EAE JUMP JUMPDEST PUSH1 0x40 MLOAD DUP1 SWAP2 SUB SWAP1 REVERT JUMPDEST DUP2 ISZERO PUSH2 0x16D5 JUMPI DUP4 DUP6 PUSH20 0xFFFFFFFFFFFFFFFFFFFFFFFFFFFFFFFFFFFFFFFF AND DUP3 PUSH20 0xFFFFFFFFFFFFFFFFFFFFFFFFFFFFFFFFFFFFFFFF AND PUSH32 0x8C5BE1E5EBEC7D5BD14F71427D1E84F3DD0314C0F7B2291E5B200AC8C7C3B925 PUSH1 0x40 MLOAD PUSH1 0x40 MLOAD DUP1 SWAP2 SUB SWAP1 LOG4 JUMPDEST POP JUMPDEST DUP4 PUSH1 0x4 PUSH0 DUP6 DUP2 MSTORE PUSH1 0x20 ADD SWAP1 DUP2 MSTORE PUSH1 0x20 ADD PUSH0 KECCAK256 PUSH0 PUSH2 0x100 EXP DUP2 SLOAD DUP2 PUSH20 0xFFFFFFFFFFFFFFFFFFFFFFFFFFFFFFFFFFFFFFFF MUL NOT AND SWAP1 DUP4 PUSH20 0xFFFFFFFFFFFFFFFFFFFFFFFFFFFFFFFFFFFFFFFF AND MUL OR SWAP1 SSTORE POP POP POP POP POP JUMP JUMPDEST PUSH2 0x1737 DUP4 DUP4 DUP4 PUSH2 0x18EF JUMP JUMPDEST PUSH2 0x17EA JUMPI PUSH0 PUSH20 0xFFFFFFFFFFFFFFFFFFFFFFFFFFFFFFFFFFFFFFFF AND DUP4 PUSH20 0xFFFFFFFFFFFFFFFFFFFFFFFFFFFFFFFFFFFFFFFF AND SUB PUSH2 0x17AB JUMPI DUP1 PUSH1 0x40 MLOAD PUSH32 0x7E27328900000000000000000000000000000000000000000000000000000000 DUP2 MSTORE PUSH1 0x4 ADD PUSH2 0x17A2 SWAP2 SWAP1 PUSH2 0x21A3 JUMP JUMPDEST PUSH1 0x40 MLOAD DUP1 SWAP2 SUB SWAP1 REVERT JUMPDEST DUP2 DUP2 PUSH1 0x40 MLOAD PUSH32 0x177E802F00000000000000000000000000000000000000000000000000000000 DUP2 MSTORE PUSH1 0x4 ADD PUSH2 0x17E1 SWAP3 SWAP2 SWAP1 PUSH2 0x256C JUMP JUMPDEST PUSH1 0x40 MLOAD DUP1 SWAP2 SUB SWAP1 REVERT JUMPDEST POP POP POP JUMP JUMPDEST PUSH2 0x17F9 DUP4 DUP4 PUSH2 0x19AF JUMP JUMPDEST PUSH2 0x1805 PUSH0 DUP5 DUP5 DUP5 PUSH2 0x1196 JUMP JUMPDEST POP POP POP JUMP JUMPDEST PUSH1 0x60 PUSH1 0x40 MLOAD DUP1 PUSH1 0x20 ADD PUSH1 0x40 MSTORE DUP1 PUSH0 DUP2 MSTORE POP SWAP1 POP SWAP1 JUMP JUMPDEST PUSH1 0x60 PUSH2 0x182B DUP3 PUSH2 0xB30 JUMP JUMPDEST POP PUSH0 PUSH2 0x1835 PUSH2 0x180A JUMP JUMPDEST SWAP1 POP PUSH0 DUP2 MLOAD GT PUSH2 0x1853 JUMPI PUSH1 0x40 MLOAD DUP1 PUSH1 0x20 ADD PUSH1 0x40 MSTORE DUP1 PUSH0 DUP2 MSTORE POP PUSH2 0x187E JUMP JUMPDEST DUP1 PUSH2 0x185D DUP5 PUSH2 0x1AA2 JUMP JUMPDEST PUSH1 0x40 MLOAD PUSH1 0x20 ADD PUSH2 0x186E SWAP3 SWAP2 SWAP1 PUSH2 0x2BF3 JUMP JUMPDEST PUSH1 0x40 MLOAD PUSH1 0x20 DUP2 DUP4 SUB SUB DUP2 MSTORE SWAP1 PUSH1 0x40 MSTORE JUMPDEST SWAP2 POP POP SWAP2 SWAP1 POP JUMP JUMPDEST PUSH0 PUSH32 0x1FFC9A700000000000000000000000000000000000000000000000000000000 PUSH28 0xFFFFFFFFFFFFFFFFFFFFFFFFFFFFFFFFFFFFFFFFFFFFFFFFFFFFFFFF NOT AND DUP3 PUSH28 0xFFFFFFFFFFFFFFFFFFFFFFFFFFFFFFFFFFFFFFFFFFFFFFFFFFFFFFFF NOT AND EQ SWAP1 POP SWAP2 SWAP1 POP JUMP JUMPDEST PUSH0 DUP1 PUSH20 0xFFFFFFFFFFFFFFFFFFFFFFFFFFFFFFFFFFFFFFFF AND DUP4 PUSH20 0xFFFFFFFFFFFFFFFFFFFFFFFFFFFFFFFFFFFFFFFF AND EQ ISZERO DUP1 ISZERO PUSH2 0x19A6 JUMPI POP DUP3 PUSH20 0xFFFFFFFFFFFFFFFFFFFFFFFFFFFFFFFFFFFFFFFF AND DUP5 PUSH20 0xFFFFFFFFFFFFFFFFFFFFFFFFFFFFFFFFFFFFFFFF AND EQ DUP1 PUSH2 0x1967 JUMPI POP PUSH2 0x1966 DUP5 DUP5 PUSH2 0x9BE JUMP JUMPDEST JUMPDEST DUP1 PUSH2 0x19A5 JUMPI POP DUP3 PUSH20 0xFFFFFFFFFFFFFFFFFFFFFFFFFFFFFFFFFFFFFFFF AND PUSH2 0x198D DUP4 PUSH2 0xBB6 JUMP JUMPDEST PUSH20 0xFFFFFFFFFFFFFFFFFFFFFFFFFFFFFFFFFFFFFFFF AND EQ JUMPDEST JUMPDEST SWAP1 POP SWAP4 SWAP3 POP POP POP JUMP JUMPDEST PUSH0 PUSH20 0xFFFFFFFFFFFFFFFFFFFFFFFFFFFFFFFFFFFFFFFF AND DUP3 PUSH20 0xFFFFFFFFFFFFFFFFFFFFFFFFFFFFFFFFFFFFFFFF AND SUB PUSH2 0x1A1F JUMPI PUSH0 PUSH1 0x40 MLOAD PUSH32 0x64A0AE9200000000000000000000000000000000000000000000000000000000 DUP2 MSTORE PUSH1 0x4 ADD PUSH2 0x1A16 SWAP2 SWAP1 PUSH2 0x1EAE JUMP JUMPDEST PUSH1 0x40 MLOAD DUP1 SWAP2 SUB SWAP1 REVERT JUMPDEST PUSH0 PUSH2 0x1A2B DUP4 DUP4 PUSH0 PUSH2 0xC08 JUMP JUMPDEST SWAP1 POP PUSH0 PUSH20 0xFFFFFFFFFFFFFFFFFFFFFFFFFFFFFFFFFFFFFFFF AND DUP2 PUSH20 0xFFFFFFFFFFFFFFFFFFFFFFFFFFFFFFFFFFFFFFFF AND EQ PUSH2 0x1A9D JUMPI PUSH0 PUSH1 0x40 MLOAD PUSH32 0x73C6AC6E00000000000000000000000000000000000000000000000000000000 DUP2 MSTORE PUSH1 0x4 ADD PUSH2 0x1A94 SWAP2 SWAP1 PUSH2 0x1EAE JUMP JUMPDEST PUSH1 0x40 MLOAD DUP1 SWAP2 SUB SWAP1 REVERT JUMPDEST POP POP POP JUMP JUMPDEST PUSH1 0x60 PUSH0 PUSH1 0x1 PUSH2 0x1AB0 DUP5 PUSH2 0x1B6C JUMP JUMPDEST ADD SWAP1 POP PUSH0 DUP2 PUSH8 0xFFFFFFFFFFFFFFFF DUP2 GT ISZERO PUSH2 0x1ACE JUMPI PUSH2 0x1ACD PUSH2 0x1F87 JUMP JUMPDEST JUMPDEST PUSH1 0x40 MLOAD SWAP1 DUP1 DUP3 MSTORE DUP1 PUSH1 0x1F ADD PUSH1 0x1F NOT AND PUSH1 0x20 ADD DUP3 ADD PUSH1 0x40 MSTORE DUP1 ISZERO PUSH2 0x1B00 JUMPI DUP2 PUSH1 0x20 ADD PUSH1 0x1 DUP3 MUL DUP1 CALLDATASIZE DUP4 CALLDATACOPY DUP1 DUP3 ADD SWAP2 POP POP SWAP1 POP JUMPDEST POP SWAP1 POP PUSH0 DUP3 PUSH1 0x20 ADD DUP3 ADD SWAP1 POP JUMPDEST PUSH1 0x1 ISZERO PUSH2 0x1B61 JUMPI DUP1 DUP1 PUSH1 0x1 SWAP1 SUB SWAP2 POP POP PUSH32 0x3031323334353637383961626364656600000000000000000000000000000000 PUSH1 0xA DUP7 MOD BYTE DUP2 MSTORE8 PUSH1 0xA DUP6 DUP2 PUSH2 0x1B56 JUMPI PUSH2 0x1B55 PUSH2 0x2799 JUMP JUMPDEST JUMPDEST DIV SWAP5 POP PUSH0 DUP6 SUB PUSH2 0x1B0D JUMPI JUMPDEST DUP2 SWAP4 POP POP POP POP SWAP2 SWAP1 POP JUMP JUMPDEST PUSH0 DUP1 PUSH0 SWAP1 POP PUSH27 0x184F03E93FF9F4DAA797ED6E38ED64BF6A1F010000000000000000 DUP4 LT PUSH2 0x1BC8 JUMPI PUSH27 0x184F03E93FF9F4DAA797ED6E38ED64BF6A1F010000000000000000 DUP4 DUP2 PUSH2 0x1BBE JUMPI PUSH2 0x1BBD PUSH2 0x2799 JUMP JUMPDEST JUMPDEST DIV SWAP3 POP PUSH1 0x40 DUP2 ADD SWAP1 POP JUMPDEST PUSH14 0x4EE2D6D415B85ACEF8100000000 DUP4 LT PUSH2 0x1C05 JUMPI PUSH14 0x4EE2D6D415B85ACEF8100000000 DUP4 DUP2 PUSH2 0x1BFB JUMPI PUSH2 0x1BFA PUSH2 0x2799 JUMP JUMPDEST JUMPDEST DIV SWAP3 POP PUSH1 0x20 DUP2 ADD SWAP1 POP JUMPDEST PUSH7 0x2386F26FC10000 DUP4 LT PUSH2 0x1C34 JUMPI PUSH7 0x2386F26FC10000 DUP4 DUP2 PUSH2 0x1C2A JUMPI PUSH2 0x1C29 PUSH2 0x2799 JUMP JUMPDEST JUMPDEST DIV SWAP3 POP PUSH1 0x10 DUP2 ADD SWAP1 POP JUMPDEST PUSH4 0x5F5E100 DUP4 LT PUSH2 0x1C5D JUMPI PUSH4 0x5F5E100 DUP4 DUP2 PUSH2 0x1C53 JUMPI PUSH2 0x1C52 PUSH2 0x2799 JUMP JUMPDEST JUMPDEST DIV SWAP3 POP PUSH1 0x8 DUP2 ADD SWAP1 POP JUMPDEST PUSH2 0x2710 DUP4 LT PUSH2 0x1C82 JUMPI PUSH2 0x2710 DUP4 DUP2 PUSH2 0x1C78 JUMPI PUSH2 0x1C77 PUSH2 0x2799 JUMP JUMPDEST JUMPDEST DIV SWAP3 POP PUSH1 0x4 DUP2 ADD SWAP1 POP JUMPDEST PUSH1 0x64 DUP4 LT PUSH2 0x1CA5 JUMPI PUSH1 0x64 DUP4 DUP2 PUSH2 0x1C9B JUMPI PUSH2 0x1C9A PUSH2 0x2799 JUMP JUMPDEST JUMPDEST DIV SWAP3 POP PUSH1 0x2 DUP2 ADD SWAP1 POP JUMPDEST PUSH1 0xA DUP4 LT PUSH2 0x1CB4 JUMPI PUSH1 0x1 DUP2 ADD SWAP1 POP JUMPDEST DUP1 SWAP2 POP POP SWAP2 SWAP1 POP JUMP JUMPDEST PUSH0 PUSH1 0x40 MLOAD SWAP1 POP SWAP1 JUMP JUMPDEST PUSH0 DUP1 REVERT JUMPDEST PUSH0 DUP1 REVERT JUMPDEST PUSH0 PUSH32 0xFFFFFFFF00000000000000000000000000000000000000000000000000000000 DUP3 AND SWAP1 POP SWAP2 SWAP1 POP JUMP JUMPDEST PUSH2 0x1D02 DUP2 PUSH2 0x1CCE JUMP JUMPDEST DUP2 EQ PUSH2 0x1D0C JUMPI PUSH0 DUP1 REVERT JUMPDEST POP JUMP JUMPDEST PUSH0 DUP2 CALLDATALOAD SWAP1 POP PUSH2 0x1D1D DUP2 PUSH2 0x1CF9 JUMP JUMPDEST SWAP3 SWAP2 POP POP JUMP JUMPDEST PUSH0 PUSH1 0x20 DUP3 DUP5 SUB SLT ISZERO PUSH2 0x1D38 JUMPI PUSH2 0x1D37 PUSH2 0x1CC6 JUMP JUMPDEST JUMPDEST PUSH0 PUSH2 0x1D45 DUP5 DUP3 DUP6 ADD PUSH2 0x1D0F JUMP JUMPDEST SWAP2 POP POP SWAP3 SWAP2 POP POP JUMP JUMPDEST PUSH0 DUP2 ISZERO ISZERO SWAP1 POP SWAP2 SWAP1 POP JUMP JUMPDEST PUSH2 0x1D62 DUP2 PUSH2 0x1D4E JUMP JUMPDEST DUP3 MSTORE POP POP JUMP JUMPDEST PUSH0 PUSH1 0x20 DUP3 ADD SWAP1 POP PUSH2 0x1D7B PUSH0 DUP4 ADD DUP5 PUSH2 0x1D59 JUMP JUMPDEST SWAP3 SWAP2 POP POP JUMP JUMPDEST PUSH0 DUP2 MLOAD SWAP1 POP SWAP2 SWAP1 POP JUMP JUMPDEST PUSH0 DUP3 DUP3 MSTORE PUSH1 0x20 DUP3 ADD SWAP1 POP SWAP3 SWAP2 POP POP JUMP JUMPDEST DUP3 DUP2 DUP4 MCOPY PUSH0 DUP4 DUP4 ADD MSTORE POP POP POP JUMP JUMPDEST PUSH0 PUSH1 0x1F NOT PUSH1 0x1F DUP4 ADD AND SWAP1 POP SWAP2 SWAP1 POP JUMP JUMPDEST PUSH0 PUSH2 0x1DC3 DUP3 PUSH2 0x1D81 JUMP JUMPDEST PUSH2 0x1DCD DUP2 DUP6 PUSH2 0x1D8B JUMP JUMPDEST SWAP4 POP PUSH2 0x1DDD DUP2 DUP6 PUSH1 0x20 DUP7 ADD PUSH2 0x1D9B JUMP JUMPDEST PUSH2 0x1DE6 DUP2 PUSH2 0x1DA9 JUMP JUMPDEST DUP5 ADD SWAP2 POP POP SWAP3 SWAP2 POP POP JUMP JUMPDEST PUSH0 PUSH1 0x20 DUP3 ADD SWAP1 POP DUP2 DUP2 SUB PUSH0 DUP4 ADD MSTORE PUSH2 0x1E09 DUP2 DUP5 PUSH2 0x1DB9 JUMP JUMPDEST SWAP1 POP SWAP3 SWAP2 POP POP JUMP JUMPDEST PUSH0 DUP2 SWAP1 POP SWAP2 SWAP1 POP JUMP JUMPDEST PUSH2 0x1E23 DUP2 PUSH2 0x1E11 JUMP JUMPDEST DUP2 EQ PUSH2 0x1E2D JUMPI PUSH0 DUP1 REVERT JUMPDEST POP JUMP JUMPDEST PUSH0 DUP2 CALLDATALOAD SWAP1 POP PUSH2 0x1E3E DUP2 PUSH2 0x1E1A JUMP JUMPDEST SWAP3 SWAP2 POP POP JUMP JUMPDEST PUSH0 PUSH1 0x20 DUP3 DUP5 SUB SLT ISZERO PUSH2 0x1E59 JUMPI PUSH2 0x1E58 PUSH2 0x1CC6 JUMP JUMPDEST JUMPDEST PUSH0 PUSH2 0x1E66 DUP5 DUP3 DUP6 ADD PUSH2 0x1E30 JUMP JUMPDEST SWAP2 POP POP SWAP3 SWAP2 POP POP JUMP JUMPDEST PUSH0 PUSH20 0xFFFFFFFFFFFFFFFFFFFFFFFFFFFFFFFFFFFFFFFF DUP3 AND SWAP1 POP SWAP2 SWAP1 POP JUMP JUMPDEST PUSH0 PUSH2 0x1E98 DUP3 PUSH2 0x1E6F JUMP JUMPDEST SWAP1 POP SWAP2 SWAP1 POP JUMP JUMPDEST PUSH2 0x1EA8 DUP2 PUSH2 0x1E8E JUMP JUMPDEST DUP3 MSTORE POP POP JUMP JUMPDEST PUSH0 PUSH1 0x20 DUP3 ADD SWAP1 POP PUSH2 0x1EC1 PUSH0 DUP4 ADD DUP5 PUSH2 0x1E9F JUMP JUMPDEST SWAP3 SWAP2 POP POP JUMP JUMPDEST PUSH2 0x1ED0 DUP2 PUSH2 0x1E8E JUMP JUMPDEST DUP2 EQ PUSH2 0x1EDA JUMPI PUSH0 DUP1 REVERT JUMPDEST POP JUMP JUMPDEST PUSH0 DUP2 CALLDATALOAD SWAP1 POP PUSH2 0x1EEB DUP2 PUSH2 0x1EC7 JUMP JUMPDEST SWAP3 SWAP2 POP POP JUMP JUMPDEST PUSH0 DUP1 PUSH1 0x40 DUP4 DUP6 SUB SLT ISZERO PUSH2 0x1F07 JUMPI PUSH2 0x1F06 PUSH2 0x1CC6 JUMP JUMPDEST JUMPDEST PUSH0 PUSH2 0x1F14 DUP6 DUP3 DUP7 ADD PUSH2 0x1EDD JUMP JUMPDEST SWAP3 POP POP PUSH1 0x20 PUSH2 0x1F25 DUP6 DUP3 DUP7 ADD PUSH2 0x1E30 JUMP JUMPDEST SWAP2 POP POP SWAP3 POP SWAP3 SWAP1 POP JUMP JUMPDEST PUSH0 DUP1 PUSH0 PUSH1 0x60 DUP5 DUP7 SUB SLT ISZERO PUSH2 0x1F46 JUMPI PUSH2 0x1F45 PUSH2 0x1CC6 JUMP JUMPDEST JUMPDEST PUSH0 PUSH2 0x1F53 DUP7 DUP3 DUP8 ADD PUSH2 0x1EDD JUMP JUMPDEST SWAP4 POP POP PUSH1 0x20 PUSH2 0x1F64 DUP7 DUP3 DUP8 ADD PUSH2 0x1EDD JUMP JUMPDEST SWAP3 POP POP PUSH1 0x40 PUSH2 0x1F75 DUP7 DUP3 DUP8 ADD PUSH2 0x1E30 JUMP JUMPDEST SWAP2 POP POP SWAP3 POP SWAP3 POP SWAP3 JUMP JUMPDEST PUSH0 DUP1 REVERT JUMPDEST PUSH0 DUP1 REVERT JUMPDEST PUSH32 0x4E487B7100000000000000000000000000000000000000000000000000000000 PUSH0 MSTORE PUSH1 0x41 PUSH1 0x4 MSTORE PUSH1 0x24 PUSH0 REVERT JUMPDEST PUSH2 0x1FBD DUP3 PUSH2 0x1DA9 JUMP JUMPDEST DUP2 ADD DUP2 DUP2 LT PUSH8 0xFFFFFFFFFFFFFFFF DUP3 GT OR ISZERO PUSH2 0x1FDC JUMPI PUSH2 0x1FDB PUSH2 0x1F87 JUMP JUMPDEST JUMPDEST DUP1 PUSH1 0x40 MSTORE POP POP POP JUMP JUMPDEST PUSH0 PUSH2 0x1FEE PUSH2 0x1CBD JUMP JUMPDEST SWAP1 POP PUSH2 0x1FFA DUP3 DUP3 PUSH2 0x1FB4 JUMP JUMPDEST SWAP2 SWAP1 POP JUMP JUMPDEST PUSH0 PUSH8 0xFFFFFFFFFFFFFFFF DUP3 GT ISZERO PUSH2 0x2019 JUMPI PUSH2 0x2018 PUSH2 0x1F87 JUMP JUMPDEST JUMPDEST PUSH2 0x2022 DUP3 PUSH2 0x1DA9 JUMP JUMPDEST SWAP1 POP PUSH1 0x20 DUP2 ADD SWAP1 POP SWAP2 SWAP1 POP JUMP JUMPDEST DUP3 DUP2 DUP4 CALLDATACOPY PUSH0 DUP4 DUP4 ADD MSTORE POP POP POP JUMP JUMPDEST PUSH0 PUSH2 0x204F PUSH2 0x204A DUP5 PUSH2 0x1FFF JUMP JUMPDEST PUSH2 0x1FE5 JUMP JUMPDEST SWAP1 POP DUP3 DUP2 MSTORE PUSH1 0x20 DUP2 ADD DUP5 DUP5 DUP5 ADD GT ISZERO PUSH2 0x206B JUMPI PUSH2 0x206A PUSH2 0x1F83 JUMP JUMPDEST JUMPDEST PUSH2 0x2076 DUP5 DUP3 DUP6 PUSH2 0x202F JUMP JUMPDEST POP SWAP4 SWAP3 POP POP POP JUMP JUMPDEST PUSH0 DUP3 PUSH1 0x1F DUP4 ADD SLT PUSH2 0x2092 JUMPI PUSH2 0x2091 PUSH2 0x1F7F JUMP JUMPDEST JUMPDEST DUP2 CALLDATALOAD PUSH2 0x20A2 DUP5 DUP3 PUSH1 0x20 DUP7 ADD PUSH2 0x203D JUMP JUMPDEST SWAP2 POP POP SWAP3 SWAP2 POP POP JUMP JUMPDEST PUSH0 DUP1 PUSH0 DUP1 PUSH1 0x80 DUP6 DUP8 SUB SLT ISZERO PUSH2 0x20C3 JUMPI PUSH2 0x20C2 PUSH2 0x1CC6 JUMP JUMPDEST JUMPDEST PUSH0 PUSH2 0x20D0 DUP8 DUP3 DUP9 ADD PUSH2 0x1EDD JUMP JUMPDEST SWAP5 POP POP PUSH1 0x20 DUP6 ADD CALLDATALOAD PUSH8 0xFFFFFFFFFFFFFFFF DUP2 GT ISZERO PUSH2 0x20F1 JUMPI PUSH2 0x20F0 PUSH2 0x1CCA JUMP JUMPDEST JUMPDEST PUSH2 0x20FD DUP8 DUP3 DUP9 ADD PUSH2 0x207E JUMP JUMPDEST SWAP4 POP POP PUSH1 0x40 PUSH2 0x210E DUP8 DUP3 DUP9 ADD PUSH2 0x1E30 JUMP JUMPDEST SWAP3 POP POP PUSH1 0x60 PUSH2 0x211F DUP8 DUP3 DUP9 ADD PUSH2 0x1E30 JUMP JUMPDEST SWAP2 POP POP SWAP3 SWAP6 SWAP2 SWAP5 POP SWAP3 POP JUMP JUMPDEST PUSH0 DUP1 PUSH1 0x40 DUP4 DUP6 SUB SLT ISZERO PUSH2 0x2141 JUMPI PUSH2 0x2140 PUSH2 0x1CC6 JUMP JUMPDEST JUMPDEST PUSH0 PUSH2 0x214E DUP6 DUP3 DUP7 ADD PUSH2 0x1E30 JUMP JUMPDEST SWAP3 POP POP PUSH1 0x20 PUSH2 0x215F DUP6 DUP3 DUP7 ADD PUSH2 0x1E30 JUMP JUMPDEST SWAP2 POP POP SWAP3 POP SWAP3 SWAP1 POP JUMP JUMPDEST PUSH0 PUSH1 0x20 DUP3 DUP5 SUB SLT ISZERO PUSH2 0x217E JUMPI PUSH2 0x217D PUSH2 0x1CC6 JUMP JUMPDEST JUMPDEST PUSH0 PUSH2 0x218B DUP5 DUP3 DUP6 ADD PUSH2 0x1EDD JUMP JUMPDEST SWAP2 POP POP SWAP3 SWAP2 POP POP JUMP JUMPDEST PUSH2 0x219D DUP2 PUSH2 0x1E11 JUMP JUMPDEST DUP3 MSTORE POP POP JUMP JUMPDEST PUSH0 PUSH1 0x20 DUP3 ADD SWAP1 POP PUSH2 0x21B6 PUSH0 DUP4 ADD DUP5 PUSH2 0x2194 JUMP JUMPDEST SWAP3 SWAP2 POP POP JUMP JUMPDEST PUSH0 PUSH8 0xFFFFFFFFFFFFFFFF DUP3 GT ISZERO PUSH2 0x21D6 JUMPI PUSH2 0x21D5 PUSH2 0x1F87 JUMP JUMPDEST JUMPDEST PUSH1 0x20 DUP3 MUL SWAP1 POP PUSH1 0x20 DUP2 ADD SWAP1 POP SWAP2 SWAP1 POP JUMP JUMPDEST PUSH0 DUP1 REVERT JUMPDEST PUSH0 PUSH2 0x21FD PUSH2 0x21F8 DUP5 PUSH2 0x21BC JUMP JUMPDEST PUSH2 0x1FE5 JUMP JUMPDEST SWAP1 POP DUP1 DUP4 DUP3 MSTORE PUSH1 0x20 DUP3 ADD SWAP1 POP PUSH1 0x20 DUP5 MUL DUP4 ADD DUP6 DUP2 GT ISZERO PUSH2 0x2220 JUMPI PUSH2 0x221F PUSH2 0x21E7 JUMP JUMPDEST JUMPDEST DUP4 JUMPDEST DUP2 DUP2 LT ISZERO PUSH2 0x2249 JUMPI DUP1 PUSH2 0x2235 DUP9 DUP3 PUSH2 0x1E30 JUMP JUMPDEST DUP5 MSTORE PUSH1 0x20 DUP5 ADD SWAP4 POP POP PUSH1 0x20 DUP2 ADD SWAP1 POP PUSH2 0x2222 JUMP JUMPDEST POP POP POP SWAP4 SWAP3 POP POP POP JUMP JUMPDEST PUSH0 DUP3 PUSH1 0x1F DUP4 ADD SLT PUSH2 0x2267 JUMPI PUSH2 0x2266 PUSH2 0x1F7F JUMP JUMPDEST JUMPDEST DUP2 CALLDATALOAD PUSH2 0x2277 DUP5 DUP3 PUSH1 0x20 DUP7 ADD PUSH2 0x21EB JUMP JUMPDEST SWAP2 POP POP SWAP3 SWAP2 POP POP JUMP JUMPDEST PUSH0 PUSH8 0xFFFFFFFFFFFFFFFF DUP3 GT ISZERO PUSH2 0x229A JUMPI PUSH2 0x2299 PUSH2 0x1F87 JUMP JUMPDEST JUMPDEST PUSH1 0x20 DUP3 MUL SWAP1 POP PUSH1 0x20 DUP2 ADD SWAP1 POP SWAP2 SWAP1 POP JUMP JUMPDEST PUSH0 PUSH2 0x22BD PUSH2 0x22B8 DUP5 PUSH2 0x2280 JUMP JUMPDEST PUSH2 0x1FE5 JUMP JUMPDEST SWAP1 POP DUP1 DUP4 DUP3 MSTORE PUSH1 0x20 DUP3 ADD SWAP1 POP PUSH1 0x20 DUP5 MUL DUP4 ADD DUP6 DUP2 GT ISZERO PUSH2 0x22E0 JUMPI PUSH2 0x22DF PUSH2 0x21E7 JUMP JUMPDEST JUMPDEST DUP4 JUMPDEST DUP2 DUP2 LT ISZERO PUSH2 0x2327 JUMPI DUP1 CALLDATALOAD PUSH8 0xFFFFFFFFFFFFFFFF DUP2 GT ISZERO PUSH2 0x2305 JUMPI PUSH2 0x2304 PUSH2 0x1F7F JUMP JUMPDEST JUMPDEST DUP1 DUP7 ADD PUSH2 0x2312 DUP10 DUP3 PUSH2 0x207E JUMP JUMPDEST DUP6 MSTORE PUSH1 0x20 DUP6 ADD SWAP5 POP POP POP PUSH1 0x20 DUP2 ADD SWAP1 POP PUSH2 0x22E2 JUMP JUMPDEST POP POP POP SWAP4 SWAP3 POP POP POP JUMP JUMPDEST PUSH0 DUP3 PUSH1 0x1F DUP4 ADD SLT PUSH2 0x2345 JUMPI PUSH2 0x2344 PUSH2 0x1F7F JUMP JUMPDEST JUMPDEST DUP2 CALLDATALOAD PUSH2 0x2355 DUP5 DUP3 PUSH1 0x20 DUP7 ADD PUSH2 0x22AB JUMP JUMPDEST SWAP2 POP POP SWAP3 SWAP2 POP POP JUMP JUMPDEST PUSH0 DUP1 PUSH0 PUSH1 0x60 DUP5 DUP7 SUB SLT ISZERO PUSH2 0x2375 JUMPI PUSH2 0x2374 PUSH2 0x1CC6 JUMP JUMPDEST JUMPDEST PUSH0 PUSH2 0x2382 DUP7 DUP3 DUP8 ADD PUSH2 0x1EDD JUMP JUMPDEST SWAP4 POP POP PUSH1 0x20 DUP5 ADD CALLDATALOAD PUSH8 0xFFFFFFFFFFFFFFFF DUP2 GT ISZERO PUSH2 0x23A3 JUMPI PUSH2 0x23A2 PUSH2 0x1CCA JUMP JUMPDEST JUMPDEST PUSH2 0x23AF DUP7 DUP3 DUP8 ADD PUSH2 0x2253 JUMP JUMPDEST SWAP3 POP POP PUSH1 0x40 DUP5 ADD CALLDATALOAD PUSH8 0xFFFFFFFFFFFFFFFF DUP2 GT ISZERO PUSH2 0x23D0 JUMPI PUSH2 0x23CF PUSH2 0x1CCA JUMP JUMPDEST JUMPDEST PUSH2 0x23DC DUP7 DUP3 DUP8 ADD PUSH2 0x2331 JUMP JUMPDEST SWAP2 POP POP SWAP3 POP SWAP3 POP SWAP3 JUMP JUMPDEST PUSH2 0x23EF DUP2 PUSH2 0x1D4E JUMP JUMPDEST DUP2 EQ PUSH2 0x23F9 JUMPI PUSH0 DUP1 REVERT JUMPDEST POP JUMP JUMPDEST PUSH0 DUP2 CALLDATALOAD SWAP1 POP PUSH2 0x240A DUP2 PUSH2 0x23E6 JUMP JUMPDEST SWAP3 SWAP2 POP POP JUMP JUMPDEST PUSH0 DUP1 PUSH1 0x40 DUP4 DUP6 SUB SLT ISZERO PUSH2 0x2426 JUMPI PUSH2 0x2425 PUSH2 0x1CC6 JUMP JUMPDEST JUMPDEST PUSH0 PUSH2 0x2433 DUP6 DUP3 DUP7 ADD PUSH2 0x1EDD JUMP JUMPDEST SWAP3 POP POP PUSH1 0x20 PUSH2 0x2444 DUP6 DUP3 DUP7 ADD PUSH2 0x23FC JUMP JUMPDEST SWAP2 POP POP SWAP3 POP SWAP3 SWAP1 POP JUMP JUMPDEST PUSH0 PUSH8 0xFFFFFFFFFFFFFFFF DUP3 GT ISZERO PUSH2 0x2468 JUMPI PUSH2 0x2467 PUSH2 0x1F87 JUMP JUMPDEST JUMPDEST PUSH2 0x2471 DUP3 PUSH2 0x1DA9 JUMP JUMPDEST SWAP1 POP PUSH1 0x20 DUP2 ADD SWAP1 POP SWAP2 SWAP1 POP JUMP JUMPDEST PUSH0 PUSH2 0x2490 PUSH2 0x248B DUP5 PUSH2 0x244E JUMP JUMPDEST PUSH2 0x1FE5 JUMP JUMPDEST SWAP1 POP DUP3 DUP2 MSTORE PUSH1 0x20 DUP2 ADD DUP5 DUP5 DUP5 ADD GT ISZERO PUSH2 0x24AC JUMPI PUSH2 0x24AB PUSH2 0x1F83 JUMP JUMPDEST JUMPDEST PUSH2 0x24B7 DUP5 DUP3 DUP6 PUSH2 0x202F JUMP JUMPDEST POP SWAP4 SWAP3 POP POP POP JUMP JUMPDEST PUSH0 DUP3 PUSH1 0x1F DUP4 ADD SLT PUSH2 0x24D3 JUMPI PUSH2 0x24D2 PUSH2 0x1F7F JUMP JUMPDEST JUMPDEST DUP2 CALLDATALOAD PUSH2 0x24E3 DUP5 DUP3 PUSH1 0x20 DUP7 ADD PUSH2 0x247E JUMP JUMPDEST SWAP2 POP POP SWAP3 SWAP2 POP POP JUMP JUMPDEST PUSH0 DUP1 PUSH0 DUP1 PUSH1 0x80 DUP6 DUP8 SUB SLT ISZERO PUSH2 0x2504 JUMPI PUSH2 0x2503 PUSH2 0x1CC6 JUMP JUMPDEST JUMPDEST PUSH0 PUSH2 0x2511 DUP8 DUP3 DUP9 ADD PUSH2 0x1EDD JUMP JUMPDEST SWAP5 POP POP PUSH1 0x20 PUSH2 0x2522 DUP8 DUP3 DUP9 ADD PUSH2 0x1EDD JUMP JUMPDEST SWAP4 POP POP PUSH1 0x40 PUSH2 0x2533 DUP8 DUP3 DUP9 ADD PUSH2 0x1E30 JUMP JUMPDEST SWAP3 POP POP PUSH1 0x60 DUP6 ADD CALLDATALOAD PUSH8 0xFFFFFFFFFFFFFFFF DUP2 GT ISZERO PUSH2 0x2554 JUMPI PUSH2 0x2553 PUSH2 0x1CCA JUMP JUMPDEST JUMPDEST PUSH2 0x2560 DUP8 DUP3 DUP9 ADD PUSH2 0x24BF JUMP JUMPDEST SWAP2 POP POP SWAP3 SWAP6 SWAP2 SWAP5 POP SWAP3 POP JUMP JUMPDEST PUSH0 PUSH1 0x40 DUP3 ADD SWAP1 POP PUSH2 0x257F PUSH0 DUP4 ADD DUP6 PUSH2 0x1E9F JUMP JUMPDEST PUSH2 0x258C PUSH1 0x20 DUP4 ADD DUP5 PUSH2 0x2194 JUMP JUMPDEST SWAP4 SWAP3 POP POP POP JUMP JUMPDEST PUSH0 DUP1 PUSH1 0x40 DUP4 DUP6 SUB SLT ISZERO PUSH2 0x25A9 JUMPI PUSH2 0x25A8 PUSH2 0x1CC6 JUMP JUMPDEST JUMPDEST PUSH0 PUSH2 0x25B6 DUP6 DUP3 DUP7 ADD PUSH2 0x1EDD JUMP JUMPDEST SWAP3 POP POP PUSH1 0x20 PUSH2 0x25C7 DUP6 DUP3 DUP7 ADD PUSH2 0x1EDD JUMP JUMPDEST SWAP2 POP POP SWAP3 POP SWAP3 SWAP1 POP JUMP JUMPDEST PUSH32 0x4E487B7100000000000000000000000000000000000000000000000000000000 PUSH0 MSTORE PUSH1 0x22 PUSH1 0x4 MSTORE PUSH1 0x24 PUSH0 REVERT JUMPDEST PUSH0 PUSH1 0x2 DUP3 DIV SWAP1 POP PUSH1 0x1 DUP3 AND DUP1 PUSH2 0x2615 JUMPI PUSH1 0x7F DUP3 AND SWAP2 POP JUMPDEST PUSH1 0x20 DUP3 LT DUP2 SUB PUSH2 0x2628 JUMPI PUSH2 0x2627 PUSH2 0x25D1 JUMP JUMPDEST JUMPDEST POP SWAP2 SWAP1 POP JUMP JUMPDEST PUSH0 PUSH1 0x60 DUP3 ADD SWAP1 POP PUSH2 0x2641 PUSH0 DUP4 ADD DUP7 PUSH2 0x1E9F JUMP JUMPDEST PUSH2 0x264E PUSH1 0x20 DUP4 ADD DUP6 PUSH2 0x2194 JUMP JUMPDEST PUSH2 0x265B PUSH1 0x40 DUP4 ADD DUP5 PUSH2 0x1E9F JUMP JUMPDEST SWAP5 SWAP4 POP POP POP POP JUMP JUMPDEST PUSH32 0x4E487B7100000000000000000000000000000000000000000000000000000000 PUSH0 MSTORE PUSH1 0x11 PUSH1 0x4 MSTORE PUSH1 0x24 PUSH0 REVERT JUMPDEST PUSH0 PUSH2 0x269A DUP3 PUSH2 0x1E11 JUMP JUMPDEST SWAP2 POP PUSH2 0x26A5 DUP4 PUSH2 0x1E11 JUMP JUMPDEST SWAP3 POP DUP3 DUP3 ADD SWAP1 POP DUP1 DUP3 GT ISZERO PUSH2 0x26BD JUMPI PUSH2 0x26BC PUSH2 0x2663 JUMP JUMPDEST JUMPDEST SWAP3 SWAP2 POP POP JUMP JUMPDEST PUSH32 0x4172726179206C656E677468206D69736D617463680000000000000000000000 PUSH0 DUP3 ADD MSTORE POP JUMP JUMPDEST PUSH0 PUSH2 0x26F7 PUSH1 0x15 DUP4 PUSH2 0x1D8B JUMP JUMPDEST SWAP2 POP PUSH2 0x2702 DUP3 PUSH2 0x26C3 JUMP JUMPDEST PUSH1 0x20 DUP3 ADD SWAP1 POP SWAP2 SWAP1 POP JUMP JUMPDEST PUSH0 PUSH1 0x20 DUP3 ADD SWAP1 POP DUP2 DUP2 SUB PUSH0 DUP4 ADD MSTORE PUSH2 0x2724 DUP2 PUSH2 0x26EB JUMP JUMPDEST SWAP1 POP SWAP2 SWAP1 POP JUMP JUMPDEST PUSH32 0x4E487B7100000000000000000000000000000000000000000000000000000000 PUSH0 MSTORE PUSH1 0x32 PUSH1 0x4 MSTORE PUSH1 0x24 PUSH0 REVERT JUMPDEST PUSH0 PUSH2 0x2762 DUP3 PUSH2 0x1E11 JUMP JUMPDEST SWAP2 POP PUSH2 0x276D DUP4 PUSH2 0x1E11 JUMP JUMPDEST SWAP3 POP DUP3 DUP3 MUL PUSH2 0x277B DUP2 PUSH2 0x1E11 JUMP JUMPDEST SWAP2 POP DUP3 DUP3 DIV DUP5 EQ DUP4 ISZERO OR PUSH2 0x2792 JUMPI PUSH2 0x2791 PUSH2 0x2663 JUMP JUMPDEST JUMPDEST POP SWAP3 SWAP2 POP POP JUMP JUMPDEST PUSH32 0x4E487B7100000000000000000000000000000000000000000000000000000000 PUSH0 MSTORE PUSH1 0x12 PUSH1 0x4 MSTORE PUSH1 0x24 PUSH0 REVERT JUMPDEST PUSH0 PUSH2 0x27D0 DUP3 PUSH2 0x1E11 JUMP JUMPDEST SWAP2 POP PUSH2 0x27DB DUP4 PUSH2 0x1E11 JUMP JUMPDEST SWAP3 POP DUP3 PUSH2 0x27EB JUMPI PUSH2 0x27EA PUSH2 0x2799 JUMP JUMPDEST JUMPDEST DUP3 DUP3 DIV SWAP1 POP SWAP3 SWAP2 POP POP JUMP JUMPDEST PUSH0 DUP2 SWAP1 POP SWAP2 SWAP1 POP JUMP JUMPDEST PUSH2 0x2810 PUSH2 0x280B DUP3 PUSH2 0x1E11 JUMP JUMPDEST PUSH2 0x27F6 JUMP JUMPDEST DUP3 MSTORE POP POP JUMP JUMPDEST PUSH0 DUP2 SWAP1 POP SWAP2 SWAP1 POP JUMP JUMPDEST PUSH2 0x2830 PUSH2 0x282B DUP3 PUSH2 0x1CCE JUMP JUMPDEST PUSH2 0x2816 JUMP JUMPDEST DUP3 MSTORE POP POP JUMP JUMPDEST PUSH0 PUSH2 0x2841 DUP3 DUP7 PUSH2 0x27FF JUMP JUMPDEST PUSH1 0x20 DUP3 ADD SWAP2 POP PUSH2 0x2851 DUP3 DUP6 PUSH2 0x27FF JUMP JUMPDEST PUSH1 0x20 DUP3 ADD SWAP2 POP PUSH2 0x2861 DUP3 DUP5 PUSH2 0x281F JUMP JUMPDEST PUSH1 0x4 DUP3 ADD SWAP2 POP DUP2 SWAP1 POP SWAP5 SWAP4 POP POP POP POP JUMP JUMPDEST PUSH0 DUP2 SWAP1 POP DUP2 PUSH0 MSTORE PUSH1 0x20 PUSH0 KECCAK256 SWAP1 POP SWAP2 SWAP1 POP JUMP JUMPDEST PUSH0 PUSH1 0x20 PUSH1 0x1F DUP4 ADD DIV SWAP1 POP SWAP2 SWAP1 POP JUMP JUMPDEST PUSH0 DUP3 DUP3 SHL SWAP1 POP SWAP3 SWAP2 POP POP JUMP JUMPDEST PUSH0 PUSH1 0x8 DUP4 MUL PUSH2 0x28CE PUSH32 0xFFFFFFFFFFFFFFFFFFFFFFFFFFFFFFFFFFFFFFFFFFFFFFFFFFFFFFFFFFFFFFFF DUP3 PUSH2 0x2893 JUMP JUMPDEST PUSH2 0x28D8 DUP7 DUP4 PUSH2 0x2893 JUMP JUMPDEST SWAP6 POP DUP1 NOT DUP5 AND SWAP4 POP DUP1 DUP7 AND DUP5 OR SWAP3 POP POP POP SWAP4 SWAP3 POP POP POP JUMP JUMPDEST PUSH0 DUP2 SWAP1 POP SWAP2 SWAP1 POP JUMP JUMPDEST PUSH0 PUSH2 0x2913 PUSH2 0x290E PUSH2 0x2909 DUP5 PUSH2 0x1E11 JUMP JUMPDEST PUSH2 0x28F0 JUMP JUMPDEST PUSH2 0x1E11 JUMP JUMPDEST SWAP1 POP SWAP2 SWAP1 POP JUMP JUMPDEST PUSH0 DUP2 SWAP1 POP SWAP2 SWAP1 POP JUMP JUMPDEST PUSH2 0x292C DUP4 PUSH2 0x28F9 JUMP JUMPDEST PUSH2 0x2940 PUSH2 0x2938 DUP3 PUSH2 0x291A JUMP JUMPDEST DUP5 DUP5 SLOAD PUSH2 0x289F JUMP JUMPDEST DUP3 SSTORE POP POP POP POP JUMP JUMPDEST PUSH0 SWAP1 JUMP JUMPDEST PUSH2 0x2954 PUSH2 0x2948 JUMP JUMPDEST PUSH2 0x295F DUP2 DUP5 DUP5 PUSH2 0x2923 JUMP JUMPDEST POP POP POP JUMP JUMPDEST JUMPDEST DUP2 DUP2 LT ISZERO PUSH2 0x2982 JUMPI PUSH2 0x2977 PUSH0 DUP3 PUSH2 0x294C JUMP JUMPDEST PUSH1 0x1 DUP2 ADD SWAP1 POP PUSH2 0x2965 JUMP JUMPDEST POP POP JUMP JUMPDEST PUSH1 0x1F DUP3 GT ISZERO PUSH2 0x29C7 JUMPI PUSH2 0x2998 DUP2 PUSH2 0x2872 JUMP JUMPDEST PUSH2 0x29A1 DUP5 PUSH2 0x2884 JUMP JUMPDEST DUP2 ADD PUSH1 0x20 DUP6 LT ISZERO PUSH2 0x29B0 JUMPI DUP2 SWAP1 POP JUMPDEST PUSH2 0x29C4 PUSH2 0x29BC DUP6 PUSH2 0x2884 JUMP JUMPDEST DUP4 ADD DUP3 PUSH2 0x2964 JUMP JUMPDEST POP POP JUMPDEST POP POP POP JUMP JUMPDEST PUSH0 DUP3 DUP3 SHR SWAP1 POP SWAP3 SWAP2 POP POP JUMP JUMPDEST PUSH0 PUSH2 0x29E7 PUSH0 NOT DUP5 PUSH1 0x8 MUL PUSH2 0x29CC JUMP JUMPDEST NOT DUP1 DUP4 AND SWAP2 POP POP SWAP3 SWAP2 POP POP JUMP JUMPDEST PUSH0 PUSH2 0x29FF DUP4 DUP4 PUSH2 0x29D8 JUMP JUMPDEST SWAP2 POP DUP3 PUSH1 0x2 MUL DUP3 OR SWAP1 POP SWAP3 SWAP2 POP POP JUMP JUMPDEST PUSH2 0x2A18 DUP3 PUSH2 0x1D81 JUMP JUMPDEST PUSH8 0xFFFFFFFFFFFFFFFF DUP2 GT ISZERO PUSH2 0x2A31 JUMPI PUSH2 0x2A30 PUSH2 0x1F87 JUMP JUMPDEST JUMPDEST PUSH2 0x2A3B DUP3 SLOAD PUSH2 0x25FE JUMP JUMPDEST PUSH2 0x2A46 DUP3 DUP3 DUP6 PUSH2 0x2986 JUMP JUMPDEST PUSH0 PUSH1 0x20 SWAP1 POP PUSH1 0x1F DUP4 GT PUSH1 0x1 DUP2 EQ PUSH2 0x2A77 JUMPI PUSH0 DUP5 ISZERO PUSH2 0x2A65 JUMPI DUP3 DUP8 ADD MLOAD SWAP1 POP JUMPDEST PUSH2 0x2A6F DUP6 DUP3 PUSH2 0x29F4 JUMP JUMPDEST DUP7 SSTORE POP PUSH2 0x2AD6 JUMP JUMPDEST PUSH1 0x1F NOT DUP5 AND PUSH2 0x2A85 DUP7 PUSH2 0x2872 JUMP JUMPDEST PUSH0 JUMPDEST DUP3 DUP2 LT ISZERO PUSH2 0x2AAC JUMPI DUP5 DUP10 ADD MLOAD DUP3 SSTORE PUSH1 0x1 DUP3 ADD SWAP2 POP PUSH1 0x20 DUP6 ADD SWAP5 POP PUSH1 0x20 DUP2 ADD SWAP1 POP PUSH2 0x2A87 JUMP JUMPDEST DUP7 DUP4 LT ISZERO PUSH2 0x2AC9 JUMPI DUP5 DUP10 ADD MLOAD PUSH2 0x2AC5 PUSH1 0x1F DUP10 AND DUP3 PUSH2 0x29D8 JUMP JUMPDEST DUP4 SSTORE POP JUMPDEST PUSH1 0x1 PUSH1 0x2 DUP9 MUL ADD DUP9 SSTORE POP POP POP JUMPDEST POP POP POP POP POP POP JUMP JUMPDEST PUSH0 DUP2 MLOAD SWAP1 POP SWAP2 SWAP1 POP JUMP JUMPDEST PUSH0 DUP3 DUP3 MSTORE PUSH1 0x20 DUP3 ADD SWAP1 POP SWAP3 SWAP2 POP POP JUMP JUMPDEST PUSH0 PUSH2 0x2B02 DUP3 PUSH2 0x2ADE JUMP JUMPDEST PUSH2 0x2B0C DUP2 DUP6 PUSH2 0x2AE8 JUMP JUMPDEST SWAP4 POP PUSH2 0x2B1C DUP2 DUP6 PUSH1 0x20 DUP7 ADD PUSH2 0x1D9B JUMP JUMPDEST PUSH2 0x2B25 DUP2 PUSH2 0x1DA9 JUMP JUMPDEST DUP5 ADD SWAP2 POP POP SWAP3 SWAP2 POP POP JUMP JUMPDEST PUSH0 PUSH1 0x80 DUP3 ADD SWAP1 POP PUSH2 0x2B43 PUSH0 DUP4 ADD DUP8 PUSH2 0x1E9F JUMP JUMPDEST PUSH2 0x2B50 PUSH1 0x20 DUP4 ADD DUP7 PUSH2 0x1E9F JUMP JUMPDEST PUSH2 0x2B5D PUSH1 0x40 DUP4 ADD DUP6 PUSH2 0x2194 JUMP JUMPDEST DUP2 DUP2 SUB PUSH1 0x60 DUP4 ADD MSTORE PUSH2 0x2B6F DUP2 DUP5 PUSH2 0x2AF8 JUMP JUMPDEST SWAP1 POP SWAP6 SWAP5 POP POP POP POP POP JUMP JUMPDEST PUSH0 DUP2 MLOAD SWAP1 POP PUSH2 0x2B88 DUP2 PUSH2 0x1CF9 JUMP JUMPDEST SWAP3 SWAP2 POP POP JUMP JUMPDEST PUSH0 PUSH1 0x20 DUP3 DUP5 SUB SLT ISZERO PUSH2 0x2BA3 JUMPI PUSH2 0x2BA2 PUSH2 0x1CC6 JUMP JUMPDEST JUMPDEST PUSH0 PUSH2 0x2BB0 DUP5 DUP3 DUP6 ADD PUSH2 0x2B7A JUMP JUMPDEST SWAP2 POP POP SWAP3 SWAP2 POP POP JUMP JUMPDEST PUSH0 DUP2 SWAP1 POP SWAP3 SWAP2 POP POP JUMP JUMPDEST PUSH0 PUSH2 0x2BCD DUP3 PUSH2 0x1D81 JUMP JUMPDEST PUSH2 0x2BD7 DUP2 DUP6 PUSH2 0x2BB9 JUMP JUMPDEST SWAP4 POP PUSH2 0x2BE7 DUP2 DUP6 PUSH1 0x20 DUP7 ADD PUSH2 0x1D9B JUMP JUMPDEST DUP1 DUP5 ADD SWAP2 POP POP SWAP3 SWAP2 POP POP JUMP JUMPDEST PUSH0 PUSH2 0x2BFE DUP3 DUP6 PUSH2 0x2BC3 JUMP JUMPDEST SWAP2 POP PUSH2 0x2C0A DUP3 DUP5 PUSH2 0x2BC3 JUMP JUMPDEST SWAP2 POP DUP2 SWAP1 POP SWAP4 SWAP3 POP POP POP JUMP INVALID LOG2 PUSH5 0x6970667358 0x22 SLT KECCAK256 0xD9 0xC4 0x4B MSTORE 0xF6 SWAP11 0xD3 DIV 0xF6 PUSH19 0xAA4C55274C8AD2DDD52401C23CAB1B65CEBFA9 0x4E INVALID PUSH6 0x64736F6C6343 STOP ADDMOD BYTE STOP CALLER "
				},
				"gasEstimates": {
					"creation": {
						"codeDepositCost": "2268000",
						"executionCost": "infinite",
						"totalCost": "infinite"
					},
					"external": {
						"addXP(uint256,uint256)": "infinite",
						"approve(address,uint256)": "infinite",
						"balanceOf(address)": "infinite",
						"batchMint(address,uint256[],string[])": "infinite",
						"burn(uint256)": "infinite",
						"getApproved(uint256)": "infinite",
						"isApprovedForAll(address,address)": "infinite",
						"name()": "infinite",
						"owner()": "2604",
						"ownerOf(uint256)": "infinite",
						"renounceOwnership()": "infinite",
						"royaltyInfo(uint256)": "infinite",
						"royaltyPercentage()": "2492",
						"safeMint(address,string,uint256,uint256)": "infinite",
						"safeTransferFrom(address,address,uint256)": "infinite",
						"safeTransferFrom(address,address,uint256,bytes)": "infinite",
						"setApprovalForAll(address,bool)": "infinite",
						"supportsInterface(bytes4)": "923",
						"symbol()": "infinite",
						"tokenURI(uint256)": "infinite",
						"tokenXP(uint256)": "infinite",
						"transferFrom(address,address,uint256)": "infinite",
						"transferOwnership(address)": "infinite"
					},
					"internal": {
						"generateTokenId(uint256,uint256)": "infinite"
					}
				},
				"methodIdentifiers": {
					"addXP(uint256,uint256)": "5146ea0e",
					"approve(address,uint256)": "095ea7b3",
					"balanceOf(address)": "70a08231",
					"batchMint(address,uint256[],string[])": "9caea80a",
					"burn(uint256)": "42966c68",
					"getApproved(uint256)": "081812fc",
					"isApprovedForAll(address,address)": "e985e9c5",
					"name()": "06fdde03",
					"owner()": "8da5cb5b",
					"ownerOf(uint256)": "6352211e",
					"renounceOwnership()": "715018a6",
					"royaltyInfo(uint256)": "cef6d368",
					"royaltyPercentage()": "8a71bb2d",
					"safeMint(address,string,uint256,uint256)": "2923ce11",
					"safeTransferFrom(address,address,uint256)": "42842e0e",
					"safeTransferFrom(address,address,uint256,bytes)": "b88d4fde",
					"setApprovalForAll(address,bool)": "a22cb465",
					"supportsInterface(bytes4)": "01ffc9a7",
					"symbol()": "95d89b41",
					"tokenURI(uint256)": "c87b56dd",
					"tokenXP(uint256)": "7aae3ccb",
					"transferFrom(address,address,uint256)": "23b872dd",
					"transferOwnership(address)": "f2fde38b"
				}
			},
			"storageLayout": {
				"storage": [
					{
						"astId": 369,
						"contract": "demo_erc721.sol:FancyNFT",
						"label": "_name",
						"offset": 0,
						"slot": "0",
						"type": "t_string_storage"
					},
					{
						"astId": 371,
						"contract": "demo_erc721.sol:FancyNFT",
						"label": "_symbol",
						"offset": 0,
						"slot": "1",
						"type": "t_string_storage"
					},
					{
						"astId": 375,
						"contract": "demo_erc721.sol:FancyNFT",
						"label": "_owners",
						"offset": 0,
						"slot": "2",
						"type": "t_mapping(t_uint256,t_address)"
					},
					{
						"astId": 379,
						"contract": "demo_erc721.sol:FancyNFT",
						"label": "_balances",
						"offset": 0,
						"slot": "3",
						"type": "t_mapping(t_address,t_uint256)"
					},
					{
						"astId": 383,
						"contract": "demo_erc721.sol:FancyNFT",
						"label": "_tokenApprovals",
						"offset": 0,
						"slot": "4",
						"type": "t_mapping(t_uint256,t_address)"
					},
					{
						"astId": 389,
						"contract": "demo_erc721.sol:FancyNFT",
						"label": "_operatorApprovals",
						"offset": 0,
						"slot": "5",
						"type": "t_mapping(t_address,t_mapping(t_address,t_bool))"
					},
					{
						"astId": 1537,
						"contract": "demo_erc721.sol:FancyNFT",
						"label": "_tokenURIs",
						"offset": 0,
						"slot": "6",
						"type": "t_mapping(t_uint256,t_string_storage)"
					},
					{
						"astId": 8,
						"contract": "demo_erc721.sol:FancyNFT",
						"label": "_owner",
						"offset": 0,
						"slot": "7",
						"type": "t_address"
					},
					{
						"astId": 3153,
						"contract": "demo_erc721.sol:FancyNFT",
						"label": "royaltyPercentage",
						"offset": 0,
						"slot": "8",
						"type": "t_uint256"
					},
					{
						"astId": 3157,
						"contract": "demo_erc721.sol:FancyNFT",
						"label": "tokenXP",
						"offset": 0,
						"slot": "9",
						"type": "t_mapping(t_uint256,t_uint256)"
					}
				],
				"types": {
					"t_address": {
						"encoding": "inplace",
						"label": "address",
						"numberOfBytes": "20"
					},
					"t_bool": {
						"encoding": "inplace",
						"label": "bool",
						"numberOfBytes": "1"
					},
					"t_mapping(t_address,t_bool)": {
						"encoding": "mapping",
						"key": "t_address",
						"label": "mapping(address => bool)",
						"numberOfBytes": "32",
						"value": "t_bool"
					},
					"t_mapping(t_address,t_mapping(t_address,t_bool))": {
						"encoding": "mapping",
						"key": "t_address",
						"label": "mapping(address => mapping(address => bool))",
						"numberOfBytes": "32",
						"value": "t_mapping(t_address,t_bool)"
					},
					"t_mapping(t_address,t_uint256)": {
						"encoding": "mapping",
						"key": "t_address",
						"label": "mapping(address => uint256)",
						"numberOfBytes": "32",
						"value": "t_uint256"
					},
					"t_mapping(t_uint256,t_address)": {
						"encoding": "mapping",
						"key": "t_uint256",
						"label": "mapping(uint256 => address)",
						"numberOfBytes": "32",
						"value": "t_address"
					},
					"t_mapping(t_uint256,t_string_storage)": {
						"encoding": "mapping",
						"key": "t_uint256",
						"label": "mapping(uint256 => string)",
						"numberOfBytes": "32",
						"value": "t_string_storage"
					},
					"t_mapping(t_uint256,t_uint256)": {
						"encoding": "mapping",
						"key": "t_uint256",
						"label": "mapping(uint256 => uint256)",
						"numberOfBytes": "32",
						"value": "t_uint256"
					},
					"t_string_storage": {
						"encoding": "bytes",
						"label": "string",
						"numberOfBytes": "32"
					},
					"t_uint256": {
						"encoding": "inplace",
						"label": "uint256",
						"numberOfBytes": "32"
					}
				}
			},
			"userdoc": {
				"kind": "user",
				"methods": {},
				"version": 1
			}
		}
	}
}